{"contracts/ConsciousnessDAO.sol":{"ConsciousnessDAO":{"abi":[{"inputs":[{"internalType":"address","name":"_gPforkToken","type":"address"},{"internalType":"address","name":"_identityContract","type":"address"},{"internalType":"address","name":"_subscriptionContract","type":"address"}],"stateMutability":"nonpayable","type":"constructor"},{"inputs":[],"name":"AccessControlBadConfirmation","type":"error"},{"inputs":[{"internalType":"address","name":"account","type":"address"},{"internalType":"bytes32","name":"neededRole","type":"bytes32"}],"name":"AccessControlUnauthorizedAccount","type":"error"},{"inputs":[],"name":"EnforcedPause","type":"error"},{"inputs":[],"name":"ExpectedPause","type":"error"},{"inputs":[],"name":"ReentrancyGuardReentrantCall","type":"error"},{"inputs":[{"internalType":"address","name":"token","type":"address"}],"name":"SafeERC20FailedOperation","type":"error"},{"anonymous":false,"inputs":[{"indexed":true,"internalType":"address","name":"delegator","type":"address"},{"indexed":true,"internalType":"address","name":"fromDelegate","type":"address"},{"indexed":true,"internalType":"address","name":"toDelegate","type":"address"}],"name":"DelegateChanged","type":"event"},{"anonymous":false,"inputs":[{"indexed":true,"internalType":"address","name":"guardian","type":"address"},{"indexed":false,"internalType":"string","name":"action","type":"string"}],"name":"EmergencyActionExecuted","type":"event"},{"anonymous":false,"inputs":[{"indexed":false,"internalType":"enum ConsciousnessDAO.ProposalCategory","name":"category","type":"uint8"},{"indexed":false,"internalType":"uint256","name":"quorum","type":"uint256"},{"indexed":false,"internalType":"uint256","name":"threshold","type":"uint256"}],"name":"GovernanceParametersUpdated","type":"event"},{"anonymous":false,"inputs":[{"indexed":false,"internalType":"address","name":"account","type":"address"}],"name":"Paused","type":"event"},{"anonymous":false,"inputs":[{"indexed":true,"internalType":"uint256","name":"proposalId","type":"uint256"},{"indexed":true,"internalType":"address","name":"canceller","type":"address"}],"name":"ProposalCancelled","type":"event"},{"anonymous":false,"inputs":[{"indexed":true,"internalType":"uint256","name":"proposalId","type":"uint256"},{"indexed":true,"internalType":"address","name":"proposer","type":"address"},{"indexed":false,"internalType":"enum ConsciousnessDAO.ProposalCategory","name":"category","type":"uint8"},{"indexed":false,"internalType":"string","name":"title","type":"string"}],"name":"ProposalCreated","type":"event"},{"anonymous":false,"inputs":[{"indexed":true,"internalType":"uint256","name":"proposalId","type":"uint256"},{"indexed":true,"internalType":"address","name":"executor","type":"address"}],"name":"ProposalExecuted","type":"event"},{"anonymous":false,"inputs":[{"indexed":true,"internalType":"bytes32","name":"role","type":"bytes32"},{"indexed":true,"internalType":"bytes32","name":"previousAdminRole","type":"bytes32"},{"indexed":true,"internalType":"bytes32","name":"newAdminRole","type":"bytes32"}],"name":"RoleAdminChanged","type":"event"},{"anonymous":false,"inputs":[{"indexed":true,"internalType":"bytes32","name":"role","type":"bytes32"},{"indexed":true,"internalType":"address","name":"account","type":"address"},{"indexed":true,"internalType":"address","name":"sender","type":"address"}],"name":"RoleGranted","type":"event"},{"anonymous":false,"inputs":[{"indexed":true,"internalType":"bytes32","name":"role","type":"bytes32"},{"indexed":true,"internalType":"address","name":"account","type":"address"},{"indexed":true,"internalType":"address","name":"sender","type":"address"}],"name":"RoleRevoked","type":"event"},{"anonymous":false,"inputs":[{"indexed":true,"internalType":"address","name":"token","type":"address"},{"indexed":false,"internalType":"uint256","name":"amount","type":"uint256"},{"indexed":true,"internalType":"address","name":"depositor","type":"address"}],"name":"TreasuryDeposit","type":"event"},{"anonymous":false,"inputs":[{"indexed":true,"internalType":"address","name":"token","type":"address"},{"indexed":false,"internalType":"uint256","name":"amount","type":"uint256"},{"indexed":true,"internalType":"address","name":"recipient","type":"address"},{"indexed":false,"internalType":"uint256","name":"proposalId","type":"uint256"}],"name":"TreasuryWithdrawal","type":"event"},{"anonymous":false,"inputs":[{"indexed":false,"internalType":"address","name":"account","type":"address"}],"name":"Unpaused","type":"event"},{"anonymous":false,"inputs":[{"indexed":true,"internalType":"uint256","name":"proposalId","type":"uint256"},{"indexed":true,"internalType":"address","name":"voter","type":"address"},{"indexed":false,"internalType":"enum ConsciousnessDAO.VoteType","name":"voteType","type":"uint8"},{"indexed":false,"internalType":"uint256","name":"votingPower","type":"uint256"},{"indexed":false,"internalType":"string","name":"reason","type":"string"}],"name":"VoteCast","type":"event"},{"inputs":[],"name":"BASIS_POINTS","outputs":[{"internalType":"uint256","name":"","type":"uint256"}],"stateMutability":"view","type":"function"},{"inputs":[],"name":"DEFAULT_ADMIN_ROLE","outputs":[{"internalType":"bytes32","name":"","type":"bytes32"}],"stateMutability":"view","type":"function"},{"inputs":[],"name":"EXECUTION_ADMIN_ROLE","outputs":[{"internalType":"bytes32","name":"","type":"bytes32"}],"stateMutability":"view","type":"function"},{"inputs":[],"name":"GUARDIAN_ROLE","outputs":[{"internalType":"bytes32","name":"","type":"bytes32"}],"stateMutability":"view","type":"function"},{"inputs":[],"name":"MAX_VOTING_PERIOD","outputs":[{"internalType":"uint256","name":"","type":"uint256"}],"stateMutability":"view","type":"function"},{"inputs":[],"name":"MIN_PROPOSAL_THRESHOLD","outputs":[{"internalType":"uint256","name":"","type":"uint256"}],"stateMutability":"view","type":"function"},{"inputs":[],"name":"MIN_QUORUM","outputs":[{"internalType":"uint256","name":"","type":"uint256"}],"stateMutability":"view","type":"function"},{"inputs":[],"name":"PROPOSAL_CREATOR_ROLE","outputs":[{"internalType":"bytes32","name":"","type":"bytes32"}],"stateMutability":"view","type":"function"},{"inputs":[],"name":"TREASURY_MANAGER_ROLE","outputs":[{"internalType":"bytes32","name":"","type":"bytes32"}],"stateMutability":"view","type":"function"},{"inputs":[],"name":"activeProposals","outputs":[{"internalType":"uint256","name":"","type":"uint256"}],"stateMutability":"view","type":"function"},{"inputs":[{"internalType":"uint256","name":"proposalId","type":"uint256"}],"name":"cancelProposal","outputs":[],"stateMutability":"nonpayable","type":"function"},{"inputs":[{"internalType":"uint256","name":"proposalId","type":"uint256"},{"internalType":"enum ConsciousnessDAO.VoteType","name":"voteType","type":"uint8"},{"internalType":"string","name":"reason","type":"string"}],"name":"castVote","outputs":[],"stateMutability":"nonpayable","type":"function"},{"inputs":[{"internalType":"enum ConsciousnessDAO.ProposalCategory","name":"","type":"uint8"}],"name":"categoryParameters","outputs":[{"internalType":"uint256","name":"proposalThreshold","type":"uint256"},{"internalType":"uint256","name":"votingDelay","type":"uint256"},{"internalType":"uint256","name":"votingPeriod","type":"uint256"},{"internalType":"uint256","name":"executionDelay","type":"uint256"},{"internalType":"uint256","name":"quorumPercentage","type":"uint256"},{"internalType":"uint256","name":"approvalThreshold","type":"uint256"},{"internalType":"uint256","name":"gracePeriod","type":"uint256"}],"stateMutability":"view","type":"function"},{"inputs":[{"internalType":"enum ConsciousnessDAO.ProposalCategory","name":"category","type":"uint8"},{"internalType":"string","name":"title","type":"string"},{"internalType":"string","name":"description","type":"string"},{"internalType":"string","name":"executionDetails","type":"string"},{"internalType":"address[]","name":"requestedTokens","type":"address[]"},{"internalType":"uint256[]","name":"requestedAmounts","type":"uint256[]"},{"internalType":"address[]","name":"recipients","type":"address[]"}],"name":"createProposal","outputs":[{"internalType":"uint256","name":"proposalId","type":"uint256"}],"stateMutability":"nonpayable","type":"function"},{"inputs":[],"name":"currentProposalId","outputs":[{"internalType":"uint256","name":"","type":"uint256"}],"stateMutability":"view","type":"function"},{"inputs":[{"internalType":"address","name":"delegatee","type":"address"}],"name":"delegate","outputs":[],"stateMutability":"nonpayable","type":"function"},{"inputs":[{"internalType":"address","name":"","type":"address"}],"name":"delegatedVotes","outputs":[{"internalType":"uint256","name":"","type":"uint256"}],"stateMutability":"view","type":"function"},{"inputs":[{"internalType":"address","name":"","type":"address"}],"name":"delegates","outputs":[{"internalType":"address","name":"","type":"address"}],"stateMutability":"view","type":"function"},{"inputs":[{"internalType":"address","name":"token","type":"address"},{"internalType":"uint256","name":"amount","type":"uint256"}],"name":"depositToTreasury","outputs":[],"stateMutability":"payable","type":"function"},{"inputs":[{"internalType":"address","name":"","type":"address"}],"name":"emergencyGuardians","outputs":[{"internalType":"bool","name":"","type":"bool"}],"stateMutability":"view","type":"function"},{"inputs":[{"internalType":"string","name":"reason","type":"string"}],"name":"emergencyPause","outputs":[],"stateMutability":"nonpayable","type":"function"},{"inputs":[],"name":"emergencyPaused","outputs":[{"internalType":"bool","name":"","type":"bool"}],"stateMutability":"view","type":"function"},{"inputs":[],"name":"emergencyUnpause","outputs":[],"stateMutability":"nonpayable","type":"function"},{"inputs":[{"internalType":"uint256","name":"proposalId","type":"uint256"}],"name":"executeProposal","outputs":[],"stateMutability":"nonpayable","type":"function"},{"inputs":[],"name":"executedProposals","outputs":[{"internalType":"uint256","name":"","type":"uint256"}],"stateMutability":"view","type":"function"},{"inputs":[],"name":"gPforkToken","outputs":[{"internalType":"contract IVotes","name":"","type":"address"}],"stateMutability":"view","type":"function"},{"inputs":[{"internalType":"uint256","name":"proposalId","type":"uint256"}],"name":"getProposal","outputs":[{"internalType":"address","name":"proposer","type":"address"},{"internalType":"enum ConsciousnessDAO.ProposalCategory","name":"category","type":"uint8"},{"internalType":"string","name":"title","type":"string"},{"internalType":"string","name":"description","type":"string"},{"internalType":"uint256","name":"startTime","type":"uint256"},{"internalType":"uint256","name":"endTime","type":"uint256"},{"internalType":"uint256","name":"forVotes","type":"uint256"},{"internalType":"uint256","name":"againstVotes","type":"uint256"},{"internalType":"uint256","name":"abstainVotes","type":"uint256"},{"internalType":"enum ConsciousnessDAO.ProposalStatus","name":"status","type":"uint8"},{"internalType":"bool","name":"isExecuted","type":"bool"}],"stateMutability":"view","type":"function"},{"inputs":[{"internalType":"bytes32","name":"role","type":"bytes32"}],"name":"getRoleAdmin","outputs":[{"internalType":"bytes32","name":"","type":"bytes32"}],"stateMutability":"view","type":"function"},{"inputs":[{"internalType":"uint256","name":"proposalId","type":"uint256"},{"internalType":"address","name":"voter","type":"address"}],"name":"getVote","outputs":[{"internalType":"enum ConsciousnessDAO.VoteType","name":"voteType","type":"uint8"},{"internalType":"uint256","name":"votingPower","type":"uint256"},{"internalType":"uint256","name":"timestamp","type":"uint256"},{"internalType":"string","name":"reason","type":"string"}],"stateMutability":"view","type":"function"},{"inputs":[{"internalType":"address","name":"account","type":"address"}],"name":"getVotingPower","outputs":[{"internalType":"uint256","name":"","type":"uint256"}],"stateMutability":"view","type":"function"},{"inputs":[{"internalType":"bytes32","name":"role","type":"bytes32"},{"internalType":"address","name":"account","type":"address"}],"name":"grantRole","outputs":[],"stateMutability":"nonpayable","type":"function"},{"inputs":[{"internalType":"uint256","name":"proposalId","type":"uint256"}],"name":"hasProposalPassed","outputs":[{"internalType":"bool","name":"passed","type":"bool"},{"internalType":"bool","name":"reachedQuorum","type":"bool"}],"stateMutability":"view","type":"function"},{"inputs":[{"internalType":"bytes32","name":"role","type":"bytes32"},{"internalType":"address","name":"account","type":"address"}],"name":"hasRole","outputs":[{"internalType":"bool","name":"","type":"bool"}],"stateMutability":"view","type":"function"},{"inputs":[],"name":"identityContract","outputs":[{"internalType":"contract IConsciousnessIdentity","name":"","type":"address"}],"stateMutability":"view","type":"function"},{"inputs":[],"name":"paused","outputs":[{"internalType":"bool","name":"","type":"bool"}],"stateMutability":"view","type":"function"},{"inputs":[{"internalType":"address","name":"","type":"address"}],"name":"proposalCounts","outputs":[{"internalType":"uint256","name":"","type":"uint256"}],"stateMutability":"view","type":"function"},{"inputs":[{"internalType":"uint256","name":"","type":"uint256"}],"name":"proposals","outputs":[{"internalType":"uint256","name":"id","type":"uint256"},{"internalType":"address","name":"proposer","type":"address"},{"internalType":"enum ConsciousnessDAO.ProposalCategory","name":"category","type":"uint8"},{"internalType":"string","name":"title","type":"string"},{"internalType":"string","name":"description","type":"string"},{"internalType":"string","name":"executionDetails","type":"string"},{"internalType":"uint256","name":"startTime","type":"uint256"},{"internalType":"uint256","name":"endTime","type":"uint256"},{"internalType":"uint256","name":"executionDelay","type":"uint256"},{"internalType":"uint256","name":"forVotes","type":"uint256"},{"internalType":"uint256","name":"againstVotes","type":"uint256"},{"internalType":"uint256","name":"abstainVotes","type":"uint256"},{"internalType":"uint256","name":"totalVotingPower","type":"uint256"},{"internalType":"uint256","name":"quorumRequired","type":"uint256"},{"internalType":"uint256","name":"approvalThreshold","type":"uint256"},{"internalType":"enum ConsciousnessDAO.ProposalStatus","name":"status","type":"uint8"},{"internalType":"bool","name":"isExecuted","type":"bool"},{"internalType":"uint256","name":"executedAt","type":"uint256"}],"stateMutability":"view","type":"function"},{"inputs":[{"internalType":"bytes32","name":"role","type":"bytes32"},{"internalType":"address","name":"callerConfirmation","type":"address"}],"name":"renounceRole","outputs":[],"stateMutability":"nonpayable","type":"function"},{"inputs":[{"internalType":"bytes32","name":"role","type":"bytes32"},{"internalType":"address","name":"account","type":"address"}],"name":"revokeRole","outputs":[],"stateMutability":"nonpayable","type":"function"},{"inputs":[],"name":"subscriptionContract","outputs":[{"internalType":"contract ILeadershipSubscription","name":"","type":"address"}],"stateMutability":"view","type":"function"},{"inputs":[{"internalType":"bytes4","name":"interfaceId","type":"bytes4"}],"name":"supportsInterface","outputs":[{"internalType":"bool","name":"","type":"bool"}],"stateMutability":"view","type":"function"},{"inputs":[],"name":"totalProposals","outputs":[{"internalType":"uint256","name":"","type":"uint256"}],"stateMutability":"view","type":"function"},{"inputs":[],"name":"totalTreasuryValue","outputs":[{"internalType":"uint256","name":"","type":"uint256"}],"stateMutability":"view","type":"function"},{"inputs":[{"internalType":"address","name":"","type":"address"}],"name":"treasuryAllocations","outputs":[{"internalType":"address","name":"token","type":"address"},{"internalType":"uint256","name":"totalAmount","type":"uint256"},{"internalType":"uint256","name":"allocatedAmount","type":"uint256"},{"internalType":"uint256","name":"spentAmount","type":"uint256"},{"internalType":"uint256","name":"lastAllocation","type":"uint256"},{"internalType":"bool","name":"isActive","type":"bool"}],"stateMutability":"view","type":"function"},{"inputs":[{"internalType":"address","name":"","type":"address"}],"name":"treasuryBalances","outputs":[{"internalType":"uint256","name":"","type":"uint256"}],"stateMutability":"view","type":"function"},{"inputs":[{"internalType":"enum ConsciousnessDAO.ProposalCategory","name":"category","type":"uint8"},{"internalType":"uint256","name":"newQuorum","type":"uint256"},{"internalType":"uint256","name":"newThreshold","type":"uint256"},{"internalType":"uint256","name":"newVotingPeriod","type":"uint256"}],"name":"updateGovernanceParameters","outputs":[],"stateMutability":"nonpayable","type":"function"},{"stateMutability":"payable","type":"receive"}],"evm":{"bytecode":{"linkReferences":{},"object":"608034620006e057601f62003b0c38819003918201601f19168301916001600160401b03831184841017620006e457808492606094604052833981010312620006e0576200004d8162000718565b906200006a6040620000626020840162000718565b920162000718565b6001805562000079336200072d565b5062000085336200079d565b5062000091336200083d565b506200009d33620008d7565b50620000a93362000971565b5060018060a01b0380928160018060a01b031995168560095416176009551683600a541617600a551690600b541617600b556001600c55620000ea620006f8565b69010f0cf064dd5920000081526202a30060208083018281526206978060408501908152606085019384526101f46080860190815261177060a0870190815262093a8060c088019081525f8052600590955295517f05b8ccbb9d4d8fb16ea74ce3c29a41f1b461fbdaff4714a0d9a8eb05499746bc5591517f05b8ccbb9d4d8fb16ea74ce3c29a41f1b461fbdaff4714a0d9a8eb05499746bd55517f05b8ccbb9d4d8fb16ea74ce3c29a41f1b461fbdaff4714a0d9a8eb05499746be5591517f05b8ccbb9d4d8fb16ea74ce3c29a41f1b461fbdaff4714a0d9a8eb05499746bf5590517f05b8ccbb9d4d8fb16ea74ce3c29a41f1b461fbdaff4714a0d9a8eb05499746c05590517f05b8ccbb9d4d8fb16ea74ce3c29a41f1b461fbdaff4714a0d9a8eb05499746c155517f05b8ccbb9d4d8fb16ea74ce3c29a41f1b461fbdaff4714a0d9a8eb05499746c25562000240620006f8565b69021e19e0c9bab2400000815262015180602080830182815262093a80604085018181526060860194855261032060808701908152611b5860a0880190815260c0880193845260015f52600590955295517f1471eb6eb2c5e789fc3de43f8ce62938c7d1836ec861730447e2ada8fd81017b5591517f1471eb6eb2c5e789fc3de43f8ce62938c7d1836ec861730447e2ada8fd81017c5590517f1471eb6eb2c5e789fc3de43f8ce62938c7d1836ec861730447e2ada8fd81017d5591517f1471eb6eb2c5e789fc3de43f8ce62938c7d1836ec861730447e2ada8fd81017e5591517f1471eb6eb2c5e789fc3de43f8ce62938c7d1836ec861730447e2ada8fd81017f5590517f1471eb6eb2c5e789fc3de43f8ce62938c7d1836ec861730447e2ada8fd81018055517f1471eb6eb2c5e789fc3de43f8ce62938c7d1836ec861730447e2ada8fd8101815562000394620006f8565b69043c33c193756480000081526203f480602080830182815262093a8060408501908152606085018481526103e860808701908152611d4c60a088019081526212750060c0890190815260035f52600590965296517fa9bc9a3a348c357ba16b37005d7e6b3236198c0e939f4af8c5f19b8deeb8ebc05592517fa9bc9a3a348c357ba16b37005d7e6b3236198c0e939f4af8c5f19b8deeb8ebc15590517fa9bc9a3a348c357ba16b37005d7e6b3236198c0e939f4af8c5f19b8deeb8ebc255517fa9bc9a3a348c357ba16b37005d7e6b3236198c0e939f4af8c5f19b8deeb8ebc355517fa9bc9a3a348c357ba16b37005d7e6b3236198c0e939f4af8c5f19b8deeb8ebc45591517fa9bc9a3a348c357ba16b37005d7e6b3236198c0e939f4af8c5f19b8deeb8ebc55590517fa9bc9a3a348c357ba16b37005d7e6b3236198c0e939f4af8c5f19b8deeb8ebc6556006620004ed620006f8565b690a968163f0a57b4000008152610e1060208083018281526201518060408501908152606085019384526105dc60808601908152611f4060a0870190815260c0870198895260075f908152600590955295517feddb6698d7c569ff62ff64f1f1492bf14a54594835ba0faac91f84b4f5d8146090815592517feddb6698d7c569ff62ff64f1f1492bf14a54594835ba0faac91f84b4f5d814615590517feddb6698d7c569ff62ff64f1f1492bf14a54594835ba0faac91f84b4f5d814625592517feddb6698d7c569ff62ff64f1f1492bf14a54594835ba0faac91f84b4f5d814635591517feddb6698d7c569ff62ff64f1f1492bf14a54594835ba0faac91f84b4f5d814645591517feddb6698d7c569ff62ff64f1f1492bf14a54594835ba0faac91f84b4f5d8146555925191909201555b600881106200063857604051613094908162000a388239f35b806200064660019262000a0b565b541562000655575b016200061f565b6200065f620006f8565b686c6b935b8bbd400000815260066020820162015180815260408301620697808152606084016202a30081526080850190610190825260a086019261157c845260c087019462093a808652620006b58962000a0b565b975188555189880155516002870155516003860155516004850155516005840155519101556200064e565b5f80fd5b634e487b7160e01b5f52604160045260245ffd5b6040519060e082016001600160401b03811183821017620006e457604052565b51906001600160a01b0382168203620006e057565b6001600160a01b03165f8181525f8051602062003aec833981519152602052604090205460ff1662000798575f8181525f8051602062003aec83398151915260205260408120805460ff191660011790553391905f8051602062003acc8339815191528180a4600190565b505f90565b6001600160a01b03165f8181527f45f124abc56411fa20fb79132d4e5e0dad891ecf0313a820e14c2799f454ad5b60205260409020547f8a21e8fdae6c23863f7de5307e2e7162c88dab602a41610addb5f1505d259398919060ff166200083757815f525f60205260405f20815f5260205260405f20600160ff1982541617905533915f8051602062003acc8339815191525f80a4600190565b50505f90565b6001600160a01b03165f8181527f5b444936b1af04ffee1fe3046e0c1ce51d425198d231b995f86357e304f1220860205260409020547fede9dcdb0ce99dc7cec9c7be9246ad08b37853683ad91569c187b647ddf5e21c919060ff166200083757815f525f60205260405f20815f5260205260405f20600160ff1982541617905533915f8051602062003acc8339815191525f80a4600190565b6001600160a01b03165f8181527f5c3ea6aeed9b1de45deb786d0243e8726cd5b5159e190742eb24882eaca4fdf360205260409020547f61f23db393d1560fae139614649b1ceca7eb252178f9956111accc9d1fdfd508919060ff166200083757815f525f60205260405f20815f5260205260405f20600160ff1982541617905533915f8051602062003acc8339815191525f80a4600190565b6001600160a01b03165f8181527f8a40f0b47fdc2a0ce293b772acfc7508c8315a4d462786c1adc3a56f92ca2d0560205260409020547f55435dd261a4b9b3364963f7738a7a662ad9c84396d64be3365284bb7f0a5041919060ff166200083757815f525f60205260405f20815f5260205260405f20600160ff1982541617905533915f8051602062003acc8339815191525f80a4600190565b600881101562000a23575f52600560205260405f2090565b634e487b7160e01b5f52602160045260245ffdfe60a0604052600436101561006f575b3615610018575f80fd5b5f8052601060205260405f2061002f348254612b88565b905561003d34601154612b88565b6011556040513481525f7fb906cc5fba109fdcd8c55ad082c1408b0cc5f0a7fa925bd9424f47816bafaf1860203393a3005b5f3560e01c8063013cf08b1461273857806301ffc9a7146126e25780630d61b5191461229d578063109c3d27146122805780631156e12614612248578063156e101e14611fd657806315b3958e14611f9c5780631d6465ec14611f2a578063248a9ca314611efe57806324ea54f414611ec457806327c830a914611ea25780632e5b86a014611e7a5780632f2ff15d14611e3e57806336568abe14611df7578063435e866814611dba578063470b76221461187b5780634a4e3bd51461180a578063587cde1e146117d15780635c19a95c1461165f5780635c975abb1461163d5780635f3ad709146116215780636414b6a1146114c257806367031bae1461149a57806369e2d90d14611472578063707c730514610b96578063791f5d2314610b735780637efa748114610b3b5780638abb1f2f146109ae57806391d1485414610966578063a217fddf1461094c578063a64e024a1461092f578063a78d80fc14610912578063ab6d2055146108d8578063bb4d4436146108ad578063bc3f931f146107a6578063c7f758a8146106a3578063cf5b4fd514610591578063d0418dbc1461051a578063d364d4d4146104e2578063d547741f146104a4578063d8a11dc214610487578063e0a8f6f514610301578063e1f1c4a7146102e5578063e85507de146102c8578063ebdf690f1461028e5763feac729d0361000e573461028a575f36600319011261028a576020600c54604051908152f35b5f80fd5b3461028a575f36600319011261028a5760206040517fede9dcdb0ce99dc7cec9c7be9246ad08b37853683ad91569c187b647ddf5e21c8152f35b3461028a575f36600319011261028a576020601154604051908152f35b3461028a575f36600319011261028a5760206040516127108152f35b3461028a5760208060031936011261028a57600435908115158061047c575b61032990612b46565b815f526003815260405f20600e81019182549160ff8316600781101561046857801590811561045d575b501561040757600101546001600160a01b0316331480156103ea575b156103a6575060ff1916600617905533907f74c34a008ce735d9fcf0bd03a9b238d212ad4c441c020661f4ffbb6442645b855f80a3005b6064906040519062461bcd60e51b82526004820152601860248201527f4e6f7420617574686f72697a656420746f2063616e63656c00000000000000006044820152fd5b505f80525f815260405f20335f52815260ff60405f20541661036f565b60405162461bcd60e51b815260048101839052602860248201527f43616e6e6f742063616e63656c2070726f706f73616c20696e2063757272656e604482015267742073746174757360c01b6064820152608490fd5b600191501486610353565b634e487b7160e01b5f52602160045260245ffd5b50600c548210610320565b3461028a575f36600319011261028a576020600f54604051908152f35b3461028a57604036600319011261028a576104e06004356104c3612a24565b90805f525f6020526104db600160405f200154612c95565b612d32565b005b3461028a57602036600319011261028a576001600160a01b03610503612a0e565b165f526007602052602060405f2054604051908152f35b3461028a57602036600319011261028a5760c06001600160a01b038061053e612a0e565b165f52600660205260405f209081541690600181015490600281015460038201549060ff6005600485015494015416936040519586526020860152604085015260608401526080830152151560a0820152f35b3461028a5760208060031936011261028a576004356001600160401b03811161028a576105c2903690600401612a6c565b7f55435dd261a4b9b3364963f7738a7a662ad9c84396d64be3365284bb7f0a5041805f525f835260405f20335f52835260ff60405f2054161561068557506106807ff6baaa6e2f87b0b99edbd0b24fd324fa2b4894a56ebfcac45e46f2402274721091600160ff198181601254161760125561063c612da4565b60025416176002557f62e78cea01bee320cd4e420270b5ea74000d11b0c9f74754ebdbfc544b05a25884604051338152a160405191829185835233958301906129c3565b0390a2005b6044906040519063e2517d3f60e01b82523360048301526024820152fd5b3461028a57602036600319011261028a576004358015158061079b575b6106c990612b46565b5f52600360205260405f20604060018201549160ff60058201549160068101546008820154600983015490600a84015492610760600e8601549561075261071e600361071760028501612914565b9301612914565b916107488c519d8e9d8e61016093849360018060a01b03811683528f602084019160a01c166129b6565b01528c01906129c3565b908a820360608c01526129c3565b96608089015260a088015260c087015260e086015261010085015261078b6101208501838316612a01565b60081c1615156101408301520390f35b50600c5481106106c0565b3461028a57604036600319011261028a576004356107c2612a24565b811515806108a2575b6107d490612b46565b815f5260209060038252601460405f20019060018060a01b031690815f52825260ff60405f205416156108685761084b925f5260038252601360405f2001905f52815261086460405f209160ff835460a01c1692600181015461083e600360028401549301612914565b9260405196878097612b39565b85015260408401526080606084015260808301906129c3565b0390f35b60405162461bcd60e51b8152600481018390526012602482015271155cd95c881a185cc81b9bdd081d9bdd195960721b6044820152606490fd5b50600c5482106107cb565b3461028a57602036600319011261028a5760206108d06108cb612a0e565b612dc2565b604051908152f35b3461028a575f36600319011261028a5760206040517f61f23db393d1560fae139614649b1ceca7eb252178f9956111accc9d1fdfd5088152f35b3461028a575f36600319011261028a576020600d54604051908152f35b3461028a575f36600319011261028a57602060405162093a808152f35b3461028a575f36600319011261028a5760206040515f8152f35b3461028a57604036600319011261028a5761097f612a24565b6004355f525f60205260405f209060018060a01b03165f52602052602060ff60405f2054166040519015158152f35b3461028a57608036600319011261028a57600435600881101561028a5760243590606435906044356109de612c3f565b61012c84101580610b2f575b15610af95761138881101580610aed575b15610ab4576201518083101580610aa7575b15610a6a577f328dd84e329b46781e3daf9015cb6414710a34ddb3ebce5e6f65f07b684a0032936060936002610a4285612a3a565b8360048201558460058201550155610a5d60405180946129b6565b60208301526040820152a1005b60405162461bcd60e51b8152602060048201526015602482015274125b9d985b1a59081d9bdd1a5b99c81c195c9a5bd9605a1b6044820152606490fd5b5062093a80831115610a0d565b60405162461bcd60e51b8152602060048201526011602482015270125b9d985b1a59081d1a1c995cda1bdb19607a1b6044820152606490fd5b506123288111156109fb565b60405162461bcd60e51b815260206004820152600e60248201526d496e76616c69642071756f72756d60901b6044820152606490fd5b506113888411156109ea565b3461028a57602036600319011261028a576001600160a01b03610b5c612a0e565b165f526010602052602060405f2054604051908152f35b3461028a575f36600319011261028a576020604051683635c9adc5dea000008152f35b3461028a5760e036600319011261028a576008600435101561028a576024356001600160401b03811161028a57610bd1903690600401612a6c565b6044356001600160401b03811161028a57610bf0903690600401612a6c565b60649182356001600160401b03811161028a57610c11903690600401612a6c565b916084356001600160401b03811161028a57610c31903690600401612ac9565b6001600160401b0360a4351161028a5736602360a43501121561028a5760a4356004013590610c5f82612ab2565b90610c6d60405192836128f3565b8282526020820192833660248360051b60a43501011161028a57602460a43501905b60248360051b60a435010182106114625750505060c4356001600160401b03811161028a57610cc2903690600401612ac9565b96610ccb612da4565b610cd760043533612edb565b1561140b57855180151590816113ff575b50156113c65784511561138d57815183510361134b57815188510361130957815161126c575b50600c5495610d1c87612ba1565b600c555f8781526003602052604090208781556001810180546001600160a81b0319163360ff60a01b19161760043560a01b60ff60a01b1617905586519095906001600160401b03811161101c57610d7760028801546128bb565b601f8111611239575b50806020601f82116001146111cf575f916111c4575b508160011b915f199060031b1c19161760028701555b8051906001600160401b03821161101c578190610dcc60038901546128bb565b601f8111611191575b50602090601f8311600114611123575f92611118575b50508160011b915f199060031b1c19161760038601555b8051906001600160401b03821161101c578190610e2260048801546128bb565b601f81116110da575b50602090601f831160011461106c575f92611061575b50508160011b915f199060031b1c19161760048501555b6005610e65600435612a3a565b610e86610e76600183015442612b88565b8084890155600283015490612b88565b6006870155600381015460078701556004810154600c8701550154600d850155600e8401805460ff191690558051906001600160401b03821161101c57600160401b821161101c5760108501805483825560209291610ee6918591612bd2565b01601085015f5260205f205f5b8381106110445750505050601183019051916001600160401b03831161101c57600160401b831161101c57610f2d83835481855584612bd2565b905f5260205f205f5b8381106110305750505050601201928051906001600160401b03821161101c57600160401b821161101c57602090610f7383875481895588612bd2565b01935f5260205f205f5b828110610fff5760208585610f93600d54612ba1565b600d55335f526004835260405f20610fab8154612ba1565b9055817f8356bc5007056a642094f44da4e8e22469db3e8a36b5811c0f91f735f1491c79604051610fde816004356129b6565b60408682015280610ff4339560408301906129c3565b0390a3604051908152f35b85516001600160a01b031681830155602090950194600101610f7d565b634e487b7160e01b5f52604160045260245ffd5b600190602084519401938184015501610f36565b82516001600160a01b031681830155602090920191600101610ef3565b015190508980610e41565b9250600487015f5260205f20905f935b601f19841685106110bf576001945083601f198116106110a7575b505050811b016004850155610e58565b01515f1960f88460031b161c19169055898080611097565b8181015183556020948501946001909301929091019061107c565b61110890600489015f5260205f20601f850160051c8101916020861061110e575b601f0160051c0190612baf565b8a610e2b565b90915081906110fb565b015190508a80610deb565b9250600388015f5260205f20905f935b601f1984168510611176576001945083601f1981161061115e575b505050811b016003860155610e02565b01515f1960f88460031b161c191690558a808061114e565b81810151835560209485019460019093019290910190611133565b6111be9060038a015f5260205f20601f850160051c8101916020861061110e57601f0160051c0190612baf565b8b610dd5565b90508801518b610d96565b9150600288015f5260205f205f925b8a601f198416851061122257506001935082601f1981161061120a575b5050811b016002870155610dac565b8a01515f1960f88460031b161c191690558b806111fb565b8101518255602093840193600190920191016111de565b61126690600289015f5260205f20601f840160051c8101916020851061110e57601f0160051c0190612baf565b8a610d80565b969295919490935f5b85518110156112fa576001600160a01b036112908288612ff0565b51165f52601060205260405f20546112a88289612ff0565b51116112b657600101611275565b60405162461bcd60e51b815260206004820152601b60248201527f496e73756666696369656e742074726561737572792066756e6473000000000060448201528990fd5b50939094919592965087610d0e565b60405162461bcd60e51b815260206004820152601e60248201527f546f6b656e2f726563697069656e74206172726179206d69736d6174636800006044820152fd5b60405162461bcd60e51b815260206004820152601b60248201527f546f6b656e2f616d6f756e74206172726179206d69736d6174636800000000006044820152fd5b60405162461bcd60e51b815260206004820152601460248201527311195cd8dc9a5c1d1a5bdb881c995c5d5a5c995960621b6044820152fd5b60405162461bcd60e51b8152602060048201526014602482015273092dcecc2d8d2c840e8d2e8d8ca40d8cadccee8d60631b6044820152fd5b60c89150111589610ce8565b6084906919481c1c9bdc1bdcd85b60b21b6040519162461bcd60e51b835260206004840152602a60248401527f496e73756666696369656e742070726976696c6567657320746f2063726561746044840152820152fd5b8135815260209182019101610c8f565b3461028a575f36600319011261028a57600b546040516001600160a01b039091168152602090f35b3461028a575f36600319011261028a57600a546040516001600160a01b039091168152602090f35b3461028a5760208060031936011261028a5760043580151580611616575b6114e990612b46565b5f526003815260405f209060048160018060a01b0360095416604051928380926318160ddd60e01b82525afa90811561160b575f916115de575b50600c830154908181029181830414901517156115bc57612710809104600b8401541015906008840154600985015461155c8183612b88565b156115d0578282029282840414821517156115bc5761157a91612b88565b80156115a857600d604095015491041015915b8261159f575b83519215158352820152f35b91508091611593565b634e487b7160e01b5f52601260045260245ffd5b634e487b7160e01b5f52601160045260245ffd5b505050604092505f9161158d565b90508181813d8311611604575b6115f581836128f3565b8101031261028a575183611523565b503d6115eb565b6040513d5f823e3d90fd5b50600c5481106114e0565b3461028a575f36600319011261028a57602060405161012c8152f35b3461028a575f36600319011261028a57602060ff600254166040519015158152f35b3461028a5760208060031936011261028a57611679612a0e565b6001600160a01b039081169133831461178d57602490335f5260088152808360405f2054169360095416604051938480926309ab24eb60e41b82523360048301525afa91821561160b575f9261175e575b5082611741575b335f526008815260405f20846bffffffffffffffffffffffff60a01b82541617905583611722575b5050337f3134e8a2e6d97e929a7e54011ea5485d7d196dd5f0ba4d4ef95803e8e3fc257f5f80a4005b600790845f525261173860405f20918254612b88565b905582806116f9565b825f526007815260405f20611757838254612bc5565b90556116d1565b9080925081813d8311611786575b61177681836128f3565b8101031261028a575190846116ca565b503d61176c565b6064906040519062461bcd60e51b82526004820152601760248201527f43616e6e6f742064656c656761746520746f2073656c660000000000000000006044820152fd5b3461028a57602036600319011261028a5760206001600160a01b03806117f5612a0e565b165f526008825260405f205416604051908152f35b3461028a575f36600319011261028a57611822612c3f565b60ff19806012541660125560025460ff81161561186957166002557f5db9ee0a495bf2e6ff9c91a7834c1ba4fdd244a5e8aa4e537bd38aeae4b073aa6020604051338152a1005b604051638dfc202b60e01b8152600490fd5b3461028a57606036600319011261028a576003602435101561028a576044356001600160401b03811161028a576118b6903690600401612a6c565b6118be612da4565b600435151580611dad575b6118d290612b46565b6004355f52600360205260405f20600e918282019081549160ff8316926007841015938461046857600181148015611d93575b15611d4e5760068601544211611d1357335f526014860160205260ff60405f205416611cce5761193433612dc2565b948515611c97576104685715611c7a575b505060405160a081018181106001600160401b0382111761101c57604052338152602081016024358152836040830152426060830152826080830152335f526013850160205260405f209160018060a01b0381511691835490519260038410156104685760809360ff60a01b9060a01b16916affffffffffffffffffffff60a81b1617178355604081015160018401556060810151600284015501518051906001600160401b03821161101c576119ff60038401546128bb565b601f8111611c47575b50602090601f8311600114611bdc57600392915f9183611bd1575b50508160011b915f1990841b1c1916179101555b335f526014830160205260405f209260ff1993600185825416179055600b8101611a62848254612b88565b9055602435611ba457600801611a79838254612b88565b90555b60405191611a8c83602435612b39565b6020830152606060408301527f761cce3a1af5d9cfc0d57222f605ce4bd2be345f0ad9ebb7b83a84a91a0c2014339280611acd6004359460608301906129c3565b0390a36004355f52600360205260405f2060068101544211611aeb57005b604051636414b6a160e01b81526004356004820152604081602481305afa90811561160b5784915f915f91611b5a575b5081611b52575b5015611b425760029101918254161790555b611b3e8154612b95565b9055005b6003910191825416179055611b34565b905085611b22565b925050506040813d604011611b9c575b81611b77604093836128f3565b8101031261028a5780611b966020611b8f8794612ece565b9201612ece565b86611b1b565b3d9150611b6a565b602435600103611bc357600901611bbc838254612b88565b9055611a7c565b600a01611bbc838254612b88565b015190508880611a23565b90600384015f5260205f20915f5b601f1985168110611c2f5750918391600193600395601f19811610611c18575b505050811b01910155611a37565b01515f1983861b60f8161c19169055888080611c0a565b91926020600181928685015181550194019201611bea565b611c7490600385015f5260205f20601f850160051c8101916020861061110e57601f0160051c0190612baf565b87611a08565b60ff191660011790558354611c8e90612ba1565b84558480611945565b60405162461bcd60e51b815260206004820152600f60248201526e2737903b37ba34b733903837bbb2b960891b6044820152606490fd5b60405162461bcd60e51b815260206004820152601e60248201527f416c726561647920766f746564206f6e20746869732070726f706f73616c00006044820152606490fd5b60405162461bcd60e51b8152602060048201526013602482015272159bdd1a5b99c81c195c9a5bd908195b991959606a1b6044820152606490fd5b60405162461bcd60e51b815260206004820152601e60248201527f50726f706f73616c206e6f742061637469766520666f7220766f74696e6700006044820152606490fd5b505f94508015801561190557506005860154421015611905565b50600c54600435106118c9565b3461028a57602036600319011261028a576001600160a01b03611ddb612a0e565b165f526013602052602060ff60405f2054166040519015158152f35b3461028a57604036600319011261028a57611e10612a24565b336001600160a01b03821603611e2c576104e090600435612d32565b60405163334bd91960e11b8152600490fd5b3461028a57604036600319011261028a576104e0600435611e5d612a24565b90805f525f602052611e75600160405f200154612c95565b612cb6565b3461028a575f36600319011261028a576009546040516001600160a01b039091168152602090f35b3461028a575f36600319011261028a57602060ff601254166040519015158152f35b3461028a575f36600319011261028a5760206040517f55435dd261a4b9b3364963f7738a7a662ad9c84396d64be3365284bb7f0a50418152f35b3461028a57602036600319011261028a576004355f525f6020526020600160405f200154604051908152f35b3461028a57602036600319011261028a57600435600881101561028a57611f5260e091612a3a565b805490600181015490600281015460038201546004830154916006600585015494015494604051968752602087015260408601526060850152608084015260a083015260c0820152f35b3461028a575f36600319011261028a5760206040517f8a21e8fdae6c23863f7de5307e2e7162c88dab602a41610addb5f1505d2593988152f35b604036600319011261028a57611fea612a0e565b6024803591611ff7612bf3565b6001600160a01b0390811691826121855783340361214b575f8052601060205260405f20612026858254612b88565b90555b825f526006602052600160405f200184815480155f14612136575050506040519060c08201908282106001600160401b0383111761212357509060059160405283815260208101858152604082015f815260608301905f8252608084019242845260a085019660018852885f52600660205260405f209551166bffffffffffffffffffffffff60a01b865416178555516001850155516002840155516003830155516004820155019051151560ff801983541691161790555b6120ee82601154612b88565b6011556040519182527fb906cc5fba109fdcd8c55ad082c1408b0cc5f0a7fa925bd9424f47816bafaf1860203393a360018055005b634e487b7160e01b5f9081526041600452fd5b909193506121449250612b88565b90556120e2565b60649060136040519162461bcd60e51b8352602060048401528201527208aa89040c2dadeeadce840dad2e6dac2e8c6d606b1b6044820152fd5b8315612204576040516323b872dd60e01b602082015233828201523060448201526064808201869052815260a081016001600160401b038111828210176121f1576040526121d39084613004565b825f52601060205260405f206121ea858254612b88565b9055612029565b82634e487b7160e01b5f5260416004525ffd5b60649060176040519162461bcd60e51b8352602060048401528201527f416d6f756e74206d75737420626520706f7369746976650000000000000000006044820152fd5b3461028a57602036600319011261028a576001600160a01b03612269612a0e565b165f526004602052602060405f2054604051908152f35b3461028a575f36600319011261028a576020600e54604051908152f35b3461028a57602036600319011261028a576122b6612bf3565b6004351515806126d5575b6122ca90612b46565b6004355f52600360205260405f20600e8101805460ff81166007811015610468576002036126975760ff8160081c166126525760068301546007840154906123128282612b88565b421061260d576123429161232591612b88565b600661233a60ff600188015460a01c16612a3a565b015490612b88565b42116125c85742600f84015561ffff1916610104179055600e5461236590612b95565b600e55612373600f54612ba1565b600f5560108101546123ae575b336004357f9c85b616f29fca57a17eafe71cf9ff82ffef41766e2cf01ea7f8f7878dd3ec245f80a360018055005b5f5b60108201548110156125c0576123c98160108401612c16565b90546001600160a01b03929160031b1c82166123e88260118601612c16565b90549060031b1c926123fd8360128701612c16565b90549060031b1c1690805f5260106020528360405f20541061257b57805f52601060205260405f20612430858254612bc5565b9055805f526006602052600360405f200161244c858254612b88565b905580612503575f80808087865af13d156124fe573d61246b81612a51565b9061247960405192836128f3565b81525f60203d92013e5b156124c3577fbeac931cc17d12002dee936e693414bb87e4771b6b15e738fac1ab7fa7b17e5160406001955b81519081526004356020820152a3016123b0565b60405162461bcd60e51b8152602060048201526013602482015272115512081d1c985b9cd9995c8819985a5b1959606a1b6044820152606490fd5b612483565b60409493945163a9059cbb60e01b6020820152602483818301526044878184015282528160808101106001600160401b0360808401111761212357506040600195966125768360807fbeac931cc17d12002dee936e693414bb87e4771b6b15e738fac1ab7fa7b17e519501845285613004565b6124af565b60405162461bcd60e51b815260206004820152601d60248201527f496e73756666696369656e742074726561737572792062616c616e63650000006044820152606490fd5b505080612380565b60405162461bcd60e51b815260206004820152601e60248201527f457865637574696f6e20677261636520706572696f64206578706972656400006044820152606490fd5b60405162461bcd60e51b815260206004820152601760248201527f457865637574696f6e2064656c6179206e6f74206d65740000000000000000006044820152606490fd5b60405162461bcd60e51b815260206004820152601960248201527f50726f706f73616c20616c7265616479206578656375746564000000000000006044820152606490fd5b60405162461bcd60e51b8152602060048201526016602482015275141c9bdc1bdcd85b081b9bdd081cdd58d8d95959195960521b6044820152606490fd5b50600c54600435106122c1565b3461028a57602036600319011261028a5760043563ffffffff60e01b811680910361028a57602090637965db0b60e01b8114908115612727575b506040519015158152f35b6301ffc9a760e01b1490508261271c565b3461028a57602036600319011261028a576004355f52600360205260405f208054906001810154906002810161276d90612914565b9261277a60038301612914565b9361278760048401612914565b9460058401549560068501546007860154600887015490600988015492600a89015494600b8a015496600c8b015498600d8c01549a600e8d01549c600f01549d6040516080526102409160805152600160a01b600190038116608051602001526080516040019060a01c60ff16906127fe916129b6565b806080516060015260805101612813916129c3565b608051810360805160800152612828916129c3565b608051810360805160a0015261283d916129c3565b9a60805160c0015260805160e00152608051610100015260805161012001526080516101400152608051610160015260805161018001526080516101a001526080516101c001526080516101e00160ff82169061289991612a01565b60081c60ff161515608051610200015260805161022001526080519003608051f35b90600182811c921680156128e9575b60208310146128d557565b634e487b7160e01b5f52602260045260245ffd5b91607f16916128ca565b90601f801991011681019081106001600160401b0382111761101c57604052565b9060405191825f8254612926816128bb565b908184526020946001916001811690815f146129945750600114612956575b505050612954925003836128f3565b565b5f90815285812095935091905b81831061297c57505061295493508201015f8080612945565b85548884018501529485019487945091830191612963565b9250505061295494925060ff191682840152151560051b8201015f8080612945565b9060088210156104685752565b91908251928382525f5b8481106129ed575050825f602080949584010152601f8019910116010190565b6020818301810151848301820152016129cd565b9060078210156104685752565b600435906001600160a01b038216820361028a57565b602435906001600160a01b038216820361028a57565b6008811015610468575f52600560205260405f2090565b6001600160401b03811161101c57601f01601f191660200190565b81601f8201121561028a57803590612a8382612a51565b92612a9160405194856128f3565b8284526020838301011161028a57815f926020809301838601378301015290565b6001600160401b03811161101c5760051b60200190565b9080601f8301121561028a576020908235612ae381612ab2565b93612af160405195866128f3565b81855260208086019260051b82010192831161028a57602001905b828210612b1a575050505090565b81356001600160a01b038116810361028a578152908301908301612b0c565b9060038210156104685752565b15612b4d57565b60405162461bcd60e51b8152602060048201526013602482015272125b9d985b1a59081c1c9bdc1bdcd85b081251606a1b6044820152606490fd5b919082018092116115bc57565b80156115bc575f190190565b5f1981146115bc5760010190565b818110612bba575050565b5f8155600101612baf565b919082039182116115bc57565b91818110612bdf57505050565b612954925f5260205f209182019101612baf565b600260015414612c04576002600155565b604051633ee5aeb560e01b8152600490fd5b8054821015612c2b575f5260205f2001905f90565b634e487b7160e01b5f52603260045260245ffd5b335f9081527fad3228b676f7d3cd4284a5443f17f1962b36e491b30a40b2405849e597ba5fb5602052604090205460ff1615612c7757565b60405163e2517d3f60e01b81523360048201525f6024820152604490fd5b805f525f60205260405f20335f5260205260ff60405f205416156106855750565b90815f525f60205260405f209060018060a01b031690815f5260205260ff60405f205416155f14612d2c57815f525f60205260405f20815f5260205260405f20600160ff1982541617905533917f2f8788117e7eff1d82e926ec794901d17c78024a50270940304540a733656f0d5f80a4600190565b50505f90565b90815f525f60205260405f209060018060a01b031690815f5260205260ff60405f2054165f14612d2c57815f525f60205260405f20815f5260205260405f2060ff19815416905533917ff6391f5c32d9c69d2a47ea670b442974b53935d1edc7fd64eb21e047a839171b5f80a4600190565b60ff60025416612db057565b60405163d93c066560e01b8152600490fd5b6009546040516309ab24eb60e41b81526001600160a01b039283166004820181905290916020919082908490602490829088165afa92831561160b575f93612e9d575b5081602494600b541660405195868092635da6a21b60e11b82528560048301525afa93841561160b575f94612e6b575b50906007915f525260405f2054906064830292808404606414901517156115bc57612e6892612e6391612b88565b612b88565b90565b918091945082813d8311612e96575b612e8481836128f3565b8101031261028a579051926007612e35565b503d612e7a565b9392508184813d8311612ec7575b612eb581836128f3565b8101031261028a579251919281612e05565b503d612eab565b5190811515820361028a57565b60018060a01b0380928160095416926040519485916309ab24eb60e41b8352169384600483015281602460209788935afa90811561160b575f91612fc3575b50612f2482612a3a565b5411612fbb576008811015806104685760018203612fb4575b61046857600614612f5057505050600190565b8290600b541691602460405180948193635da6a21b60e11b835260048301525afa91821561160b575f92612f86575b5050151590565b90809250813d8311612fad575b612f9d81836128f3565b8101031261028a57515f80612f7f565b503d612f93565b505f612f3d565b505050505f90565b90508481813d8311612fe9575b612fda81836128f3565b8101031261028a57515f612f1a565b503d612fd0565b8051821015612c2b5760209160051b010190565b905f602091828151910182855af11561160b575f513d61305557506001600160a01b0381163b155b6130335750565b604051635274afe760e01b81526001600160a01b039091166004820152602490fd5b6001141561302c56fea2646970667358221220ad148f0b9a2ec68b7996114cb4e4f92b629a5d555fc365028e16948e2e7b799764736f6c634300081800332f8788117e7eff1d82e926ec794901d17c78024a50270940304540a733656f0dad3228b676f7d3cd4284a5443f17f1962b36e491b30a40b2405849e597ba5fb5","opcodes":"PUSH1 0x80 CALLVALUE PUSH3 0x6E0 JUMPI PUSH1 0x1F PUSH3 0x3B0C CODESIZE DUP2 SWAP1 SUB SWAP2 DUP3 ADD PUSH1 0x1F NOT AND DUP4 ADD SWAP2 PUSH1 0x1 PUSH1 0x1 PUSH1 0x40 SHL SUB DUP4 GT DUP5 DUP5 LT OR PUSH3 0x6E4 JUMPI DUP1 DUP5 SWAP3 PUSH1 0x60 SWAP5 PUSH1 0x40 MSTORE DUP4 CODECOPY DUP2 ADD SUB SLT PUSH3 0x6E0 JUMPI PUSH3 0x4D DUP2 PUSH3 0x718 JUMP JUMPDEST SWAP1 PUSH3 0x6A PUSH1 0x40 PUSH3 0x62 PUSH1 0x20 DUP5 ADD PUSH3 0x718 JUMP JUMPDEST SWAP3 ADD PUSH3 0x718 JUMP JUMPDEST PUSH1 0x1 DUP1 SSTORE PUSH3 0x79 CALLER PUSH3 0x72D JUMP JUMPDEST POP PUSH3 0x85 CALLER PUSH3 0x79D JUMP JUMPDEST POP PUSH3 0x91 CALLER PUSH3 0x83D JUMP JUMPDEST POP PUSH3 0x9D CALLER PUSH3 0x8D7 JUMP JUMPDEST POP PUSH3 0xA9 CALLER PUSH3 0x971 JUMP JUMPDEST POP PUSH1 0x1 DUP1 PUSH1 0xA0 SHL SUB DUP1 SWAP3 DUP2 PUSH1 0x1 DUP1 PUSH1 0xA0 SHL SUB NOT SWAP6 AND DUP6 PUSH1 0x9 SLOAD AND OR PUSH1 0x9 SSTORE AND DUP4 PUSH1 0xA SLOAD AND OR PUSH1 0xA SSTORE AND SWAP1 PUSH1 0xB SLOAD AND OR PUSH1 0xB SSTORE PUSH1 0x1 PUSH1 0xC SSTORE PUSH3 0xEA PUSH3 0x6F8 JUMP JUMPDEST PUSH10 0x10F0CF064DD59200000 DUP2 MSTORE PUSH3 0x2A300 PUSH1 0x20 DUP1 DUP4 ADD DUP3 DUP2 MSTORE PUSH3 0x69780 PUSH1 0x40 DUP6 ADD SWAP1 DUP2 MSTORE PUSH1 0x60 DUP6 ADD SWAP4 DUP5 MSTORE PUSH2 0x1F4 PUSH1 0x80 DUP7 ADD SWAP1 DUP2 MSTORE PUSH2 0x1770 PUSH1 0xA0 DUP8 ADD SWAP1 DUP2 MSTORE PUSH3 0x93A80 PUSH1 0xC0 DUP9 ADD SWAP1 DUP2 MSTORE PUSH0 DUP1 MSTORE PUSH1 0x5 SWAP1 SWAP6 MSTORE SWAP6 MLOAD PUSH32 0x5B8CCBB9D4D8FB16EA74CE3C29A41F1B461FBDAFF4714A0D9A8EB05499746BC SSTORE SWAP2 MLOAD PUSH32 0x5B8CCBB9D4D8FB16EA74CE3C29A41F1B461FBDAFF4714A0D9A8EB05499746BD SSTORE MLOAD PUSH32 0x5B8CCBB9D4D8FB16EA74CE3C29A41F1B461FBDAFF4714A0D9A8EB05499746BE SSTORE SWAP2 MLOAD PUSH32 0x5B8CCBB9D4D8FB16EA74CE3C29A41F1B461FBDAFF4714A0D9A8EB05499746BF SSTORE SWAP1 MLOAD PUSH32 0x5B8CCBB9D4D8FB16EA74CE3C29A41F1B461FBDAFF4714A0D9A8EB05499746C0 SSTORE SWAP1 MLOAD PUSH32 0x5B8CCBB9D4D8FB16EA74CE3C29A41F1B461FBDAFF4714A0D9A8EB05499746C1 SSTORE MLOAD PUSH32 0x5B8CCBB9D4D8FB16EA74CE3C29A41F1B461FBDAFF4714A0D9A8EB05499746C2 SSTORE PUSH3 0x240 PUSH3 0x6F8 JUMP JUMPDEST PUSH10 0x21E19E0C9BAB2400000 DUP2 MSTORE PUSH3 0x15180 PUSH1 0x20 DUP1 DUP4 ADD DUP3 DUP2 MSTORE PUSH3 0x93A80 PUSH1 0x40 DUP6 ADD DUP2 DUP2 MSTORE PUSH1 0x60 DUP7 ADD SWAP5 DUP6 MSTORE PUSH2 0x320 PUSH1 0x80 DUP8 ADD SWAP1 DUP2 MSTORE PUSH2 0x1B58 PUSH1 0xA0 DUP9 ADD SWAP1 DUP2 MSTORE PUSH1 0xC0 DUP9 ADD SWAP4 DUP5 MSTORE PUSH1 0x1 PUSH0 MSTORE PUSH1 0x5 SWAP1 SWAP6 MSTORE SWAP6 MLOAD PUSH32 0x1471EB6EB2C5E789FC3DE43F8CE62938C7D1836EC861730447E2ADA8FD81017B SSTORE SWAP2 MLOAD PUSH32 0x1471EB6EB2C5E789FC3DE43F8CE62938C7D1836EC861730447E2ADA8FD81017C SSTORE SWAP1 MLOAD PUSH32 0x1471EB6EB2C5E789FC3DE43F8CE62938C7D1836EC861730447E2ADA8FD81017D SSTORE SWAP2 MLOAD PUSH32 0x1471EB6EB2C5E789FC3DE43F8CE62938C7D1836EC861730447E2ADA8FD81017E SSTORE SWAP2 MLOAD PUSH32 0x1471EB6EB2C5E789FC3DE43F8CE62938C7D1836EC861730447E2ADA8FD81017F SSTORE SWAP1 MLOAD PUSH32 0x1471EB6EB2C5E789FC3DE43F8CE62938C7D1836EC861730447E2ADA8FD810180 SSTORE MLOAD PUSH32 0x1471EB6EB2C5E789FC3DE43F8CE62938C7D1836EC861730447E2ADA8FD810181 SSTORE PUSH3 0x394 PUSH3 0x6F8 JUMP JUMPDEST PUSH10 0x43C33C1937564800000 DUP2 MSTORE PUSH3 0x3F480 PUSH1 0x20 DUP1 DUP4 ADD DUP3 DUP2 MSTORE PUSH3 0x93A80 PUSH1 0x40 DUP6 ADD SWAP1 DUP2 MSTORE PUSH1 0x60 DUP6 ADD DUP5 DUP2 MSTORE PUSH2 0x3E8 PUSH1 0x80 DUP8 ADD SWAP1 DUP2 MSTORE PUSH2 0x1D4C PUSH1 0xA0 DUP9 ADD SWAP1 DUP2 MSTORE PUSH3 0x127500 PUSH1 0xC0 DUP10 ADD SWAP1 DUP2 MSTORE PUSH1 0x3 PUSH0 MSTORE PUSH1 0x5 SWAP1 SWAP7 MSTORE SWAP7 MLOAD PUSH32 0xA9BC9A3A348C357BA16B37005D7E6B3236198C0E939F4AF8C5F19B8DEEB8EBC0 SSTORE SWAP3 MLOAD PUSH32 0xA9BC9A3A348C357BA16B37005D7E6B3236198C0E939F4AF8C5F19B8DEEB8EBC1 SSTORE SWAP1 MLOAD PUSH32 0xA9BC9A3A348C357BA16B37005D7E6B3236198C0E939F4AF8C5F19B8DEEB8EBC2 SSTORE MLOAD PUSH32 0xA9BC9A3A348C357BA16B37005D7E6B3236198C0E939F4AF8C5F19B8DEEB8EBC3 SSTORE MLOAD PUSH32 0xA9BC9A3A348C357BA16B37005D7E6B3236198C0E939F4AF8C5F19B8DEEB8EBC4 SSTORE SWAP2 MLOAD PUSH32 0xA9BC9A3A348C357BA16B37005D7E6B3236198C0E939F4AF8C5F19B8DEEB8EBC5 SSTORE SWAP1 MLOAD PUSH32 0xA9BC9A3A348C357BA16B37005D7E6B3236198C0E939F4AF8C5F19B8DEEB8EBC6 SSTORE PUSH1 0x6 PUSH3 0x4ED PUSH3 0x6F8 JUMP JUMPDEST PUSH10 0xA968163F0A57B400000 DUP2 MSTORE PUSH2 0xE10 PUSH1 0x20 DUP1 DUP4 ADD DUP3 DUP2 MSTORE PUSH3 0x15180 PUSH1 0x40 DUP6 ADD SWAP1 DUP2 MSTORE PUSH1 0x60 DUP6 ADD SWAP4 DUP5 MSTORE PUSH2 0x5DC PUSH1 0x80 DUP7 ADD SWAP1 DUP2 MSTORE PUSH2 0x1F40 PUSH1 0xA0 DUP8 ADD SWAP1 DUP2 MSTORE PUSH1 0xC0 DUP8 ADD SWAP9 DUP10 MSTORE PUSH1 0x7 PUSH0 SWAP1 DUP2 MSTORE PUSH1 0x5 SWAP1 SWAP6 MSTORE SWAP6 MLOAD PUSH32 0xEDDB6698D7C569FF62FF64F1F1492BF14A54594835BA0FAAC91F84B4F5D81460 SWAP1 DUP2 SSTORE SWAP3 MLOAD PUSH32 0xEDDB6698D7C569FF62FF64F1F1492BF14A54594835BA0FAAC91F84B4F5D81461 SSTORE SWAP1 MLOAD PUSH32 0xEDDB6698D7C569FF62FF64F1F1492BF14A54594835BA0FAAC91F84B4F5D81462 SSTORE SWAP3 MLOAD PUSH32 0xEDDB6698D7C569FF62FF64F1F1492BF14A54594835BA0FAAC91F84B4F5D81463 SSTORE SWAP2 MLOAD PUSH32 0xEDDB6698D7C569FF62FF64F1F1492BF14A54594835BA0FAAC91F84B4F5D81464 SSTORE SWAP2 MLOAD PUSH32 0xEDDB6698D7C569FF62FF64F1F1492BF14A54594835BA0FAAC91F84B4F5D81465 SSTORE SWAP3 MLOAD SWAP2 SWAP1 SWAP3 ADD SSTORE JUMPDEST PUSH1 0x8 DUP2 LT PUSH3 0x638 JUMPI PUSH1 0x40 MLOAD PUSH2 0x3094 SWAP1 DUP2 PUSH3 0xA38 DUP3 CODECOPY RETURN JUMPDEST DUP1 PUSH3 0x646 PUSH1 0x1 SWAP3 PUSH3 0xA0B JUMP JUMPDEST SLOAD ISZERO PUSH3 0x655 JUMPI JUMPDEST ADD PUSH3 0x61F JUMP JUMPDEST PUSH3 0x65F PUSH3 0x6F8 JUMP JUMPDEST PUSH9 0x6C6B935B8BBD400000 DUP2 MSTORE PUSH1 0x6 PUSH1 0x20 DUP3 ADD PUSH3 0x15180 DUP2 MSTORE PUSH1 0x40 DUP4 ADD PUSH3 0x69780 DUP2 MSTORE PUSH1 0x60 DUP5 ADD PUSH3 0x2A300 DUP2 MSTORE PUSH1 0x80 DUP6 ADD SWAP1 PUSH2 0x190 DUP3 MSTORE PUSH1 0xA0 DUP7 ADD SWAP3 PUSH2 0x157C DUP5 MSTORE PUSH1 0xC0 DUP8 ADD SWAP5 PUSH3 0x93A80 DUP7 MSTORE PUSH3 0x6B5 DUP10 PUSH3 0xA0B JUMP JUMPDEST SWAP8 MLOAD DUP9 SSTORE MLOAD DUP10 DUP9 ADD SSTORE MLOAD PUSH1 0x2 DUP8 ADD SSTORE MLOAD PUSH1 0x3 DUP7 ADD SSTORE MLOAD PUSH1 0x4 DUP6 ADD SSTORE MLOAD PUSH1 0x5 DUP5 ADD SSTORE MLOAD SWAP2 ADD SSTORE PUSH3 0x64E JUMP JUMPDEST PUSH0 DUP1 REVERT JUMPDEST PUSH4 0x4E487B71 PUSH1 0xE0 SHL PUSH0 MSTORE PUSH1 0x41 PUSH1 0x4 MSTORE PUSH1 0x24 PUSH0 REVERT JUMPDEST PUSH1 0x40 MLOAD SWAP1 PUSH1 0xE0 DUP3 ADD PUSH1 0x1 PUSH1 0x1 PUSH1 0x40 SHL SUB DUP2 GT DUP4 DUP3 LT OR PUSH3 0x6E4 JUMPI PUSH1 0x40 MSTORE JUMP JUMPDEST MLOAD SWAP1 PUSH1 0x1 PUSH1 0x1 PUSH1 0xA0 SHL SUB DUP3 AND DUP3 SUB PUSH3 0x6E0 JUMPI JUMP JUMPDEST PUSH1 0x1 PUSH1 0x1 PUSH1 0xA0 SHL SUB AND PUSH0 DUP2 DUP2 MSTORE PUSH0 DUP1 MLOAD PUSH1 0x20 PUSH3 0x3AEC DUP4 CODECOPY DUP2 MLOAD SWAP2 MSTORE PUSH1 0x20 MSTORE PUSH1 0x40 SWAP1 KECCAK256 SLOAD PUSH1 0xFF AND PUSH3 0x798 JUMPI PUSH0 DUP2 DUP2 MSTORE PUSH0 DUP1 MLOAD PUSH1 0x20 PUSH3 0x3AEC DUP4 CODECOPY DUP2 MLOAD SWAP2 MSTORE PUSH1 0x20 MSTORE PUSH1 0x40 DUP2 KECCAK256 DUP1 SLOAD PUSH1 0xFF NOT AND PUSH1 0x1 OR SWAP1 SSTORE CALLER SWAP2 SWAP1 PUSH0 DUP1 MLOAD PUSH1 0x20 PUSH3 0x3ACC DUP4 CODECOPY DUP2 MLOAD SWAP2 MSTORE DUP2 DUP1 LOG4 PUSH1 0x1 SWAP1 JUMP JUMPDEST POP PUSH0 SWAP1 JUMP JUMPDEST PUSH1 0x1 PUSH1 0x1 PUSH1 0xA0 SHL SUB AND PUSH0 DUP2 DUP2 MSTORE PUSH32 0x45F124ABC56411FA20FB79132D4E5E0DAD891ECF0313A820E14C2799F454AD5B PUSH1 0x20 MSTORE PUSH1 0x40 SWAP1 KECCAK256 SLOAD PUSH32 0x8A21E8FDAE6C23863F7DE5307E2E7162C88DAB602A41610ADDB5F1505D259398 SWAP2 SWAP1 PUSH1 0xFF AND PUSH3 0x837 JUMPI DUP2 PUSH0 MSTORE PUSH0 PUSH1 0x20 MSTORE PUSH1 0x40 PUSH0 KECCAK256 DUP2 PUSH0 MSTORE PUSH1 0x20 MSTORE PUSH1 0x40 PUSH0 KECCAK256 PUSH1 0x1 PUSH1 0xFF NOT DUP3 SLOAD AND OR SWAP1 SSTORE CALLER SWAP2 PUSH0 DUP1 MLOAD PUSH1 0x20 PUSH3 0x3ACC DUP4 CODECOPY DUP2 MLOAD SWAP2 MSTORE PUSH0 DUP1 LOG4 PUSH1 0x1 SWAP1 JUMP JUMPDEST POP POP PUSH0 SWAP1 JUMP JUMPDEST PUSH1 0x1 PUSH1 0x1 PUSH1 0xA0 SHL SUB AND PUSH0 DUP2 DUP2 MSTORE PUSH32 0x5B444936B1AF04FFEE1FE3046E0C1CE51D425198D231B995F86357E304F12208 PUSH1 0x20 MSTORE PUSH1 0x40 SWAP1 KECCAK256 SLOAD PUSH32 0xEDE9DCDB0CE99DC7CEC9C7BE9246AD08B37853683AD91569C187B647DDF5E21C SWAP2 SWAP1 PUSH1 0xFF AND PUSH3 0x837 JUMPI DUP2 PUSH0 MSTORE PUSH0 PUSH1 0x20 MSTORE PUSH1 0x40 PUSH0 KECCAK256 DUP2 PUSH0 MSTORE PUSH1 0x20 MSTORE PUSH1 0x40 PUSH0 KECCAK256 PUSH1 0x1 PUSH1 0xFF NOT DUP3 SLOAD AND OR SWAP1 SSTORE CALLER SWAP2 PUSH0 DUP1 MLOAD PUSH1 0x20 PUSH3 0x3ACC DUP4 CODECOPY DUP2 MLOAD SWAP2 MSTORE PUSH0 DUP1 LOG4 PUSH1 0x1 SWAP1 JUMP JUMPDEST PUSH1 0x1 PUSH1 0x1 PUSH1 0xA0 SHL SUB AND PUSH0 DUP2 DUP2 MSTORE PUSH32 0x5C3EA6AEED9B1DE45DEB786D0243E8726CD5B5159E190742EB24882EACA4FDF3 PUSH1 0x20 MSTORE PUSH1 0x40 SWAP1 KECCAK256 SLOAD PUSH32 0x61F23DB393D1560FAE139614649B1CECA7EB252178F9956111ACCC9D1FDFD508 SWAP2 SWAP1 PUSH1 0xFF AND PUSH3 0x837 JUMPI DUP2 PUSH0 MSTORE PUSH0 PUSH1 0x20 MSTORE PUSH1 0x40 PUSH0 KECCAK256 DUP2 PUSH0 MSTORE PUSH1 0x20 MSTORE PUSH1 0x40 PUSH0 KECCAK256 PUSH1 0x1 PUSH1 0xFF NOT DUP3 SLOAD AND OR SWAP1 SSTORE CALLER SWAP2 PUSH0 DUP1 MLOAD PUSH1 0x20 PUSH3 0x3ACC DUP4 CODECOPY DUP2 MLOAD SWAP2 MSTORE PUSH0 DUP1 LOG4 PUSH1 0x1 SWAP1 JUMP JUMPDEST PUSH1 0x1 PUSH1 0x1 PUSH1 0xA0 SHL SUB AND PUSH0 DUP2 DUP2 MSTORE PUSH32 0x8A40F0B47FDC2A0CE293B772ACFC7508C8315A4D462786C1ADC3A56F92CA2D05 PUSH1 0x20 MSTORE PUSH1 0x40 SWAP1 KECCAK256 SLOAD PUSH32 0x55435DD261A4B9B3364963F7738A7A662AD9C84396D64BE3365284BB7F0A5041 SWAP2 SWAP1 PUSH1 0xFF AND PUSH3 0x837 JUMPI DUP2 PUSH0 MSTORE PUSH0 PUSH1 0x20 MSTORE PUSH1 0x40 PUSH0 KECCAK256 DUP2 PUSH0 MSTORE PUSH1 0x20 MSTORE PUSH1 0x40 PUSH0 KECCAK256 PUSH1 0x1 PUSH1 0xFF NOT DUP3 SLOAD AND OR SWAP1 SSTORE CALLER SWAP2 PUSH0 DUP1 MLOAD PUSH1 0x20 PUSH3 0x3ACC DUP4 CODECOPY DUP2 MLOAD SWAP2 MSTORE PUSH0 DUP1 LOG4 PUSH1 0x1 SWAP1 JUMP JUMPDEST PUSH1 0x8 DUP2 LT ISZERO PUSH3 0xA23 JUMPI PUSH0 MSTORE PUSH1 0x5 PUSH1 0x20 MSTORE PUSH1 0x40 PUSH0 KECCAK256 SWAP1 JUMP JUMPDEST PUSH4 0x4E487B71 PUSH1 0xE0 SHL PUSH0 MSTORE PUSH1 0x21 PUSH1 0x4 MSTORE PUSH1 0x24 PUSH0 REVERT INVALID PUSH1 0xA0 PUSH1 0x40 MSTORE PUSH1 0x4 CALLDATASIZE LT ISZERO PUSH2 0x6F JUMPI JUMPDEST CALLDATASIZE ISZERO PUSH2 0x18 JUMPI PUSH0 DUP1 REVERT JUMPDEST PUSH0 DUP1 MSTORE PUSH1 0x10 PUSH1 0x20 MSTORE PUSH1 0x40 PUSH0 KECCAK256 PUSH2 0x2F CALLVALUE DUP3 SLOAD PUSH2 0x2B88 JUMP JUMPDEST SWAP1 SSTORE PUSH2 0x3D CALLVALUE PUSH1 0x11 SLOAD PUSH2 0x2B88 JUMP JUMPDEST PUSH1 0x11 SSTORE PUSH1 0x40 MLOAD CALLVALUE DUP2 MSTORE PUSH0 PUSH32 0xB906CC5FBA109FDCD8C55AD082C1408B0CC5F0A7FA925BD9424F47816BAFAF18 PUSH1 0x20 CALLER SWAP4 LOG3 STOP JUMPDEST PUSH0 CALLDATALOAD PUSH1 0xE0 SHR DUP1 PUSH4 0x13CF08B EQ PUSH2 0x2738 JUMPI DUP1 PUSH4 0x1FFC9A7 EQ PUSH2 0x26E2 JUMPI DUP1 PUSH4 0xD61B519 EQ PUSH2 0x229D JUMPI DUP1 PUSH4 0x109C3D27 EQ PUSH2 0x2280 JUMPI DUP1 PUSH4 0x1156E126 EQ PUSH2 0x2248 JUMPI DUP1 PUSH4 0x156E101E EQ PUSH2 0x1FD6 JUMPI DUP1 PUSH4 0x15B3958E EQ PUSH2 0x1F9C JUMPI DUP1 PUSH4 0x1D6465EC EQ PUSH2 0x1F2A JUMPI DUP1 PUSH4 0x248A9CA3 EQ PUSH2 0x1EFE JUMPI DUP1 PUSH4 0x24EA54F4 EQ PUSH2 0x1EC4 JUMPI DUP1 PUSH4 0x27C830A9 EQ PUSH2 0x1EA2 JUMPI DUP1 PUSH4 0x2E5B86A0 EQ PUSH2 0x1E7A JUMPI DUP1 PUSH4 0x2F2FF15D EQ PUSH2 0x1E3E JUMPI DUP1 PUSH4 0x36568ABE EQ PUSH2 0x1DF7 JUMPI DUP1 PUSH4 0x435E8668 EQ PUSH2 0x1DBA JUMPI DUP1 PUSH4 0x470B7622 EQ PUSH2 0x187B JUMPI DUP1 PUSH4 0x4A4E3BD5 EQ PUSH2 0x180A JUMPI DUP1 PUSH4 0x587CDE1E EQ PUSH2 0x17D1 JUMPI DUP1 PUSH4 0x5C19A95C EQ PUSH2 0x165F JUMPI DUP1 PUSH4 0x5C975ABB EQ PUSH2 0x163D JUMPI DUP1 PUSH4 0x5F3AD709 EQ PUSH2 0x1621 JUMPI DUP1 PUSH4 0x6414B6A1 EQ PUSH2 0x14C2 JUMPI DUP1 PUSH4 0x67031BAE EQ PUSH2 0x149A JUMPI DUP1 PUSH4 0x69E2D90D EQ PUSH2 0x1472 JUMPI DUP1 PUSH4 0x707C7305 EQ PUSH2 0xB96 JUMPI DUP1 PUSH4 0x791F5D23 EQ PUSH2 0xB73 JUMPI DUP1 PUSH4 0x7EFA7481 EQ PUSH2 0xB3B JUMPI DUP1 PUSH4 0x8ABB1F2F EQ PUSH2 0x9AE JUMPI DUP1 PUSH4 0x91D14854 EQ PUSH2 0x966 JUMPI DUP1 PUSH4 0xA217FDDF EQ PUSH2 0x94C JUMPI DUP1 PUSH4 0xA64E024A EQ PUSH2 0x92F JUMPI DUP1 PUSH4 0xA78D80FC EQ PUSH2 0x912 JUMPI DUP1 PUSH4 0xAB6D2055 EQ PUSH2 0x8D8 JUMPI DUP1 PUSH4 0xBB4D4436 EQ PUSH2 0x8AD JUMPI DUP1 PUSH4 0xBC3F931F EQ PUSH2 0x7A6 JUMPI DUP1 PUSH4 0xC7F758A8 EQ PUSH2 0x6A3 JUMPI DUP1 PUSH4 0xCF5B4FD5 EQ PUSH2 0x591 JUMPI DUP1 PUSH4 0xD0418DBC EQ PUSH2 0x51A JUMPI DUP1 PUSH4 0xD364D4D4 EQ PUSH2 0x4E2 JUMPI DUP1 PUSH4 0xD547741F EQ PUSH2 0x4A4 JUMPI DUP1 PUSH4 0xD8A11DC2 EQ PUSH2 0x487 JUMPI DUP1 PUSH4 0xE0A8F6F5 EQ PUSH2 0x301 JUMPI DUP1 PUSH4 0xE1F1C4A7 EQ PUSH2 0x2E5 JUMPI DUP1 PUSH4 0xE85507DE EQ PUSH2 0x2C8 JUMPI DUP1 PUSH4 0xEBDF690F EQ PUSH2 0x28E JUMPI PUSH4 0xFEAC729D SUB PUSH2 0xE JUMPI CALLVALUE PUSH2 0x28A JUMPI PUSH0 CALLDATASIZE PUSH1 0x3 NOT ADD SLT PUSH2 0x28A JUMPI PUSH1 0x20 PUSH1 0xC SLOAD PUSH1 0x40 MLOAD SWAP1 DUP2 MSTORE RETURN JUMPDEST PUSH0 DUP1 REVERT JUMPDEST CALLVALUE PUSH2 0x28A JUMPI PUSH0 CALLDATASIZE PUSH1 0x3 NOT ADD SLT PUSH2 0x28A JUMPI PUSH1 0x20 PUSH1 0x40 MLOAD PUSH32 0xEDE9DCDB0CE99DC7CEC9C7BE9246AD08B37853683AD91569C187B647DDF5E21C DUP2 MSTORE RETURN JUMPDEST CALLVALUE PUSH2 0x28A JUMPI PUSH0 CALLDATASIZE PUSH1 0x3 NOT ADD SLT PUSH2 0x28A JUMPI PUSH1 0x20 PUSH1 0x11 SLOAD PUSH1 0x40 MLOAD SWAP1 DUP2 MSTORE RETURN JUMPDEST CALLVALUE PUSH2 0x28A JUMPI PUSH0 CALLDATASIZE PUSH1 0x3 NOT ADD SLT PUSH2 0x28A JUMPI PUSH1 0x20 PUSH1 0x40 MLOAD PUSH2 0x2710 DUP2 MSTORE RETURN JUMPDEST CALLVALUE PUSH2 0x28A JUMPI PUSH1 0x20 DUP1 PUSH1 0x3 NOT CALLDATASIZE ADD SLT PUSH2 0x28A JUMPI PUSH1 0x4 CALLDATALOAD SWAP1 DUP2 ISZERO ISZERO DUP1 PUSH2 0x47C JUMPI JUMPDEST PUSH2 0x329 SWAP1 PUSH2 0x2B46 JUMP JUMPDEST DUP2 PUSH0 MSTORE PUSH1 0x3 DUP2 MSTORE PUSH1 0x40 PUSH0 KECCAK256 PUSH1 0xE DUP2 ADD SWAP2 DUP3 SLOAD SWAP2 PUSH1 0xFF DUP4 AND PUSH1 0x7 DUP2 LT ISZERO PUSH2 0x468 JUMPI DUP1 ISZERO SWAP1 DUP2 ISZERO PUSH2 0x45D JUMPI JUMPDEST POP ISZERO PUSH2 0x407 JUMPI PUSH1 0x1 ADD SLOAD PUSH1 0x1 PUSH1 0x1 PUSH1 0xA0 SHL SUB AND CALLER EQ DUP1 ISZERO PUSH2 0x3EA JUMPI JUMPDEST ISZERO PUSH2 0x3A6 JUMPI POP PUSH1 0xFF NOT AND PUSH1 0x6 OR SWAP1 SSTORE CALLER SWAP1 PUSH32 0x74C34A008CE735D9FCF0BD03A9B238D212AD4C441C020661F4FFBB6442645B85 PUSH0 DUP1 LOG3 STOP JUMPDEST PUSH1 0x64 SWAP1 PUSH1 0x40 MLOAD SWAP1 PUSH3 0x461BCD PUSH1 0xE5 SHL DUP3 MSTORE PUSH1 0x4 DUP3 ADD MSTORE PUSH1 0x18 PUSH1 0x24 DUP3 ADD MSTORE PUSH32 0x4E6F7420617574686F72697A656420746F2063616E63656C0000000000000000 PUSH1 0x44 DUP3 ADD MSTORE REVERT JUMPDEST POP PUSH0 DUP1 MSTORE PUSH0 DUP2 MSTORE PUSH1 0x40 PUSH0 KECCAK256 CALLER PUSH0 MSTORE DUP2 MSTORE PUSH1 0xFF PUSH1 0x40 PUSH0 KECCAK256 SLOAD AND PUSH2 0x36F JUMP JUMPDEST PUSH1 0x40 MLOAD PUSH3 0x461BCD PUSH1 0xE5 SHL DUP2 MSTORE PUSH1 0x4 DUP2 ADD DUP4 SWAP1 MSTORE PUSH1 0x28 PUSH1 0x24 DUP3 ADD MSTORE PUSH32 0x43616E6E6F742063616E63656C2070726F706F73616C20696E2063757272656E PUSH1 0x44 DUP3 ADD MSTORE PUSH8 0x7420737461747573 PUSH1 0xC0 SHL PUSH1 0x64 DUP3 ADD MSTORE PUSH1 0x84 SWAP1 REVERT JUMPDEST PUSH1 0x1 SWAP2 POP EQ DUP7 PUSH2 0x353 JUMP JUMPDEST PUSH4 0x4E487B71 PUSH1 0xE0 SHL PUSH0 MSTORE PUSH1 0x21 PUSH1 0x4 MSTORE PUSH1 0x24 PUSH0 REVERT JUMPDEST POP PUSH1 0xC SLOAD DUP3 LT PUSH2 0x320 JUMP JUMPDEST CALLVALUE PUSH2 0x28A JUMPI PUSH0 CALLDATASIZE PUSH1 0x3 NOT ADD SLT PUSH2 0x28A JUMPI PUSH1 0x20 PUSH1 0xF SLOAD PUSH1 0x40 MLOAD SWAP1 DUP2 MSTORE RETURN JUMPDEST CALLVALUE PUSH2 0x28A JUMPI PUSH1 0x40 CALLDATASIZE PUSH1 0x3 NOT ADD SLT PUSH2 0x28A JUMPI PUSH2 0x4E0 PUSH1 0x4 CALLDATALOAD PUSH2 0x4C3 PUSH2 0x2A24 JUMP JUMPDEST SWAP1 DUP1 PUSH0 MSTORE PUSH0 PUSH1 0x20 MSTORE PUSH2 0x4DB PUSH1 0x1 PUSH1 0x40 PUSH0 KECCAK256 ADD SLOAD PUSH2 0x2C95 JUMP JUMPDEST PUSH2 0x2D32 JUMP JUMPDEST STOP JUMPDEST CALLVALUE PUSH2 0x28A JUMPI PUSH1 0x20 CALLDATASIZE PUSH1 0x3 NOT ADD SLT PUSH2 0x28A JUMPI PUSH1 0x1 PUSH1 0x1 PUSH1 0xA0 SHL SUB PUSH2 0x503 PUSH2 0x2A0E JUMP JUMPDEST AND PUSH0 MSTORE PUSH1 0x7 PUSH1 0x20 MSTORE PUSH1 0x20 PUSH1 0x40 PUSH0 KECCAK256 SLOAD PUSH1 0x40 MLOAD SWAP1 DUP2 MSTORE RETURN JUMPDEST CALLVALUE PUSH2 0x28A JUMPI PUSH1 0x20 CALLDATASIZE PUSH1 0x3 NOT ADD SLT PUSH2 0x28A JUMPI PUSH1 0xC0 PUSH1 0x1 PUSH1 0x1 PUSH1 0xA0 SHL SUB DUP1 PUSH2 0x53E PUSH2 0x2A0E JUMP JUMPDEST AND PUSH0 MSTORE PUSH1 0x6 PUSH1 0x20 MSTORE PUSH1 0x40 PUSH0 KECCAK256 SWAP1 DUP2 SLOAD AND SWAP1 PUSH1 0x1 DUP2 ADD SLOAD SWAP1 PUSH1 0x2 DUP2 ADD SLOAD PUSH1 0x3 DUP3 ADD SLOAD SWAP1 PUSH1 0xFF PUSH1 0x5 PUSH1 0x4 DUP6 ADD SLOAD SWAP5 ADD SLOAD AND SWAP4 PUSH1 0x40 MLOAD SWAP6 DUP7 MSTORE PUSH1 0x20 DUP7 ADD MSTORE PUSH1 0x40 DUP6 ADD MSTORE PUSH1 0x60 DUP5 ADD MSTORE PUSH1 0x80 DUP4 ADD MSTORE ISZERO ISZERO PUSH1 0xA0 DUP3 ADD MSTORE RETURN JUMPDEST CALLVALUE PUSH2 0x28A JUMPI PUSH1 0x20 DUP1 PUSH1 0x3 NOT CALLDATASIZE ADD SLT PUSH2 0x28A JUMPI PUSH1 0x4 CALLDATALOAD PUSH1 0x1 PUSH1 0x1 PUSH1 0x40 SHL SUB DUP2 GT PUSH2 0x28A JUMPI PUSH2 0x5C2 SWAP1 CALLDATASIZE SWAP1 PUSH1 0x4 ADD PUSH2 0x2A6C JUMP JUMPDEST PUSH32 0x55435DD261A4B9B3364963F7738A7A662AD9C84396D64BE3365284BB7F0A5041 DUP1 PUSH0 MSTORE PUSH0 DUP4 MSTORE PUSH1 0x40 PUSH0 KECCAK256 CALLER PUSH0 MSTORE DUP4 MSTORE PUSH1 0xFF PUSH1 0x40 PUSH0 KECCAK256 SLOAD AND ISZERO PUSH2 0x685 JUMPI POP PUSH2 0x680 PUSH32 0xF6BAAA6E2F87B0B99EDBD0B24FD324FA2B4894A56EBFCAC45E46F24022747210 SWAP2 PUSH1 0x1 PUSH1 0xFF NOT DUP2 DUP2 PUSH1 0x12 SLOAD AND OR PUSH1 0x12 SSTORE PUSH2 0x63C PUSH2 0x2DA4 JUMP JUMPDEST PUSH1 0x2 SLOAD AND OR PUSH1 0x2 SSTORE PUSH32 0x62E78CEA01BEE320CD4E420270B5EA74000D11B0C9F74754EBDBFC544B05A258 DUP5 PUSH1 0x40 MLOAD CALLER DUP2 MSTORE LOG1 PUSH1 0x40 MLOAD SWAP2 DUP3 SWAP2 DUP6 DUP4 MSTORE CALLER SWAP6 DUP4 ADD SWAP1 PUSH2 0x29C3 JUMP JUMPDEST SUB SWAP1 LOG2 STOP JUMPDEST PUSH1 0x44 SWAP1 PUSH1 0x40 MLOAD SWAP1 PUSH4 0xE2517D3F PUSH1 0xE0 SHL DUP3 MSTORE CALLER PUSH1 0x4 DUP4 ADD MSTORE PUSH1 0x24 DUP3 ADD MSTORE REVERT JUMPDEST CALLVALUE PUSH2 0x28A JUMPI PUSH1 0x20 CALLDATASIZE PUSH1 0x3 NOT ADD SLT PUSH2 0x28A JUMPI PUSH1 0x4 CALLDATALOAD DUP1 ISZERO ISZERO DUP1 PUSH2 0x79B JUMPI JUMPDEST PUSH2 0x6C9 SWAP1 PUSH2 0x2B46 JUMP JUMPDEST PUSH0 MSTORE PUSH1 0x3 PUSH1 0x20 MSTORE PUSH1 0x40 PUSH0 KECCAK256 PUSH1 0x40 PUSH1 0x1 DUP3 ADD SLOAD SWAP2 PUSH1 0xFF PUSH1 0x5 DUP3 ADD SLOAD SWAP2 PUSH1 0x6 DUP2 ADD SLOAD PUSH1 0x8 DUP3 ADD SLOAD PUSH1 0x9 DUP4 ADD SLOAD SWAP1 PUSH1 0xA DUP5 ADD SLOAD SWAP3 PUSH2 0x760 PUSH1 0xE DUP7 ADD SLOAD SWAP6 PUSH2 0x752 PUSH2 0x71E PUSH1 0x3 PUSH2 0x717 PUSH1 0x2 DUP6 ADD PUSH2 0x2914 JUMP JUMPDEST SWAP4 ADD PUSH2 0x2914 JUMP JUMPDEST SWAP2 PUSH2 0x748 DUP13 MLOAD SWAP14 DUP15 SWAP14 DUP15 PUSH2 0x160 SWAP4 DUP5 SWAP4 PUSH1 0x1 DUP1 PUSH1 0xA0 SHL SUB DUP2 AND DUP4 MSTORE DUP16 PUSH1 0x20 DUP5 ADD SWAP2 PUSH1 0xA0 SHR AND PUSH2 0x29B6 JUMP JUMPDEST ADD MSTORE DUP13 ADD SWAP1 PUSH2 0x29C3 JUMP JUMPDEST SWAP1 DUP11 DUP3 SUB PUSH1 0x60 DUP13 ADD MSTORE PUSH2 0x29C3 JUMP JUMPDEST SWAP7 PUSH1 0x80 DUP10 ADD MSTORE PUSH1 0xA0 DUP9 ADD MSTORE PUSH1 0xC0 DUP8 ADD MSTORE PUSH1 0xE0 DUP7 ADD MSTORE PUSH2 0x100 DUP6 ADD MSTORE PUSH2 0x78B PUSH2 0x120 DUP6 ADD DUP4 DUP4 AND PUSH2 0x2A01 JUMP JUMPDEST PUSH1 0x8 SHR AND ISZERO ISZERO PUSH2 0x140 DUP4 ADD MSTORE SUB SWAP1 RETURN JUMPDEST POP PUSH1 0xC SLOAD DUP2 LT PUSH2 0x6C0 JUMP JUMPDEST CALLVALUE PUSH2 0x28A JUMPI PUSH1 0x40 CALLDATASIZE PUSH1 0x3 NOT ADD SLT PUSH2 0x28A JUMPI PUSH1 0x4 CALLDATALOAD PUSH2 0x7C2 PUSH2 0x2A24 JUMP JUMPDEST DUP2 ISZERO ISZERO DUP1 PUSH2 0x8A2 JUMPI JUMPDEST PUSH2 0x7D4 SWAP1 PUSH2 0x2B46 JUMP JUMPDEST DUP2 PUSH0 MSTORE PUSH1 0x20 SWAP1 PUSH1 0x3 DUP3 MSTORE PUSH1 0x14 PUSH1 0x40 PUSH0 KECCAK256 ADD SWAP1 PUSH1 0x1 DUP1 PUSH1 0xA0 SHL SUB AND SWAP1 DUP2 PUSH0 MSTORE DUP3 MSTORE PUSH1 0xFF PUSH1 0x40 PUSH0 KECCAK256 SLOAD AND ISZERO PUSH2 0x868 JUMPI PUSH2 0x84B SWAP3 PUSH0 MSTORE PUSH1 0x3 DUP3 MSTORE PUSH1 0x13 PUSH1 0x40 PUSH0 KECCAK256 ADD SWAP1 PUSH0 MSTORE DUP2 MSTORE PUSH2 0x864 PUSH1 0x40 PUSH0 KECCAK256 SWAP2 PUSH1 0xFF DUP4 SLOAD PUSH1 0xA0 SHR AND SWAP3 PUSH1 0x1 DUP2 ADD SLOAD PUSH2 0x83E PUSH1 0x3 PUSH1 0x2 DUP5 ADD SLOAD SWAP4 ADD PUSH2 0x2914 JUMP JUMPDEST SWAP3 PUSH1 0x40 MLOAD SWAP7 DUP8 DUP1 SWAP8 PUSH2 0x2B39 JUMP JUMPDEST DUP6 ADD MSTORE PUSH1 0x40 DUP5 ADD MSTORE PUSH1 0x80 PUSH1 0x60 DUP5 ADD MSTORE PUSH1 0x80 DUP4 ADD SWAP1 PUSH2 0x29C3 JUMP JUMPDEST SUB SWAP1 RETURN JUMPDEST PUSH1 0x40 MLOAD PUSH3 0x461BCD PUSH1 0xE5 SHL DUP2 MSTORE PUSH1 0x4 DUP2 ADD DUP4 SWAP1 MSTORE PUSH1 0x12 PUSH1 0x24 DUP3 ADD MSTORE PUSH18 0x155CD95C881A185CC81B9BDD081D9BDD1959 PUSH1 0x72 SHL PUSH1 0x44 DUP3 ADD MSTORE PUSH1 0x64 SWAP1 REVERT JUMPDEST POP PUSH1 0xC SLOAD DUP3 LT PUSH2 0x7CB JUMP JUMPDEST CALLVALUE PUSH2 0x28A JUMPI PUSH1 0x20 CALLDATASIZE PUSH1 0x3 NOT ADD SLT PUSH2 0x28A JUMPI PUSH1 0x20 PUSH2 0x8D0 PUSH2 0x8CB PUSH2 0x2A0E JUMP JUMPDEST PUSH2 0x2DC2 JUMP JUMPDEST PUSH1 0x40 MLOAD SWAP1 DUP2 MSTORE RETURN JUMPDEST CALLVALUE PUSH2 0x28A JUMPI PUSH0 CALLDATASIZE PUSH1 0x3 NOT ADD SLT PUSH2 0x28A JUMPI PUSH1 0x20 PUSH1 0x40 MLOAD PUSH32 0x61F23DB393D1560FAE139614649B1CECA7EB252178F9956111ACCC9D1FDFD508 DUP2 MSTORE RETURN JUMPDEST CALLVALUE PUSH2 0x28A JUMPI PUSH0 CALLDATASIZE PUSH1 0x3 NOT ADD SLT PUSH2 0x28A JUMPI PUSH1 0x20 PUSH1 0xD SLOAD PUSH1 0x40 MLOAD SWAP1 DUP2 MSTORE RETURN JUMPDEST CALLVALUE PUSH2 0x28A JUMPI PUSH0 CALLDATASIZE PUSH1 0x3 NOT ADD SLT PUSH2 0x28A JUMPI PUSH1 0x20 PUSH1 0x40 MLOAD PUSH3 0x93A80 DUP2 MSTORE RETURN JUMPDEST CALLVALUE PUSH2 0x28A JUMPI PUSH0 CALLDATASIZE PUSH1 0x3 NOT ADD SLT PUSH2 0x28A JUMPI PUSH1 0x20 PUSH1 0x40 MLOAD PUSH0 DUP2 MSTORE RETURN JUMPDEST CALLVALUE PUSH2 0x28A JUMPI PUSH1 0x40 CALLDATASIZE PUSH1 0x3 NOT ADD SLT PUSH2 0x28A JUMPI PUSH2 0x97F PUSH2 0x2A24 JUMP JUMPDEST PUSH1 0x4 CALLDATALOAD PUSH0 MSTORE PUSH0 PUSH1 0x20 MSTORE PUSH1 0x40 PUSH0 KECCAK256 SWAP1 PUSH1 0x1 DUP1 PUSH1 0xA0 SHL SUB AND PUSH0 MSTORE PUSH1 0x20 MSTORE PUSH1 0x20 PUSH1 0xFF PUSH1 0x40 PUSH0 KECCAK256 SLOAD AND PUSH1 0x40 MLOAD SWAP1 ISZERO ISZERO DUP2 MSTORE RETURN JUMPDEST CALLVALUE PUSH2 0x28A JUMPI PUSH1 0x80 CALLDATASIZE PUSH1 0x3 NOT ADD SLT PUSH2 0x28A JUMPI PUSH1 0x4 CALLDATALOAD PUSH1 0x8 DUP2 LT ISZERO PUSH2 0x28A JUMPI PUSH1 0x24 CALLDATALOAD SWAP1 PUSH1 0x64 CALLDATALOAD SWAP1 PUSH1 0x44 CALLDATALOAD PUSH2 0x9DE PUSH2 0x2C3F JUMP JUMPDEST PUSH2 0x12C DUP5 LT ISZERO DUP1 PUSH2 0xB2F JUMPI JUMPDEST ISZERO PUSH2 0xAF9 JUMPI PUSH2 0x1388 DUP2 LT ISZERO DUP1 PUSH2 0xAED JUMPI JUMPDEST ISZERO PUSH2 0xAB4 JUMPI PUSH3 0x15180 DUP4 LT ISZERO DUP1 PUSH2 0xAA7 JUMPI JUMPDEST ISZERO PUSH2 0xA6A JUMPI PUSH32 0x328DD84E329B46781E3DAF9015CB6414710A34DDB3EBCE5E6F65F07B684A0032 SWAP4 PUSH1 0x60 SWAP4 PUSH1 0x2 PUSH2 0xA42 DUP6 PUSH2 0x2A3A JUMP JUMPDEST DUP4 PUSH1 0x4 DUP3 ADD SSTORE DUP5 PUSH1 0x5 DUP3 ADD SSTORE ADD SSTORE PUSH2 0xA5D PUSH1 0x40 MLOAD DUP1 SWAP5 PUSH2 0x29B6 JUMP JUMPDEST PUSH1 0x20 DUP4 ADD MSTORE PUSH1 0x40 DUP3 ADD MSTORE LOG1 STOP JUMPDEST PUSH1 0x40 MLOAD PUSH3 0x461BCD PUSH1 0xE5 SHL DUP2 MSTORE PUSH1 0x20 PUSH1 0x4 DUP3 ADD MSTORE PUSH1 0x15 PUSH1 0x24 DUP3 ADD MSTORE PUSH21 0x125B9D985B1A59081D9BDD1A5B99C81C195C9A5BD9 PUSH1 0x5A SHL PUSH1 0x44 DUP3 ADD MSTORE PUSH1 0x64 SWAP1 REVERT JUMPDEST POP PUSH3 0x93A80 DUP4 GT ISZERO PUSH2 0xA0D JUMP JUMPDEST PUSH1 0x40 MLOAD PUSH3 0x461BCD PUSH1 0xE5 SHL DUP2 MSTORE PUSH1 0x20 PUSH1 0x4 DUP3 ADD MSTORE PUSH1 0x11 PUSH1 0x24 DUP3 ADD MSTORE PUSH17 0x125B9D985B1A59081D1A1C995CDA1BDB19 PUSH1 0x7A SHL PUSH1 0x44 DUP3 ADD MSTORE PUSH1 0x64 SWAP1 REVERT JUMPDEST POP PUSH2 0x2328 DUP2 GT ISZERO PUSH2 0x9FB JUMP JUMPDEST PUSH1 0x40 MLOAD PUSH3 0x461BCD PUSH1 0xE5 SHL DUP2 MSTORE PUSH1 0x20 PUSH1 0x4 DUP3 ADD MSTORE PUSH1 0xE PUSH1 0x24 DUP3 ADD MSTORE PUSH14 0x496E76616C69642071756F72756D PUSH1 0x90 SHL PUSH1 0x44 DUP3 ADD MSTORE PUSH1 0x64 SWAP1 REVERT JUMPDEST POP PUSH2 0x1388 DUP5 GT ISZERO PUSH2 0x9EA JUMP JUMPDEST CALLVALUE PUSH2 0x28A JUMPI PUSH1 0x20 CALLDATASIZE PUSH1 0x3 NOT ADD SLT PUSH2 0x28A JUMPI PUSH1 0x1 PUSH1 0x1 PUSH1 0xA0 SHL SUB PUSH2 0xB5C PUSH2 0x2A0E JUMP JUMPDEST AND PUSH0 MSTORE PUSH1 0x10 PUSH1 0x20 MSTORE PUSH1 0x20 PUSH1 0x40 PUSH0 KECCAK256 SLOAD PUSH1 0x40 MLOAD SWAP1 DUP2 MSTORE RETURN JUMPDEST CALLVALUE PUSH2 0x28A JUMPI PUSH0 CALLDATASIZE PUSH1 0x3 NOT ADD SLT PUSH2 0x28A JUMPI PUSH1 0x20 PUSH1 0x40 MLOAD PUSH9 0x3635C9ADC5DEA00000 DUP2 MSTORE RETURN JUMPDEST CALLVALUE PUSH2 0x28A JUMPI PUSH1 0xE0 CALLDATASIZE PUSH1 0x3 NOT ADD SLT PUSH2 0x28A JUMPI PUSH1 0x8 PUSH1 0x4 CALLDATALOAD LT ISZERO PUSH2 0x28A JUMPI PUSH1 0x24 CALLDATALOAD PUSH1 0x1 PUSH1 0x1 PUSH1 0x40 SHL SUB DUP2 GT PUSH2 0x28A JUMPI PUSH2 0xBD1 SWAP1 CALLDATASIZE SWAP1 PUSH1 0x4 ADD PUSH2 0x2A6C JUMP JUMPDEST PUSH1 0x44 CALLDATALOAD PUSH1 0x1 PUSH1 0x1 PUSH1 0x40 SHL SUB DUP2 GT PUSH2 0x28A JUMPI PUSH2 0xBF0 SWAP1 CALLDATASIZE SWAP1 PUSH1 0x4 ADD PUSH2 0x2A6C JUMP JUMPDEST PUSH1 0x64 SWAP2 DUP3 CALLDATALOAD PUSH1 0x1 PUSH1 0x1 PUSH1 0x40 SHL SUB DUP2 GT PUSH2 0x28A JUMPI PUSH2 0xC11 SWAP1 CALLDATASIZE SWAP1 PUSH1 0x4 ADD PUSH2 0x2A6C JUMP JUMPDEST SWAP2 PUSH1 0x84 CALLDATALOAD PUSH1 0x1 PUSH1 0x1 PUSH1 0x40 SHL SUB DUP2 GT PUSH2 0x28A JUMPI PUSH2 0xC31 SWAP1 CALLDATASIZE SWAP1 PUSH1 0x4 ADD PUSH2 0x2AC9 JUMP JUMPDEST PUSH1 0x1 PUSH1 0x1 PUSH1 0x40 SHL SUB PUSH1 0xA4 CALLDATALOAD GT PUSH2 0x28A JUMPI CALLDATASIZE PUSH1 0x23 PUSH1 0xA4 CALLDATALOAD ADD SLT ISZERO PUSH2 0x28A JUMPI PUSH1 0xA4 CALLDATALOAD PUSH1 0x4 ADD CALLDATALOAD SWAP1 PUSH2 0xC5F DUP3 PUSH2 0x2AB2 JUMP JUMPDEST SWAP1 PUSH2 0xC6D PUSH1 0x40 MLOAD SWAP3 DUP4 PUSH2 0x28F3 JUMP JUMPDEST DUP3 DUP3 MSTORE PUSH1 0x20 DUP3 ADD SWAP3 DUP4 CALLDATASIZE PUSH1 0x24 DUP4 PUSH1 0x5 SHL PUSH1 0xA4 CALLDATALOAD ADD ADD GT PUSH2 0x28A JUMPI PUSH1 0x24 PUSH1 0xA4 CALLDATALOAD ADD SWAP1 JUMPDEST PUSH1 0x24 DUP4 PUSH1 0x5 SHL PUSH1 0xA4 CALLDATALOAD ADD ADD DUP3 LT PUSH2 0x1462 JUMPI POP POP POP PUSH1 0xC4 CALLDATALOAD PUSH1 0x1 PUSH1 0x1 PUSH1 0x40 SHL SUB DUP2 GT PUSH2 0x28A JUMPI PUSH2 0xCC2 SWAP1 CALLDATASIZE SWAP1 PUSH1 0x4 ADD PUSH2 0x2AC9 JUMP JUMPDEST SWAP7 PUSH2 0xCCB PUSH2 0x2DA4 JUMP JUMPDEST PUSH2 0xCD7 PUSH1 0x4 CALLDATALOAD CALLER PUSH2 0x2EDB JUMP JUMPDEST ISZERO PUSH2 0x140B JUMPI DUP6 MLOAD DUP1 ISZERO ISZERO SWAP1 DUP2 PUSH2 0x13FF JUMPI JUMPDEST POP ISZERO PUSH2 0x13C6 JUMPI DUP5 MLOAD ISZERO PUSH2 0x138D JUMPI DUP2 MLOAD DUP4 MLOAD SUB PUSH2 0x134B JUMPI DUP2 MLOAD DUP9 MLOAD SUB PUSH2 0x1309 JUMPI DUP2 MLOAD PUSH2 0x126C JUMPI JUMPDEST POP PUSH1 0xC SLOAD SWAP6 PUSH2 0xD1C DUP8 PUSH2 0x2BA1 JUMP JUMPDEST PUSH1 0xC SSTORE PUSH0 DUP8 DUP2 MSTORE PUSH1 0x3 PUSH1 0x20 MSTORE PUSH1 0x40 SWAP1 KECCAK256 DUP8 DUP2 SSTORE PUSH1 0x1 DUP2 ADD DUP1 SLOAD PUSH1 0x1 PUSH1 0x1 PUSH1 0xA8 SHL SUB NOT AND CALLER PUSH1 0xFF PUSH1 0xA0 SHL NOT AND OR PUSH1 0x4 CALLDATALOAD PUSH1 0xA0 SHL PUSH1 0xFF PUSH1 0xA0 SHL AND OR SWAP1 SSTORE DUP7 MLOAD SWAP1 SWAP6 SWAP1 PUSH1 0x1 PUSH1 0x1 PUSH1 0x40 SHL SUB DUP2 GT PUSH2 0x101C JUMPI PUSH2 0xD77 PUSH1 0x2 DUP9 ADD SLOAD PUSH2 0x28BB JUMP JUMPDEST PUSH1 0x1F DUP2 GT PUSH2 0x1239 JUMPI JUMPDEST POP DUP1 PUSH1 0x20 PUSH1 0x1F DUP3 GT PUSH1 0x1 EQ PUSH2 0x11CF JUMPI PUSH0 SWAP2 PUSH2 0x11C4 JUMPI JUMPDEST POP DUP2 PUSH1 0x1 SHL SWAP2 PUSH0 NOT SWAP1 PUSH1 0x3 SHL SHR NOT AND OR PUSH1 0x2 DUP8 ADD SSTORE JUMPDEST DUP1 MLOAD SWAP1 PUSH1 0x1 PUSH1 0x1 PUSH1 0x40 SHL SUB DUP3 GT PUSH2 0x101C JUMPI DUP2 SWAP1 PUSH2 0xDCC PUSH1 0x3 DUP10 ADD SLOAD PUSH2 0x28BB JUMP JUMPDEST PUSH1 0x1F DUP2 GT PUSH2 0x1191 JUMPI JUMPDEST POP PUSH1 0x20 SWAP1 PUSH1 0x1F DUP4 GT PUSH1 0x1 EQ PUSH2 0x1123 JUMPI PUSH0 SWAP3 PUSH2 0x1118 JUMPI JUMPDEST POP POP DUP2 PUSH1 0x1 SHL SWAP2 PUSH0 NOT SWAP1 PUSH1 0x3 SHL SHR NOT AND OR PUSH1 0x3 DUP7 ADD SSTORE JUMPDEST DUP1 MLOAD SWAP1 PUSH1 0x1 PUSH1 0x1 PUSH1 0x40 SHL SUB DUP3 GT PUSH2 0x101C JUMPI DUP2 SWAP1 PUSH2 0xE22 PUSH1 0x4 DUP9 ADD SLOAD PUSH2 0x28BB JUMP JUMPDEST PUSH1 0x1F DUP2 GT PUSH2 0x10DA JUMPI JUMPDEST POP PUSH1 0x20 SWAP1 PUSH1 0x1F DUP4 GT PUSH1 0x1 EQ PUSH2 0x106C JUMPI PUSH0 SWAP3 PUSH2 0x1061 JUMPI JUMPDEST POP POP DUP2 PUSH1 0x1 SHL SWAP2 PUSH0 NOT SWAP1 PUSH1 0x3 SHL SHR NOT AND OR PUSH1 0x4 DUP6 ADD SSTORE JUMPDEST PUSH1 0x5 PUSH2 0xE65 PUSH1 0x4 CALLDATALOAD PUSH2 0x2A3A JUMP JUMPDEST PUSH2 0xE86 PUSH2 0xE76 PUSH1 0x1 DUP4 ADD SLOAD TIMESTAMP PUSH2 0x2B88 JUMP JUMPDEST DUP1 DUP5 DUP10 ADD SSTORE PUSH1 0x2 DUP4 ADD SLOAD SWAP1 PUSH2 0x2B88 JUMP JUMPDEST PUSH1 0x6 DUP8 ADD SSTORE PUSH1 0x3 DUP2 ADD SLOAD PUSH1 0x7 DUP8 ADD SSTORE PUSH1 0x4 DUP2 ADD SLOAD PUSH1 0xC DUP8 ADD SSTORE ADD SLOAD PUSH1 0xD DUP6 ADD SSTORE PUSH1 0xE DUP5 ADD DUP1 SLOAD PUSH1 0xFF NOT AND SWAP1 SSTORE DUP1 MLOAD SWAP1 PUSH1 0x1 PUSH1 0x1 PUSH1 0x40 SHL SUB DUP3 GT PUSH2 0x101C JUMPI PUSH1 0x1 PUSH1 0x40 SHL DUP3 GT PUSH2 0x101C JUMPI PUSH1 0x10 DUP6 ADD DUP1 SLOAD DUP4 DUP3 SSTORE PUSH1 0x20 SWAP3 SWAP2 PUSH2 0xEE6 SWAP2 DUP6 SWAP2 PUSH2 0x2BD2 JUMP JUMPDEST ADD PUSH1 0x10 DUP6 ADD PUSH0 MSTORE PUSH1 0x20 PUSH0 KECCAK256 PUSH0 JUMPDEST DUP4 DUP2 LT PUSH2 0x1044 JUMPI POP POP POP POP PUSH1 0x11 DUP4 ADD SWAP1 MLOAD SWAP2 PUSH1 0x1 PUSH1 0x1 PUSH1 0x40 SHL SUB DUP4 GT PUSH2 0x101C JUMPI PUSH1 0x1 PUSH1 0x40 SHL DUP4 GT PUSH2 0x101C JUMPI PUSH2 0xF2D DUP4 DUP4 SLOAD DUP2 DUP6 SSTORE DUP5 PUSH2 0x2BD2 JUMP JUMPDEST SWAP1 PUSH0 MSTORE PUSH1 0x20 PUSH0 KECCAK256 PUSH0 JUMPDEST DUP4 DUP2 LT PUSH2 0x1030 JUMPI POP POP POP POP PUSH1 0x12 ADD SWAP3 DUP1 MLOAD SWAP1 PUSH1 0x1 PUSH1 0x1 PUSH1 0x40 SHL SUB DUP3 GT PUSH2 0x101C JUMPI PUSH1 0x1 PUSH1 0x40 SHL DUP3 GT PUSH2 0x101C JUMPI PUSH1 0x20 SWAP1 PUSH2 0xF73 DUP4 DUP8 SLOAD DUP2 DUP10 SSTORE DUP9 PUSH2 0x2BD2 JUMP JUMPDEST ADD SWAP4 PUSH0 MSTORE PUSH1 0x20 PUSH0 KECCAK256 PUSH0 JUMPDEST DUP3 DUP2 LT PUSH2 0xFFF JUMPI PUSH1 0x20 DUP6 DUP6 PUSH2 0xF93 PUSH1 0xD SLOAD PUSH2 0x2BA1 JUMP JUMPDEST PUSH1 0xD SSTORE CALLER PUSH0 MSTORE PUSH1 0x4 DUP4 MSTORE PUSH1 0x40 PUSH0 KECCAK256 PUSH2 0xFAB DUP2 SLOAD PUSH2 0x2BA1 JUMP JUMPDEST SWAP1 SSTORE DUP2 PUSH32 0x8356BC5007056A642094F44DA4E8E22469DB3E8A36B5811C0F91F735F1491C79 PUSH1 0x40 MLOAD PUSH2 0xFDE DUP2 PUSH1 0x4 CALLDATALOAD PUSH2 0x29B6 JUMP JUMPDEST PUSH1 0x40 DUP7 DUP3 ADD MSTORE DUP1 PUSH2 0xFF4 CALLER SWAP6 PUSH1 0x40 DUP4 ADD SWAP1 PUSH2 0x29C3 JUMP JUMPDEST SUB SWAP1 LOG3 PUSH1 0x40 MLOAD SWAP1 DUP2 MSTORE RETURN JUMPDEST DUP6 MLOAD PUSH1 0x1 PUSH1 0x1 PUSH1 0xA0 SHL SUB AND DUP2 DUP4 ADD SSTORE PUSH1 0x20 SWAP1 SWAP6 ADD SWAP5 PUSH1 0x1 ADD PUSH2 0xF7D JUMP JUMPDEST PUSH4 0x4E487B71 PUSH1 0xE0 SHL PUSH0 MSTORE PUSH1 0x41 PUSH1 0x4 MSTORE PUSH1 0x24 PUSH0 REVERT JUMPDEST PUSH1 0x1 SWAP1 PUSH1 0x20 DUP5 MLOAD SWAP5 ADD SWAP4 DUP2 DUP5 ADD SSTORE ADD PUSH2 0xF36 JUMP JUMPDEST DUP3 MLOAD PUSH1 0x1 PUSH1 0x1 PUSH1 0xA0 SHL SUB AND DUP2 DUP4 ADD SSTORE PUSH1 0x20 SWAP1 SWAP3 ADD SWAP2 PUSH1 0x1 ADD PUSH2 0xEF3 JUMP JUMPDEST ADD MLOAD SWAP1 POP DUP10 DUP1 PUSH2 0xE41 JUMP JUMPDEST SWAP3 POP PUSH1 0x4 DUP8 ADD PUSH0 MSTORE PUSH1 0x20 PUSH0 KECCAK256 SWAP1 PUSH0 SWAP4 JUMPDEST PUSH1 0x1F NOT DUP5 AND DUP6 LT PUSH2 0x10BF JUMPI PUSH1 0x1 SWAP5 POP DUP4 PUSH1 0x1F NOT DUP2 AND LT PUSH2 0x10A7 JUMPI JUMPDEST POP POP POP DUP2 SHL ADD PUSH1 0x4 DUP6 ADD SSTORE PUSH2 0xE58 JUMP JUMPDEST ADD MLOAD PUSH0 NOT PUSH1 0xF8 DUP5 PUSH1 0x3 SHL AND SHR NOT AND SWAP1 SSTORE DUP10 DUP1 DUP1 PUSH2 0x1097 JUMP JUMPDEST DUP2 DUP2 ADD MLOAD DUP4 SSTORE PUSH1 0x20 SWAP5 DUP6 ADD SWAP5 PUSH1 0x1 SWAP1 SWAP4 ADD SWAP3 SWAP1 SWAP2 ADD SWAP1 PUSH2 0x107C JUMP JUMPDEST PUSH2 0x1108 SWAP1 PUSH1 0x4 DUP10 ADD PUSH0 MSTORE PUSH1 0x20 PUSH0 KECCAK256 PUSH1 0x1F DUP6 ADD PUSH1 0x5 SHR DUP2 ADD SWAP2 PUSH1 0x20 DUP7 LT PUSH2 0x110E JUMPI JUMPDEST PUSH1 0x1F ADD PUSH1 0x5 SHR ADD SWAP1 PUSH2 0x2BAF JUMP JUMPDEST DUP11 PUSH2 0xE2B JUMP JUMPDEST SWAP1 SWAP2 POP DUP2 SWAP1 PUSH2 0x10FB JUMP JUMPDEST ADD MLOAD SWAP1 POP DUP11 DUP1 PUSH2 0xDEB JUMP JUMPDEST SWAP3 POP PUSH1 0x3 DUP9 ADD PUSH0 MSTORE PUSH1 0x20 PUSH0 KECCAK256 SWAP1 PUSH0 SWAP4 JUMPDEST PUSH1 0x1F NOT DUP5 AND DUP6 LT PUSH2 0x1176 JUMPI PUSH1 0x1 SWAP5 POP DUP4 PUSH1 0x1F NOT DUP2 AND LT PUSH2 0x115E JUMPI JUMPDEST POP POP POP DUP2 SHL ADD PUSH1 0x3 DUP7 ADD SSTORE PUSH2 0xE02 JUMP JUMPDEST ADD MLOAD PUSH0 NOT PUSH1 0xF8 DUP5 PUSH1 0x3 SHL AND SHR NOT AND SWAP1 SSTORE DUP11 DUP1 DUP1 PUSH2 0x114E JUMP JUMPDEST DUP2 DUP2 ADD MLOAD DUP4 SSTORE PUSH1 0x20 SWAP5 DUP6 ADD SWAP5 PUSH1 0x1 SWAP1 SWAP4 ADD SWAP3 SWAP1 SWAP2 ADD SWAP1 PUSH2 0x1133 JUMP JUMPDEST PUSH2 0x11BE SWAP1 PUSH1 0x3 DUP11 ADD PUSH0 MSTORE PUSH1 0x20 PUSH0 KECCAK256 PUSH1 0x1F DUP6 ADD PUSH1 0x5 SHR DUP2 ADD SWAP2 PUSH1 0x20 DUP7 LT PUSH2 0x110E JUMPI PUSH1 0x1F ADD PUSH1 0x5 SHR ADD SWAP1 PUSH2 0x2BAF JUMP JUMPDEST DUP12 PUSH2 0xDD5 JUMP JUMPDEST SWAP1 POP DUP9 ADD MLOAD DUP12 PUSH2 0xD96 JUMP JUMPDEST SWAP2 POP PUSH1 0x2 DUP9 ADD PUSH0 MSTORE PUSH1 0x20 PUSH0 KECCAK256 PUSH0 SWAP3 JUMPDEST DUP11 PUSH1 0x1F NOT DUP5 AND DUP6 LT PUSH2 0x1222 JUMPI POP PUSH1 0x1 SWAP4 POP DUP3 PUSH1 0x1F NOT DUP2 AND LT PUSH2 0x120A JUMPI JUMPDEST POP POP DUP2 SHL ADD PUSH1 0x2 DUP8 ADD SSTORE PUSH2 0xDAC JUMP JUMPDEST DUP11 ADD MLOAD PUSH0 NOT PUSH1 0xF8 DUP5 PUSH1 0x3 SHL AND SHR NOT AND SWAP1 SSTORE DUP12 DUP1 PUSH2 0x11FB JUMP JUMPDEST DUP2 ADD MLOAD DUP3 SSTORE PUSH1 0x20 SWAP4 DUP5 ADD SWAP4 PUSH1 0x1 SWAP1 SWAP3 ADD SWAP2 ADD PUSH2 0x11DE JUMP JUMPDEST PUSH2 0x1266 SWAP1 PUSH1 0x2 DUP10 ADD PUSH0 MSTORE PUSH1 0x20 PUSH0 KECCAK256 PUSH1 0x1F DUP5 ADD PUSH1 0x5 SHR DUP2 ADD SWAP2 PUSH1 0x20 DUP6 LT PUSH2 0x110E JUMPI PUSH1 0x1F ADD PUSH1 0x5 SHR ADD SWAP1 PUSH2 0x2BAF JUMP JUMPDEST DUP11 PUSH2 0xD80 JUMP JUMPDEST SWAP7 SWAP3 SWAP6 SWAP2 SWAP5 SWAP1 SWAP4 PUSH0 JUMPDEST DUP6 MLOAD DUP2 LT ISZERO PUSH2 0x12FA JUMPI PUSH1 0x1 PUSH1 0x1 PUSH1 0xA0 SHL SUB PUSH2 0x1290 DUP3 DUP9 PUSH2 0x2FF0 JUMP JUMPDEST MLOAD AND PUSH0 MSTORE PUSH1 0x10 PUSH1 0x20 MSTORE PUSH1 0x40 PUSH0 KECCAK256 SLOAD PUSH2 0x12A8 DUP3 DUP10 PUSH2 0x2FF0 JUMP JUMPDEST MLOAD GT PUSH2 0x12B6 JUMPI PUSH1 0x1 ADD PUSH2 0x1275 JUMP JUMPDEST PUSH1 0x40 MLOAD PUSH3 0x461BCD PUSH1 0xE5 SHL DUP2 MSTORE PUSH1 0x20 PUSH1 0x4 DUP3 ADD MSTORE PUSH1 0x1B PUSH1 0x24 DUP3 ADD MSTORE PUSH32 0x496E73756666696369656E742074726561737572792066756E64730000000000 PUSH1 0x44 DUP3 ADD MSTORE DUP10 SWAP1 REVERT JUMPDEST POP SWAP4 SWAP1 SWAP5 SWAP2 SWAP6 SWAP3 SWAP7 POP DUP8 PUSH2 0xD0E JUMP JUMPDEST PUSH1 0x40 MLOAD PUSH3 0x461BCD PUSH1 0xE5 SHL DUP2 MSTORE PUSH1 0x20 PUSH1 0x4 DUP3 ADD MSTORE PUSH1 0x1E PUSH1 0x24 DUP3 ADD MSTORE PUSH32 0x546F6B656E2F726563697069656E74206172726179206D69736D617463680000 PUSH1 0x44 DUP3 ADD MSTORE REVERT JUMPDEST PUSH1 0x40 MLOAD PUSH3 0x461BCD PUSH1 0xE5 SHL DUP2 MSTORE PUSH1 0x20 PUSH1 0x4 DUP3 ADD MSTORE PUSH1 0x1B PUSH1 0x24 DUP3 ADD MSTORE PUSH32 0x546F6B656E2F616D6F756E74206172726179206D69736D617463680000000000 PUSH1 0x44 DUP3 ADD MSTORE REVERT JUMPDEST PUSH1 0x40 MLOAD PUSH3 0x461BCD PUSH1 0xE5 SHL DUP2 MSTORE PUSH1 0x20 PUSH1 0x4 DUP3 ADD MSTORE PUSH1 0x14 PUSH1 0x24 DUP3 ADD MSTORE PUSH20 0x11195CD8DC9A5C1D1A5BDB881C995C5D5A5C9959 PUSH1 0x62 SHL PUSH1 0x44 DUP3 ADD MSTORE REVERT JUMPDEST PUSH1 0x40 MLOAD PUSH3 0x461BCD PUSH1 0xE5 SHL DUP2 MSTORE PUSH1 0x20 PUSH1 0x4 DUP3 ADD MSTORE PUSH1 0x14 PUSH1 0x24 DUP3 ADD MSTORE PUSH20 0x92DCECC2D8D2C840E8D2E8D8CA40D8CADCCEE8D PUSH1 0x63 SHL PUSH1 0x44 DUP3 ADD MSTORE REVERT JUMPDEST PUSH1 0xC8 SWAP2 POP GT ISZERO DUP10 PUSH2 0xCE8 JUMP JUMPDEST PUSH1 0x84 SWAP1 PUSH10 0x19481C1C9BDC1BDCD85B PUSH1 0xB2 SHL PUSH1 0x40 MLOAD SWAP2 PUSH3 0x461BCD PUSH1 0xE5 SHL DUP4 MSTORE PUSH1 0x20 PUSH1 0x4 DUP5 ADD MSTORE PUSH1 0x2A PUSH1 0x24 DUP5 ADD MSTORE PUSH32 0x496E73756666696369656E742070726976696C6567657320746F206372656174 PUSH1 0x44 DUP5 ADD MSTORE DUP3 ADD MSTORE REVERT JUMPDEST DUP2 CALLDATALOAD DUP2 MSTORE PUSH1 0x20 SWAP2 DUP3 ADD SWAP2 ADD PUSH2 0xC8F JUMP JUMPDEST CALLVALUE PUSH2 0x28A JUMPI PUSH0 CALLDATASIZE PUSH1 0x3 NOT ADD SLT PUSH2 0x28A JUMPI PUSH1 0xB SLOAD PUSH1 0x40 MLOAD PUSH1 0x1 PUSH1 0x1 PUSH1 0xA0 SHL SUB SWAP1 SWAP2 AND DUP2 MSTORE PUSH1 0x20 SWAP1 RETURN JUMPDEST CALLVALUE PUSH2 0x28A JUMPI PUSH0 CALLDATASIZE PUSH1 0x3 NOT ADD SLT PUSH2 0x28A JUMPI PUSH1 0xA SLOAD PUSH1 0x40 MLOAD PUSH1 0x1 PUSH1 0x1 PUSH1 0xA0 SHL SUB SWAP1 SWAP2 AND DUP2 MSTORE PUSH1 0x20 SWAP1 RETURN JUMPDEST CALLVALUE PUSH2 0x28A JUMPI PUSH1 0x20 DUP1 PUSH1 0x3 NOT CALLDATASIZE ADD SLT PUSH2 0x28A JUMPI PUSH1 0x4 CALLDATALOAD DUP1 ISZERO ISZERO DUP1 PUSH2 0x1616 JUMPI JUMPDEST PUSH2 0x14E9 SWAP1 PUSH2 0x2B46 JUMP JUMPDEST PUSH0 MSTORE PUSH1 0x3 DUP2 MSTORE PUSH1 0x40 PUSH0 KECCAK256 SWAP1 PUSH1 0x4 DUP2 PUSH1 0x1 DUP1 PUSH1 0xA0 SHL SUB PUSH1 0x9 SLOAD AND PUSH1 0x40 MLOAD SWAP3 DUP4 DUP1 SWAP3 PUSH4 0x18160DDD PUSH1 0xE0 SHL DUP3 MSTORE GAS STATICCALL SWAP1 DUP2 ISZERO PUSH2 0x160B JUMPI PUSH0 SWAP2 PUSH2 0x15DE JUMPI JUMPDEST POP PUSH1 0xC DUP4 ADD SLOAD SWAP1 DUP2 DUP2 MUL SWAP2 DUP2 DUP4 DIV EQ SWAP1 ISZERO OR ISZERO PUSH2 0x15BC JUMPI PUSH2 0x2710 DUP1 SWAP2 DIV PUSH1 0xB DUP5 ADD SLOAD LT ISZERO SWAP1 PUSH1 0x8 DUP5 ADD SLOAD PUSH1 0x9 DUP6 ADD SLOAD PUSH2 0x155C DUP2 DUP4 PUSH2 0x2B88 JUMP JUMPDEST ISZERO PUSH2 0x15D0 JUMPI DUP3 DUP3 MUL SWAP3 DUP3 DUP5 DIV EQ DUP3 ISZERO OR ISZERO PUSH2 0x15BC JUMPI PUSH2 0x157A SWAP2 PUSH2 0x2B88 JUMP JUMPDEST DUP1 ISZERO PUSH2 0x15A8 JUMPI PUSH1 0xD PUSH1 0x40 SWAP6 ADD SLOAD SWAP2 DIV LT ISZERO SWAP2 JUMPDEST DUP3 PUSH2 0x159F JUMPI JUMPDEST DUP4 MLOAD SWAP3 ISZERO ISZERO DUP4 MSTORE DUP3 ADD MSTORE RETURN JUMPDEST SWAP2 POP DUP1 SWAP2 PUSH2 0x1593 JUMP JUMPDEST PUSH4 0x4E487B71 PUSH1 0xE0 SHL PUSH0 MSTORE PUSH1 0x12 PUSH1 0x4 MSTORE PUSH1 0x24 PUSH0 REVERT JUMPDEST PUSH4 0x4E487B71 PUSH1 0xE0 SHL PUSH0 MSTORE PUSH1 0x11 PUSH1 0x4 MSTORE PUSH1 0x24 PUSH0 REVERT JUMPDEST POP POP POP PUSH1 0x40 SWAP3 POP PUSH0 SWAP2 PUSH2 0x158D JUMP JUMPDEST SWAP1 POP DUP2 DUP2 DUP2 RETURNDATASIZE DUP4 GT PUSH2 0x1604 JUMPI JUMPDEST PUSH2 0x15F5 DUP2 DUP4 PUSH2 0x28F3 JUMP JUMPDEST DUP2 ADD SUB SLT PUSH2 0x28A JUMPI MLOAD DUP4 PUSH2 0x1523 JUMP JUMPDEST POP RETURNDATASIZE PUSH2 0x15EB JUMP JUMPDEST PUSH1 0x40 MLOAD RETURNDATASIZE PUSH0 DUP3 RETURNDATACOPY RETURNDATASIZE SWAP1 REVERT JUMPDEST POP PUSH1 0xC SLOAD DUP2 LT PUSH2 0x14E0 JUMP JUMPDEST CALLVALUE PUSH2 0x28A JUMPI PUSH0 CALLDATASIZE PUSH1 0x3 NOT ADD SLT PUSH2 0x28A JUMPI PUSH1 0x20 PUSH1 0x40 MLOAD PUSH2 0x12C DUP2 MSTORE RETURN JUMPDEST CALLVALUE PUSH2 0x28A JUMPI PUSH0 CALLDATASIZE PUSH1 0x3 NOT ADD SLT PUSH2 0x28A JUMPI PUSH1 0x20 PUSH1 0xFF PUSH1 0x2 SLOAD AND PUSH1 0x40 MLOAD SWAP1 ISZERO ISZERO DUP2 MSTORE RETURN JUMPDEST CALLVALUE PUSH2 0x28A JUMPI PUSH1 0x20 DUP1 PUSH1 0x3 NOT CALLDATASIZE ADD SLT PUSH2 0x28A JUMPI PUSH2 0x1679 PUSH2 0x2A0E JUMP JUMPDEST PUSH1 0x1 PUSH1 0x1 PUSH1 0xA0 SHL SUB SWAP1 DUP2 AND SWAP2 CALLER DUP4 EQ PUSH2 0x178D JUMPI PUSH1 0x24 SWAP1 CALLER PUSH0 MSTORE PUSH1 0x8 DUP2 MSTORE DUP1 DUP4 PUSH1 0x40 PUSH0 KECCAK256 SLOAD AND SWAP4 PUSH1 0x9 SLOAD AND PUSH1 0x40 MLOAD SWAP4 DUP5 DUP1 SWAP3 PUSH4 0x9AB24EB PUSH1 0xE4 SHL DUP3 MSTORE CALLER PUSH1 0x4 DUP4 ADD MSTORE GAS STATICCALL SWAP2 DUP3 ISZERO PUSH2 0x160B JUMPI PUSH0 SWAP3 PUSH2 0x175E JUMPI JUMPDEST POP DUP3 PUSH2 0x1741 JUMPI JUMPDEST CALLER PUSH0 MSTORE PUSH1 0x8 DUP2 MSTORE PUSH1 0x40 PUSH0 KECCAK256 DUP5 PUSH12 0xFFFFFFFFFFFFFFFFFFFFFFFF PUSH1 0xA0 SHL DUP3 SLOAD AND OR SWAP1 SSTORE DUP4 PUSH2 0x1722 JUMPI JUMPDEST POP POP CALLER PUSH32 0x3134E8A2E6D97E929A7E54011EA5485D7D196DD5F0BA4D4EF95803E8E3FC257F PUSH0 DUP1 LOG4 STOP JUMPDEST PUSH1 0x7 SWAP1 DUP5 PUSH0 MSTORE MSTORE PUSH2 0x1738 PUSH1 0x40 PUSH0 KECCAK256 SWAP2 DUP3 SLOAD PUSH2 0x2B88 JUMP JUMPDEST SWAP1 SSTORE DUP3 DUP1 PUSH2 0x16F9 JUMP JUMPDEST DUP3 PUSH0 MSTORE PUSH1 0x7 DUP2 MSTORE PUSH1 0x40 PUSH0 KECCAK256 PUSH2 0x1757 DUP4 DUP3 SLOAD PUSH2 0x2BC5 JUMP JUMPDEST SWAP1 SSTORE PUSH2 0x16D1 JUMP JUMPDEST SWAP1 DUP1 SWAP3 POP DUP2 DUP2 RETURNDATASIZE DUP4 GT PUSH2 0x1786 JUMPI JUMPDEST PUSH2 0x1776 DUP2 DUP4 PUSH2 0x28F3 JUMP JUMPDEST DUP2 ADD SUB SLT PUSH2 0x28A JUMPI MLOAD SWAP1 DUP5 PUSH2 0x16CA JUMP JUMPDEST POP RETURNDATASIZE PUSH2 0x176C JUMP JUMPDEST PUSH1 0x64 SWAP1 PUSH1 0x40 MLOAD SWAP1 PUSH3 0x461BCD PUSH1 0xE5 SHL DUP3 MSTORE PUSH1 0x4 DUP3 ADD MSTORE PUSH1 0x17 PUSH1 0x24 DUP3 ADD MSTORE PUSH32 0x43616E6E6F742064656C656761746520746F2073656C66000000000000000000 PUSH1 0x44 DUP3 ADD MSTORE REVERT JUMPDEST CALLVALUE PUSH2 0x28A JUMPI PUSH1 0x20 CALLDATASIZE PUSH1 0x3 NOT ADD SLT PUSH2 0x28A JUMPI PUSH1 0x20 PUSH1 0x1 PUSH1 0x1 PUSH1 0xA0 SHL SUB DUP1 PUSH2 0x17F5 PUSH2 0x2A0E JUMP JUMPDEST AND PUSH0 MSTORE PUSH1 0x8 DUP3 MSTORE PUSH1 0x40 PUSH0 KECCAK256 SLOAD AND PUSH1 0x40 MLOAD SWAP1 DUP2 MSTORE RETURN JUMPDEST CALLVALUE PUSH2 0x28A JUMPI PUSH0 CALLDATASIZE PUSH1 0x3 NOT ADD SLT PUSH2 0x28A JUMPI PUSH2 0x1822 PUSH2 0x2C3F JUMP JUMPDEST PUSH1 0xFF NOT DUP1 PUSH1 0x12 SLOAD AND PUSH1 0x12 SSTORE PUSH1 0x2 SLOAD PUSH1 0xFF DUP2 AND ISZERO PUSH2 0x1869 JUMPI AND PUSH1 0x2 SSTORE PUSH32 0x5DB9EE0A495BF2E6FF9C91A7834C1BA4FDD244A5E8AA4E537BD38AEAE4B073AA PUSH1 0x20 PUSH1 0x40 MLOAD CALLER DUP2 MSTORE LOG1 STOP JUMPDEST PUSH1 0x40 MLOAD PUSH4 0x8DFC202B PUSH1 0xE0 SHL DUP2 MSTORE PUSH1 0x4 SWAP1 REVERT JUMPDEST CALLVALUE PUSH2 0x28A JUMPI PUSH1 0x60 CALLDATASIZE PUSH1 0x3 NOT ADD SLT PUSH2 0x28A JUMPI PUSH1 0x3 PUSH1 0x24 CALLDATALOAD LT ISZERO PUSH2 0x28A JUMPI PUSH1 0x44 CALLDATALOAD PUSH1 0x1 PUSH1 0x1 PUSH1 0x40 SHL SUB DUP2 GT PUSH2 0x28A JUMPI PUSH2 0x18B6 SWAP1 CALLDATASIZE SWAP1 PUSH1 0x4 ADD PUSH2 0x2A6C JUMP JUMPDEST PUSH2 0x18BE PUSH2 0x2DA4 JUMP JUMPDEST PUSH1 0x4 CALLDATALOAD ISZERO ISZERO DUP1 PUSH2 0x1DAD JUMPI JUMPDEST PUSH2 0x18D2 SWAP1 PUSH2 0x2B46 JUMP JUMPDEST PUSH1 0x4 CALLDATALOAD PUSH0 MSTORE PUSH1 0x3 PUSH1 0x20 MSTORE PUSH1 0x40 PUSH0 KECCAK256 PUSH1 0xE SWAP2 DUP3 DUP3 ADD SWAP1 DUP2 SLOAD SWAP2 PUSH1 0xFF DUP4 AND SWAP3 PUSH1 0x7 DUP5 LT ISZERO SWAP4 DUP5 PUSH2 0x468 JUMPI PUSH1 0x1 DUP2 EQ DUP1 ISZERO PUSH2 0x1D93 JUMPI JUMPDEST ISZERO PUSH2 0x1D4E JUMPI PUSH1 0x6 DUP7 ADD SLOAD TIMESTAMP GT PUSH2 0x1D13 JUMPI CALLER PUSH0 MSTORE PUSH1 0x14 DUP7 ADD PUSH1 0x20 MSTORE PUSH1 0xFF PUSH1 0x40 PUSH0 KECCAK256 SLOAD AND PUSH2 0x1CCE JUMPI PUSH2 0x1934 CALLER PUSH2 0x2DC2 JUMP JUMPDEST SWAP5 DUP6 ISZERO PUSH2 0x1C97 JUMPI PUSH2 0x468 JUMPI ISZERO PUSH2 0x1C7A JUMPI JUMPDEST POP POP PUSH1 0x40 MLOAD PUSH1 0xA0 DUP2 ADD DUP2 DUP2 LT PUSH1 0x1 PUSH1 0x1 PUSH1 0x40 SHL SUB DUP3 GT OR PUSH2 0x101C JUMPI PUSH1 0x40 MSTORE CALLER DUP2 MSTORE PUSH1 0x20 DUP2 ADD PUSH1 0x24 CALLDATALOAD DUP2 MSTORE DUP4 PUSH1 0x40 DUP4 ADD MSTORE TIMESTAMP PUSH1 0x60 DUP4 ADD MSTORE DUP3 PUSH1 0x80 DUP4 ADD MSTORE CALLER PUSH0 MSTORE PUSH1 0x13 DUP6 ADD PUSH1 0x20 MSTORE PUSH1 0x40 PUSH0 KECCAK256 SWAP2 PUSH1 0x1 DUP1 PUSH1 0xA0 SHL SUB DUP2 MLOAD AND SWAP2 DUP4 SLOAD SWAP1 MLOAD SWAP3 PUSH1 0x3 DUP5 LT ISZERO PUSH2 0x468 JUMPI PUSH1 0x80 SWAP4 PUSH1 0xFF PUSH1 0xA0 SHL SWAP1 PUSH1 0xA0 SHL AND SWAP2 PUSH11 0xFFFFFFFFFFFFFFFFFFFFFF PUSH1 0xA8 SHL AND OR OR DUP4 SSTORE PUSH1 0x40 DUP2 ADD MLOAD PUSH1 0x1 DUP5 ADD SSTORE PUSH1 0x60 DUP2 ADD MLOAD PUSH1 0x2 DUP5 ADD SSTORE ADD MLOAD DUP1 MLOAD SWAP1 PUSH1 0x1 PUSH1 0x1 PUSH1 0x40 SHL SUB DUP3 GT PUSH2 0x101C JUMPI PUSH2 0x19FF PUSH1 0x3 DUP5 ADD SLOAD PUSH2 0x28BB JUMP JUMPDEST PUSH1 0x1F DUP2 GT PUSH2 0x1C47 JUMPI JUMPDEST POP PUSH1 0x20 SWAP1 PUSH1 0x1F DUP4 GT PUSH1 0x1 EQ PUSH2 0x1BDC JUMPI PUSH1 0x3 SWAP3 SWAP2 PUSH0 SWAP2 DUP4 PUSH2 0x1BD1 JUMPI JUMPDEST POP POP DUP2 PUSH1 0x1 SHL SWAP2 PUSH0 NOT SWAP1 DUP5 SHL SHR NOT AND OR SWAP2 ADD SSTORE JUMPDEST CALLER PUSH0 MSTORE PUSH1 0x14 DUP4 ADD PUSH1 0x20 MSTORE PUSH1 0x40 PUSH0 KECCAK256 SWAP3 PUSH1 0xFF NOT SWAP4 PUSH1 0x1 DUP6 DUP3 SLOAD AND OR SWAP1 SSTORE PUSH1 0xB DUP2 ADD PUSH2 0x1A62 DUP5 DUP3 SLOAD PUSH2 0x2B88 JUMP JUMPDEST SWAP1 SSTORE PUSH1 0x24 CALLDATALOAD PUSH2 0x1BA4 JUMPI PUSH1 0x8 ADD PUSH2 0x1A79 DUP4 DUP3 SLOAD PUSH2 0x2B88 JUMP JUMPDEST SWAP1 SSTORE JUMPDEST PUSH1 0x40 MLOAD SWAP2 PUSH2 0x1A8C DUP4 PUSH1 0x24 CALLDATALOAD PUSH2 0x2B39 JUMP JUMPDEST PUSH1 0x20 DUP4 ADD MSTORE PUSH1 0x60 PUSH1 0x40 DUP4 ADD MSTORE PUSH32 0x761CCE3A1AF5D9CFC0D57222F605CE4BD2BE345F0AD9EBB7B83A84A91A0C2014 CALLER SWAP3 DUP1 PUSH2 0x1ACD PUSH1 0x4 CALLDATALOAD SWAP5 PUSH1 0x60 DUP4 ADD SWAP1 PUSH2 0x29C3 JUMP JUMPDEST SUB SWAP1 LOG3 PUSH1 0x4 CALLDATALOAD PUSH0 MSTORE PUSH1 0x3 PUSH1 0x20 MSTORE PUSH1 0x40 PUSH0 KECCAK256 PUSH1 0x6 DUP2 ADD SLOAD TIMESTAMP GT PUSH2 0x1AEB JUMPI STOP JUMPDEST PUSH1 0x40 MLOAD PUSH4 0x6414B6A1 PUSH1 0xE0 SHL DUP2 MSTORE PUSH1 0x4 CALLDATALOAD PUSH1 0x4 DUP3 ADD MSTORE PUSH1 0x40 DUP2 PUSH1 0x24 DUP2 ADDRESS GAS STATICCALL SWAP1 DUP2 ISZERO PUSH2 0x160B JUMPI DUP5 SWAP2 PUSH0 SWAP2 PUSH0 SWAP2 PUSH2 0x1B5A JUMPI JUMPDEST POP DUP2 PUSH2 0x1B52 JUMPI JUMPDEST POP ISZERO PUSH2 0x1B42 JUMPI PUSH1 0x2 SWAP2 ADD SWAP2 DUP3 SLOAD AND OR SWAP1 SSTORE JUMPDEST PUSH2 0x1B3E DUP2 SLOAD PUSH2 0x2B95 JUMP JUMPDEST SWAP1 SSTORE STOP JUMPDEST PUSH1 0x3 SWAP2 ADD SWAP2 DUP3 SLOAD AND OR SWAP1 SSTORE PUSH2 0x1B34 JUMP JUMPDEST SWAP1 POP DUP6 PUSH2 0x1B22 JUMP JUMPDEST SWAP3 POP POP POP PUSH1 0x40 DUP2 RETURNDATASIZE PUSH1 0x40 GT PUSH2 0x1B9C JUMPI JUMPDEST DUP2 PUSH2 0x1B77 PUSH1 0x40 SWAP4 DUP4 PUSH2 0x28F3 JUMP JUMPDEST DUP2 ADD SUB SLT PUSH2 0x28A JUMPI DUP1 PUSH2 0x1B96 PUSH1 0x20 PUSH2 0x1B8F DUP8 SWAP5 PUSH2 0x2ECE JUMP JUMPDEST SWAP3 ADD PUSH2 0x2ECE JUMP JUMPDEST DUP7 PUSH2 0x1B1B JUMP JUMPDEST RETURNDATASIZE SWAP2 POP PUSH2 0x1B6A JUMP JUMPDEST PUSH1 0x24 CALLDATALOAD PUSH1 0x1 SUB PUSH2 0x1BC3 JUMPI PUSH1 0x9 ADD PUSH2 0x1BBC DUP4 DUP3 SLOAD PUSH2 0x2B88 JUMP JUMPDEST SWAP1 SSTORE PUSH2 0x1A7C JUMP JUMPDEST PUSH1 0xA ADD PUSH2 0x1BBC DUP4 DUP3 SLOAD PUSH2 0x2B88 JUMP JUMPDEST ADD MLOAD SWAP1 POP DUP9 DUP1 PUSH2 0x1A23 JUMP JUMPDEST SWAP1 PUSH1 0x3 DUP5 ADD PUSH0 MSTORE PUSH1 0x20 PUSH0 KECCAK256 SWAP2 PUSH0 JUMPDEST PUSH1 0x1F NOT DUP6 AND DUP2 LT PUSH2 0x1C2F JUMPI POP SWAP2 DUP4 SWAP2 PUSH1 0x1 SWAP4 PUSH1 0x3 SWAP6 PUSH1 0x1F NOT DUP2 AND LT PUSH2 0x1C18 JUMPI JUMPDEST POP POP POP DUP2 SHL ADD SWAP2 ADD SSTORE PUSH2 0x1A37 JUMP JUMPDEST ADD MLOAD PUSH0 NOT DUP4 DUP7 SHL PUSH1 0xF8 AND SHR NOT AND SWAP1 SSTORE DUP9 DUP1 DUP1 PUSH2 0x1C0A JUMP JUMPDEST SWAP2 SWAP3 PUSH1 0x20 PUSH1 0x1 DUP2 SWAP3 DUP7 DUP6 ADD MLOAD DUP2 SSTORE ADD SWAP5 ADD SWAP3 ADD PUSH2 0x1BEA JUMP JUMPDEST PUSH2 0x1C74 SWAP1 PUSH1 0x3 DUP6 ADD PUSH0 MSTORE PUSH1 0x20 PUSH0 KECCAK256 PUSH1 0x1F DUP6 ADD PUSH1 0x5 SHR DUP2 ADD SWAP2 PUSH1 0x20 DUP7 LT PUSH2 0x110E JUMPI PUSH1 0x1F ADD PUSH1 0x5 SHR ADD SWAP1 PUSH2 0x2BAF JUMP JUMPDEST DUP8 PUSH2 0x1A08 JUMP JUMPDEST PUSH1 0xFF NOT AND PUSH1 0x1 OR SWAP1 SSTORE DUP4 SLOAD PUSH2 0x1C8E SWAP1 PUSH2 0x2BA1 JUMP JUMPDEST DUP5 SSTORE DUP5 DUP1 PUSH2 0x1945 JUMP JUMPDEST PUSH1 0x40 MLOAD PUSH3 0x461BCD PUSH1 0xE5 SHL DUP2 MSTORE PUSH1 0x20 PUSH1 0x4 DUP3 ADD MSTORE PUSH1 0xF PUSH1 0x24 DUP3 ADD MSTORE PUSH15 0x2737903B37BA34B733903837BBB2B9 PUSH1 0x89 SHL PUSH1 0x44 DUP3 ADD MSTORE PUSH1 0x64 SWAP1 REVERT JUMPDEST PUSH1 0x40 MLOAD PUSH3 0x461BCD PUSH1 0xE5 SHL DUP2 MSTORE PUSH1 0x20 PUSH1 0x4 DUP3 ADD MSTORE PUSH1 0x1E PUSH1 0x24 DUP3 ADD MSTORE PUSH32 0x416C726561647920766F746564206F6E20746869732070726F706F73616C0000 PUSH1 0x44 DUP3 ADD MSTORE PUSH1 0x64 SWAP1 REVERT JUMPDEST PUSH1 0x40 MLOAD PUSH3 0x461BCD PUSH1 0xE5 SHL DUP2 MSTORE PUSH1 0x20 PUSH1 0x4 DUP3 ADD MSTORE PUSH1 0x13 PUSH1 0x24 DUP3 ADD MSTORE PUSH19 0x159BDD1A5B99C81C195C9A5BD908195B991959 PUSH1 0x6A SHL PUSH1 0x44 DUP3 ADD MSTORE PUSH1 0x64 SWAP1 REVERT JUMPDEST PUSH1 0x40 MLOAD PUSH3 0x461BCD PUSH1 0xE5 SHL DUP2 MSTORE PUSH1 0x20 PUSH1 0x4 DUP3 ADD MSTORE PUSH1 0x1E PUSH1 0x24 DUP3 ADD MSTORE PUSH32 0x50726F706F73616C206E6F742061637469766520666F7220766F74696E670000 PUSH1 0x44 DUP3 ADD MSTORE PUSH1 0x64 SWAP1 REVERT JUMPDEST POP PUSH0 SWAP5 POP DUP1 ISZERO DUP1 ISZERO PUSH2 0x1905 JUMPI POP PUSH1 0x5 DUP7 ADD SLOAD TIMESTAMP LT ISZERO PUSH2 0x1905 JUMP JUMPDEST POP PUSH1 0xC SLOAD PUSH1 0x4 CALLDATALOAD LT PUSH2 0x18C9 JUMP JUMPDEST CALLVALUE PUSH2 0x28A JUMPI PUSH1 0x20 CALLDATASIZE PUSH1 0x3 NOT ADD SLT PUSH2 0x28A JUMPI PUSH1 0x1 PUSH1 0x1 PUSH1 0xA0 SHL SUB PUSH2 0x1DDB PUSH2 0x2A0E JUMP JUMPDEST AND PUSH0 MSTORE PUSH1 0x13 PUSH1 0x20 MSTORE PUSH1 0x20 PUSH1 0xFF PUSH1 0x40 PUSH0 KECCAK256 SLOAD AND PUSH1 0x40 MLOAD SWAP1 ISZERO ISZERO DUP2 MSTORE RETURN JUMPDEST CALLVALUE PUSH2 0x28A JUMPI PUSH1 0x40 CALLDATASIZE PUSH1 0x3 NOT ADD SLT PUSH2 0x28A JUMPI PUSH2 0x1E10 PUSH2 0x2A24 JUMP JUMPDEST CALLER PUSH1 0x1 PUSH1 0x1 PUSH1 0xA0 SHL SUB DUP3 AND SUB PUSH2 0x1E2C JUMPI PUSH2 0x4E0 SWAP1 PUSH1 0x4 CALLDATALOAD PUSH2 0x2D32 JUMP JUMPDEST PUSH1 0x40 MLOAD PUSH4 0x334BD919 PUSH1 0xE1 SHL DUP2 MSTORE PUSH1 0x4 SWAP1 REVERT JUMPDEST CALLVALUE PUSH2 0x28A JUMPI PUSH1 0x40 CALLDATASIZE PUSH1 0x3 NOT ADD SLT PUSH2 0x28A JUMPI PUSH2 0x4E0 PUSH1 0x4 CALLDATALOAD PUSH2 0x1E5D PUSH2 0x2A24 JUMP JUMPDEST SWAP1 DUP1 PUSH0 MSTORE PUSH0 PUSH1 0x20 MSTORE PUSH2 0x1E75 PUSH1 0x1 PUSH1 0x40 PUSH0 KECCAK256 ADD SLOAD PUSH2 0x2C95 JUMP JUMPDEST PUSH2 0x2CB6 JUMP JUMPDEST CALLVALUE PUSH2 0x28A JUMPI PUSH0 CALLDATASIZE PUSH1 0x3 NOT ADD SLT PUSH2 0x28A JUMPI PUSH1 0x9 SLOAD PUSH1 0x40 MLOAD PUSH1 0x1 PUSH1 0x1 PUSH1 0xA0 SHL SUB SWAP1 SWAP2 AND DUP2 MSTORE PUSH1 0x20 SWAP1 RETURN JUMPDEST CALLVALUE PUSH2 0x28A JUMPI PUSH0 CALLDATASIZE PUSH1 0x3 NOT ADD SLT PUSH2 0x28A JUMPI PUSH1 0x20 PUSH1 0xFF PUSH1 0x12 SLOAD AND PUSH1 0x40 MLOAD SWAP1 ISZERO ISZERO DUP2 MSTORE RETURN JUMPDEST CALLVALUE PUSH2 0x28A JUMPI PUSH0 CALLDATASIZE PUSH1 0x3 NOT ADD SLT PUSH2 0x28A JUMPI PUSH1 0x20 PUSH1 0x40 MLOAD PUSH32 0x55435DD261A4B9B3364963F7738A7A662AD9C84396D64BE3365284BB7F0A5041 DUP2 MSTORE RETURN JUMPDEST CALLVALUE PUSH2 0x28A JUMPI PUSH1 0x20 CALLDATASIZE PUSH1 0x3 NOT ADD SLT PUSH2 0x28A JUMPI PUSH1 0x4 CALLDATALOAD PUSH0 MSTORE PUSH0 PUSH1 0x20 MSTORE PUSH1 0x20 PUSH1 0x1 PUSH1 0x40 PUSH0 KECCAK256 ADD SLOAD PUSH1 0x40 MLOAD SWAP1 DUP2 MSTORE RETURN JUMPDEST CALLVALUE PUSH2 0x28A JUMPI PUSH1 0x20 CALLDATASIZE PUSH1 0x3 NOT ADD SLT PUSH2 0x28A JUMPI PUSH1 0x4 CALLDATALOAD PUSH1 0x8 DUP2 LT ISZERO PUSH2 0x28A JUMPI PUSH2 0x1F52 PUSH1 0xE0 SWAP2 PUSH2 0x2A3A JUMP JUMPDEST DUP1 SLOAD SWAP1 PUSH1 0x1 DUP2 ADD SLOAD SWAP1 PUSH1 0x2 DUP2 ADD SLOAD PUSH1 0x3 DUP3 ADD SLOAD PUSH1 0x4 DUP4 ADD SLOAD SWAP2 PUSH1 0x6 PUSH1 0x5 DUP6 ADD SLOAD SWAP5 ADD SLOAD SWAP5 PUSH1 0x40 MLOAD SWAP7 DUP8 MSTORE PUSH1 0x20 DUP8 ADD MSTORE PUSH1 0x40 DUP7 ADD MSTORE PUSH1 0x60 DUP6 ADD MSTORE PUSH1 0x80 DUP5 ADD MSTORE PUSH1 0xA0 DUP4 ADD MSTORE PUSH1 0xC0 DUP3 ADD MSTORE RETURN JUMPDEST CALLVALUE PUSH2 0x28A JUMPI PUSH0 CALLDATASIZE PUSH1 0x3 NOT ADD SLT PUSH2 0x28A JUMPI PUSH1 0x20 PUSH1 0x40 MLOAD PUSH32 0x8A21E8FDAE6C23863F7DE5307E2E7162C88DAB602A41610ADDB5F1505D259398 DUP2 MSTORE RETURN JUMPDEST PUSH1 0x40 CALLDATASIZE PUSH1 0x3 NOT ADD SLT PUSH2 0x28A JUMPI PUSH2 0x1FEA PUSH2 0x2A0E JUMP JUMPDEST PUSH1 0x24 DUP1 CALLDATALOAD SWAP2 PUSH2 0x1FF7 PUSH2 0x2BF3 JUMP JUMPDEST PUSH1 0x1 PUSH1 0x1 PUSH1 0xA0 SHL SUB SWAP1 DUP2 AND SWAP2 DUP3 PUSH2 0x2185 JUMPI DUP4 CALLVALUE SUB PUSH2 0x214B JUMPI PUSH0 DUP1 MSTORE PUSH1 0x10 PUSH1 0x20 MSTORE PUSH1 0x40 PUSH0 KECCAK256 PUSH2 0x2026 DUP6 DUP3 SLOAD PUSH2 0x2B88 JUMP JUMPDEST SWAP1 SSTORE JUMPDEST DUP3 PUSH0 MSTORE PUSH1 0x6 PUSH1 0x20 MSTORE PUSH1 0x1 PUSH1 0x40 PUSH0 KECCAK256 ADD DUP5 DUP2 SLOAD DUP1 ISZERO PUSH0 EQ PUSH2 0x2136 JUMPI POP POP POP PUSH1 0x40 MLOAD SWAP1 PUSH1 0xC0 DUP3 ADD SWAP1 DUP3 DUP3 LT PUSH1 0x1 PUSH1 0x1 PUSH1 0x40 SHL SUB DUP4 GT OR PUSH2 0x2123 JUMPI POP SWAP1 PUSH1 0x5 SWAP2 PUSH1 0x40 MSTORE DUP4 DUP2 MSTORE PUSH1 0x20 DUP2 ADD DUP6 DUP2 MSTORE PUSH1 0x40 DUP3 ADD PUSH0 DUP2 MSTORE PUSH1 0x60 DUP4 ADD SWAP1 PUSH0 DUP3 MSTORE PUSH1 0x80 DUP5 ADD SWAP3 TIMESTAMP DUP5 MSTORE PUSH1 0xA0 DUP6 ADD SWAP7 PUSH1 0x1 DUP9 MSTORE DUP9 PUSH0 MSTORE PUSH1 0x6 PUSH1 0x20 MSTORE PUSH1 0x40 PUSH0 KECCAK256 SWAP6 MLOAD AND PUSH12 0xFFFFFFFFFFFFFFFFFFFFFFFF PUSH1 0xA0 SHL DUP7 SLOAD AND OR DUP6 SSTORE MLOAD PUSH1 0x1 DUP6 ADD SSTORE MLOAD PUSH1 0x2 DUP5 ADD SSTORE MLOAD PUSH1 0x3 DUP4 ADD SSTORE MLOAD PUSH1 0x4 DUP3 ADD SSTORE ADD SWAP1 MLOAD ISZERO ISZERO PUSH1 0xFF DUP1 NOT DUP4 SLOAD AND SWAP2 AND OR SWAP1 SSTORE JUMPDEST PUSH2 0x20EE DUP3 PUSH1 0x11 SLOAD PUSH2 0x2B88 JUMP JUMPDEST PUSH1 0x11 SSTORE PUSH1 0x40 MLOAD SWAP2 DUP3 MSTORE PUSH32 0xB906CC5FBA109FDCD8C55AD082C1408B0CC5F0A7FA925BD9424F47816BAFAF18 PUSH1 0x20 CALLER SWAP4 LOG3 PUSH1 0x1 DUP1 SSTORE STOP JUMPDEST PUSH4 0x4E487B71 PUSH1 0xE0 SHL PUSH0 SWAP1 DUP2 MSTORE PUSH1 0x41 PUSH1 0x4 MSTORE REVERT JUMPDEST SWAP1 SWAP2 SWAP4 POP PUSH2 0x2144 SWAP3 POP PUSH2 0x2B88 JUMP JUMPDEST SWAP1 SSTORE PUSH2 0x20E2 JUMP JUMPDEST PUSH1 0x64 SWAP1 PUSH1 0x13 PUSH1 0x40 MLOAD SWAP2 PUSH3 0x461BCD PUSH1 0xE5 SHL DUP4 MSTORE PUSH1 0x20 PUSH1 0x4 DUP5 ADD MSTORE DUP3 ADD MSTORE PUSH19 0x8AA89040C2DADEEADCE840DAD2E6DAC2E8C6D PUSH1 0x6B SHL PUSH1 0x44 DUP3 ADD MSTORE REVERT JUMPDEST DUP4 ISZERO PUSH2 0x2204 JUMPI PUSH1 0x40 MLOAD PUSH4 0x23B872DD PUSH1 0xE0 SHL PUSH1 0x20 DUP3 ADD MSTORE CALLER DUP3 DUP3 ADD MSTORE ADDRESS PUSH1 0x44 DUP3 ADD MSTORE PUSH1 0x64 DUP1 DUP3 ADD DUP7 SWAP1 MSTORE DUP2 MSTORE PUSH1 0xA0 DUP2 ADD PUSH1 0x1 PUSH1 0x1 PUSH1 0x40 SHL SUB DUP2 GT DUP3 DUP3 LT OR PUSH2 0x21F1 JUMPI PUSH1 0x40 MSTORE PUSH2 0x21D3 SWAP1 DUP5 PUSH2 0x3004 JUMP JUMPDEST DUP3 PUSH0 MSTORE PUSH1 0x10 PUSH1 0x20 MSTORE PUSH1 0x40 PUSH0 KECCAK256 PUSH2 0x21EA DUP6 DUP3 SLOAD PUSH2 0x2B88 JUMP JUMPDEST SWAP1 SSTORE PUSH2 0x2029 JUMP JUMPDEST DUP3 PUSH4 0x4E487B71 PUSH1 0xE0 SHL PUSH0 MSTORE PUSH1 0x41 PUSH1 0x4 MSTORE PUSH0 REVERT JUMPDEST PUSH1 0x64 SWAP1 PUSH1 0x17 PUSH1 0x40 MLOAD SWAP2 PUSH3 0x461BCD PUSH1 0xE5 SHL DUP4 MSTORE PUSH1 0x20 PUSH1 0x4 DUP5 ADD MSTORE DUP3 ADD MSTORE PUSH32 0x416D6F756E74206D75737420626520706F736974697665000000000000000000 PUSH1 0x44 DUP3 ADD MSTORE REVERT JUMPDEST CALLVALUE PUSH2 0x28A JUMPI PUSH1 0x20 CALLDATASIZE PUSH1 0x3 NOT ADD SLT PUSH2 0x28A JUMPI PUSH1 0x1 PUSH1 0x1 PUSH1 0xA0 SHL SUB PUSH2 0x2269 PUSH2 0x2A0E JUMP JUMPDEST AND PUSH0 MSTORE PUSH1 0x4 PUSH1 0x20 MSTORE PUSH1 0x20 PUSH1 0x40 PUSH0 KECCAK256 SLOAD PUSH1 0x40 MLOAD SWAP1 DUP2 MSTORE RETURN JUMPDEST CALLVALUE PUSH2 0x28A JUMPI PUSH0 CALLDATASIZE PUSH1 0x3 NOT ADD SLT PUSH2 0x28A JUMPI PUSH1 0x20 PUSH1 0xE SLOAD PUSH1 0x40 MLOAD SWAP1 DUP2 MSTORE RETURN JUMPDEST CALLVALUE PUSH2 0x28A JUMPI PUSH1 0x20 CALLDATASIZE PUSH1 0x3 NOT ADD SLT PUSH2 0x28A JUMPI PUSH2 0x22B6 PUSH2 0x2BF3 JUMP JUMPDEST PUSH1 0x4 CALLDATALOAD ISZERO ISZERO DUP1 PUSH2 0x26D5 JUMPI JUMPDEST PUSH2 0x22CA SWAP1 PUSH2 0x2B46 JUMP JUMPDEST PUSH1 0x4 CALLDATALOAD PUSH0 MSTORE PUSH1 0x3 PUSH1 0x20 MSTORE PUSH1 0x40 PUSH0 KECCAK256 PUSH1 0xE DUP2 ADD DUP1 SLOAD PUSH1 0xFF DUP2 AND PUSH1 0x7 DUP2 LT ISZERO PUSH2 0x468 JUMPI PUSH1 0x2 SUB PUSH2 0x2697 JUMPI PUSH1 0xFF DUP2 PUSH1 0x8 SHR AND PUSH2 0x2652 JUMPI PUSH1 0x6 DUP4 ADD SLOAD PUSH1 0x7 DUP5 ADD SLOAD SWAP1 PUSH2 0x2312 DUP3 DUP3 PUSH2 0x2B88 JUMP JUMPDEST TIMESTAMP LT PUSH2 0x260D JUMPI PUSH2 0x2342 SWAP2 PUSH2 0x2325 SWAP2 PUSH2 0x2B88 JUMP JUMPDEST PUSH1 0x6 PUSH2 0x233A PUSH1 0xFF PUSH1 0x1 DUP9 ADD SLOAD PUSH1 0xA0 SHR AND PUSH2 0x2A3A JUMP JUMPDEST ADD SLOAD SWAP1 PUSH2 0x2B88 JUMP JUMPDEST TIMESTAMP GT PUSH2 0x25C8 JUMPI TIMESTAMP PUSH1 0xF DUP5 ADD SSTORE PUSH2 0xFFFF NOT AND PUSH2 0x104 OR SWAP1 SSTORE PUSH1 0xE SLOAD PUSH2 0x2365 SWAP1 PUSH2 0x2B95 JUMP JUMPDEST PUSH1 0xE SSTORE PUSH2 0x2373 PUSH1 0xF SLOAD PUSH2 0x2BA1 JUMP JUMPDEST PUSH1 0xF SSTORE PUSH1 0x10 DUP2 ADD SLOAD PUSH2 0x23AE JUMPI JUMPDEST CALLER PUSH1 0x4 CALLDATALOAD PUSH32 0x9C85B616F29FCA57A17EAFE71CF9FF82FFEF41766E2CF01EA7F8F7878DD3EC24 PUSH0 DUP1 LOG3 PUSH1 0x1 DUP1 SSTORE STOP JUMPDEST PUSH0 JUMPDEST PUSH1 0x10 DUP3 ADD SLOAD DUP2 LT ISZERO PUSH2 0x25C0 JUMPI PUSH2 0x23C9 DUP2 PUSH1 0x10 DUP5 ADD PUSH2 0x2C16 JUMP JUMPDEST SWAP1 SLOAD PUSH1 0x1 PUSH1 0x1 PUSH1 0xA0 SHL SUB SWAP3 SWAP2 PUSH1 0x3 SHL SHR DUP3 AND PUSH2 0x23E8 DUP3 PUSH1 0x11 DUP7 ADD PUSH2 0x2C16 JUMP JUMPDEST SWAP1 SLOAD SWAP1 PUSH1 0x3 SHL SHR SWAP3 PUSH2 0x23FD DUP4 PUSH1 0x12 DUP8 ADD PUSH2 0x2C16 JUMP JUMPDEST SWAP1 SLOAD SWAP1 PUSH1 0x3 SHL SHR AND SWAP1 DUP1 PUSH0 MSTORE PUSH1 0x10 PUSH1 0x20 MSTORE DUP4 PUSH1 0x40 PUSH0 KECCAK256 SLOAD LT PUSH2 0x257B JUMPI DUP1 PUSH0 MSTORE PUSH1 0x10 PUSH1 0x20 MSTORE PUSH1 0x40 PUSH0 KECCAK256 PUSH2 0x2430 DUP6 DUP3 SLOAD PUSH2 0x2BC5 JUMP JUMPDEST SWAP1 SSTORE DUP1 PUSH0 MSTORE PUSH1 0x6 PUSH1 0x20 MSTORE PUSH1 0x3 PUSH1 0x40 PUSH0 KECCAK256 ADD PUSH2 0x244C DUP6 DUP3 SLOAD PUSH2 0x2B88 JUMP JUMPDEST SWAP1 SSTORE DUP1 PUSH2 0x2503 JUMPI PUSH0 DUP1 DUP1 DUP1 DUP8 DUP7 GAS CALL RETURNDATASIZE ISZERO PUSH2 0x24FE JUMPI RETURNDATASIZE PUSH2 0x246B DUP2 PUSH2 0x2A51 JUMP JUMPDEST SWAP1 PUSH2 0x2479 PUSH1 0x40 MLOAD SWAP3 DUP4 PUSH2 0x28F3 JUMP JUMPDEST DUP2 MSTORE PUSH0 PUSH1 0x20 RETURNDATASIZE SWAP3 ADD RETURNDATACOPY JUMPDEST ISZERO PUSH2 0x24C3 JUMPI PUSH32 0xBEAC931CC17D12002DEE936E693414BB87E4771B6B15E738FAC1AB7FA7B17E51 PUSH1 0x40 PUSH1 0x1 SWAP6 JUMPDEST DUP2 MLOAD SWAP1 DUP2 MSTORE PUSH1 0x4 CALLDATALOAD PUSH1 0x20 DUP3 ADD MSTORE LOG3 ADD PUSH2 0x23B0 JUMP JUMPDEST PUSH1 0x40 MLOAD PUSH3 0x461BCD PUSH1 0xE5 SHL DUP2 MSTORE PUSH1 0x20 PUSH1 0x4 DUP3 ADD MSTORE PUSH1 0x13 PUSH1 0x24 DUP3 ADD MSTORE PUSH19 0x115512081D1C985B9CD9995C8819985A5B1959 PUSH1 0x6A SHL PUSH1 0x44 DUP3 ADD MSTORE PUSH1 0x64 SWAP1 REVERT JUMPDEST PUSH2 0x2483 JUMP JUMPDEST PUSH1 0x40 SWAP5 SWAP4 SWAP5 MLOAD PUSH4 0xA9059CBB PUSH1 0xE0 SHL PUSH1 0x20 DUP3 ADD MSTORE PUSH1 0x24 DUP4 DUP2 DUP4 ADD MSTORE PUSH1 0x44 DUP8 DUP2 DUP5 ADD MSTORE DUP3 MSTORE DUP2 PUSH1 0x80 DUP2 ADD LT PUSH1 0x1 PUSH1 0x1 PUSH1 0x40 SHL SUB PUSH1 0x80 DUP5 ADD GT OR PUSH2 0x2123 JUMPI POP PUSH1 0x40 PUSH1 0x1 SWAP6 SWAP7 PUSH2 0x2576 DUP4 PUSH1 0x80 PUSH32 0xBEAC931CC17D12002DEE936E693414BB87E4771B6B15E738FAC1AB7FA7B17E51 SWAP6 ADD DUP5 MSTORE DUP6 PUSH2 0x3004 JUMP JUMPDEST PUSH2 0x24AF JUMP JUMPDEST PUSH1 0x40 MLOAD PUSH3 0x461BCD PUSH1 0xE5 SHL DUP2 MSTORE PUSH1 0x20 PUSH1 0x4 DUP3 ADD MSTORE PUSH1 0x1D PUSH1 0x24 DUP3 ADD MSTORE PUSH32 0x496E73756666696369656E742074726561737572792062616C616E6365000000 PUSH1 0x44 DUP3 ADD MSTORE PUSH1 0x64 SWAP1 REVERT JUMPDEST POP POP DUP1 PUSH2 0x2380 JUMP JUMPDEST PUSH1 0x40 MLOAD PUSH3 0x461BCD PUSH1 0xE5 SHL DUP2 MSTORE PUSH1 0x20 PUSH1 0x4 DUP3 ADD MSTORE PUSH1 0x1E PUSH1 0x24 DUP3 ADD MSTORE PUSH32 0x457865637574696F6E20677261636520706572696F6420657870697265640000 PUSH1 0x44 DUP3 ADD MSTORE PUSH1 0x64 SWAP1 REVERT JUMPDEST PUSH1 0x40 MLOAD PUSH3 0x461BCD PUSH1 0xE5 SHL DUP2 MSTORE PUSH1 0x20 PUSH1 0x4 DUP3 ADD MSTORE PUSH1 0x17 PUSH1 0x24 DUP3 ADD MSTORE PUSH32 0x457865637574696F6E2064656C6179206E6F74206D6574000000000000000000 PUSH1 0x44 DUP3 ADD MSTORE PUSH1 0x64 SWAP1 REVERT JUMPDEST PUSH1 0x40 MLOAD PUSH3 0x461BCD PUSH1 0xE5 SHL DUP2 MSTORE PUSH1 0x20 PUSH1 0x4 DUP3 ADD MSTORE PUSH1 0x19 PUSH1 0x24 DUP3 ADD MSTORE PUSH32 0x50726F706F73616C20616C726561647920657865637574656400000000000000 PUSH1 0x44 DUP3 ADD MSTORE PUSH1 0x64 SWAP1 REVERT JUMPDEST PUSH1 0x40 MLOAD PUSH3 0x461BCD PUSH1 0xE5 SHL DUP2 MSTORE PUSH1 0x20 PUSH1 0x4 DUP3 ADD MSTORE PUSH1 0x16 PUSH1 0x24 DUP3 ADD MSTORE PUSH22 0x141C9BDC1BDCD85B081B9BDD081CDD58D8D959591959 PUSH1 0x52 SHL PUSH1 0x44 DUP3 ADD MSTORE PUSH1 0x64 SWAP1 REVERT JUMPDEST POP PUSH1 0xC SLOAD PUSH1 0x4 CALLDATALOAD LT PUSH2 0x22C1 JUMP JUMPDEST CALLVALUE PUSH2 0x28A JUMPI PUSH1 0x20 CALLDATASIZE PUSH1 0x3 NOT ADD SLT PUSH2 0x28A JUMPI PUSH1 0x4 CALLDATALOAD PUSH4 0xFFFFFFFF PUSH1 0xE0 SHL DUP2 AND DUP1 SWAP2 SUB PUSH2 0x28A JUMPI PUSH1 0x20 SWAP1 PUSH4 0x7965DB0B PUSH1 0xE0 SHL DUP2 EQ SWAP1 DUP2 ISZERO PUSH2 0x2727 JUMPI JUMPDEST POP PUSH1 0x40 MLOAD SWAP1 ISZERO ISZERO DUP2 MSTORE RETURN JUMPDEST PUSH4 0x1FFC9A7 PUSH1 0xE0 SHL EQ SWAP1 POP DUP3 PUSH2 0x271C JUMP JUMPDEST CALLVALUE PUSH2 0x28A JUMPI PUSH1 0x20 CALLDATASIZE PUSH1 0x3 NOT ADD SLT PUSH2 0x28A JUMPI PUSH1 0x4 CALLDATALOAD PUSH0 MSTORE PUSH1 0x3 PUSH1 0x20 MSTORE PUSH1 0x40 PUSH0 KECCAK256 DUP1 SLOAD SWAP1 PUSH1 0x1 DUP2 ADD SLOAD SWAP1 PUSH1 0x2 DUP2 ADD PUSH2 0x276D SWAP1 PUSH2 0x2914 JUMP JUMPDEST SWAP3 PUSH2 0x277A PUSH1 0x3 DUP4 ADD PUSH2 0x2914 JUMP JUMPDEST SWAP4 PUSH2 0x2787 PUSH1 0x4 DUP5 ADD PUSH2 0x2914 JUMP JUMPDEST SWAP5 PUSH1 0x5 DUP5 ADD SLOAD SWAP6 PUSH1 0x6 DUP6 ADD SLOAD PUSH1 0x7 DUP7 ADD SLOAD PUSH1 0x8 DUP8 ADD SLOAD SWAP1 PUSH1 0x9 DUP9 ADD SLOAD SWAP3 PUSH1 0xA DUP10 ADD SLOAD SWAP5 PUSH1 0xB DUP11 ADD SLOAD SWAP7 PUSH1 0xC DUP12 ADD SLOAD SWAP9 PUSH1 0xD DUP13 ADD SLOAD SWAP11 PUSH1 0xE DUP14 ADD SLOAD SWAP13 PUSH1 0xF ADD SLOAD SWAP14 PUSH1 0x40 MLOAD PUSH1 0x80 MSTORE PUSH2 0x240 SWAP2 PUSH1 0x80 MLOAD MSTORE PUSH1 0x1 PUSH1 0xA0 SHL PUSH1 0x1 SWAP1 SUB DUP2 AND PUSH1 0x80 MLOAD PUSH1 0x20 ADD MSTORE PUSH1 0x80 MLOAD PUSH1 0x40 ADD SWAP1 PUSH1 0xA0 SHR PUSH1 0xFF AND SWAP1 PUSH2 0x27FE SWAP2 PUSH2 0x29B6 JUMP JUMPDEST DUP1 PUSH1 0x80 MLOAD PUSH1 0x60 ADD MSTORE PUSH1 0x80 MLOAD ADD PUSH2 0x2813 SWAP2 PUSH2 0x29C3 JUMP JUMPDEST PUSH1 0x80 MLOAD DUP2 SUB PUSH1 0x80 MLOAD PUSH1 0x80 ADD MSTORE PUSH2 0x2828 SWAP2 PUSH2 0x29C3 JUMP JUMPDEST PUSH1 0x80 MLOAD DUP2 SUB PUSH1 0x80 MLOAD PUSH1 0xA0 ADD MSTORE PUSH2 0x283D SWAP2 PUSH2 0x29C3 JUMP JUMPDEST SWAP11 PUSH1 0x80 MLOAD PUSH1 0xC0 ADD MSTORE PUSH1 0x80 MLOAD PUSH1 0xE0 ADD MSTORE PUSH1 0x80 MLOAD PUSH2 0x100 ADD MSTORE PUSH1 0x80 MLOAD PUSH2 0x120 ADD MSTORE PUSH1 0x80 MLOAD PUSH2 0x140 ADD MSTORE PUSH1 0x80 MLOAD PUSH2 0x160 ADD MSTORE PUSH1 0x80 MLOAD PUSH2 0x180 ADD MSTORE PUSH1 0x80 MLOAD PUSH2 0x1A0 ADD MSTORE PUSH1 0x80 MLOAD PUSH2 0x1C0 ADD MSTORE PUSH1 0x80 MLOAD PUSH2 0x1E0 ADD PUSH1 0xFF DUP3 AND SWAP1 PUSH2 0x2899 SWAP2 PUSH2 0x2A01 JUMP JUMPDEST PUSH1 0x8 SHR PUSH1 0xFF AND ISZERO ISZERO PUSH1 0x80 MLOAD PUSH2 0x200 ADD MSTORE PUSH1 0x80 MLOAD PUSH2 0x220 ADD MSTORE PUSH1 0x80 MLOAD SWAP1 SUB PUSH1 0x80 MLOAD RETURN JUMPDEST SWAP1 PUSH1 0x1 DUP3 DUP2 SHR SWAP3 AND DUP1 ISZERO PUSH2 0x28E9 JUMPI JUMPDEST PUSH1 0x20 DUP4 LT EQ PUSH2 0x28D5 JUMPI JUMP JUMPDEST PUSH4 0x4E487B71 PUSH1 0xE0 SHL PUSH0 MSTORE PUSH1 0x22 PUSH1 0x4 MSTORE PUSH1 0x24 PUSH0 REVERT JUMPDEST SWAP2 PUSH1 0x7F AND SWAP2 PUSH2 0x28CA JUMP JUMPDEST SWAP1 PUSH1 0x1F DUP1 NOT SWAP2 ADD AND DUP2 ADD SWAP1 DUP2 LT PUSH1 0x1 PUSH1 0x1 PUSH1 0x40 SHL SUB DUP3 GT OR PUSH2 0x101C JUMPI PUSH1 0x40 MSTORE JUMP JUMPDEST SWAP1 PUSH1 0x40 MLOAD SWAP2 DUP3 PUSH0 DUP3 SLOAD PUSH2 0x2926 DUP2 PUSH2 0x28BB JUMP JUMPDEST SWAP1 DUP2 DUP5 MSTORE PUSH1 0x20 SWAP5 PUSH1 0x1 SWAP2 PUSH1 0x1 DUP2 AND SWAP1 DUP2 PUSH0 EQ PUSH2 0x2994 JUMPI POP PUSH1 0x1 EQ PUSH2 0x2956 JUMPI JUMPDEST POP POP POP PUSH2 0x2954 SWAP3 POP SUB DUP4 PUSH2 0x28F3 JUMP JUMPDEST JUMP JUMPDEST PUSH0 SWAP1 DUP2 MSTORE DUP6 DUP2 KECCAK256 SWAP6 SWAP4 POP SWAP2 SWAP1 JUMPDEST DUP2 DUP4 LT PUSH2 0x297C JUMPI POP POP PUSH2 0x2954 SWAP4 POP DUP3 ADD ADD PUSH0 DUP1 DUP1 PUSH2 0x2945 JUMP JUMPDEST DUP6 SLOAD DUP9 DUP5 ADD DUP6 ADD MSTORE SWAP5 DUP6 ADD SWAP5 DUP8 SWAP5 POP SWAP2 DUP4 ADD SWAP2 PUSH2 0x2963 JUMP JUMPDEST SWAP3 POP POP POP PUSH2 0x2954 SWAP5 SWAP3 POP PUSH1 0xFF NOT AND DUP3 DUP5 ADD MSTORE ISZERO ISZERO PUSH1 0x5 SHL DUP3 ADD ADD PUSH0 DUP1 DUP1 PUSH2 0x2945 JUMP JUMPDEST SWAP1 PUSH1 0x8 DUP3 LT ISZERO PUSH2 0x468 JUMPI MSTORE JUMP JUMPDEST SWAP2 SWAP1 DUP3 MLOAD SWAP3 DUP4 DUP3 MSTORE PUSH0 JUMPDEST DUP5 DUP2 LT PUSH2 0x29ED JUMPI POP POP DUP3 PUSH0 PUSH1 0x20 DUP1 SWAP5 SWAP6 DUP5 ADD ADD MSTORE PUSH1 0x1F DUP1 NOT SWAP2 ADD AND ADD ADD SWAP1 JUMP JUMPDEST PUSH1 0x20 DUP2 DUP4 ADD DUP2 ADD MLOAD DUP5 DUP4 ADD DUP3 ADD MSTORE ADD PUSH2 0x29CD JUMP JUMPDEST SWAP1 PUSH1 0x7 DUP3 LT ISZERO PUSH2 0x468 JUMPI MSTORE JUMP JUMPDEST PUSH1 0x4 CALLDATALOAD SWAP1 PUSH1 0x1 PUSH1 0x1 PUSH1 0xA0 SHL SUB DUP3 AND DUP3 SUB PUSH2 0x28A JUMPI JUMP JUMPDEST PUSH1 0x24 CALLDATALOAD SWAP1 PUSH1 0x1 PUSH1 0x1 PUSH1 0xA0 SHL SUB DUP3 AND DUP3 SUB PUSH2 0x28A JUMPI JUMP JUMPDEST PUSH1 0x8 DUP2 LT ISZERO PUSH2 0x468 JUMPI PUSH0 MSTORE PUSH1 0x5 PUSH1 0x20 MSTORE PUSH1 0x40 PUSH0 KECCAK256 SWAP1 JUMP JUMPDEST PUSH1 0x1 PUSH1 0x1 PUSH1 0x40 SHL SUB DUP2 GT PUSH2 0x101C JUMPI PUSH1 0x1F ADD PUSH1 0x1F NOT AND PUSH1 0x20 ADD SWAP1 JUMP JUMPDEST DUP2 PUSH1 0x1F DUP3 ADD SLT ISZERO PUSH2 0x28A JUMPI DUP1 CALLDATALOAD SWAP1 PUSH2 0x2A83 DUP3 PUSH2 0x2A51 JUMP JUMPDEST SWAP3 PUSH2 0x2A91 PUSH1 0x40 MLOAD SWAP5 DUP6 PUSH2 0x28F3 JUMP JUMPDEST DUP3 DUP5 MSTORE PUSH1 0x20 DUP4 DUP4 ADD ADD GT PUSH2 0x28A JUMPI DUP2 PUSH0 SWAP3 PUSH1 0x20 DUP1 SWAP4 ADD DUP4 DUP7 ADD CALLDATACOPY DUP4 ADD ADD MSTORE SWAP1 JUMP JUMPDEST PUSH1 0x1 PUSH1 0x1 PUSH1 0x40 SHL SUB DUP2 GT PUSH2 0x101C JUMPI PUSH1 0x5 SHL PUSH1 0x20 ADD SWAP1 JUMP JUMPDEST SWAP1 DUP1 PUSH1 0x1F DUP4 ADD SLT ISZERO PUSH2 0x28A JUMPI PUSH1 0x20 SWAP1 DUP3 CALLDATALOAD PUSH2 0x2AE3 DUP2 PUSH2 0x2AB2 JUMP JUMPDEST SWAP4 PUSH2 0x2AF1 PUSH1 0x40 MLOAD SWAP6 DUP7 PUSH2 0x28F3 JUMP JUMPDEST DUP2 DUP6 MSTORE PUSH1 0x20 DUP1 DUP7 ADD SWAP3 PUSH1 0x5 SHL DUP3 ADD ADD SWAP3 DUP4 GT PUSH2 0x28A JUMPI PUSH1 0x20 ADD SWAP1 JUMPDEST DUP3 DUP3 LT PUSH2 0x2B1A JUMPI POP POP POP POP SWAP1 JUMP JUMPDEST DUP2 CALLDATALOAD PUSH1 0x1 PUSH1 0x1 PUSH1 0xA0 SHL SUB DUP2 AND DUP2 SUB PUSH2 0x28A JUMPI DUP2 MSTORE SWAP1 DUP4 ADD SWAP1 DUP4 ADD PUSH2 0x2B0C JUMP JUMPDEST SWAP1 PUSH1 0x3 DUP3 LT ISZERO PUSH2 0x468 JUMPI MSTORE JUMP JUMPDEST ISZERO PUSH2 0x2B4D JUMPI JUMP JUMPDEST PUSH1 0x40 MLOAD PUSH3 0x461BCD PUSH1 0xE5 SHL DUP2 MSTORE PUSH1 0x20 PUSH1 0x4 DUP3 ADD MSTORE PUSH1 0x13 PUSH1 0x24 DUP3 ADD MSTORE PUSH19 0x125B9D985B1A59081C1C9BDC1BDCD85B081251 PUSH1 0x6A SHL PUSH1 0x44 DUP3 ADD MSTORE PUSH1 0x64 SWAP1 REVERT JUMPDEST SWAP2 SWAP1 DUP3 ADD DUP1 SWAP3 GT PUSH2 0x15BC JUMPI JUMP JUMPDEST DUP1 ISZERO PUSH2 0x15BC JUMPI PUSH0 NOT ADD SWAP1 JUMP JUMPDEST PUSH0 NOT DUP2 EQ PUSH2 0x15BC JUMPI PUSH1 0x1 ADD SWAP1 JUMP JUMPDEST DUP2 DUP2 LT PUSH2 0x2BBA JUMPI POP POP JUMP JUMPDEST PUSH0 DUP2 SSTORE PUSH1 0x1 ADD PUSH2 0x2BAF JUMP JUMPDEST SWAP2 SWAP1 DUP3 SUB SWAP2 DUP3 GT PUSH2 0x15BC JUMPI JUMP JUMPDEST SWAP2 DUP2 DUP2 LT PUSH2 0x2BDF JUMPI POP POP POP JUMP JUMPDEST PUSH2 0x2954 SWAP3 PUSH0 MSTORE PUSH1 0x20 PUSH0 KECCAK256 SWAP2 DUP3 ADD SWAP2 ADD PUSH2 0x2BAF JUMP JUMPDEST PUSH1 0x2 PUSH1 0x1 SLOAD EQ PUSH2 0x2C04 JUMPI PUSH1 0x2 PUSH1 0x1 SSTORE JUMP JUMPDEST PUSH1 0x40 MLOAD PUSH4 0x3EE5AEB5 PUSH1 0xE0 SHL DUP2 MSTORE PUSH1 0x4 SWAP1 REVERT JUMPDEST DUP1 SLOAD DUP3 LT ISZERO PUSH2 0x2C2B JUMPI PUSH0 MSTORE PUSH1 0x20 PUSH0 KECCAK256 ADD SWAP1 PUSH0 SWAP1 JUMP JUMPDEST PUSH4 0x4E487B71 PUSH1 0xE0 SHL PUSH0 MSTORE PUSH1 0x32 PUSH1 0x4 MSTORE PUSH1 0x24 PUSH0 REVERT JUMPDEST CALLER PUSH0 SWAP1 DUP2 MSTORE PUSH32 0xAD3228B676F7D3CD4284A5443F17F1962B36E491B30A40B2405849E597BA5FB5 PUSH1 0x20 MSTORE PUSH1 0x40 SWAP1 KECCAK256 SLOAD PUSH1 0xFF AND ISZERO PUSH2 0x2C77 JUMPI JUMP JUMPDEST PUSH1 0x40 MLOAD PUSH4 0xE2517D3F PUSH1 0xE0 SHL DUP2 MSTORE CALLER PUSH1 0x4 DUP3 ADD MSTORE PUSH0 PUSH1 0x24 DUP3 ADD MSTORE PUSH1 0x44 SWAP1 REVERT JUMPDEST DUP1 PUSH0 MSTORE PUSH0 PUSH1 0x20 MSTORE PUSH1 0x40 PUSH0 KECCAK256 CALLER PUSH0 MSTORE PUSH1 0x20 MSTORE PUSH1 0xFF PUSH1 0x40 PUSH0 KECCAK256 SLOAD AND ISZERO PUSH2 0x685 JUMPI POP JUMP JUMPDEST SWAP1 DUP2 PUSH0 MSTORE PUSH0 PUSH1 0x20 MSTORE PUSH1 0x40 PUSH0 KECCAK256 SWAP1 PUSH1 0x1 DUP1 PUSH1 0xA0 SHL SUB AND SWAP1 DUP2 PUSH0 MSTORE PUSH1 0x20 MSTORE PUSH1 0xFF PUSH1 0x40 PUSH0 KECCAK256 SLOAD AND ISZERO PUSH0 EQ PUSH2 0x2D2C JUMPI DUP2 PUSH0 MSTORE PUSH0 PUSH1 0x20 MSTORE PUSH1 0x40 PUSH0 KECCAK256 DUP2 PUSH0 MSTORE PUSH1 0x20 MSTORE PUSH1 0x40 PUSH0 KECCAK256 PUSH1 0x1 PUSH1 0xFF NOT DUP3 SLOAD AND OR SWAP1 SSTORE CALLER SWAP2 PUSH32 0x2F8788117E7EFF1D82E926EC794901D17C78024A50270940304540A733656F0D PUSH0 DUP1 LOG4 PUSH1 0x1 SWAP1 JUMP JUMPDEST POP POP PUSH0 SWAP1 JUMP JUMPDEST SWAP1 DUP2 PUSH0 MSTORE PUSH0 PUSH1 0x20 MSTORE PUSH1 0x40 PUSH0 KECCAK256 SWAP1 PUSH1 0x1 DUP1 PUSH1 0xA0 SHL SUB AND SWAP1 DUP2 PUSH0 MSTORE PUSH1 0x20 MSTORE PUSH1 0xFF PUSH1 0x40 PUSH0 KECCAK256 SLOAD AND PUSH0 EQ PUSH2 0x2D2C JUMPI DUP2 PUSH0 MSTORE PUSH0 PUSH1 0x20 MSTORE PUSH1 0x40 PUSH0 KECCAK256 DUP2 PUSH0 MSTORE PUSH1 0x20 MSTORE PUSH1 0x40 PUSH0 KECCAK256 PUSH1 0xFF NOT DUP2 SLOAD AND SWAP1 SSTORE CALLER SWAP2 PUSH32 0xF6391F5C32D9C69D2A47EA670B442974B53935D1EDC7FD64EB21E047A839171B PUSH0 DUP1 LOG4 PUSH1 0x1 SWAP1 JUMP JUMPDEST PUSH1 0xFF PUSH1 0x2 SLOAD AND PUSH2 0x2DB0 JUMPI JUMP JUMPDEST PUSH1 0x40 MLOAD PUSH4 0xD93C0665 PUSH1 0xE0 SHL DUP2 MSTORE PUSH1 0x4 SWAP1 REVERT JUMPDEST PUSH1 0x9 SLOAD PUSH1 0x40 MLOAD PUSH4 0x9AB24EB PUSH1 0xE4 SHL DUP2 MSTORE PUSH1 0x1 PUSH1 0x1 PUSH1 0xA0 SHL SUB SWAP3 DUP4 AND PUSH1 0x4 DUP3 ADD DUP2 SWAP1 MSTORE SWAP1 SWAP2 PUSH1 0x20 SWAP2 SWAP1 DUP3 SWAP1 DUP5 SWAP1 PUSH1 0x24 SWAP1 DUP3 SWAP1 DUP9 AND GAS STATICCALL SWAP3 DUP4 ISZERO PUSH2 0x160B JUMPI PUSH0 SWAP4 PUSH2 0x2E9D JUMPI JUMPDEST POP DUP2 PUSH1 0x24 SWAP5 PUSH1 0xB SLOAD AND PUSH1 0x40 MLOAD SWAP6 DUP7 DUP1 SWAP3 PUSH4 0x5DA6A21B PUSH1 0xE1 SHL DUP3 MSTORE DUP6 PUSH1 0x4 DUP4 ADD MSTORE GAS STATICCALL SWAP4 DUP5 ISZERO PUSH2 0x160B JUMPI PUSH0 SWAP5 PUSH2 0x2E6B JUMPI JUMPDEST POP SWAP1 PUSH1 0x7 SWAP2 PUSH0 MSTORE MSTORE PUSH1 0x40 PUSH0 KECCAK256 SLOAD SWAP1 PUSH1 0x64 DUP4 MUL SWAP3 DUP1 DUP5 DIV PUSH1 0x64 EQ SWAP1 ISZERO OR ISZERO PUSH2 0x15BC JUMPI PUSH2 0x2E68 SWAP3 PUSH2 0x2E63 SWAP2 PUSH2 0x2B88 JUMP JUMPDEST PUSH2 0x2B88 JUMP JUMPDEST SWAP1 JUMP JUMPDEST SWAP2 DUP1 SWAP2 SWAP5 POP DUP3 DUP2 RETURNDATASIZE DUP4 GT PUSH2 0x2E96 JUMPI JUMPDEST PUSH2 0x2E84 DUP2 DUP4 PUSH2 0x28F3 JUMP JUMPDEST DUP2 ADD SUB SLT PUSH2 0x28A JUMPI SWAP1 MLOAD SWAP3 PUSH1 0x7 PUSH2 0x2E35 JUMP JUMPDEST POP RETURNDATASIZE PUSH2 0x2E7A JUMP JUMPDEST SWAP4 SWAP3 POP DUP2 DUP5 DUP2 RETURNDATASIZE DUP4 GT PUSH2 0x2EC7 JUMPI JUMPDEST PUSH2 0x2EB5 DUP2 DUP4 PUSH2 0x28F3 JUMP JUMPDEST DUP2 ADD SUB SLT PUSH2 0x28A JUMPI SWAP3 MLOAD SWAP2 SWAP3 DUP2 PUSH2 0x2E05 JUMP JUMPDEST POP RETURNDATASIZE PUSH2 0x2EAB JUMP JUMPDEST MLOAD SWAP1 DUP2 ISZERO ISZERO DUP3 SUB PUSH2 0x28A JUMPI JUMP JUMPDEST PUSH1 0x1 DUP1 PUSH1 0xA0 SHL SUB DUP1 SWAP3 DUP2 PUSH1 0x9 SLOAD AND SWAP3 PUSH1 0x40 MLOAD SWAP5 DUP6 SWAP2 PUSH4 0x9AB24EB PUSH1 0xE4 SHL DUP4 MSTORE AND SWAP4 DUP5 PUSH1 0x4 DUP4 ADD MSTORE DUP2 PUSH1 0x24 PUSH1 0x20 SWAP8 DUP9 SWAP4 GAS STATICCALL SWAP1 DUP2 ISZERO PUSH2 0x160B JUMPI PUSH0 SWAP2 PUSH2 0x2FC3 JUMPI JUMPDEST POP PUSH2 0x2F24 DUP3 PUSH2 0x2A3A JUMP JUMPDEST SLOAD GT PUSH2 0x2FBB JUMPI PUSH1 0x8 DUP2 LT ISZERO DUP1 PUSH2 0x468 JUMPI PUSH1 0x1 DUP3 SUB PUSH2 0x2FB4 JUMPI JUMPDEST PUSH2 0x468 JUMPI PUSH1 0x6 EQ PUSH2 0x2F50 JUMPI POP POP POP PUSH1 0x1 SWAP1 JUMP JUMPDEST DUP3 SWAP1 PUSH1 0xB SLOAD AND SWAP2 PUSH1 0x24 PUSH1 0x40 MLOAD DUP1 SWAP5 DUP2 SWAP4 PUSH4 0x5DA6A21B PUSH1 0xE1 SHL DUP4 MSTORE PUSH1 0x4 DUP4 ADD MSTORE GAS STATICCALL SWAP2 DUP3 ISZERO PUSH2 0x160B JUMPI PUSH0 SWAP3 PUSH2 0x2F86 JUMPI JUMPDEST POP POP ISZERO ISZERO SWAP1 JUMP JUMPDEST SWAP1 DUP1 SWAP3 POP DUP2 RETURNDATASIZE DUP4 GT PUSH2 0x2FAD JUMPI JUMPDEST PUSH2 0x2F9D DUP2 DUP4 PUSH2 0x28F3 JUMP JUMPDEST DUP2 ADD SUB SLT PUSH2 0x28A JUMPI MLOAD PUSH0 DUP1 PUSH2 0x2F7F JUMP JUMPDEST POP RETURNDATASIZE PUSH2 0x2F93 JUMP JUMPDEST POP PUSH0 PUSH2 0x2F3D JUMP JUMPDEST POP POP POP POP PUSH0 SWAP1 JUMP JUMPDEST SWAP1 POP DUP5 DUP2 DUP2 RETURNDATASIZE DUP4 GT PUSH2 0x2FE9 JUMPI JUMPDEST PUSH2 0x2FDA DUP2 DUP4 PUSH2 0x28F3 JUMP JUMPDEST DUP2 ADD SUB SLT PUSH2 0x28A JUMPI MLOAD PUSH0 PUSH2 0x2F1A JUMP JUMPDEST POP RETURNDATASIZE PUSH2 0x2FD0 JUMP JUMPDEST DUP1 MLOAD DUP3 LT ISZERO PUSH2 0x2C2B JUMPI PUSH1 0x20 SWAP2 PUSH1 0x5 SHL ADD ADD SWAP1 JUMP JUMPDEST SWAP1 PUSH0 PUSH1 0x20 SWAP2 DUP3 DUP2 MLOAD SWAP2 ADD DUP3 DUP6 GAS CALL ISZERO PUSH2 0x160B JUMPI PUSH0 MLOAD RETURNDATASIZE PUSH2 0x3055 JUMPI POP PUSH1 0x1 PUSH1 0x1 PUSH1 0xA0 SHL SUB DUP2 AND EXTCODESIZE ISZERO JUMPDEST PUSH2 0x3033 JUMPI POP JUMP JUMPDEST PUSH1 0x40 MLOAD PUSH4 0x5274AFE7 PUSH1 0xE0 SHL DUP2 MSTORE PUSH1 0x1 PUSH1 0x1 PUSH1 0xA0 SHL SUB SWAP1 SWAP2 AND PUSH1 0x4 DUP3 ADD MSTORE PUSH1 0x24 SWAP1 REVERT JUMPDEST PUSH1 0x1 EQ ISZERO PUSH2 0x302C JUMP INVALID LOG2 PUSH5 0x6970667358 0x22 SLT KECCAK256 0xAD EQ DUP16 SIGNEXTEND SWAP11 0x2E 0xC6 DUP12 PUSH26 0x96114CB4E4F92B629A5D555FC365028E16948E2E7B799764736F PUSH13 0x634300081800332F8788117E7E SELFDESTRUCT SAR DUP3 0xE9 0x26 0xEC PUSH26 0x4901D17C78024A50270940304540A733656F0DAD3228B676F7D3 0xCD TIMESTAMP DUP5 0xA5 PREVRANDAO EXTCODEHASH OR CALL SWAP7 0x2B CALLDATASIZE 0xE4 SWAP2 0xB3 EXP BLOCKHASH 0xB2 BLOCKHASH PC BLOBHASH 0xE5 SWAP8 0xBA PUSH0 0xB5 "},"methodIdentifiers":{"BASIS_POINTS()":"e1f1c4a7","DEFAULT_ADMIN_ROLE()":"a217fddf","EXECUTION_ADMIN_ROLE()":"ab6d2055","GUARDIAN_ROLE()":"24ea54f4","MAX_VOTING_PERIOD()":"a64e024a","MIN_PROPOSAL_THRESHOLD()":"791f5d23","MIN_QUORUM()":"5f3ad709","PROPOSAL_CREATOR_ROLE()":"15b3958e","TREASURY_MANAGER_ROLE()":"ebdf690f","activeProposals()":"109c3d27","cancelProposal(uint256)":"e0a8f6f5","castVote(uint256,uint8,string)":"470b7622","categoryParameters(uint8)":"1d6465ec","createProposal(uint8,string,string,string,address[],uint256[],address[])":"707c7305","currentProposalId()":"feac729d","delegate(address)":"5c19a95c","delegatedVotes(address)":"d364d4d4","delegates(address)":"587cde1e","depositToTreasury(address,uint256)":"156e101e","emergencyGuardians(address)":"435e8668","emergencyPause(string)":"cf5b4fd5","emergencyPaused()":"27c830a9","emergencyUnpause()":"4a4e3bd5","executeProposal(uint256)":"0d61b519","executedProposals()":"d8a11dc2","gPforkToken()":"2e5b86a0","getProposal(uint256)":"c7f758a8","getRoleAdmin(bytes32)":"248a9ca3","getVote(uint256,address)":"bc3f931f","getVotingPower(address)":"bb4d4436","grantRole(bytes32,address)":"2f2ff15d","hasProposalPassed(uint256)":"6414b6a1","hasRole(bytes32,address)":"91d14854","identityContract()":"67031bae","paused()":"5c975abb","proposalCounts(address)":"1156e126","proposals(uint256)":"013cf08b","renounceRole(bytes32,address)":"36568abe","revokeRole(bytes32,address)":"d547741f","subscriptionContract()":"69e2d90d","supportsInterface(bytes4)":"01ffc9a7","totalProposals()":"a78d80fc","totalTreasuryValue()":"e85507de","treasuryAllocations(address)":"d0418dbc","treasuryBalances(address)":"7efa7481","updateGovernanceParameters(uint8,uint256,uint256,uint256)":"8abb1f2f"}}}}}