{"contracts/LeadershipSubscription.sol":{"LeadershipSubscription":{"abi":[{"inputs":[{"internalType":"address","name":"_pforkToken","type":"address"},{"internalType":"address","name":"_achievementContract","type":"address"}],"stateMutability":"nonpayable","type":"constructor"},{"inputs":[],"name":"AccessControlBadConfirmation","type":"error"},{"inputs":[{"internalType":"address","name":"account","type":"address"},{"internalType":"bytes32","name":"neededRole","type":"bytes32"}],"name":"AccessControlUnauthorizedAccount","type":"error"},{"inputs":[],"name":"EnforcedPause","type":"error"},{"inputs":[],"name":"ExpectedPause","type":"error"},{"inputs":[],"name":"ReentrancyGuardReentrantCall","type":"error"},{"inputs":[{"internalType":"address","name":"token","type":"address"}],"name":"SafeERC20FailedOperation","type":"error"},{"anonymous":false,"inputs":[{"indexed":true,"internalType":"address","name":"user","type":"address"},{"indexed":false,"internalType":"bool","name":"enabled","type":"bool"}],"name":"AutoRenewalToggled","type":"event"},{"anonymous":false,"inputs":[{"indexed":false,"internalType":"address","name":"account","type":"address"}],"name":"Paused","type":"event"},{"anonymous":false,"inputs":[{"indexed":true,"internalType":"address","name":"token","type":"address"},{"indexed":false,"internalType":"bool","name":"supported","type":"bool"}],"name":"PaymentTokenUpdated","type":"event"},{"anonymous":false,"inputs":[{"indexed":false,"internalType":"uint256","name":"totalAmount","type":"uint256"},{"indexed":false,"internalType":"uint256","name":"timestamp","type":"uint256"}],"name":"RevenueDistributed","type":"event"},{"anonymous":false,"inputs":[{"indexed":true,"internalType":"bytes32","name":"role","type":"bytes32"},{"indexed":true,"internalType":"bytes32","name":"previousAdminRole","type":"bytes32"},{"indexed":true,"internalType":"bytes32","name":"newAdminRole","type":"bytes32"}],"name":"RoleAdminChanged","type":"event"},{"anonymous":false,"inputs":[{"indexed":true,"internalType":"bytes32","name":"role","type":"bytes32"},{"indexed":true,"internalType":"address","name":"account","type":"address"},{"indexed":true,"internalType":"address","name":"sender","type":"address"}],"name":"RoleGranted","type":"event"},{"anonymous":false,"inputs":[{"indexed":true,"internalType":"bytes32","name":"role","type":"bytes32"},{"indexed":true,"internalType":"address","name":"account","type":"address"},{"indexed":true,"internalType":"address","name":"sender","type":"address"}],"name":"RoleRevoked","type":"event"},{"anonymous":false,"inputs":[{"indexed":true,"internalType":"address","name":"user","type":"address"},{"indexed":false,"internalType":"enum LeadershipSubscription.SubscriptionTier","name":"tier","type":"uint8"}],"name":"SubscriptionCancelled","type":"event"},{"anonymous":false,"inputs":[{"indexed":true,"internalType":"address","name":"user","type":"address"},{"indexed":false,"internalType":"enum LeadershipSubscription.SubscriptionTier","name":"tier","type":"uint8"},{"indexed":false,"internalType":"bool","name":"isAnnual","type":"bool"},{"indexed":false,"internalType":"uint256","name":"endTime","type":"uint256"}],"name":"SubscriptionCreated","type":"event"},{"anonymous":false,"inputs":[{"indexed":true,"internalType":"address","name":"user","type":"address"},{"indexed":false,"internalType":"enum LeadershipSubscription.SubscriptionTier","name":"tier","type":"uint8"},{"indexed":false,"internalType":"uint256","name":"newEndTime","type":"uint256"}],"name":"SubscriptionRenewed","type":"event"},{"anonymous":false,"inputs":[{"indexed":true,"internalType":"address","name":"user","type":"address"},{"indexed":false,"internalType":"enum LeadershipSubscription.SubscriptionTier","name":"oldTier","type":"uint8"},{"indexed":false,"internalType":"enum LeadershipSubscription.SubscriptionTier","name":"newTier","type":"uint8"}],"name":"SubscriptionUpgraded","type":"event"},{"anonymous":false,"inputs":[{"indexed":false,"internalType":"enum LeadershipSubscription.SubscriptionTier","name":"tier","type":"uint8"},{"indexed":false,"internalType":"uint256","name":"monthlyPrice","type":"uint256"},{"indexed":false,"internalType":"uint256","name":"annualPrice","type":"uint256"}],"name":"TierConfigUpdated","type":"event"},{"anonymous":false,"inputs":[{"indexed":false,"internalType":"address","name":"account","type":"address"}],"name":"Unpaused","type":"event"},{"anonymous":false,"inputs":[{"indexed":true,"internalType":"address","name":"user","type":"address"},{"indexed":false,"internalType":"uint256","name":"power","type":"uint256"}],"name":"VotingPowerAllocated","type":"event"},{"inputs":[],"name":"BASIS_POINTS","outputs":[{"internalType":"uint256","name":"","type":"uint256"}],"stateMutability":"view","type":"function"},{"inputs":[],"name":"DEFAULT_ADMIN_ROLE","outputs":[{"internalType":"bytes32","name":"","type":"bytes32"}],"stateMutability":"view","type":"function"},{"inputs":[],"name":"GOVERNANCE_ADMIN_ROLE","outputs":[{"internalType":"bytes32","name":"","type":"bytes32"}],"stateMutability":"view","type":"function"},{"inputs":[],"name":"MONTH_DURATION","outputs":[{"internalType":"uint256","name":"","type":"uint256"}],"stateMutability":"view","type":"function"},{"inputs":[],"name":"REVENUE_MANAGER_ROLE","outputs":[{"internalType":"bytes32","name":"","type":"bytes32"}],"stateMutability":"view","type":"function"},{"inputs":[],"name":"SUBSCRIPTION_MANAGER_ROLE","outputs":[{"internalType":"bytes32","name":"","type":"bytes32"}],"stateMutability":"view","type":"function"},{"inputs":[],"name":"YEAR_DURATION","outputs":[{"internalType":"uint256","name":"","type":"uint256"}],"stateMutability":"view","type":"function"},{"inputs":[],"name":"achievementContract","outputs":[{"internalType":"contract IConsciousnessAchievements","name":"","type":"address"}],"stateMutability":"view","type":"function"},{"inputs":[],"name":"cancelSubscription","outputs":[],"stateMutability":"nonpayable","type":"function"},{"inputs":[],"name":"claimRevenuePayout","outputs":[],"stateMutability":"nonpayable","type":"function"},{"inputs":[{"internalType":"bytes32","name":"role","type":"bytes32"}],"name":"getRoleAdmin","outputs":[{"internalType":"bytes32","name":"","type":"bytes32"}],"stateMutability":"view","type":"function"},{"inputs":[{"internalType":"address","name":"user","type":"address"}],"name":"getSubscription","outputs":[{"internalType":"enum LeadershipSubscription.SubscriptionTier","name":"tier","type":"uint8"},{"internalType":"uint256","name":"startTime","type":"uint256"},{"internalType":"uint256","name":"endTime","type":"uint256"},{"internalType":"bool","name":"isAnnual","type":"bool"},{"internalType":"bool","name":"autoRenewal","type":"bool"},{"internalType":"uint256","name":"totalPaid","type":"uint256"},{"internalType":"bool","name":"isActive","type":"bool"},{"internalType":"uint256","name":"votingPower","type":"uint256"}],"stateMutability":"view","type":"function"},{"inputs":[{"internalType":"address","name":"user","type":"address"}],"name":"getVotingPower","outputs":[{"internalType":"uint256","name":"","type":"uint256"}],"stateMutability":"view","type":"function"},{"inputs":[],"name":"gracePeriod","outputs":[{"internalType":"uint256","name":"","type":"uint256"}],"stateMutability":"view","type":"function"},{"inputs":[{"internalType":"bytes32","name":"role","type":"bytes32"},{"internalType":"address","name":"account","type":"address"}],"name":"grantRole","outputs":[],"stateMutability":"nonpayable","type":"function"},{"inputs":[{"internalType":"address","name":"user","type":"address"},{"internalType":"string","name":"feature","type":"string"}],"name":"hasFeatureAccess","outputs":[{"internalType":"bool","name":"","type":"bool"}],"stateMutability":"view","type":"function"},{"inputs":[{"internalType":"bytes32","name":"role","type":"bytes32"},{"internalType":"address","name":"account","type":"address"}],"name":"hasRole","outputs":[{"internalType":"bool","name":"","type":"bool"}],"stateMutability":"view","type":"function"},{"inputs":[{"internalType":"address","name":"user","type":"address"}],"name":"isSubscriptionActive","outputs":[{"internalType":"bool","name":"","type":"bool"}],"stateMutability":"view","type":"function"},{"inputs":[],"name":"pause","outputs":[],"stateMutability":"nonpayable","type":"function"},{"inputs":[],"name":"paused","outputs":[{"internalType":"bool","name":"","type":"bool"}],"stateMutability":"view","type":"function"},{"inputs":[{"internalType":"address","name":"","type":"address"}],"name":"pendingPayouts","outputs":[{"internalType":"uint256","name":"","type":"uint256"}],"stateMutability":"view","type":"function"},{"inputs":[],"name":"pforkToken","outputs":[{"internalType":"contract IERC20","name":"","type":"address"}],"stateMutability":"view","type":"function"},{"inputs":[{"internalType":"address","name":"user","type":"address"}],"name":"processAutoRenewal","outputs":[],"stateMutability":"nonpayable","type":"function"},{"inputs":[],"name":"renewalWindow","outputs":[{"internalType":"uint256","name":"","type":"uint256"}],"stateMutability":"view","type":"function"},{"inputs":[{"internalType":"bytes32","name":"role","type":"bytes32"},{"internalType":"address","name":"callerConfirmation","type":"address"}],"name":"renounceRole","outputs":[],"stateMutability":"nonpayable","type":"function"},{"inputs":[{"internalType":"address","name":"","type":"address"}],"name":"revenueShares","outputs":[{"internalType":"address","name":"stakeholder","type":"address"},{"internalType":"uint256","name":"percentage","type":"uint256"},{"internalType":"string","name":"role","type":"string"},{"internalType":"bool","name":"isActive","type":"bool"}],"stateMutability":"view","type":"function"},{"inputs":[{"internalType":"bytes32","name":"role","type":"bytes32"},{"internalType":"address","name":"account","type":"address"}],"name":"revokeRole","outputs":[],"stateMutability":"nonpayable","type":"function"},{"inputs":[{"internalType":"address","name":"token","type":"address"},{"internalType":"bool","name":"supported","type":"bool"}],"name":"setSupportedPaymentToken","outputs":[],"stateMutability":"nonpayable","type":"function"},{"inputs":[{"internalType":"uint256","name":"","type":"uint256"}],"name":"stakeholders","outputs":[{"internalType":"address","name":"","type":"address"}],"stateMutability":"view","type":"function"},{"inputs":[{"internalType":"enum LeadershipSubscription.SubscriptionTier","name":"tier","type":"uint8"},{"internalType":"bool","name":"isAnnual","type":"bool"},{"internalType":"address","name":"paymentToken","type":"address"},{"internalType":"bool","name":"enableAutoRenewal","type":"bool"}],"name":"subscribe","outputs":[],"stateMutability":"nonpayable","type":"function"},{"inputs":[{"internalType":"address","name":"","type":"address"}],"name":"subscriptions","outputs":[{"internalType":"enum LeadershipSubscription.SubscriptionTier","name":"tier","type":"uint8"},{"internalType":"uint256","name":"startTime","type":"uint256"},{"internalType":"uint256","name":"endTime","type":"uint256"},{"internalType":"bool","name":"isAnnual","type":"bool"},{"internalType":"bool","name":"autoRenewal","type":"bool"},{"internalType":"uint256","name":"lastPayment","type":"uint256"},{"internalType":"uint256","name":"totalPaid","type":"uint256"},{"internalType":"address","name":"paymentToken","type":"address"},{"internalType":"bool","name":"isActive","type":"bool"},{"internalType":"uint256","name":"votingPowerAllocated","type":"uint256"}],"stateMutability":"view","type":"function"},{"inputs":[{"internalType":"address","name":"","type":"address"}],"name":"supportedPaymentTokens","outputs":[{"internalType":"bool","name":"","type":"bool"}],"stateMutability":"view","type":"function"},{"inputs":[{"internalType":"bytes4","name":"interfaceId","type":"bytes4"}],"name":"supportsInterface","outputs":[{"internalType":"bool","name":"","type":"bool"}],"stateMutability":"view","type":"function"},{"inputs":[{"internalType":"enum LeadershipSubscription.SubscriptionTier","name":"","type":"uint8"}],"name":"tierConfigs","outputs":[{"internalType":"uint256","name":"monthlyPrice","type":"uint256"},{"internalType":"uint256","name":"annualPrice","type":"uint256"},{"internalType":"uint256","name":"maxAIQueries","type":"uint256"},{"internalType":"uint256","name":"maxAssessments","type":"uint256"},{"internalType":"uint256","name":"votingPower","type":"uint256"},{"internalType":"bool","name":"hasAdvancedAnalytics","type":"bool"},{"internalType":"bool","name":"hasPersonalCoaching","type":"bool"},{"internalType":"bool","name":"hasAPIAccess","type":"bool"},{"internalType":"bool","name":"hasWhiteLabel","type":"bool"},{"internalType":"uint256","name":"consciousnessRequirement","type":"uint256"},{"internalType":"bool","name":"isActive","type":"bool"}],"stateMutability":"view","type":"function"},{"inputs":[{"internalType":"enum LeadershipSubscription.SubscriptionTier","name":"","type":"uint8"}],"name":"tierRevenue","outputs":[{"internalType":"uint256","name":"","type":"uint256"}],"stateMutability":"view","type":"function"},{"inputs":[{"internalType":"bool","name":"enabled","type":"bool"}],"name":"toggleAutoRenewal","outputs":[],"stateMutability":"nonpayable","type":"function"},{"inputs":[],"name":"totalRevenue","outputs":[{"internalType":"uint256","name":"","type":"uint256"}],"stateMutability":"view","type":"function"},{"inputs":[],"name":"totalSubscribers","outputs":[{"internalType":"uint256","name":"","type":"uint256"}],"stateMutability":"view","type":"function"},{"inputs":[],"name":"totalVotingPower","outputs":[{"internalType":"uint256","name":"","type":"uint256"}],"stateMutability":"view","type":"function"},{"inputs":[],"name":"unpause","outputs":[],"stateMutability":"nonpayable","type":"function"},{"inputs":[{"internalType":"address","name":"stakeholder","type":"address"},{"internalType":"uint256","name":"percentage","type":"uint256"},{"internalType":"string","name":"role","type":"string"},{"internalType":"bool","name":"isActive","type":"bool"}],"name":"updateRevenueShare","outputs":[],"stateMutability":"nonpayable","type":"function"},{"inputs":[{"internalType":"enum LeadershipSubscription.SubscriptionTier","name":"tier","type":"uint8"},{"internalType":"uint256","name":"monthlyPrice","type":"uint256"},{"internalType":"uint256","name":"annualPrice","type":"uint256"},{"internalType":"uint256","name":"maxAIQueries","type":"uint256"},{"internalType":"uint256","name":"maxAssessments","type":"uint256"},{"internalType":"uint256","name":"votingPower","type":"uint256"},{"internalType":"bool","name":"hasAdvancedAnalytics","type":"bool"},{"internalType":"bool","name":"hasPersonalCoaching","type":"bool"},{"internalType":"bool","name":"hasAPIAccess","type":"bool"},{"internalType":"bool","name":"hasWhiteLabel","type":"bool"},{"internalType":"uint256","name":"consciousnessRequirement","type":"uint256"},{"internalType":"bool","name":"isActive","type":"bool"}],"name":"updateTierConfig","outputs":[],"stateMutability":"nonpayable","type":"function"},{"inputs":[{"internalType":"enum LeadershipSubscription.SubscriptionTier","name":"newTier","type":"uint8"}],"name":"upgradeSubscription","outputs":[],"stateMutability":"nonpayable","type":"function"}],"evm":{"bytecode":{"linkReferences":{},"object":"6080346200043a576001600160401b039062002c1390601f1938839003601f81018216830190838210868311176200043e57808491604096879485528339810103126200043a57620000518262000452565b9162000061602080920162000452565b9460019283805562093a80600d556203f480600e55620000813362000467565b506200008d33620004d7565b50620000993362000577565b50620000a53362000611565b5060018060a01b0380978160018060a01b0319971687600754161760075516856008541617600855835f52600390818452865f20916802b5e3af16b18800008355681b1ae4d6e2ef50000093848785015560646002850155600592838386015560086004968988880155818688019763ffffffff199889815416905560646007820155019660ff19978b8982541617905560025f528c5f2090680821ab0d44149800008255685150ae84a8cdf000008c830155836101f492836002820155601489820155898c8201558981016101018482541617905561012c6007820155018c8a825416179055865f528d5f2092835569010f0cf064dd592000008c8401556107d0600284015560648784015560148a8401556301010101888401918254161790556007820155018886825416179055895191608083018381108282111762000427578b5233835287830191610fa083528b51928c84019d8e8486821091111762000414578d9e8e9a9b9c9d9e52601485527f506c6174666f726d20446576656c6f706d656e740000000000000000000000008c86015289860194855260608601998d8b52335f5260068d525f209551168d865416178555518b85015560028401925195865192831162000414578354908c82811c9216801562000409575b8c831014620003f657601f8211620003ad575b50508990601f8311600114620003495750819060ff965f926200033d575b50505f1982861b1c1916908a1b1790555b019251151591835416911617905560095492680100000000000000008410156200032a5783018060095583101562000317575060095f525f2001903390825416179055516125279081620006ac8239f35b603290634e487b7160e01b5f525260245ffd5b604182634e487b7160e01b5f525260245ffd5b015190505f80620002b5565b9082918c931690845f528b5f20915f5b8d82821062000396575050978360ff99106200037e575b505050811b019055620002c6565b01515f1983881b60f8161c191690555f808062000370565b838b015185558f9690940193928301920162000359565b845f528b5f2090601f8501811c8201928d8610620003eb575b601f01901c01908c905b828110620003df575062000297565b5f8155018c90620003d0565b9192508291620003c6565b60228b634e487b7160e01b5f525260245ffd5b91607f169162000284565b60418a634e487b7160e01b5f525260245ffd5b604188634e487b7160e01b5f525260245ffd5b5f80fd5b634e487b7160e01b5f52604160045260245ffd5b51906001600160a01b03821682036200043a57565b6001600160a01b03165f8181525f8051602062002bf3833981519152602052604090205460ff16620004d2575f8181525f8051602062002bf383398151915260205260408120805460ff191660011790553391905f8051602062002bd38339815191528180a4600190565b505f90565b6001600160a01b03165f8181527f30d09331649ddfdce960950cd8816672ab8f48f285d83240d17939fee5dd05e260205260409020547f7bdb6b596b843035ddd2e81fd6f76604e18d00b7a5869d7d8f70d84e3c9965b4919060ff166200057157815f525f60205260405f20815f5260205260405f20600160ff1982541617905533915f8051602062002bd38339815191525f80a4600190565b50505f90565b6001600160a01b03165f8181527ff852e3aa3ac1b75a57d7ad78f0a9e364b2e28e07350c693cdde6b0432ad356d560205260409020547f033f63ac7430e160807e6d11d8132bd60aa62d493fbd27108f22183c218dac83919060ff166200057157815f525f60205260405f20815f5260205260405f20600160ff1982541617905533915f8051602062002bd38339815191525f80a4600190565b6001600160a01b03165f8181527fb70a1c27684b0fab259e56bef232a1da05ea8d4b96a81d4bb9c747ac4a01a63660205260409020547fe7e0b301de1c1e268073a6b56ff0876cffca0becba0dca08f945c1394e3e9727919060ff166200057157815f525f60205260405f20815f5260205260405f20600160ff1982541617905533915f8051602062002bd38339815191525f80a460019056fe6080604081815260049182361015610015575f80fd5b5f3560e01c90816301ffc9a714611b1a5750806304d157a214611a2d578063052057f2146119e85780630888ff7a146119585780630cbebc24146118be5780630dc0ba72146118a0578063144013291461187257806315e2475f146118545780631d6b8b7214611814578063248a9ca3146117eb57806324e9edb0146117735780632a891534146117565780632f2ff15d1461172e57806336568abe146116ea57806337d44c2a14611444578063399dfe261461141c5780633f4ba83a146113b557806349bf28c41461133b578063518b8cb31461130c5780635c975abb146112e9578063604f9e83146112cb57806366c29b81146112a3578063671b3793146112855780636cd2e1bf1461113757806370b6085e14610fed57806377fb8d7a14610fb3578063784712f214610f7c5780638456cb5914610f2357806391d1485414610ee05780639da9db2a14610e325780639dc10fd514610b3d578063a06db7dc14610b1f578063a217fddf14610b05578063b1c5578c14610ac9578063bb4d443614610a9d578063bd6fbbd114610728578063bf2d9e0b1461070a578063d547741f146106cf578063d5c3dbde1461033a578063de19716114610300578063e1f1c4a7146102e4578063e8ad5d89146102aa5763f046395a146101f8575f80fd5b346102a65760203660031901126102a6576101409160ff6001600160a01b0380610220611b6c565b165f5282602052835f20908282541694600183015494846002850154916003860154908601549260058701549460076006890154980154996102648251809d611c5e565b60208c01528a0152818116151560608a015260081c161515608088015260a087015260c0860152811660e085015260a01c161515610100830152610120820152f35b5f80fd5b50346102a6575f3660031901126102a657602090517f7bdb6b596b843035ddd2e81fd6f76604e18d00b7a5869d7d8f70d84e3c9965b48152f35b50346102a6575f3660031901126102a657602090516127108152f35b50346102a6575f3660031901126102a657602090517f033f63ac7430e160807e6d11d8132bd60aa62d493fbd27108f22183c218dac838152f35b50346102a65760803660031901126102a657813590828210156102a65761035f611c40565b6001600160a01b0360443581811694919392908590036102a657610381611c4f565b610389612116565b6103916124d3565b821561069d576103af60ff60086103a786611cc8565b01541661206d565b855f526020946005865260ff855f2054161561065a57856024916008541686519283809263ef87c3f760e01b8252338d8301525afa908115610650575f91610623575b5060076103fe85611cc8565b0154116105e05760079596335f5280865260ff6006865f20015460a01c166105d2575b82156105c257600161043285611cc8565b0154975b83156105b8576301e13380905b61044f8a303384612366565b335f528288526104af610475885f209361046989866120ce565b42600186015542612009565b94600284019586556003840161049788829060ff801983541691151516179055565b9061ff00825491151560081b169061ff001916179055565b4282840155600582018a90556006820180546001600160a81b031916909117600160a01b179055816104e086611cc8565b015497889101556104f387600a54612009565b600a55600b54905f1982146105a557507f1ac4e76067f7e1095f2219aa56ce07eecc8378cbb2c2349383b4cc43a72da7fb9697600161055a9201600b5561053c81600c54612009565b600c5561054885611cdf565b610553828254612009565b905561240e565b549061056884518094611c5e565b151584830152828201527f0de35b07a4a1f275259ebc0d2a83849a1fa4c67f96be74b5f20d8e73c58b39a060603392a2519283523392a260018055005b601190634e487b7160e01b5f525260245ffd5b62278d0090610443565b6105cb84611cc8565b5497610436565b6105db33612139565b610421565b835162461bcd60e51b8152808801869052601b60248201527f436f6e7363696f75736e657373206c6576656c20746f6f206c6f7700000000006044820152606490fd5b90508581813d8311610649575b61063a8183611bc8565b810103126102a657515f6103f2565b503d610630565b85513d5f823e3d90fd5b845162461bcd60e51b8152808901879052601b60248201527f5061796d656e7420746f6b656e206e6f7420737570706f7274656400000000006044820152606490fd5b835162461bcd60e51b8152602081890152600c60248201526b24b73b30b634b2103a34b2b960a11b6044820152606490fd5b50346102a657806003193601126102a657610708913561070360016106f2611b82565b93835f525f6020525f20015461225d565b6122f4565b005b50346102a6575f3660031901126102a657602090600c549051908152f35b5090346102a657602091826003193601126102a657610745611b6c565b61074d6121e4565b60018060a01b039384821693845f52808252835f2060068101549160ff92610779848260a01c16611fc4565b600383015495848760081c1615610a5a576002840196875461079d600e54826120ae565b4210610a1f57600d546107af91612009565b42116109e5578516998a156109d25760016107cc87875416611cc8565b01549a5b156109c8576301e13380925b169088516370a0823160e01b81528a858201528781602481865afa90811561094c57908c915f91610997575b5010610956578851636eb1769f60e11b81528481018b90523060248201528781604481865afa90811561094c57908c915f9161091b575b50106108cd578a9261087d7f1af2f2c576585623f24cdd3d12995de86e6d2ef881e797dab79b51bc71fb0a9a9b9c6108b69694610883943091612366565b42612009565b8755429084015560058301610899828254612009565b90556108a781600c54612009565b600c5561054884845416611cdf565b54169154906108c784518094611c5e565b820152a2005b885162461bcd60e51b8152808501889052602260248201527f496e73756666696369656e7420616c6c6f77616e636520666f722072656e6577604482015261185b60f21b6064820152608490fd5b809250898092503d8311610945575b6109348183611bc8565b810103126102a6578b90515f61083f565b503d61092a565b8a513d5f823e3d90fd5b60648488808c519262461bcd60e51b845283015260248201527f496e73756666696369656e742062616c616e636520666f722072656e6577616c6044820152fd5b809250898092503d83116109c1575b6109b08183611bc8565b810103126102a6578b90515f610808565b503d6109a6565b62278d00926107dc565b6109de86865416611cc8565b549a6107d0565b885162461bcd60e51b8152808501889052601460248201527311dc9858d9481c195c9a5bd908195e1c1a5c995960621b6044820152606490fd5b895162461bcd60e51b81528086018990526015602482015274151bdbc819585c9b1e48199bdc881c995b995dd85b605a1b6044820152606490fd5b875162461bcd60e51b8152808401879052601860248201527f4175746f2072656e6577616c206e6f7420656e61626c656400000000000000006044820152606490fd5b50346102a65760203660031901126102a657602090610ac2610abd611b6c565b6120e6565b9051908152f35b50346102a65760203660031901126102a6576020906001600160a01b03610aee611b6c565b165f526005825260ff815f20541690519015158152f35b50346102a6575f3660031901126102a657602090515f8152f35b50346102a6575f3660031901126102a657602090600d549051908152f35b50346102a65760803660031901126102a657610b57611b6c565b67ffffffffffffffff926024918235906044358681116102a657610b7e9036908501611bea565b92610b87611c4f565b947f033f63ac7430e160807e6d11d8132bd60aa62d493fbd27108f22183c218dac8392835f526020935f8552885f20335f52855260ff895f20541615610e1557506127108511610ddf576001600160a01b039081165f8181526006865289902054909890821615610d92575b80519860808a018a81108c821117610d80578252808a52858a01968752818a0197885260608a0198151589525f52600685525f209751166bffffffffffffffffffffffff60a01b8854161787556001935184880155600287019451918251988911610d6f575050610c648454611cf6565b601f8111610d29575b5081601f8811600114610cc05750958060039594938193610708995f94610cb5575b50501b915f1990861b1c19161790555b51151591019060ff801983541691151516179055565b015192505f80610c8f565b9190601f198816855f52835f20935f905b828210610d125750509160039695949391896107089a9410610cfb575b505050811b019055610c9f565b01515f1983881b60f8161c191690555f8080610cee565b808786978294978701518155019601940190610cd1565b845f52825f20601f890160051c810191848a10610d65575b601f0160051c019084905b828110610d5a575050610c6d565b5f8155018490610d4c565b9091508190610d41565b604190634e487b7160e01b5f52525ffd5b84604187634e487b7160e01b5f52525ffd5b60095468010000000000000000811015610dcd57806001610db69201600955611c7f565b81549060031b90848c831b921b1916179055610bf3565b83604186634e487b7160e01b5f52525ffd5b5060129060649388519362461bcd60e51b855284015282015271496e76616c69642070657263656e7461676560701b6044820152fd5b885163e2517d3f60e01b8152338186015280840191909152604490fd5b50346102a65760203660031901126102a657813591808310156102a657610e5b61016093611cc8565b60ff81549360018301549360028401549060038501549085015491600586015493856008600789015498015416978151998a5260208a015288015260608701526080860152818116151560a0860152818160081c16151560c0860152818160101c16151560e086015260181c1615156101008401526101208301521515610140820152f35b50346102a657806003193601126102a657602091610efc611b82565b90355f525f8352815f209060018060a01b03165f52825260ff815f20541690519015158152f35b50346102a6575f3660031901126102a65760207f62e78cea01bee320cd4e420270b5ea74000d11b0c9f74754ebdbfc544b05a25891610f6061218e565b610f686124d3565b600160ff19600254161760025551338152a1005b50346102a65760203660031901126102a6576020906001600160a01b03610fa1611b6c565b165f5260108252805f20549051908152f35b50346102a6575f3660031901126102a657602090517fe7e0b301de1c1e268073a6b56ff0876cffca0becba0dca08f945c1394e3e97278152f35b50346102a657602090816003193601126102a6576001600160a01b0380611012611b6c565b165f5260068352815f2090815416926001926001830154926002810182519586915f9181549161104183611cf6565b92838652886001821691825f146111115750506001146110d2575b50505060809261107560ff936003939a989a0389611bc8565b0154169180519687958652848601528401528351918260808501525f5b8381106110bb57505060a093505f84838501015215156060830152601f80199101168101030190f35b80860182015187820160a001528694508101611092565b8793505f92919252825f20915f925b8284106110f9575050508201018261107560ff61105c565b8054848c018601528a955088949093019281016110e1565b60ff19168188015293151560051b86019093019350859250611075915060ff905061105c565b5090346102a6576101803660031901126102a6578035818110156102a65760c435926044359060243585151586036102a65760e43580151581036102a65761010435958615158097036102a65761012435918215158093036102a657610164359182151583036102a6577fd487e616194ff3e12b09be324fea3f977af857fcef673ddfd9902ea1f580ec0d9960609961126e956112326008956111d86121e4565b6111e18d611cc8565b958a87558c60018801556064356002880155608435600388015560a4359087015561121c6005870195869060ff801983541691151516179055565b845461ff00191690151560081b61ff0016178455565b62ff000063ff00000084549260181b169260101b169063ffff0000191617179055610144356007820155019060ff801983541691151516179055565b61127a82518095611c5e565b6020840152820152a1005b50346102a6575f3660031901126102a657602090600a549051908152f35b50346102a6575f3660031901126102a65760075490516001600160a01b039091168152602090f35b50346102a6575f3660031901126102a657602090600e549051908152f35b50346102a6575f3660031901126102a65760209060ff6002541690519015158152f35b50346102a65760203660031901126102a6578135918210156102a657611333602092611cdf565b549051908152f35b50346102a657806003193601126102a6577f19c6e2fbd27c3204efb106f0081d2d7ffaf44da224ca04fbc0d8a262ba40f5556020611377611b6c565b61137f611c40565b9061138861218e565b6001600160a01b03165f81815260058452859020805460ff191660ff8415151617905593519015158152a2005b50346102a6575f3660031901126102a6576113ce61218e565b6002549160ff83161561140e577f5db9ee0a495bf2e6ff9c91a7834c1ba4fdd244a5e8aa4e537bd38aeae4b073aa6020838560ff191660025551338152a1005b9051638dfc202b60e01b8152fd5b50346102a6575f3660031901126102a65760085490516001600160a01b039091168152602090f35b50346102a6576020806003193601126102a657823591838310156102a65761146a612116565b335f5283825260ff815f205416848110156116d7578311156116a557335f528382526114a160ff6006835f20015460a01c16611fc4565b6114b160ff60086103a786611cc8565b335f52838252805f209260ff8454169060028501544281115f1461169e576114da9042906120ae565b80156116645761152e60ff60038801541691825f1461165257611529600161150187611cc8565b01545b841561164257600161151587611cc8565b0154945b15611638576301e13380946120ae565b6120bb565b811561162557866115c360056115be7f1ac4e76067f7e1095f2219aa56ce07eecc8378cbb2c2349383b4cc43a72da7fb9a9b6115856115f398976115de97048096600660018060a01b039101541630903390612366565b60078d019c8d549161159689611cc8565b01549d8e94826115a78b88956120ce565b016115b3888254612009565b905555600a546120ae565b612009565b600a556115d281600c54612009565b600c5561054883611cdf565b6115ea84518094611c5e565b84830190611c5e565b7f16c6992bc0af407aa6e1db4aa4ca8c5beec9e3de616efa845b523e283fa74339823392a2519283523392a260018055005b601288634e487b7160e01b5f525260245ffd5b62278d00946120ae565b61164b86611cc8565b5494611519565b61152961165e86611cc8565b54611504565b835162461bcd60e51b8152808801869052601460248201527314dd589cd8dc9a5c1d1a5bdb88195e1c1a5c995960621b6044820152606490fd5b505f6114da565b5162461bcd60e51b81529283015250600e60248201526d4e6f7420616e207570677261646560901b6044820152606490fd5b602185634e487b7160e01b5f525260245ffd5b50346102a657806003193601126102a657611703611b82565b90336001600160a01b0383160361171f575061070891356122f4565b5163334bd91960e11b81529050fd5b50346102a657806003193601126102a657610708913561175160016106f2611b82565b61227e565b50346102a6575f3660031901126102a6576020905162278d008152f35b5090346102a6575f3660031901126102a657335f52806020526117a160ff6006845f20015460a01c16611fc4565b6117aa33612139565b335f526020526117c360ff825f20541691518092611c5e565b7f58568eb28745822b7e0883b7147c7ab1b914088321aef19fbdbd68cdc221391e60203392a2005b50346102a65760203660031901126102a657602091355f525f82526001815f2001549051908152f35b5090346102a65760203660031901126102a65735906009548210156102a65761183e602092611c7f565b905491519160018060a01b039160031b1c168152f35b50346102a6575f3660031901126102a657602090600b549051908152f35b50346102a65760203660031901126102a657602090611897611892611b6c565b61202a565b90519015158152f35b50346102a6575f3660031901126102a657602090516301e133808152f35b5090346102a65760203660031901126102a657610100916118dd611b6c565b9160018060a01b0383165f52602052805f2060ff8154169260ff6001830154936002840154600385015491600761191860058801549661202a565b960154966119288251809a611c5e565b60208901528701528181161515606087015260081c161515608085015260a0840152151560c083015260e0820152f35b50346102a65760203660031901126102a657813591821515928381036102a6576119bc91335f528060205261199860ff6006865f20015460a01c16611fc4565b335f526020526003835f20019061ff00825491151560081b169061ff001916179055565b519081527f858e057d8f0b4a688f9ce2d164bea364b4b5e1ee4dd29eff9eaca2f850fd5a1760203392a2005b50346102a657806003193601126102a657611a01611b6c565b916024359267ffffffffffffffff84116102a657611a2761189792602095369101611bea565b90611d2e565b50346102a6575f3660031901126102a657611a46612116565b335f5260209060108252805f20548015611ae3578290335f52601082525f83812055604460018060a01b0360075416955f8551978894859363a9059cbb60e01b8552339085015260248401525af1908115611ada5750611aa7575b60018055005b81813d8311611ad3575b611abb8183611bc8565b810103126102a65751801515036102a6575f80611aa1565b503d611ab1565b513d5f823e3d90fd5b815162461bcd60e51b81528085018490526011602482015270139bc81c195b991a5b99c81c185e5bdd5d607a1b6044820152606490fd5b83346102a65760203660031901126102a657359063ffffffff60e01b82168092036102a657602091637965db0b60e01b8114908115611b5b575b5015158152f35b6301ffc9a760e01b14905083611b54565b600435906001600160a01b03821682036102a657565b602435906001600160a01b03821682036102a657565b6040810190811067ffffffffffffffff821117611bb457604052565b634e487b7160e01b5f52604160045260245ffd5b90601f8019910116810190811067ffffffffffffffff821117611bb457604052565b81601f820112156102a65780359067ffffffffffffffff8211611bb45760405192611c1f601f8401601f191660200185611bc8565b828452602083830101116102a657815f926020809301838601378301015290565b6024359081151582036102a657565b6064359081151582036102a657565b906004821015611c6b5752565b634e487b7160e01b5f52602160045260245ffd5b600954811015611cb45760095f527f6e1540171b6c0c960b71a7020d9f60077f6af931a8bbf590da0223dacf75c7af01905f90565b634e487b7160e01b5f52603260045260245ffd5b6004811015611c6b575f52600360205260405f2090565b6004811015611c6b575f52600f60205260405f2090565b90600182811c92168015611d24575b6020831014611d1057565b634e487b7160e01b5f52602260045260245ffd5b91607f1691611d05565b611d378161202a565b15611fbe5760018060a01b03165f52602060048152604091611d5e60ff845f205416611cc8565b928151907f6347bf9778becc3b00b980ddb2e321c24ace19881dec27e1105433ceafdcba5284840192832071616476616e6365645f616e616c797469637360701b868451611dab81611b98565b60128152015214611fb0577fdaa135825c60a2ded595234cabc6b14f3b67f1c14e2180e0f3bd457a197ce1018351832070706572736f6e616c5f636f616368696e6760781b868451611dfc81611b98565b60118152015214611f9f577fd41d9f8c89a42328af920427e50aca560cde53fd28b5c19ff33a7e88f496b78783518320696170695f61636365737360b01b868451611e4681611b98565b600a8152015214611f8e577f34fd1ec4616d8311bb75a14b7b0019940789f7ae686f2d1ddb45eb58b4ee4b38835183206a1dda1a5d1957db1858995b60aa1b868451611e9181611b98565b600b8152015214611f7d5760065f95018054955b868110611eb757505050505050505f90565b815f5280865f20018351905f9181549281611ed185611cf6565b918282528b8201946001968d88821691825f14611f5f575050600114611f1f575b50611eff92500382611bc8565b5190208651862014611f145750600101611ea5565b965050505050505090565b9150505f52818a805f2092865f945b828610611f4557505050611eff928201015f611ef2565b809192945054838688010152019201918391868d92611f2e565b60ff19168852611eff95151560051b85010192505f9150611ef29050565b505050506005015460181c60ff1690565b505050506005015460101c60ff1690565b505050506005015460081c60ff1690565b505050506005015460ff1690565b50505f90565b15611fcb57565b60405162461bcd60e51b815260206004820152601660248201527527379030b1ba34bb329039bab139b1b934b83a34b7b760511b6044820152606490fd5b9190820180921161201657565b634e487b7160e01b5f52601160045260245ffd5b6001600160a01b03165f908152600460205260409020600681015460a01c60ff169081612055575090565b612067915060020154600d5490612009565b42111590565b1561207457565b60405162461bcd60e51b815260206004820152601260248201527154696572206e6f7420617661696c61626c6560701b6044820152606490fd5b9190820391821161201657565b8181029291811591840414171561201657565b906004811015611c6b5760ff80198354169116179055565b6120ef8161202a565b15612111576001600160a01b03165f9081526004602052604090206007015490565b505f90565b600260015414612127576002600155565b604051633ee5aeb560e01b8152600490fd5b60018060a01b03165f526004602052600360405f205f600782016121608154600a546120ae565b600a555560068101805460ff60a01b1916905501805461ff0019169055600b548015612016575f1901600b55565b335f9081527fad3228b676f7d3cd4284a5443f17f1962b36e491b30a40b2405849e597ba5fb5602052604090205460ff16156121c657565b60405163e2517d3f60e01b81523360048201525f6024820152604490fd5b335f9081527f30d09331649ddfdce960950cd8816672ab8f48f285d83240d17939fee5dd05e260205260409020547f7bdb6b596b843035ddd2e81fd6f76604e18d00b7a5869d7d8f70d84e3c9965b49060ff161561223f5750565b6044906040519063e2517d3f60e01b82523360048301526024820152fd5b805f525f60205260405f20335f5260205260ff60405f2054161561223f5750565b90815f525f60205260405f209060018060a01b031690815f5260205260ff60405f205416155f14611fbe57815f525f60205260405f20815f5260205260405f20600160ff1982541617905533917f2f8788117e7eff1d82e926ec794901d17c78024a50270940304540a733656f0d5f80a4600190565b90815f525f60205260405f209060018060a01b031690815f5260205260ff60405f2054165f14611fbe57815f525f60205260405f20815f5260205260405f2060ff19815416905533917ff6391f5c32d9c69d2a47ea670b442974b53935d1edc7fd64eb21e047a839171b5f80a4600190565b6040516323b872dd60e01b602082019081526001600160a01b039384166024830152938316604482015260648082019590955293845292909160a082019067ffffffffffffffff821183831017611bb4576020925f92604052519082865af115612403575f513d6123fa57508082163b155b6123e0575050565b604051635274afe760e01b81529116600482015260249150fd5b600114156123d8565b6040513d5f823e3d90fd5b5f5b6009548110156124a05780612426600192611c7f565b905490600391848060a01b0391831b1c1690815f526020906006825260409060ff825f20918201541680612494575b612464575b5050505001612410565b6124899261271061247a8860109401548a6120bb565b04945f52525f20918254612009565b90555f80808061245a565b50858101541515612455565b5060407ff2838e4b541f90d41a1076a560d75e948f7d1008e72118a655568626a30b451f918151908152426020820152a1565b60ff600254166124df57565b60405163d93c066560e01b8152600490fdfea26469706673582212206751784cf6461a63ba1ed355cee076643dac41648e7084c5ca16999be03b52e964736f6c634300081800332f8788117e7eff1d82e926ec794901d17c78024a50270940304540a733656f0dad3228b676f7d3cd4284a5443f17f1962b36e491b30a40b2405849e597ba5fb5","opcodes":"PUSH1 0x80 CALLVALUE PUSH3 0x43A JUMPI PUSH1 0x1 PUSH1 0x1 PUSH1 0x40 SHL SUB SWAP1 PUSH3 0x2C13 SWAP1 PUSH1 0x1F NOT CODESIZE DUP4 SWAP1 SUB PUSH1 0x1F DUP2 ADD DUP3 AND DUP4 ADD SWAP1 DUP4 DUP3 LT DUP7 DUP4 GT OR PUSH3 0x43E JUMPI DUP1 DUP5 SWAP2 PUSH1 0x40 SWAP7 DUP8 SWAP5 DUP6 MSTORE DUP4 CODECOPY DUP2 ADD SUB SLT PUSH3 0x43A JUMPI PUSH3 0x51 DUP3 PUSH3 0x452 JUMP JUMPDEST SWAP2 PUSH3 0x61 PUSH1 0x20 DUP1 SWAP3 ADD PUSH3 0x452 JUMP JUMPDEST SWAP5 PUSH1 0x1 SWAP3 DUP4 DUP1 SSTORE PUSH3 0x93A80 PUSH1 0xD SSTORE PUSH3 0x3F480 PUSH1 0xE SSTORE PUSH3 0x81 CALLER PUSH3 0x467 JUMP JUMPDEST POP PUSH3 0x8D CALLER PUSH3 0x4D7 JUMP JUMPDEST POP PUSH3 0x99 CALLER PUSH3 0x577 JUMP JUMPDEST POP PUSH3 0xA5 CALLER PUSH3 0x611 JUMP JUMPDEST POP PUSH1 0x1 DUP1 PUSH1 0xA0 SHL SUB DUP1 SWAP8 DUP2 PUSH1 0x1 DUP1 PUSH1 0xA0 SHL SUB NOT SWAP8 AND DUP8 PUSH1 0x7 SLOAD AND OR PUSH1 0x7 SSTORE AND DUP6 PUSH1 0x8 SLOAD AND OR PUSH1 0x8 SSTORE DUP4 PUSH0 MSTORE PUSH1 0x3 SWAP1 DUP2 DUP5 MSTORE DUP7 PUSH0 KECCAK256 SWAP2 PUSH9 0x2B5E3AF16B1880000 DUP4 SSTORE PUSH9 0x1B1AE4D6E2EF500000 SWAP4 DUP5 DUP8 DUP6 ADD SSTORE PUSH1 0x64 PUSH1 0x2 DUP6 ADD SSTORE PUSH1 0x5 SWAP3 DUP4 DUP4 DUP7 ADD SSTORE PUSH1 0x8 PUSH1 0x4 SWAP7 DUP10 DUP9 DUP9 ADD SSTORE DUP2 DUP7 DUP9 ADD SWAP8 PUSH4 0xFFFFFFFF NOT SWAP9 DUP10 DUP2 SLOAD AND SWAP1 SSTORE PUSH1 0x64 PUSH1 0x7 DUP3 ADD SSTORE ADD SWAP7 PUSH1 0xFF NOT SWAP8 DUP12 DUP10 DUP3 SLOAD AND OR SWAP1 SSTORE PUSH1 0x2 PUSH0 MSTORE DUP13 PUSH0 KECCAK256 SWAP1 PUSH9 0x821AB0D4414980000 DUP3 SSTORE PUSH9 0x5150AE84A8CDF00000 DUP13 DUP4 ADD SSTORE DUP4 PUSH2 0x1F4 SWAP3 DUP4 PUSH1 0x2 DUP3 ADD SSTORE PUSH1 0x14 DUP10 DUP3 ADD SSTORE DUP10 DUP13 DUP3 ADD SSTORE DUP10 DUP2 ADD PUSH2 0x101 DUP5 DUP3 SLOAD AND OR SWAP1 SSTORE PUSH2 0x12C PUSH1 0x7 DUP3 ADD SSTORE ADD DUP13 DUP11 DUP3 SLOAD AND OR SWAP1 SSTORE DUP7 PUSH0 MSTORE DUP14 PUSH0 KECCAK256 SWAP3 DUP4 SSTORE PUSH10 0x10F0CF064DD59200000 DUP13 DUP5 ADD SSTORE PUSH2 0x7D0 PUSH1 0x2 DUP5 ADD SSTORE PUSH1 0x64 DUP8 DUP5 ADD SSTORE PUSH1 0x14 DUP11 DUP5 ADD SSTORE PUSH4 0x1010101 DUP9 DUP5 ADD SWAP2 DUP3 SLOAD AND OR SWAP1 SSTORE PUSH1 0x7 DUP3 ADD SSTORE ADD DUP9 DUP7 DUP3 SLOAD AND OR SWAP1 SSTORE DUP10 MLOAD SWAP2 PUSH1 0x80 DUP4 ADD DUP4 DUP2 LT DUP3 DUP3 GT OR PUSH3 0x427 JUMPI DUP12 MSTORE CALLER DUP4 MSTORE DUP8 DUP4 ADD SWAP2 PUSH2 0xFA0 DUP4 MSTORE DUP12 MLOAD SWAP3 DUP13 DUP5 ADD SWAP14 DUP15 DUP5 DUP7 DUP3 LT SWAP2 GT OR PUSH3 0x414 JUMPI DUP14 SWAP15 DUP15 SWAP11 SWAP12 SWAP13 SWAP14 SWAP15 MSTORE PUSH1 0x14 DUP6 MSTORE PUSH32 0x506C6174666F726D20446576656C6F706D656E74000000000000000000000000 DUP13 DUP7 ADD MSTORE DUP10 DUP7 ADD SWAP5 DUP6 MSTORE PUSH1 0x60 DUP7 ADD SWAP10 DUP14 DUP12 MSTORE CALLER PUSH0 MSTORE PUSH1 0x6 DUP14 MSTORE PUSH0 KECCAK256 SWAP6 MLOAD AND DUP14 DUP7 SLOAD AND OR DUP6 SSTORE MLOAD DUP12 DUP6 ADD SSTORE PUSH1 0x2 DUP5 ADD SWAP3 MLOAD SWAP6 DUP7 MLOAD SWAP3 DUP4 GT PUSH3 0x414 JUMPI DUP4 SLOAD SWAP1 DUP13 DUP3 DUP2 SHR SWAP3 AND DUP1 ISZERO PUSH3 0x409 JUMPI JUMPDEST DUP13 DUP4 LT EQ PUSH3 0x3F6 JUMPI PUSH1 0x1F DUP3 GT PUSH3 0x3AD JUMPI JUMPDEST POP POP DUP10 SWAP1 PUSH1 0x1F DUP4 GT PUSH1 0x1 EQ PUSH3 0x349 JUMPI POP DUP2 SWAP1 PUSH1 0xFF SWAP7 PUSH0 SWAP3 PUSH3 0x33D JUMPI JUMPDEST POP POP PUSH0 NOT DUP3 DUP7 SHL SHR NOT AND SWAP1 DUP11 SHL OR SWAP1 SSTORE JUMPDEST ADD SWAP3 MLOAD ISZERO ISZERO SWAP2 DUP4 SLOAD AND SWAP2 AND OR SWAP1 SSTORE PUSH1 0x9 SLOAD SWAP3 PUSH9 0x10000000000000000 DUP5 LT ISZERO PUSH3 0x32A JUMPI DUP4 ADD DUP1 PUSH1 0x9 SSTORE DUP4 LT ISZERO PUSH3 0x317 JUMPI POP PUSH1 0x9 PUSH0 MSTORE PUSH0 KECCAK256 ADD SWAP1 CALLER SWAP1 DUP3 SLOAD AND OR SWAP1 SSTORE MLOAD PUSH2 0x2527 SWAP1 DUP2 PUSH3 0x6AC DUP3 CODECOPY RETURN JUMPDEST PUSH1 0x32 SWAP1 PUSH4 0x4E487B71 PUSH1 0xE0 SHL PUSH0 MSTORE MSTORE PUSH1 0x24 PUSH0 REVERT JUMPDEST PUSH1 0x41 DUP3 PUSH4 0x4E487B71 PUSH1 0xE0 SHL PUSH0 MSTORE MSTORE PUSH1 0x24 PUSH0 REVERT JUMPDEST ADD MLOAD SWAP1 POP PUSH0 DUP1 PUSH3 0x2B5 JUMP JUMPDEST SWAP1 DUP3 SWAP2 DUP13 SWAP4 AND SWAP1 DUP5 PUSH0 MSTORE DUP12 PUSH0 KECCAK256 SWAP2 PUSH0 JUMPDEST DUP14 DUP3 DUP3 LT PUSH3 0x396 JUMPI POP POP SWAP8 DUP4 PUSH1 0xFF SWAP10 LT PUSH3 0x37E JUMPI JUMPDEST POP POP POP DUP2 SHL ADD SWAP1 SSTORE PUSH3 0x2C6 JUMP JUMPDEST ADD MLOAD PUSH0 NOT DUP4 DUP9 SHL PUSH1 0xF8 AND SHR NOT AND SWAP1 SSTORE PUSH0 DUP1 DUP1 PUSH3 0x370 JUMP JUMPDEST DUP4 DUP12 ADD MLOAD DUP6 SSTORE DUP16 SWAP7 SWAP1 SWAP5 ADD SWAP4 SWAP3 DUP4 ADD SWAP3 ADD PUSH3 0x359 JUMP JUMPDEST DUP5 PUSH0 MSTORE DUP12 PUSH0 KECCAK256 SWAP1 PUSH1 0x1F DUP6 ADD DUP2 SHR DUP3 ADD SWAP3 DUP14 DUP7 LT PUSH3 0x3EB JUMPI JUMPDEST PUSH1 0x1F ADD SWAP1 SHR ADD SWAP1 DUP13 SWAP1 JUMPDEST DUP3 DUP2 LT PUSH3 0x3DF JUMPI POP PUSH3 0x297 JUMP JUMPDEST PUSH0 DUP2 SSTORE ADD DUP13 SWAP1 PUSH3 0x3D0 JUMP JUMPDEST SWAP2 SWAP3 POP DUP3 SWAP2 PUSH3 0x3C6 JUMP JUMPDEST PUSH1 0x22 DUP12 PUSH4 0x4E487B71 PUSH1 0xE0 SHL PUSH0 MSTORE MSTORE PUSH1 0x24 PUSH0 REVERT JUMPDEST SWAP2 PUSH1 0x7F AND SWAP2 PUSH3 0x284 JUMP JUMPDEST PUSH1 0x41 DUP11 PUSH4 0x4E487B71 PUSH1 0xE0 SHL PUSH0 MSTORE MSTORE PUSH1 0x24 PUSH0 REVERT JUMPDEST PUSH1 0x41 DUP9 PUSH4 0x4E487B71 PUSH1 0xE0 SHL PUSH0 MSTORE MSTORE PUSH1 0x24 PUSH0 REVERT JUMPDEST PUSH0 DUP1 REVERT JUMPDEST PUSH4 0x4E487B71 PUSH1 0xE0 SHL PUSH0 MSTORE PUSH1 0x41 PUSH1 0x4 MSTORE PUSH1 0x24 PUSH0 REVERT JUMPDEST MLOAD SWAP1 PUSH1 0x1 PUSH1 0x1 PUSH1 0xA0 SHL SUB DUP3 AND DUP3 SUB PUSH3 0x43A JUMPI JUMP JUMPDEST PUSH1 0x1 PUSH1 0x1 PUSH1 0xA0 SHL SUB AND PUSH0 DUP2 DUP2 MSTORE PUSH0 DUP1 MLOAD PUSH1 0x20 PUSH3 0x2BF3 DUP4 CODECOPY DUP2 MLOAD SWAP2 MSTORE PUSH1 0x20 MSTORE PUSH1 0x40 SWAP1 KECCAK256 SLOAD PUSH1 0xFF AND PUSH3 0x4D2 JUMPI PUSH0 DUP2 DUP2 MSTORE PUSH0 DUP1 MLOAD PUSH1 0x20 PUSH3 0x2BF3 DUP4 CODECOPY DUP2 MLOAD SWAP2 MSTORE PUSH1 0x20 MSTORE PUSH1 0x40 DUP2 KECCAK256 DUP1 SLOAD PUSH1 0xFF NOT AND PUSH1 0x1 OR SWAP1 SSTORE CALLER SWAP2 SWAP1 PUSH0 DUP1 MLOAD PUSH1 0x20 PUSH3 0x2BD3 DUP4 CODECOPY DUP2 MLOAD SWAP2 MSTORE DUP2 DUP1 LOG4 PUSH1 0x1 SWAP1 JUMP JUMPDEST POP PUSH0 SWAP1 JUMP JUMPDEST PUSH1 0x1 PUSH1 0x1 PUSH1 0xA0 SHL SUB AND PUSH0 DUP2 DUP2 MSTORE PUSH32 0x30D09331649DDFDCE960950CD8816672AB8F48F285D83240D17939FEE5DD05E2 PUSH1 0x20 MSTORE PUSH1 0x40 SWAP1 KECCAK256 SLOAD PUSH32 0x7BDB6B596B843035DDD2E81FD6F76604E18D00B7A5869D7D8F70D84E3C9965B4 SWAP2 SWAP1 PUSH1 0xFF AND PUSH3 0x571 JUMPI DUP2 PUSH0 MSTORE PUSH0 PUSH1 0x20 MSTORE PUSH1 0x40 PUSH0 KECCAK256 DUP2 PUSH0 MSTORE PUSH1 0x20 MSTORE PUSH1 0x40 PUSH0 KECCAK256 PUSH1 0x1 PUSH1 0xFF NOT DUP3 SLOAD AND OR SWAP1 SSTORE CALLER SWAP2 PUSH0 DUP1 MLOAD PUSH1 0x20 PUSH3 0x2BD3 DUP4 CODECOPY DUP2 MLOAD SWAP2 MSTORE PUSH0 DUP1 LOG4 PUSH1 0x1 SWAP1 JUMP JUMPDEST POP POP PUSH0 SWAP1 JUMP JUMPDEST PUSH1 0x1 PUSH1 0x1 PUSH1 0xA0 SHL SUB AND PUSH0 DUP2 DUP2 MSTORE PUSH32 0xF852E3AA3AC1B75A57D7AD78F0A9E364B2E28E07350C693CDDE6B0432AD356D5 PUSH1 0x20 MSTORE PUSH1 0x40 SWAP1 KECCAK256 SLOAD PUSH32 0x33F63AC7430E160807E6D11D8132BD60AA62D493FBD27108F22183C218DAC83 SWAP2 SWAP1 PUSH1 0xFF AND PUSH3 0x571 JUMPI DUP2 PUSH0 MSTORE PUSH0 PUSH1 0x20 MSTORE PUSH1 0x40 PUSH0 KECCAK256 DUP2 PUSH0 MSTORE PUSH1 0x20 MSTORE PUSH1 0x40 PUSH0 KECCAK256 PUSH1 0x1 PUSH1 0xFF NOT DUP3 SLOAD AND OR SWAP1 SSTORE CALLER SWAP2 PUSH0 DUP1 MLOAD PUSH1 0x20 PUSH3 0x2BD3 DUP4 CODECOPY DUP2 MLOAD SWAP2 MSTORE PUSH0 DUP1 LOG4 PUSH1 0x1 SWAP1 JUMP JUMPDEST PUSH1 0x1 PUSH1 0x1 PUSH1 0xA0 SHL SUB AND PUSH0 DUP2 DUP2 MSTORE PUSH32 0xB70A1C27684B0FAB259E56BEF232A1DA05EA8D4B96A81D4BB9C747AC4A01A636 PUSH1 0x20 MSTORE PUSH1 0x40 SWAP1 KECCAK256 SLOAD PUSH32 0xE7E0B301DE1C1E268073A6B56FF0876CFFCA0BECBA0DCA08F945C1394E3E9727 SWAP2 SWAP1 PUSH1 0xFF AND PUSH3 0x571 JUMPI DUP2 PUSH0 MSTORE PUSH0 PUSH1 0x20 MSTORE PUSH1 0x40 PUSH0 KECCAK256 DUP2 PUSH0 MSTORE PUSH1 0x20 MSTORE PUSH1 0x40 PUSH0 KECCAK256 PUSH1 0x1 PUSH1 0xFF NOT DUP3 SLOAD AND OR SWAP1 SSTORE CALLER SWAP2 PUSH0 DUP1 MLOAD PUSH1 0x20 PUSH3 0x2BD3 DUP4 CODECOPY DUP2 MLOAD SWAP2 MSTORE PUSH0 DUP1 LOG4 PUSH1 0x1 SWAP1 JUMP INVALID PUSH1 0x80 PUSH1 0x40 DUP2 DUP2 MSTORE PUSH1 0x4 SWAP2 DUP3 CALLDATASIZE LT ISZERO PUSH2 0x15 JUMPI PUSH0 DUP1 REVERT JUMPDEST PUSH0 CALLDATALOAD PUSH1 0xE0 SHR SWAP1 DUP2 PUSH4 0x1FFC9A7 EQ PUSH2 0x1B1A JUMPI POP DUP1 PUSH4 0x4D157A2 EQ PUSH2 0x1A2D JUMPI DUP1 PUSH4 0x52057F2 EQ PUSH2 0x19E8 JUMPI DUP1 PUSH4 0x888FF7A EQ PUSH2 0x1958 JUMPI DUP1 PUSH4 0xCBEBC24 EQ PUSH2 0x18BE JUMPI DUP1 PUSH4 0xDC0BA72 EQ PUSH2 0x18A0 JUMPI DUP1 PUSH4 0x14401329 EQ PUSH2 0x1872 JUMPI DUP1 PUSH4 0x15E2475F EQ PUSH2 0x1854 JUMPI DUP1 PUSH4 0x1D6B8B72 EQ PUSH2 0x1814 JUMPI DUP1 PUSH4 0x248A9CA3 EQ PUSH2 0x17EB JUMPI DUP1 PUSH4 0x24E9EDB0 EQ PUSH2 0x1773 JUMPI DUP1 PUSH4 0x2A891534 EQ PUSH2 0x1756 JUMPI DUP1 PUSH4 0x2F2FF15D EQ PUSH2 0x172E JUMPI DUP1 PUSH4 0x36568ABE EQ PUSH2 0x16EA JUMPI DUP1 PUSH4 0x37D44C2A EQ PUSH2 0x1444 JUMPI DUP1 PUSH4 0x399DFE26 EQ PUSH2 0x141C JUMPI DUP1 PUSH4 0x3F4BA83A EQ PUSH2 0x13B5 JUMPI DUP1 PUSH4 0x49BF28C4 EQ PUSH2 0x133B JUMPI DUP1 PUSH4 0x518B8CB3 EQ PUSH2 0x130C JUMPI DUP1 PUSH4 0x5C975ABB EQ PUSH2 0x12E9 JUMPI DUP1 PUSH4 0x604F9E83 EQ PUSH2 0x12CB JUMPI DUP1 PUSH4 0x66C29B81 EQ PUSH2 0x12A3 JUMPI DUP1 PUSH4 0x671B3793 EQ PUSH2 0x1285 JUMPI DUP1 PUSH4 0x6CD2E1BF EQ PUSH2 0x1137 JUMPI DUP1 PUSH4 0x70B6085E EQ PUSH2 0xFED JUMPI DUP1 PUSH4 0x77FB8D7A EQ PUSH2 0xFB3 JUMPI DUP1 PUSH4 0x784712F2 EQ PUSH2 0xF7C JUMPI DUP1 PUSH4 0x8456CB59 EQ PUSH2 0xF23 JUMPI DUP1 PUSH4 0x91D14854 EQ PUSH2 0xEE0 JUMPI DUP1 PUSH4 0x9DA9DB2A EQ PUSH2 0xE32 JUMPI DUP1 PUSH4 0x9DC10FD5 EQ PUSH2 0xB3D JUMPI DUP1 PUSH4 0xA06DB7DC EQ PUSH2 0xB1F JUMPI DUP1 PUSH4 0xA217FDDF EQ PUSH2 0xB05 JUMPI DUP1 PUSH4 0xB1C5578C EQ PUSH2 0xAC9 JUMPI DUP1 PUSH4 0xBB4D4436 EQ PUSH2 0xA9D JUMPI DUP1 PUSH4 0xBD6FBBD1 EQ PUSH2 0x728 JUMPI DUP1 PUSH4 0xBF2D9E0B EQ PUSH2 0x70A JUMPI DUP1 PUSH4 0xD547741F EQ PUSH2 0x6CF JUMPI DUP1 PUSH4 0xD5C3DBDE EQ PUSH2 0x33A JUMPI DUP1 PUSH4 0xDE197161 EQ PUSH2 0x300 JUMPI DUP1 PUSH4 0xE1F1C4A7 EQ PUSH2 0x2E4 JUMPI DUP1 PUSH4 0xE8AD5D89 EQ PUSH2 0x2AA JUMPI PUSH4 0xF046395A EQ PUSH2 0x1F8 JUMPI PUSH0 DUP1 REVERT JUMPDEST CALLVALUE PUSH2 0x2A6 JUMPI PUSH1 0x20 CALLDATASIZE PUSH1 0x3 NOT ADD SLT PUSH2 0x2A6 JUMPI PUSH2 0x140 SWAP2 PUSH1 0xFF PUSH1 0x1 PUSH1 0x1 PUSH1 0xA0 SHL SUB DUP1 PUSH2 0x220 PUSH2 0x1B6C JUMP JUMPDEST AND PUSH0 MSTORE DUP3 PUSH1 0x20 MSTORE DUP4 PUSH0 KECCAK256 SWAP1 DUP3 DUP3 SLOAD AND SWAP5 PUSH1 0x1 DUP4 ADD SLOAD SWAP5 DUP5 PUSH1 0x2 DUP6 ADD SLOAD SWAP2 PUSH1 0x3 DUP7 ADD SLOAD SWAP1 DUP7 ADD SLOAD SWAP3 PUSH1 0x5 DUP8 ADD SLOAD SWAP5 PUSH1 0x7 PUSH1 0x6 DUP10 ADD SLOAD SWAP9 ADD SLOAD SWAP10 PUSH2 0x264 DUP3 MLOAD DUP1 SWAP14 PUSH2 0x1C5E JUMP JUMPDEST PUSH1 0x20 DUP13 ADD MSTORE DUP11 ADD MSTORE DUP2 DUP2 AND ISZERO ISZERO PUSH1 0x60 DUP11 ADD MSTORE PUSH1 0x8 SHR AND ISZERO ISZERO PUSH1 0x80 DUP9 ADD MSTORE PUSH1 0xA0 DUP8 ADD MSTORE PUSH1 0xC0 DUP7 ADD MSTORE DUP2 AND PUSH1 0xE0 DUP6 ADD MSTORE PUSH1 0xA0 SHR AND ISZERO ISZERO PUSH2 0x100 DUP4 ADD MSTORE PUSH2 0x120 DUP3 ADD MSTORE RETURN JUMPDEST PUSH0 DUP1 REVERT JUMPDEST POP CALLVALUE PUSH2 0x2A6 JUMPI PUSH0 CALLDATASIZE PUSH1 0x3 NOT ADD SLT PUSH2 0x2A6 JUMPI PUSH1 0x20 SWAP1 MLOAD PUSH32 0x7BDB6B596B843035DDD2E81FD6F76604E18D00B7A5869D7D8F70D84E3C9965B4 DUP2 MSTORE RETURN JUMPDEST POP CALLVALUE PUSH2 0x2A6 JUMPI PUSH0 CALLDATASIZE PUSH1 0x3 NOT ADD SLT PUSH2 0x2A6 JUMPI PUSH1 0x20 SWAP1 MLOAD PUSH2 0x2710 DUP2 MSTORE RETURN JUMPDEST POP CALLVALUE PUSH2 0x2A6 JUMPI PUSH0 CALLDATASIZE PUSH1 0x3 NOT ADD SLT PUSH2 0x2A6 JUMPI PUSH1 0x20 SWAP1 MLOAD PUSH32 0x33F63AC7430E160807E6D11D8132BD60AA62D493FBD27108F22183C218DAC83 DUP2 MSTORE RETURN JUMPDEST POP CALLVALUE PUSH2 0x2A6 JUMPI PUSH1 0x80 CALLDATASIZE PUSH1 0x3 NOT ADD SLT PUSH2 0x2A6 JUMPI DUP2 CALLDATALOAD SWAP1 DUP3 DUP3 LT ISZERO PUSH2 0x2A6 JUMPI PUSH2 0x35F PUSH2 0x1C40 JUMP JUMPDEST PUSH1 0x1 PUSH1 0x1 PUSH1 0xA0 SHL SUB PUSH1 0x44 CALLDATALOAD DUP2 DUP2 AND SWAP5 SWAP2 SWAP4 SWAP3 SWAP1 DUP6 SWAP1 SUB PUSH2 0x2A6 JUMPI PUSH2 0x381 PUSH2 0x1C4F JUMP JUMPDEST PUSH2 0x389 PUSH2 0x2116 JUMP JUMPDEST PUSH2 0x391 PUSH2 0x24D3 JUMP JUMPDEST DUP3 ISZERO PUSH2 0x69D JUMPI PUSH2 0x3AF PUSH1 0xFF PUSH1 0x8 PUSH2 0x3A7 DUP7 PUSH2 0x1CC8 JUMP JUMPDEST ADD SLOAD AND PUSH2 0x206D JUMP JUMPDEST DUP6 PUSH0 MSTORE PUSH1 0x20 SWAP5 PUSH1 0x5 DUP7 MSTORE PUSH1 0xFF DUP6 PUSH0 KECCAK256 SLOAD AND ISZERO PUSH2 0x65A JUMPI DUP6 PUSH1 0x24 SWAP2 PUSH1 0x8 SLOAD AND DUP7 MLOAD SWAP3 DUP4 DUP1 SWAP3 PUSH4 0xEF87C3F7 PUSH1 0xE0 SHL DUP3 MSTORE CALLER DUP14 DUP4 ADD MSTORE GAS STATICCALL SWAP1 DUP2 ISZERO PUSH2 0x650 JUMPI PUSH0 SWAP2 PUSH2 0x623 JUMPI JUMPDEST POP PUSH1 0x7 PUSH2 0x3FE DUP6 PUSH2 0x1CC8 JUMP JUMPDEST ADD SLOAD GT PUSH2 0x5E0 JUMPI PUSH1 0x7 SWAP6 SWAP7 CALLER PUSH0 MSTORE DUP1 DUP7 MSTORE PUSH1 0xFF PUSH1 0x6 DUP7 PUSH0 KECCAK256 ADD SLOAD PUSH1 0xA0 SHR AND PUSH2 0x5D2 JUMPI JUMPDEST DUP3 ISZERO PUSH2 0x5C2 JUMPI PUSH1 0x1 PUSH2 0x432 DUP6 PUSH2 0x1CC8 JUMP JUMPDEST ADD SLOAD SWAP8 JUMPDEST DUP4 ISZERO PUSH2 0x5B8 JUMPI PUSH4 0x1E13380 SWAP1 JUMPDEST PUSH2 0x44F DUP11 ADDRESS CALLER DUP5 PUSH2 0x2366 JUMP JUMPDEST CALLER PUSH0 MSTORE DUP3 DUP9 MSTORE PUSH2 0x4AF PUSH2 0x475 DUP9 PUSH0 KECCAK256 SWAP4 PUSH2 0x469 DUP10 DUP7 PUSH2 0x20CE JUMP JUMPDEST TIMESTAMP PUSH1 0x1 DUP7 ADD SSTORE TIMESTAMP PUSH2 0x2009 JUMP JUMPDEST SWAP5 PUSH1 0x2 DUP5 ADD SWAP6 DUP7 SSTORE PUSH1 0x3 DUP5 ADD PUSH2 0x497 DUP9 DUP3 SWAP1 PUSH1 0xFF DUP1 NOT DUP4 SLOAD AND SWAP2 ISZERO ISZERO AND OR SWAP1 SSTORE JUMP JUMPDEST SWAP1 PUSH2 0xFF00 DUP3 SLOAD SWAP2 ISZERO ISZERO PUSH1 0x8 SHL AND SWAP1 PUSH2 0xFF00 NOT AND OR SWAP1 SSTORE JUMP JUMPDEST TIMESTAMP DUP3 DUP5 ADD SSTORE PUSH1 0x5 DUP3 ADD DUP11 SWAP1 SSTORE PUSH1 0x6 DUP3 ADD DUP1 SLOAD PUSH1 0x1 PUSH1 0x1 PUSH1 0xA8 SHL SUB NOT AND SWAP1 SWAP2 OR PUSH1 0x1 PUSH1 0xA0 SHL OR SWAP1 SSTORE DUP2 PUSH2 0x4E0 DUP7 PUSH2 0x1CC8 JUMP JUMPDEST ADD SLOAD SWAP8 DUP9 SWAP2 ADD SSTORE PUSH2 0x4F3 DUP8 PUSH1 0xA SLOAD PUSH2 0x2009 JUMP JUMPDEST PUSH1 0xA SSTORE PUSH1 0xB SLOAD SWAP1 PUSH0 NOT DUP3 EQ PUSH2 0x5A5 JUMPI POP PUSH32 0x1AC4E76067F7E1095F2219AA56CE07EECC8378CBB2C2349383B4CC43A72DA7FB SWAP7 SWAP8 PUSH1 0x1 PUSH2 0x55A SWAP3 ADD PUSH1 0xB SSTORE PUSH2 0x53C DUP2 PUSH1 0xC SLOAD PUSH2 0x2009 JUMP JUMPDEST PUSH1 0xC SSTORE PUSH2 0x548 DUP6 PUSH2 0x1CDF JUMP JUMPDEST PUSH2 0x553 DUP3 DUP3 SLOAD PUSH2 0x2009 JUMP JUMPDEST SWAP1 SSTORE PUSH2 0x240E JUMP JUMPDEST SLOAD SWAP1 PUSH2 0x568 DUP5 MLOAD DUP1 SWAP5 PUSH2 0x1C5E JUMP JUMPDEST ISZERO ISZERO DUP5 DUP4 ADD MSTORE DUP3 DUP3 ADD MSTORE PUSH32 0xDE35B07A4A1F275259EBC0D2A83849A1FA4C67F96BE74B5F20D8E73C58B39A0 PUSH1 0x60 CALLER SWAP3 LOG2 MLOAD SWAP3 DUP4 MSTORE CALLER SWAP3 LOG2 PUSH1 0x1 DUP1 SSTORE STOP JUMPDEST PUSH1 0x11 SWAP1 PUSH4 0x4E487B71 PUSH1 0xE0 SHL PUSH0 MSTORE MSTORE PUSH1 0x24 PUSH0 REVERT JUMPDEST PUSH3 0x278D00 SWAP1 PUSH2 0x443 JUMP JUMPDEST PUSH2 0x5CB DUP5 PUSH2 0x1CC8 JUMP JUMPDEST SLOAD SWAP8 PUSH2 0x436 JUMP JUMPDEST PUSH2 0x5DB CALLER PUSH2 0x2139 JUMP JUMPDEST PUSH2 0x421 JUMP JUMPDEST DUP4 MLOAD PUSH3 0x461BCD PUSH1 0xE5 SHL DUP2 MSTORE DUP1 DUP9 ADD DUP7 SWAP1 MSTORE PUSH1 0x1B PUSH1 0x24 DUP3 ADD MSTORE PUSH32 0x436F6E7363696F75736E657373206C6576656C20746F6F206C6F770000000000 PUSH1 0x44 DUP3 ADD MSTORE PUSH1 0x64 SWAP1 REVERT JUMPDEST SWAP1 POP DUP6 DUP2 DUP2 RETURNDATASIZE DUP4 GT PUSH2 0x649 JUMPI JUMPDEST PUSH2 0x63A DUP2 DUP4 PUSH2 0x1BC8 JUMP JUMPDEST DUP2 ADD SUB SLT PUSH2 0x2A6 JUMPI MLOAD PUSH0 PUSH2 0x3F2 JUMP JUMPDEST POP RETURNDATASIZE PUSH2 0x630 JUMP JUMPDEST DUP6 MLOAD RETURNDATASIZE PUSH0 DUP3 RETURNDATACOPY RETURNDATASIZE SWAP1 REVERT JUMPDEST DUP5 MLOAD PUSH3 0x461BCD PUSH1 0xE5 SHL DUP2 MSTORE DUP1 DUP10 ADD DUP8 SWAP1 MSTORE PUSH1 0x1B PUSH1 0x24 DUP3 ADD MSTORE PUSH32 0x5061796D656E7420746F6B656E206E6F7420737570706F727465640000000000 PUSH1 0x44 DUP3 ADD MSTORE PUSH1 0x64 SWAP1 REVERT JUMPDEST DUP4 MLOAD PUSH3 0x461BCD PUSH1 0xE5 SHL DUP2 MSTORE PUSH1 0x20 DUP2 DUP10 ADD MSTORE PUSH1 0xC PUSH1 0x24 DUP3 ADD MSTORE PUSH12 0x24B73B30B634B2103A34B2B9 PUSH1 0xA1 SHL PUSH1 0x44 DUP3 ADD MSTORE PUSH1 0x64 SWAP1 REVERT JUMPDEST POP CALLVALUE PUSH2 0x2A6 JUMPI DUP1 PUSH1 0x3 NOT CALLDATASIZE ADD SLT PUSH2 0x2A6 JUMPI PUSH2 0x708 SWAP2 CALLDATALOAD PUSH2 0x703 PUSH1 0x1 PUSH2 0x6F2 PUSH2 0x1B82 JUMP JUMPDEST SWAP4 DUP4 PUSH0 MSTORE PUSH0 PUSH1 0x20 MSTORE PUSH0 KECCAK256 ADD SLOAD PUSH2 0x225D JUMP JUMPDEST PUSH2 0x22F4 JUMP JUMPDEST STOP JUMPDEST POP CALLVALUE PUSH2 0x2A6 JUMPI PUSH0 CALLDATASIZE PUSH1 0x3 NOT ADD SLT PUSH2 0x2A6 JUMPI PUSH1 0x20 SWAP1 PUSH1 0xC SLOAD SWAP1 MLOAD SWAP1 DUP2 MSTORE RETURN JUMPDEST POP SWAP1 CALLVALUE PUSH2 0x2A6 JUMPI PUSH1 0x20 SWAP2 DUP3 PUSH1 0x3 NOT CALLDATASIZE ADD SLT PUSH2 0x2A6 JUMPI PUSH2 0x745 PUSH2 0x1B6C JUMP JUMPDEST PUSH2 0x74D PUSH2 0x21E4 JUMP JUMPDEST PUSH1 0x1 DUP1 PUSH1 0xA0 SHL SUB SWAP4 DUP5 DUP3 AND SWAP4 DUP5 PUSH0 MSTORE DUP1 DUP3 MSTORE DUP4 PUSH0 KECCAK256 PUSH1 0x6 DUP2 ADD SLOAD SWAP2 PUSH1 0xFF SWAP3 PUSH2 0x779 DUP5 DUP3 PUSH1 0xA0 SHR AND PUSH2 0x1FC4 JUMP JUMPDEST PUSH1 0x3 DUP4 ADD SLOAD SWAP6 DUP5 DUP8 PUSH1 0x8 SHR AND ISZERO PUSH2 0xA5A JUMPI PUSH1 0x2 DUP5 ADD SWAP7 DUP8 SLOAD PUSH2 0x79D PUSH1 0xE SLOAD DUP3 PUSH2 0x20AE JUMP JUMPDEST TIMESTAMP LT PUSH2 0xA1F JUMPI PUSH1 0xD SLOAD PUSH2 0x7AF SWAP2 PUSH2 0x2009 JUMP JUMPDEST TIMESTAMP GT PUSH2 0x9E5 JUMPI DUP6 AND SWAP10 DUP11 ISZERO PUSH2 0x9D2 JUMPI PUSH1 0x1 PUSH2 0x7CC DUP8 DUP8 SLOAD AND PUSH2 0x1CC8 JUMP JUMPDEST ADD SLOAD SWAP11 JUMPDEST ISZERO PUSH2 0x9C8 JUMPI PUSH4 0x1E13380 SWAP3 JUMPDEST AND SWAP1 DUP9 MLOAD PUSH4 0x70A08231 PUSH1 0xE0 SHL DUP2 MSTORE DUP11 DUP6 DUP3 ADD MSTORE DUP8 DUP2 PUSH1 0x24 DUP2 DUP7 GAS STATICCALL SWAP1 DUP2 ISZERO PUSH2 0x94C JUMPI SWAP1 DUP13 SWAP2 PUSH0 SWAP2 PUSH2 0x997 JUMPI JUMPDEST POP LT PUSH2 0x956 JUMPI DUP9 MLOAD PUSH4 0x6EB1769F PUSH1 0xE1 SHL DUP2 MSTORE DUP5 DUP2 ADD DUP12 SWAP1 MSTORE ADDRESS PUSH1 0x24 DUP3 ADD MSTORE DUP8 DUP2 PUSH1 0x44 DUP2 DUP7 GAS STATICCALL SWAP1 DUP2 ISZERO PUSH2 0x94C JUMPI SWAP1 DUP13 SWAP2 PUSH0 SWAP2 PUSH2 0x91B JUMPI JUMPDEST POP LT PUSH2 0x8CD JUMPI DUP11 SWAP3 PUSH2 0x87D PUSH32 0x1AF2F2C576585623F24CDD3D12995DE86E6D2EF881E797DAB79B51BC71FB0A9A SWAP12 SWAP13 PUSH2 0x8B6 SWAP7 SWAP5 PUSH2 0x883 SWAP5 ADDRESS SWAP2 PUSH2 0x2366 JUMP JUMPDEST TIMESTAMP PUSH2 0x2009 JUMP JUMPDEST DUP8 SSTORE TIMESTAMP SWAP1 DUP5 ADD SSTORE PUSH1 0x5 DUP4 ADD PUSH2 0x899 DUP3 DUP3 SLOAD PUSH2 0x2009 JUMP JUMPDEST SWAP1 SSTORE PUSH2 0x8A7 DUP2 PUSH1 0xC SLOAD PUSH2 0x2009 JUMP JUMPDEST PUSH1 0xC SSTORE PUSH2 0x548 DUP5 DUP5 SLOAD AND PUSH2 0x1CDF JUMP JUMPDEST SLOAD AND SWAP2 SLOAD SWAP1 PUSH2 0x8C7 DUP5 MLOAD DUP1 SWAP5 PUSH2 0x1C5E JUMP JUMPDEST DUP3 ADD MSTORE LOG2 STOP JUMPDEST DUP9 MLOAD PUSH3 0x461BCD PUSH1 0xE5 SHL DUP2 MSTORE DUP1 DUP6 ADD DUP9 SWAP1 MSTORE PUSH1 0x22 PUSH1 0x24 DUP3 ADD MSTORE PUSH32 0x496E73756666696369656E7420616C6C6F77616E636520666F722072656E6577 PUSH1 0x44 DUP3 ADD MSTORE PUSH2 0x185B PUSH1 0xF2 SHL PUSH1 0x64 DUP3 ADD MSTORE PUSH1 0x84 SWAP1 REVERT JUMPDEST DUP1 SWAP3 POP DUP10 DUP1 SWAP3 POP RETURNDATASIZE DUP4 GT PUSH2 0x945 JUMPI JUMPDEST PUSH2 0x934 DUP2 DUP4 PUSH2 0x1BC8 JUMP JUMPDEST DUP2 ADD SUB SLT PUSH2 0x2A6 JUMPI DUP12 SWAP1 MLOAD PUSH0 PUSH2 0x83F JUMP JUMPDEST POP RETURNDATASIZE PUSH2 0x92A JUMP JUMPDEST DUP11 MLOAD RETURNDATASIZE PUSH0 DUP3 RETURNDATACOPY RETURNDATASIZE SWAP1 REVERT JUMPDEST PUSH1 0x64 DUP5 DUP9 DUP1 DUP13 MLOAD SWAP3 PUSH3 0x461BCD PUSH1 0xE5 SHL DUP5 MSTORE DUP4 ADD MSTORE PUSH1 0x24 DUP3 ADD MSTORE PUSH32 0x496E73756666696369656E742062616C616E636520666F722072656E6577616C PUSH1 0x44 DUP3 ADD MSTORE REVERT JUMPDEST DUP1 SWAP3 POP DUP10 DUP1 SWAP3 POP RETURNDATASIZE DUP4 GT PUSH2 0x9C1 JUMPI JUMPDEST PUSH2 0x9B0 DUP2 DUP4 PUSH2 0x1BC8 JUMP JUMPDEST DUP2 ADD SUB SLT PUSH2 0x2A6 JUMPI DUP12 SWAP1 MLOAD PUSH0 PUSH2 0x808 JUMP JUMPDEST POP RETURNDATASIZE PUSH2 0x9A6 JUMP JUMPDEST PUSH3 0x278D00 SWAP3 PUSH2 0x7DC JUMP JUMPDEST PUSH2 0x9DE DUP7 DUP7 SLOAD AND PUSH2 0x1CC8 JUMP JUMPDEST SLOAD SWAP11 PUSH2 0x7D0 JUMP JUMPDEST DUP9 MLOAD PUSH3 0x461BCD PUSH1 0xE5 SHL DUP2 MSTORE DUP1 DUP6 ADD DUP9 SWAP1 MSTORE PUSH1 0x14 PUSH1 0x24 DUP3 ADD MSTORE PUSH20 0x11DC9858D9481C195C9A5BD908195E1C1A5C9959 PUSH1 0x62 SHL PUSH1 0x44 DUP3 ADD MSTORE PUSH1 0x64 SWAP1 REVERT JUMPDEST DUP10 MLOAD PUSH3 0x461BCD PUSH1 0xE5 SHL DUP2 MSTORE DUP1 DUP7 ADD DUP10 SWAP1 MSTORE PUSH1 0x15 PUSH1 0x24 DUP3 ADD MSTORE PUSH21 0x151BDBC819585C9B1E48199BDC881C995B995DD85B PUSH1 0x5A SHL PUSH1 0x44 DUP3 ADD MSTORE PUSH1 0x64 SWAP1 REVERT JUMPDEST DUP8 MLOAD PUSH3 0x461BCD PUSH1 0xE5 SHL DUP2 MSTORE DUP1 DUP5 ADD DUP8 SWAP1 MSTORE PUSH1 0x18 PUSH1 0x24 DUP3 ADD MSTORE PUSH32 0x4175746F2072656E6577616C206E6F7420656E61626C65640000000000000000 PUSH1 0x44 DUP3 ADD MSTORE PUSH1 0x64 SWAP1 REVERT JUMPDEST POP CALLVALUE PUSH2 0x2A6 JUMPI PUSH1 0x20 CALLDATASIZE PUSH1 0x3 NOT ADD SLT PUSH2 0x2A6 JUMPI PUSH1 0x20 SWAP1 PUSH2 0xAC2 PUSH2 0xABD PUSH2 0x1B6C JUMP JUMPDEST PUSH2 0x20E6 JUMP JUMPDEST SWAP1 MLOAD SWAP1 DUP2 MSTORE RETURN JUMPDEST POP CALLVALUE PUSH2 0x2A6 JUMPI PUSH1 0x20 CALLDATASIZE PUSH1 0x3 NOT ADD SLT PUSH2 0x2A6 JUMPI PUSH1 0x20 SWAP1 PUSH1 0x1 PUSH1 0x1 PUSH1 0xA0 SHL SUB PUSH2 0xAEE PUSH2 0x1B6C JUMP JUMPDEST AND PUSH0 MSTORE PUSH1 0x5 DUP3 MSTORE PUSH1 0xFF DUP2 PUSH0 KECCAK256 SLOAD AND SWAP1 MLOAD SWAP1 ISZERO ISZERO DUP2 MSTORE RETURN JUMPDEST POP CALLVALUE PUSH2 0x2A6 JUMPI PUSH0 CALLDATASIZE PUSH1 0x3 NOT ADD SLT PUSH2 0x2A6 JUMPI PUSH1 0x20 SWAP1 MLOAD PUSH0 DUP2 MSTORE RETURN JUMPDEST POP CALLVALUE PUSH2 0x2A6 JUMPI PUSH0 CALLDATASIZE PUSH1 0x3 NOT ADD SLT PUSH2 0x2A6 JUMPI PUSH1 0x20 SWAP1 PUSH1 0xD SLOAD SWAP1 MLOAD SWAP1 DUP2 MSTORE RETURN JUMPDEST POP CALLVALUE PUSH2 0x2A6 JUMPI PUSH1 0x80 CALLDATASIZE PUSH1 0x3 NOT ADD SLT PUSH2 0x2A6 JUMPI PUSH2 0xB57 PUSH2 0x1B6C JUMP JUMPDEST PUSH8 0xFFFFFFFFFFFFFFFF SWAP3 PUSH1 0x24 SWAP2 DUP3 CALLDATALOAD SWAP1 PUSH1 0x44 CALLDATALOAD DUP7 DUP2 GT PUSH2 0x2A6 JUMPI PUSH2 0xB7E SWAP1 CALLDATASIZE SWAP1 DUP6 ADD PUSH2 0x1BEA JUMP JUMPDEST SWAP3 PUSH2 0xB87 PUSH2 0x1C4F JUMP JUMPDEST SWAP5 PUSH32 0x33F63AC7430E160807E6D11D8132BD60AA62D493FBD27108F22183C218DAC83 SWAP3 DUP4 PUSH0 MSTORE PUSH1 0x20 SWAP4 PUSH0 DUP6 MSTORE DUP9 PUSH0 KECCAK256 CALLER PUSH0 MSTORE DUP6 MSTORE PUSH1 0xFF DUP10 PUSH0 KECCAK256 SLOAD AND ISZERO PUSH2 0xE15 JUMPI POP PUSH2 0x2710 DUP6 GT PUSH2 0xDDF JUMPI PUSH1 0x1 PUSH1 0x1 PUSH1 0xA0 SHL SUB SWAP1 DUP2 AND PUSH0 DUP2 DUP2 MSTORE PUSH1 0x6 DUP7 MSTORE DUP10 SWAP1 KECCAK256 SLOAD SWAP1 SWAP9 SWAP1 DUP3 AND ISZERO PUSH2 0xD92 JUMPI JUMPDEST DUP1 MLOAD SWAP9 PUSH1 0x80 DUP11 ADD DUP11 DUP2 LT DUP13 DUP3 GT OR PUSH2 0xD80 JUMPI DUP3 MSTORE DUP1 DUP11 MSTORE DUP6 DUP11 ADD SWAP7 DUP8 MSTORE DUP2 DUP11 ADD SWAP8 DUP9 MSTORE PUSH1 0x60 DUP11 ADD SWAP9 ISZERO ISZERO DUP10 MSTORE PUSH0 MSTORE PUSH1 0x6 DUP6 MSTORE PUSH0 KECCAK256 SWAP8 MLOAD AND PUSH12 0xFFFFFFFFFFFFFFFFFFFFFFFF PUSH1 0xA0 SHL DUP9 SLOAD AND OR DUP8 SSTORE PUSH1 0x1 SWAP4 MLOAD DUP5 DUP9 ADD SSTORE PUSH1 0x2 DUP8 ADD SWAP5 MLOAD SWAP2 DUP3 MLOAD SWAP9 DUP10 GT PUSH2 0xD6F JUMPI POP POP PUSH2 0xC64 DUP5 SLOAD PUSH2 0x1CF6 JUMP JUMPDEST PUSH1 0x1F DUP2 GT PUSH2 0xD29 JUMPI JUMPDEST POP DUP2 PUSH1 0x1F DUP9 GT PUSH1 0x1 EQ PUSH2 0xCC0 JUMPI POP SWAP6 DUP1 PUSH1 0x3 SWAP6 SWAP5 SWAP4 DUP2 SWAP4 PUSH2 0x708 SWAP10 PUSH0 SWAP5 PUSH2 0xCB5 JUMPI JUMPDEST POP POP SHL SWAP2 PUSH0 NOT SWAP1 DUP7 SHL SHR NOT AND OR SWAP1 SSTORE JUMPDEST MLOAD ISZERO ISZERO SWAP2 ADD SWAP1 PUSH1 0xFF DUP1 NOT DUP4 SLOAD AND SWAP2 ISZERO ISZERO AND OR SWAP1 SSTORE JUMP JUMPDEST ADD MLOAD SWAP3 POP PUSH0 DUP1 PUSH2 0xC8F JUMP JUMPDEST SWAP2 SWAP1 PUSH1 0x1F NOT DUP9 AND DUP6 PUSH0 MSTORE DUP4 PUSH0 KECCAK256 SWAP4 PUSH0 SWAP1 JUMPDEST DUP3 DUP3 LT PUSH2 0xD12 JUMPI POP POP SWAP2 PUSH1 0x3 SWAP7 SWAP6 SWAP5 SWAP4 SWAP2 DUP10 PUSH2 0x708 SWAP11 SWAP5 LT PUSH2 0xCFB JUMPI JUMPDEST POP POP POP DUP2 SHL ADD SWAP1 SSTORE PUSH2 0xC9F JUMP JUMPDEST ADD MLOAD PUSH0 NOT DUP4 DUP9 SHL PUSH1 0xF8 AND SHR NOT AND SWAP1 SSTORE PUSH0 DUP1 DUP1 PUSH2 0xCEE JUMP JUMPDEST DUP1 DUP8 DUP7 SWAP8 DUP3 SWAP5 SWAP8 DUP8 ADD MLOAD DUP2 SSTORE ADD SWAP7 ADD SWAP5 ADD SWAP1 PUSH2 0xCD1 JUMP JUMPDEST DUP5 PUSH0 MSTORE DUP3 PUSH0 KECCAK256 PUSH1 0x1F DUP10 ADD PUSH1 0x5 SHR DUP2 ADD SWAP2 DUP5 DUP11 LT PUSH2 0xD65 JUMPI JUMPDEST PUSH1 0x1F ADD PUSH1 0x5 SHR ADD SWAP1 DUP5 SWAP1 JUMPDEST DUP3 DUP2 LT PUSH2 0xD5A JUMPI POP POP PUSH2 0xC6D JUMP JUMPDEST PUSH0 DUP2 SSTORE ADD DUP5 SWAP1 PUSH2 0xD4C JUMP JUMPDEST SWAP1 SWAP2 POP DUP2 SWAP1 PUSH2 0xD41 JUMP JUMPDEST PUSH1 0x41 SWAP1 PUSH4 0x4E487B71 PUSH1 0xE0 SHL PUSH0 MSTORE MSTORE PUSH0 REVERT JUMPDEST DUP5 PUSH1 0x41 DUP8 PUSH4 0x4E487B71 PUSH1 0xE0 SHL PUSH0 MSTORE MSTORE PUSH0 REVERT JUMPDEST PUSH1 0x9 SLOAD PUSH9 0x10000000000000000 DUP2 LT ISZERO PUSH2 0xDCD JUMPI DUP1 PUSH1 0x1 PUSH2 0xDB6 SWAP3 ADD PUSH1 0x9 SSTORE PUSH2 0x1C7F JUMP JUMPDEST DUP2 SLOAD SWAP1 PUSH1 0x3 SHL SWAP1 DUP5 DUP13 DUP4 SHL SWAP3 SHL NOT AND OR SWAP1 SSTORE PUSH2 0xBF3 JUMP JUMPDEST DUP4 PUSH1 0x41 DUP7 PUSH4 0x4E487B71 PUSH1 0xE0 SHL PUSH0 MSTORE MSTORE PUSH0 REVERT JUMPDEST POP PUSH1 0x12 SWAP1 PUSH1 0x64 SWAP4 DUP9 MLOAD SWAP4 PUSH3 0x461BCD PUSH1 0xE5 SHL DUP6 MSTORE DUP5 ADD MSTORE DUP3 ADD MSTORE PUSH18 0x496E76616C69642070657263656E74616765 PUSH1 0x70 SHL PUSH1 0x44 DUP3 ADD MSTORE REVERT JUMPDEST DUP9 MLOAD PUSH4 0xE2517D3F PUSH1 0xE0 SHL DUP2 MSTORE CALLER DUP2 DUP7 ADD MSTORE DUP1 DUP5 ADD SWAP2 SWAP1 SWAP2 MSTORE PUSH1 0x44 SWAP1 REVERT JUMPDEST POP CALLVALUE PUSH2 0x2A6 JUMPI PUSH1 0x20 CALLDATASIZE PUSH1 0x3 NOT ADD SLT PUSH2 0x2A6 JUMPI DUP2 CALLDATALOAD SWAP2 DUP1 DUP4 LT ISZERO PUSH2 0x2A6 JUMPI PUSH2 0xE5B PUSH2 0x160 SWAP4 PUSH2 0x1CC8 JUMP JUMPDEST PUSH1 0xFF DUP2 SLOAD SWAP4 PUSH1 0x1 DUP4 ADD SLOAD SWAP4 PUSH1 0x2 DUP5 ADD SLOAD SWAP1 PUSH1 0x3 DUP6 ADD SLOAD SWAP1 DUP6 ADD SLOAD SWAP2 PUSH1 0x5 DUP7 ADD SLOAD SWAP4 DUP6 PUSH1 0x8 PUSH1 0x7 DUP10 ADD SLOAD SWAP9 ADD SLOAD AND SWAP8 DUP2 MLOAD SWAP10 DUP11 MSTORE PUSH1 0x20 DUP11 ADD MSTORE DUP9 ADD MSTORE PUSH1 0x60 DUP8 ADD MSTORE PUSH1 0x80 DUP7 ADD MSTORE DUP2 DUP2 AND ISZERO ISZERO PUSH1 0xA0 DUP7 ADD MSTORE DUP2 DUP2 PUSH1 0x8 SHR AND ISZERO ISZERO PUSH1 0xC0 DUP7 ADD MSTORE DUP2 DUP2 PUSH1 0x10 SHR AND ISZERO ISZERO PUSH1 0xE0 DUP7 ADD MSTORE PUSH1 0x18 SHR AND ISZERO ISZERO PUSH2 0x100 DUP5 ADD MSTORE PUSH2 0x120 DUP4 ADD MSTORE ISZERO ISZERO PUSH2 0x140 DUP3 ADD MSTORE RETURN JUMPDEST POP CALLVALUE PUSH2 0x2A6 JUMPI DUP1 PUSH1 0x3 NOT CALLDATASIZE ADD SLT PUSH2 0x2A6 JUMPI PUSH1 0x20 SWAP2 PUSH2 0xEFC PUSH2 0x1B82 JUMP JUMPDEST SWAP1 CALLDATALOAD PUSH0 MSTORE PUSH0 DUP4 MSTORE DUP2 PUSH0 KECCAK256 SWAP1 PUSH1 0x1 DUP1 PUSH1 0xA0 SHL SUB AND PUSH0 MSTORE DUP3 MSTORE PUSH1 0xFF DUP2 PUSH0 KECCAK256 SLOAD AND SWAP1 MLOAD SWAP1 ISZERO ISZERO DUP2 MSTORE RETURN JUMPDEST POP CALLVALUE PUSH2 0x2A6 JUMPI PUSH0 CALLDATASIZE PUSH1 0x3 NOT ADD SLT PUSH2 0x2A6 JUMPI PUSH1 0x20 PUSH32 0x62E78CEA01BEE320CD4E420270B5EA74000D11B0C9F74754EBDBFC544B05A258 SWAP2 PUSH2 0xF60 PUSH2 0x218E JUMP JUMPDEST PUSH2 0xF68 PUSH2 0x24D3 JUMP JUMPDEST PUSH1 0x1 PUSH1 0xFF NOT PUSH1 0x2 SLOAD AND OR PUSH1 0x2 SSTORE MLOAD CALLER DUP2 MSTORE LOG1 STOP JUMPDEST POP CALLVALUE PUSH2 0x2A6 JUMPI PUSH1 0x20 CALLDATASIZE PUSH1 0x3 NOT ADD SLT PUSH2 0x2A6 JUMPI PUSH1 0x20 SWAP1 PUSH1 0x1 PUSH1 0x1 PUSH1 0xA0 SHL SUB PUSH2 0xFA1 PUSH2 0x1B6C JUMP JUMPDEST AND PUSH0 MSTORE PUSH1 0x10 DUP3 MSTORE DUP1 PUSH0 KECCAK256 SLOAD SWAP1 MLOAD SWAP1 DUP2 MSTORE RETURN JUMPDEST POP CALLVALUE PUSH2 0x2A6 JUMPI PUSH0 CALLDATASIZE PUSH1 0x3 NOT ADD SLT PUSH2 0x2A6 JUMPI PUSH1 0x20 SWAP1 MLOAD PUSH32 0xE7E0B301DE1C1E268073A6B56FF0876CFFCA0BECBA0DCA08F945C1394E3E9727 DUP2 MSTORE RETURN JUMPDEST POP CALLVALUE PUSH2 0x2A6 JUMPI PUSH1 0x20 SWAP1 DUP2 PUSH1 0x3 NOT CALLDATASIZE ADD SLT PUSH2 0x2A6 JUMPI PUSH1 0x1 PUSH1 0x1 PUSH1 0xA0 SHL SUB DUP1 PUSH2 0x1012 PUSH2 0x1B6C JUMP JUMPDEST AND PUSH0 MSTORE PUSH1 0x6 DUP4 MSTORE DUP2 PUSH0 KECCAK256 SWAP1 DUP2 SLOAD AND SWAP3 PUSH1 0x1 SWAP3 PUSH1 0x1 DUP4 ADD SLOAD SWAP3 PUSH1 0x2 DUP2 ADD DUP3 MLOAD SWAP6 DUP7 SWAP2 PUSH0 SWAP2 DUP2 SLOAD SWAP2 PUSH2 0x1041 DUP4 PUSH2 0x1CF6 JUMP JUMPDEST SWAP3 DUP4 DUP7 MSTORE DUP9 PUSH1 0x1 DUP3 AND SWAP2 DUP3 PUSH0 EQ PUSH2 0x1111 JUMPI POP POP PUSH1 0x1 EQ PUSH2 0x10D2 JUMPI JUMPDEST POP POP POP PUSH1 0x80 SWAP3 PUSH2 0x1075 PUSH1 0xFF SWAP4 PUSH1 0x3 SWAP4 SWAP11 SWAP9 SWAP11 SUB DUP10 PUSH2 0x1BC8 JUMP JUMPDEST ADD SLOAD AND SWAP2 DUP1 MLOAD SWAP7 DUP8 SWAP6 DUP7 MSTORE DUP5 DUP7 ADD MSTORE DUP5 ADD MSTORE DUP4 MLOAD SWAP2 DUP3 PUSH1 0x80 DUP6 ADD MSTORE PUSH0 JUMPDEST DUP4 DUP2 LT PUSH2 0x10BB JUMPI POP POP PUSH1 0xA0 SWAP4 POP PUSH0 DUP5 DUP4 DUP6 ADD ADD MSTORE ISZERO ISZERO PUSH1 0x60 DUP4 ADD MSTORE PUSH1 0x1F DUP1 NOT SWAP2 ADD AND DUP2 ADD SUB ADD SWAP1 RETURN JUMPDEST DUP1 DUP7 ADD DUP3 ADD MLOAD DUP8 DUP3 ADD PUSH1 0xA0 ADD MSTORE DUP7 SWAP5 POP DUP2 ADD PUSH2 0x1092 JUMP JUMPDEST DUP8 SWAP4 POP PUSH0 SWAP3 SWAP2 SWAP3 MSTORE DUP3 PUSH0 KECCAK256 SWAP2 PUSH0 SWAP3 JUMPDEST DUP3 DUP5 LT PUSH2 0x10F9 JUMPI POP POP POP DUP3 ADD ADD DUP3 PUSH2 0x1075 PUSH1 0xFF PUSH2 0x105C JUMP JUMPDEST DUP1 SLOAD DUP5 DUP13 ADD DUP7 ADD MSTORE DUP11 SWAP6 POP DUP9 SWAP5 SWAP1 SWAP4 ADD SWAP3 DUP2 ADD PUSH2 0x10E1 JUMP JUMPDEST PUSH1 0xFF NOT AND DUP2 DUP9 ADD MSTORE SWAP4 ISZERO ISZERO PUSH1 0x5 SHL DUP7 ADD SWAP1 SWAP4 ADD SWAP4 POP DUP6 SWAP3 POP PUSH2 0x1075 SWAP2 POP PUSH1 0xFF SWAP1 POP PUSH2 0x105C JUMP JUMPDEST POP SWAP1 CALLVALUE PUSH2 0x2A6 JUMPI PUSH2 0x180 CALLDATASIZE PUSH1 0x3 NOT ADD SLT PUSH2 0x2A6 JUMPI DUP1 CALLDATALOAD DUP2 DUP2 LT ISZERO PUSH2 0x2A6 JUMPI PUSH1 0xC4 CALLDATALOAD SWAP3 PUSH1 0x44 CALLDATALOAD SWAP1 PUSH1 0x24 CALLDATALOAD DUP6 ISZERO ISZERO DUP7 SUB PUSH2 0x2A6 JUMPI PUSH1 0xE4 CALLDATALOAD DUP1 ISZERO ISZERO DUP2 SUB PUSH2 0x2A6 JUMPI PUSH2 0x104 CALLDATALOAD SWAP6 DUP7 ISZERO ISZERO DUP1 SWAP8 SUB PUSH2 0x2A6 JUMPI PUSH2 0x124 CALLDATALOAD SWAP2 DUP3 ISZERO ISZERO DUP1 SWAP4 SUB PUSH2 0x2A6 JUMPI PUSH2 0x164 CALLDATALOAD SWAP2 DUP3 ISZERO ISZERO DUP4 SUB PUSH2 0x2A6 JUMPI PUSH32 0xD487E616194FF3E12B09BE324FEA3F977AF857FCEF673DDFD9902EA1F580EC0D SWAP10 PUSH1 0x60 SWAP10 PUSH2 0x126E SWAP6 PUSH2 0x1232 PUSH1 0x8 SWAP6 PUSH2 0x11D8 PUSH2 0x21E4 JUMP JUMPDEST PUSH2 0x11E1 DUP14 PUSH2 0x1CC8 JUMP JUMPDEST SWAP6 DUP11 DUP8 SSTORE DUP13 PUSH1 0x1 DUP9 ADD SSTORE PUSH1 0x64 CALLDATALOAD PUSH1 0x2 DUP9 ADD SSTORE PUSH1 0x84 CALLDATALOAD PUSH1 0x3 DUP9 ADD SSTORE PUSH1 0xA4 CALLDATALOAD SWAP1 DUP8 ADD SSTORE PUSH2 0x121C PUSH1 0x5 DUP8 ADD SWAP6 DUP7 SWAP1 PUSH1 0xFF DUP1 NOT DUP4 SLOAD AND SWAP2 ISZERO ISZERO AND OR SWAP1 SSTORE JUMP JUMPDEST DUP5 SLOAD PUSH2 0xFF00 NOT AND SWAP1 ISZERO ISZERO PUSH1 0x8 SHL PUSH2 0xFF00 AND OR DUP5 SSTORE JUMP JUMPDEST PUSH3 0xFF0000 PUSH4 0xFF000000 DUP5 SLOAD SWAP3 PUSH1 0x18 SHL AND SWAP3 PUSH1 0x10 SHL AND SWAP1 PUSH4 0xFFFF0000 NOT AND OR OR SWAP1 SSTORE PUSH2 0x144 CALLDATALOAD PUSH1 0x7 DUP3 ADD SSTORE ADD SWAP1 PUSH1 0xFF DUP1 NOT DUP4 SLOAD AND SWAP2 ISZERO ISZERO AND OR SWAP1 SSTORE JUMP JUMPDEST PUSH2 0x127A DUP3 MLOAD DUP1 SWAP6 PUSH2 0x1C5E JUMP JUMPDEST PUSH1 0x20 DUP5 ADD MSTORE DUP3 ADD MSTORE LOG1 STOP JUMPDEST POP CALLVALUE PUSH2 0x2A6 JUMPI PUSH0 CALLDATASIZE PUSH1 0x3 NOT ADD SLT PUSH2 0x2A6 JUMPI PUSH1 0x20 SWAP1 PUSH1 0xA SLOAD SWAP1 MLOAD SWAP1 DUP2 MSTORE RETURN JUMPDEST POP CALLVALUE PUSH2 0x2A6 JUMPI PUSH0 CALLDATASIZE PUSH1 0x3 NOT ADD SLT PUSH2 0x2A6 JUMPI PUSH1 0x7 SLOAD SWAP1 MLOAD PUSH1 0x1 PUSH1 0x1 PUSH1 0xA0 SHL SUB SWAP1 SWAP2 AND DUP2 MSTORE PUSH1 0x20 SWAP1 RETURN JUMPDEST POP CALLVALUE PUSH2 0x2A6 JUMPI PUSH0 CALLDATASIZE PUSH1 0x3 NOT ADD SLT PUSH2 0x2A6 JUMPI PUSH1 0x20 SWAP1 PUSH1 0xE SLOAD SWAP1 MLOAD SWAP1 DUP2 MSTORE RETURN JUMPDEST POP CALLVALUE PUSH2 0x2A6 JUMPI PUSH0 CALLDATASIZE PUSH1 0x3 NOT ADD SLT PUSH2 0x2A6 JUMPI PUSH1 0x20 SWAP1 PUSH1 0xFF PUSH1 0x2 SLOAD AND SWAP1 MLOAD SWAP1 ISZERO ISZERO DUP2 MSTORE RETURN JUMPDEST POP CALLVALUE PUSH2 0x2A6 JUMPI PUSH1 0x20 CALLDATASIZE PUSH1 0x3 NOT ADD SLT PUSH2 0x2A6 JUMPI DUP2 CALLDATALOAD SWAP2 DUP3 LT ISZERO PUSH2 0x2A6 JUMPI PUSH2 0x1333 PUSH1 0x20 SWAP3 PUSH2 0x1CDF JUMP JUMPDEST SLOAD SWAP1 MLOAD SWAP1 DUP2 MSTORE RETURN JUMPDEST POP CALLVALUE PUSH2 0x2A6 JUMPI DUP1 PUSH1 0x3 NOT CALLDATASIZE ADD SLT PUSH2 0x2A6 JUMPI PUSH32 0x19C6E2FBD27C3204EFB106F0081D2D7FFAF44DA224CA04FBC0D8A262BA40F555 PUSH1 0x20 PUSH2 0x1377 PUSH2 0x1B6C JUMP JUMPDEST PUSH2 0x137F PUSH2 0x1C40 JUMP JUMPDEST SWAP1 PUSH2 0x1388 PUSH2 0x218E JUMP JUMPDEST PUSH1 0x1 PUSH1 0x1 PUSH1 0xA0 SHL SUB AND PUSH0 DUP2 DUP2 MSTORE PUSH1 0x5 DUP5 MSTORE DUP6 SWAP1 KECCAK256 DUP1 SLOAD PUSH1 0xFF NOT AND PUSH1 0xFF DUP5 ISZERO ISZERO AND OR SWAP1 SSTORE SWAP4 MLOAD SWAP1 ISZERO ISZERO DUP2 MSTORE LOG2 STOP JUMPDEST POP CALLVALUE PUSH2 0x2A6 JUMPI PUSH0 CALLDATASIZE PUSH1 0x3 NOT ADD SLT PUSH2 0x2A6 JUMPI PUSH2 0x13CE PUSH2 0x218E JUMP JUMPDEST PUSH1 0x2 SLOAD SWAP2 PUSH1 0xFF DUP4 AND ISZERO PUSH2 0x140E JUMPI PUSH32 0x5DB9EE0A495BF2E6FF9C91A7834C1BA4FDD244A5E8AA4E537BD38AEAE4B073AA PUSH1 0x20 DUP4 DUP6 PUSH1 0xFF NOT AND PUSH1 0x2 SSTORE MLOAD CALLER DUP2 MSTORE LOG1 STOP JUMPDEST SWAP1 MLOAD PUSH4 0x8DFC202B PUSH1 0xE0 SHL DUP2 MSTORE REVERT JUMPDEST POP CALLVALUE PUSH2 0x2A6 JUMPI PUSH0 CALLDATASIZE PUSH1 0x3 NOT ADD SLT PUSH2 0x2A6 JUMPI PUSH1 0x8 SLOAD SWAP1 MLOAD PUSH1 0x1 PUSH1 0x1 PUSH1 0xA0 SHL SUB SWAP1 SWAP2 AND DUP2 MSTORE PUSH1 0x20 SWAP1 RETURN JUMPDEST POP CALLVALUE PUSH2 0x2A6 JUMPI PUSH1 0x20 DUP1 PUSH1 0x3 NOT CALLDATASIZE ADD SLT PUSH2 0x2A6 JUMPI DUP3 CALLDATALOAD SWAP2 DUP4 DUP4 LT ISZERO PUSH2 0x2A6 JUMPI PUSH2 0x146A PUSH2 0x2116 JUMP JUMPDEST CALLER PUSH0 MSTORE DUP4 DUP3 MSTORE PUSH1 0xFF DUP2 PUSH0 KECCAK256 SLOAD AND DUP5 DUP2 LT ISZERO PUSH2 0x16D7 JUMPI DUP4 GT ISZERO PUSH2 0x16A5 JUMPI CALLER PUSH0 MSTORE DUP4 DUP3 MSTORE PUSH2 0x14A1 PUSH1 0xFF PUSH1 0x6 DUP4 PUSH0 KECCAK256 ADD SLOAD PUSH1 0xA0 SHR AND PUSH2 0x1FC4 JUMP JUMPDEST PUSH2 0x14B1 PUSH1 0xFF PUSH1 0x8 PUSH2 0x3A7 DUP7 PUSH2 0x1CC8 JUMP JUMPDEST CALLER PUSH0 MSTORE DUP4 DUP3 MSTORE DUP1 PUSH0 KECCAK256 SWAP3 PUSH1 0xFF DUP5 SLOAD AND SWAP1 PUSH1 0x2 DUP6 ADD SLOAD TIMESTAMP DUP2 GT PUSH0 EQ PUSH2 0x169E JUMPI PUSH2 0x14DA SWAP1 TIMESTAMP SWAP1 PUSH2 0x20AE JUMP JUMPDEST DUP1 ISZERO PUSH2 0x1664 JUMPI PUSH2 0x152E PUSH1 0xFF PUSH1 0x3 DUP9 ADD SLOAD AND SWAP2 DUP3 PUSH0 EQ PUSH2 0x1652 JUMPI PUSH2 0x1529 PUSH1 0x1 PUSH2 0x1501 DUP8 PUSH2 0x1CC8 JUMP JUMPDEST ADD SLOAD JUMPDEST DUP5 ISZERO PUSH2 0x1642 JUMPI PUSH1 0x1 PUSH2 0x1515 DUP8 PUSH2 0x1CC8 JUMP JUMPDEST ADD SLOAD SWAP5 JUMPDEST ISZERO PUSH2 0x1638 JUMPI PUSH4 0x1E13380 SWAP5 PUSH2 0x20AE JUMP JUMPDEST PUSH2 0x20BB JUMP JUMPDEST DUP2 ISZERO PUSH2 0x1625 JUMPI DUP7 PUSH2 0x15C3 PUSH1 0x5 PUSH2 0x15BE PUSH32 0x1AC4E76067F7E1095F2219AA56CE07EECC8378CBB2C2349383B4CC43A72DA7FB SWAP11 SWAP12 PUSH2 0x1585 PUSH2 0x15F3 SWAP9 SWAP8 PUSH2 0x15DE SWAP8 DIV DUP1 SWAP7 PUSH1 0x6 PUSH1 0x1 DUP1 PUSH1 0xA0 SHL SUB SWAP2 ADD SLOAD AND ADDRESS SWAP1 CALLER SWAP1 PUSH2 0x2366 JUMP JUMPDEST PUSH1 0x7 DUP14 ADD SWAP13 DUP14 SLOAD SWAP2 PUSH2 0x1596 DUP10 PUSH2 0x1CC8 JUMP JUMPDEST ADD SLOAD SWAP14 DUP15 SWAP5 DUP3 PUSH2 0x15A7 DUP12 DUP9 SWAP6 PUSH2 0x20CE JUMP JUMPDEST ADD PUSH2 0x15B3 DUP9 DUP3 SLOAD PUSH2 0x2009 JUMP JUMPDEST SWAP1 SSTORE SSTORE PUSH1 0xA SLOAD PUSH2 0x20AE JUMP JUMPDEST PUSH2 0x2009 JUMP JUMPDEST PUSH1 0xA SSTORE PUSH2 0x15D2 DUP2 PUSH1 0xC SLOAD PUSH2 0x2009 JUMP JUMPDEST PUSH1 0xC SSTORE PUSH2 0x548 DUP4 PUSH2 0x1CDF JUMP JUMPDEST PUSH2 0x15EA DUP5 MLOAD DUP1 SWAP5 PUSH2 0x1C5E JUMP JUMPDEST DUP5 DUP4 ADD SWAP1 PUSH2 0x1C5E JUMP JUMPDEST PUSH32 0x16C6992BC0AF407AA6E1DB4AA4CA8C5BEEC9E3DE616EFA845B523E283FA74339 DUP3 CALLER SWAP3 LOG2 MLOAD SWAP3 DUP4 MSTORE CALLER SWAP3 LOG2 PUSH1 0x1 DUP1 SSTORE STOP JUMPDEST PUSH1 0x12 DUP9 PUSH4 0x4E487B71 PUSH1 0xE0 SHL PUSH0 MSTORE MSTORE PUSH1 0x24 PUSH0 REVERT JUMPDEST PUSH3 0x278D00 SWAP5 PUSH2 0x20AE JUMP JUMPDEST PUSH2 0x164B DUP7 PUSH2 0x1CC8 JUMP JUMPDEST SLOAD SWAP5 PUSH2 0x1519 JUMP JUMPDEST PUSH2 0x1529 PUSH2 0x165E DUP7 PUSH2 0x1CC8 JUMP JUMPDEST SLOAD PUSH2 0x1504 JUMP JUMPDEST DUP4 MLOAD PUSH3 0x461BCD PUSH1 0xE5 SHL DUP2 MSTORE DUP1 DUP9 ADD DUP7 SWAP1 MSTORE PUSH1 0x14 PUSH1 0x24 DUP3 ADD MSTORE PUSH20 0x14DD589CD8DC9A5C1D1A5BDB88195E1C1A5C9959 PUSH1 0x62 SHL PUSH1 0x44 DUP3 ADD MSTORE PUSH1 0x64 SWAP1 REVERT JUMPDEST POP PUSH0 PUSH2 0x14DA JUMP JUMPDEST MLOAD PUSH3 0x461BCD PUSH1 0xE5 SHL DUP2 MSTORE SWAP3 DUP4 ADD MSTORE POP PUSH1 0xE PUSH1 0x24 DUP3 ADD MSTORE PUSH14 0x4E6F7420616E2075706772616465 PUSH1 0x90 SHL PUSH1 0x44 DUP3 ADD MSTORE PUSH1 0x64 SWAP1 REVERT JUMPDEST PUSH1 0x21 DUP6 PUSH4 0x4E487B71 PUSH1 0xE0 SHL PUSH0 MSTORE MSTORE PUSH1 0x24 PUSH0 REVERT JUMPDEST POP CALLVALUE PUSH2 0x2A6 JUMPI DUP1 PUSH1 0x3 NOT CALLDATASIZE ADD SLT PUSH2 0x2A6 JUMPI PUSH2 0x1703 PUSH2 0x1B82 JUMP JUMPDEST SWAP1 CALLER PUSH1 0x1 PUSH1 0x1 PUSH1 0xA0 SHL SUB DUP4 AND SUB PUSH2 0x171F JUMPI POP PUSH2 0x708 SWAP2 CALLDATALOAD PUSH2 0x22F4 JUMP JUMPDEST MLOAD PUSH4 0x334BD919 PUSH1 0xE1 SHL DUP2 MSTORE SWAP1 POP REVERT JUMPDEST POP CALLVALUE PUSH2 0x2A6 JUMPI DUP1 PUSH1 0x3 NOT CALLDATASIZE ADD SLT PUSH2 0x2A6 JUMPI PUSH2 0x708 SWAP2 CALLDATALOAD PUSH2 0x1751 PUSH1 0x1 PUSH2 0x6F2 PUSH2 0x1B82 JUMP JUMPDEST PUSH2 0x227E JUMP JUMPDEST POP CALLVALUE PUSH2 0x2A6 JUMPI PUSH0 CALLDATASIZE PUSH1 0x3 NOT ADD SLT PUSH2 0x2A6 JUMPI PUSH1 0x20 SWAP1 MLOAD PUSH3 0x278D00 DUP2 MSTORE RETURN JUMPDEST POP SWAP1 CALLVALUE PUSH2 0x2A6 JUMPI PUSH0 CALLDATASIZE PUSH1 0x3 NOT ADD SLT PUSH2 0x2A6 JUMPI CALLER PUSH0 MSTORE DUP1 PUSH1 0x20 MSTORE PUSH2 0x17A1 PUSH1 0xFF PUSH1 0x6 DUP5 PUSH0 KECCAK256 ADD SLOAD PUSH1 0xA0 SHR AND PUSH2 0x1FC4 JUMP JUMPDEST PUSH2 0x17AA CALLER PUSH2 0x2139 JUMP JUMPDEST CALLER PUSH0 MSTORE PUSH1 0x20 MSTORE PUSH2 0x17C3 PUSH1 0xFF DUP3 PUSH0 KECCAK256 SLOAD AND SWAP2 MLOAD DUP1 SWAP3 PUSH2 0x1C5E JUMP JUMPDEST PUSH32 0x58568EB28745822B7E0883B7147C7AB1B914088321AEF19FBDBD68CDC221391E PUSH1 0x20 CALLER SWAP3 LOG2 STOP JUMPDEST POP CALLVALUE PUSH2 0x2A6 JUMPI PUSH1 0x20 CALLDATASIZE PUSH1 0x3 NOT ADD SLT PUSH2 0x2A6 JUMPI PUSH1 0x20 SWAP2 CALLDATALOAD PUSH0 MSTORE PUSH0 DUP3 MSTORE PUSH1 0x1 DUP2 PUSH0 KECCAK256 ADD SLOAD SWAP1 MLOAD SWAP1 DUP2 MSTORE RETURN JUMPDEST POP SWAP1 CALLVALUE PUSH2 0x2A6 JUMPI PUSH1 0x20 CALLDATASIZE PUSH1 0x3 NOT ADD SLT PUSH2 0x2A6 JUMPI CALLDATALOAD SWAP1 PUSH1 0x9 SLOAD DUP3 LT ISZERO PUSH2 0x2A6 JUMPI PUSH2 0x183E PUSH1 0x20 SWAP3 PUSH2 0x1C7F JUMP JUMPDEST SWAP1 SLOAD SWAP2 MLOAD SWAP2 PUSH1 0x1 DUP1 PUSH1 0xA0 SHL SUB SWAP2 PUSH1 0x3 SHL SHR AND DUP2 MSTORE RETURN JUMPDEST POP CALLVALUE PUSH2 0x2A6 JUMPI PUSH0 CALLDATASIZE PUSH1 0x3 NOT ADD SLT PUSH2 0x2A6 JUMPI PUSH1 0x20 SWAP1 PUSH1 0xB SLOAD SWAP1 MLOAD SWAP1 DUP2 MSTORE RETURN JUMPDEST POP CALLVALUE PUSH2 0x2A6 JUMPI PUSH1 0x20 CALLDATASIZE PUSH1 0x3 NOT ADD SLT PUSH2 0x2A6 JUMPI PUSH1 0x20 SWAP1 PUSH2 0x1897 PUSH2 0x1892 PUSH2 0x1B6C JUMP JUMPDEST PUSH2 0x202A JUMP JUMPDEST SWAP1 MLOAD SWAP1 ISZERO ISZERO DUP2 MSTORE RETURN JUMPDEST POP CALLVALUE PUSH2 0x2A6 JUMPI PUSH0 CALLDATASIZE PUSH1 0x3 NOT ADD SLT PUSH2 0x2A6 JUMPI PUSH1 0x20 SWAP1 MLOAD PUSH4 0x1E13380 DUP2 MSTORE RETURN JUMPDEST POP SWAP1 CALLVALUE PUSH2 0x2A6 JUMPI PUSH1 0x20 CALLDATASIZE PUSH1 0x3 NOT ADD SLT PUSH2 0x2A6 JUMPI PUSH2 0x100 SWAP2 PUSH2 0x18DD PUSH2 0x1B6C JUMP JUMPDEST SWAP2 PUSH1 0x1 DUP1 PUSH1 0xA0 SHL SUB DUP4 AND PUSH0 MSTORE PUSH1 0x20 MSTORE DUP1 PUSH0 KECCAK256 PUSH1 0xFF DUP2 SLOAD AND SWAP3 PUSH1 0xFF PUSH1 0x1 DUP4 ADD SLOAD SWAP4 PUSH1 0x2 DUP5 ADD SLOAD PUSH1 0x3 DUP6 ADD SLOAD SWAP2 PUSH1 0x7 PUSH2 0x1918 PUSH1 0x5 DUP9 ADD SLOAD SWAP7 PUSH2 0x202A JUMP JUMPDEST SWAP7 ADD SLOAD SWAP7 PUSH2 0x1928 DUP3 MLOAD DUP1 SWAP11 PUSH2 0x1C5E JUMP JUMPDEST PUSH1 0x20 DUP10 ADD MSTORE DUP8 ADD MSTORE DUP2 DUP2 AND ISZERO ISZERO PUSH1 0x60 DUP8 ADD MSTORE PUSH1 0x8 SHR AND ISZERO ISZERO PUSH1 0x80 DUP6 ADD MSTORE PUSH1 0xA0 DUP5 ADD MSTORE ISZERO ISZERO PUSH1 0xC0 DUP4 ADD MSTORE PUSH1 0xE0 DUP3 ADD MSTORE RETURN JUMPDEST POP CALLVALUE PUSH2 0x2A6 JUMPI PUSH1 0x20 CALLDATASIZE PUSH1 0x3 NOT ADD SLT PUSH2 0x2A6 JUMPI DUP2 CALLDATALOAD SWAP2 DUP3 ISZERO ISZERO SWAP3 DUP4 DUP2 SUB PUSH2 0x2A6 JUMPI PUSH2 0x19BC SWAP2 CALLER PUSH0 MSTORE DUP1 PUSH1 0x20 MSTORE PUSH2 0x1998 PUSH1 0xFF PUSH1 0x6 DUP7 PUSH0 KECCAK256 ADD SLOAD PUSH1 0xA0 SHR AND PUSH2 0x1FC4 JUMP JUMPDEST CALLER PUSH0 MSTORE PUSH1 0x20 MSTORE PUSH1 0x3 DUP4 PUSH0 KECCAK256 ADD SWAP1 PUSH2 0xFF00 DUP3 SLOAD SWAP2 ISZERO ISZERO PUSH1 0x8 SHL AND SWAP1 PUSH2 0xFF00 NOT AND OR SWAP1 SSTORE JUMP JUMPDEST MLOAD SWAP1 DUP2 MSTORE PUSH32 0x858E057D8F0B4A688F9CE2D164BEA364B4B5E1EE4DD29EFF9EACA2F850FD5A17 PUSH1 0x20 CALLER SWAP3 LOG2 STOP JUMPDEST POP CALLVALUE PUSH2 0x2A6 JUMPI DUP1 PUSH1 0x3 NOT CALLDATASIZE ADD SLT PUSH2 0x2A6 JUMPI PUSH2 0x1A01 PUSH2 0x1B6C JUMP JUMPDEST SWAP2 PUSH1 0x24 CALLDATALOAD SWAP3 PUSH8 0xFFFFFFFFFFFFFFFF DUP5 GT PUSH2 0x2A6 JUMPI PUSH2 0x1A27 PUSH2 0x1897 SWAP3 PUSH1 0x20 SWAP6 CALLDATASIZE SWAP2 ADD PUSH2 0x1BEA JUMP JUMPDEST SWAP1 PUSH2 0x1D2E JUMP JUMPDEST POP CALLVALUE PUSH2 0x2A6 JUMPI PUSH0 CALLDATASIZE PUSH1 0x3 NOT ADD SLT PUSH2 0x2A6 JUMPI PUSH2 0x1A46 PUSH2 0x2116 JUMP JUMPDEST CALLER PUSH0 MSTORE PUSH1 0x20 SWAP1 PUSH1 0x10 DUP3 MSTORE DUP1 PUSH0 KECCAK256 SLOAD DUP1 ISZERO PUSH2 0x1AE3 JUMPI DUP3 SWAP1 CALLER PUSH0 MSTORE PUSH1 0x10 DUP3 MSTORE PUSH0 DUP4 DUP2 KECCAK256 SSTORE PUSH1 0x44 PUSH1 0x1 DUP1 PUSH1 0xA0 SHL SUB PUSH1 0x7 SLOAD AND SWAP6 PUSH0 DUP6 MLOAD SWAP8 DUP9 SWAP5 DUP6 SWAP4 PUSH4 0xA9059CBB PUSH1 0xE0 SHL DUP6 MSTORE CALLER SWAP1 DUP6 ADD MSTORE PUSH1 0x24 DUP5 ADD MSTORE GAS CALL SWAP1 DUP2 ISZERO PUSH2 0x1ADA JUMPI POP PUSH2 0x1AA7 JUMPI JUMPDEST PUSH1 0x1 DUP1 SSTORE STOP JUMPDEST DUP2 DUP2 RETURNDATASIZE DUP4 GT PUSH2 0x1AD3 JUMPI JUMPDEST PUSH2 0x1ABB DUP2 DUP4 PUSH2 0x1BC8 JUMP JUMPDEST DUP2 ADD SUB SLT PUSH2 0x2A6 JUMPI MLOAD DUP1 ISZERO ISZERO SUB PUSH2 0x2A6 JUMPI PUSH0 DUP1 PUSH2 0x1AA1 JUMP JUMPDEST POP RETURNDATASIZE PUSH2 0x1AB1 JUMP JUMPDEST MLOAD RETURNDATASIZE PUSH0 DUP3 RETURNDATACOPY RETURNDATASIZE SWAP1 REVERT JUMPDEST DUP2 MLOAD PUSH3 0x461BCD PUSH1 0xE5 SHL DUP2 MSTORE DUP1 DUP6 ADD DUP5 SWAP1 MSTORE PUSH1 0x11 PUSH1 0x24 DUP3 ADD MSTORE PUSH17 0x139BC81C195B991A5B99C81C185E5BDD5D PUSH1 0x7A SHL PUSH1 0x44 DUP3 ADD MSTORE PUSH1 0x64 SWAP1 REVERT JUMPDEST DUP4 CALLVALUE PUSH2 0x2A6 JUMPI PUSH1 0x20 CALLDATASIZE PUSH1 0x3 NOT ADD SLT PUSH2 0x2A6 JUMPI CALLDATALOAD SWAP1 PUSH4 0xFFFFFFFF PUSH1 0xE0 SHL DUP3 AND DUP1 SWAP3 SUB PUSH2 0x2A6 JUMPI PUSH1 0x20 SWAP2 PUSH4 0x7965DB0B PUSH1 0xE0 SHL DUP2 EQ SWAP1 DUP2 ISZERO PUSH2 0x1B5B JUMPI JUMPDEST POP ISZERO ISZERO DUP2 MSTORE RETURN JUMPDEST PUSH4 0x1FFC9A7 PUSH1 0xE0 SHL EQ SWAP1 POP DUP4 PUSH2 0x1B54 JUMP JUMPDEST PUSH1 0x4 CALLDATALOAD SWAP1 PUSH1 0x1 PUSH1 0x1 PUSH1 0xA0 SHL SUB DUP3 AND DUP3 SUB PUSH2 0x2A6 JUMPI JUMP JUMPDEST PUSH1 0x24 CALLDATALOAD SWAP1 PUSH1 0x1 PUSH1 0x1 PUSH1 0xA0 SHL SUB DUP3 AND DUP3 SUB PUSH2 0x2A6 JUMPI JUMP JUMPDEST PUSH1 0x40 DUP2 ADD SWAP1 DUP2 LT PUSH8 0xFFFFFFFFFFFFFFFF DUP3 GT OR PUSH2 0x1BB4 JUMPI PUSH1 0x40 MSTORE JUMP JUMPDEST PUSH4 0x4E487B71 PUSH1 0xE0 SHL PUSH0 MSTORE PUSH1 0x41 PUSH1 0x4 MSTORE PUSH1 0x24 PUSH0 REVERT JUMPDEST SWAP1 PUSH1 0x1F DUP1 NOT SWAP2 ADD AND DUP2 ADD SWAP1 DUP2 LT PUSH8 0xFFFFFFFFFFFFFFFF DUP3 GT OR PUSH2 0x1BB4 JUMPI PUSH1 0x40 MSTORE JUMP JUMPDEST DUP2 PUSH1 0x1F DUP3 ADD SLT ISZERO PUSH2 0x2A6 JUMPI DUP1 CALLDATALOAD SWAP1 PUSH8 0xFFFFFFFFFFFFFFFF DUP3 GT PUSH2 0x1BB4 JUMPI PUSH1 0x40 MLOAD SWAP3 PUSH2 0x1C1F PUSH1 0x1F DUP5 ADD PUSH1 0x1F NOT AND PUSH1 0x20 ADD DUP6 PUSH2 0x1BC8 JUMP JUMPDEST DUP3 DUP5 MSTORE PUSH1 0x20 DUP4 DUP4 ADD ADD GT PUSH2 0x2A6 JUMPI DUP2 PUSH0 SWAP3 PUSH1 0x20 DUP1 SWAP4 ADD DUP4 DUP7 ADD CALLDATACOPY DUP4 ADD ADD MSTORE SWAP1 JUMP JUMPDEST PUSH1 0x24 CALLDATALOAD SWAP1 DUP2 ISZERO ISZERO DUP3 SUB PUSH2 0x2A6 JUMPI JUMP JUMPDEST PUSH1 0x64 CALLDATALOAD SWAP1 DUP2 ISZERO ISZERO DUP3 SUB PUSH2 0x2A6 JUMPI JUMP JUMPDEST SWAP1 PUSH1 0x4 DUP3 LT ISZERO PUSH2 0x1C6B JUMPI MSTORE JUMP JUMPDEST PUSH4 0x4E487B71 PUSH1 0xE0 SHL PUSH0 MSTORE PUSH1 0x21 PUSH1 0x4 MSTORE PUSH1 0x24 PUSH0 REVERT JUMPDEST PUSH1 0x9 SLOAD DUP2 LT ISZERO PUSH2 0x1CB4 JUMPI PUSH1 0x9 PUSH0 MSTORE PUSH32 0x6E1540171B6C0C960B71A7020D9F60077F6AF931A8BBF590DA0223DACF75C7AF ADD SWAP1 PUSH0 SWAP1 JUMP JUMPDEST PUSH4 0x4E487B71 PUSH1 0xE0 SHL PUSH0 MSTORE PUSH1 0x32 PUSH1 0x4 MSTORE PUSH1 0x24 PUSH0 REVERT JUMPDEST PUSH1 0x4 DUP2 LT ISZERO PUSH2 0x1C6B JUMPI PUSH0 MSTORE PUSH1 0x3 PUSH1 0x20 MSTORE PUSH1 0x40 PUSH0 KECCAK256 SWAP1 JUMP JUMPDEST PUSH1 0x4 DUP2 LT ISZERO PUSH2 0x1C6B JUMPI PUSH0 MSTORE PUSH1 0xF PUSH1 0x20 MSTORE PUSH1 0x40 PUSH0 KECCAK256 SWAP1 JUMP JUMPDEST SWAP1 PUSH1 0x1 DUP3 DUP2 SHR SWAP3 AND DUP1 ISZERO PUSH2 0x1D24 JUMPI JUMPDEST PUSH1 0x20 DUP4 LT EQ PUSH2 0x1D10 JUMPI JUMP JUMPDEST PUSH4 0x4E487B71 PUSH1 0xE0 SHL PUSH0 MSTORE PUSH1 0x22 PUSH1 0x4 MSTORE PUSH1 0x24 PUSH0 REVERT JUMPDEST SWAP2 PUSH1 0x7F AND SWAP2 PUSH2 0x1D05 JUMP JUMPDEST PUSH2 0x1D37 DUP2 PUSH2 0x202A JUMP JUMPDEST ISZERO PUSH2 0x1FBE JUMPI PUSH1 0x1 DUP1 PUSH1 0xA0 SHL SUB AND PUSH0 MSTORE PUSH1 0x20 PUSH1 0x4 DUP2 MSTORE PUSH1 0x40 SWAP2 PUSH2 0x1D5E PUSH1 0xFF DUP5 PUSH0 KECCAK256 SLOAD AND PUSH2 0x1CC8 JUMP JUMPDEST SWAP3 DUP2 MLOAD SWAP1 PUSH32 0x6347BF9778BECC3B00B980DDB2E321C24ACE19881DEC27E1105433CEAFDCBA52 DUP5 DUP5 ADD SWAP3 DUP4 KECCAK256 PUSH18 0x616476616E6365645F616E616C7974696373 PUSH1 0x70 SHL DUP7 DUP5 MLOAD PUSH2 0x1DAB DUP2 PUSH2 0x1B98 JUMP JUMPDEST PUSH1 0x12 DUP2 MSTORE ADD MSTORE EQ PUSH2 0x1FB0 JUMPI PUSH32 0xDAA135825C60A2DED595234CABC6B14F3B67F1C14E2180E0F3BD457A197CE101 DUP4 MLOAD DUP4 KECCAK256 PUSH17 0x706572736F6E616C5F636F616368696E67 PUSH1 0x78 SHL DUP7 DUP5 MLOAD PUSH2 0x1DFC DUP2 PUSH2 0x1B98 JUMP JUMPDEST PUSH1 0x11 DUP2 MSTORE ADD MSTORE EQ PUSH2 0x1F9F JUMPI PUSH32 0xD41D9F8C89A42328AF920427E50ACA560CDE53FD28B5C19FF33A7E88F496B787 DUP4 MLOAD DUP4 KECCAK256 PUSH10 0x6170695F616363657373 PUSH1 0xB0 SHL DUP7 DUP5 MLOAD PUSH2 0x1E46 DUP2 PUSH2 0x1B98 JUMP JUMPDEST PUSH1 0xA DUP2 MSTORE ADD MSTORE EQ PUSH2 0x1F8E JUMPI PUSH32 0x34FD1EC4616D8311BB75A14B7B0019940789F7AE686F2D1DDB45EB58B4EE4B38 DUP4 MLOAD DUP4 KECCAK256 PUSH11 0x1DDA1A5D1957DB1858995B PUSH1 0xAA SHL DUP7 DUP5 MLOAD PUSH2 0x1E91 DUP2 PUSH2 0x1B98 JUMP JUMPDEST PUSH1 0xB DUP2 MSTORE ADD MSTORE EQ PUSH2 0x1F7D JUMPI PUSH1 0x6 PUSH0 SWAP6 ADD DUP1 SLOAD SWAP6 JUMPDEST DUP7 DUP2 LT PUSH2 0x1EB7 JUMPI POP POP POP POP POP POP POP PUSH0 SWAP1 JUMP JUMPDEST DUP2 PUSH0 MSTORE DUP1 DUP7 PUSH0 KECCAK256 ADD DUP4 MLOAD SWAP1 PUSH0 SWAP2 DUP2 SLOAD SWAP3 DUP2 PUSH2 0x1ED1 DUP6 PUSH2 0x1CF6 JUMP JUMPDEST SWAP2 DUP3 DUP3 MSTORE DUP12 DUP3 ADD SWAP5 PUSH1 0x1 SWAP7 DUP14 DUP9 DUP3 AND SWAP2 DUP3 PUSH0 EQ PUSH2 0x1F5F JUMPI POP POP PUSH1 0x1 EQ PUSH2 0x1F1F JUMPI JUMPDEST POP PUSH2 0x1EFF SWAP3 POP SUB DUP3 PUSH2 0x1BC8 JUMP JUMPDEST MLOAD SWAP1 KECCAK256 DUP7 MLOAD DUP7 KECCAK256 EQ PUSH2 0x1F14 JUMPI POP PUSH1 0x1 ADD PUSH2 0x1EA5 JUMP JUMPDEST SWAP7 POP POP POP POP POP POP POP SWAP1 JUMP JUMPDEST SWAP2 POP POP PUSH0 MSTORE DUP2 DUP11 DUP1 PUSH0 KECCAK256 SWAP3 DUP7 PUSH0 SWAP5 JUMPDEST DUP3 DUP7 LT PUSH2 0x1F45 JUMPI POP POP POP PUSH2 0x1EFF SWAP3 DUP3 ADD ADD PUSH0 PUSH2 0x1EF2 JUMP JUMPDEST DUP1 SWAP2 SWAP3 SWAP5 POP SLOAD DUP4 DUP7 DUP9 ADD ADD MSTORE ADD SWAP3 ADD SWAP2 DUP4 SWAP2 DUP7 DUP14 SWAP3 PUSH2 0x1F2E JUMP JUMPDEST PUSH1 0xFF NOT AND DUP9 MSTORE PUSH2 0x1EFF SWAP6 ISZERO ISZERO PUSH1 0x5 SHL DUP6 ADD ADD SWAP3 POP PUSH0 SWAP2 POP PUSH2 0x1EF2 SWAP1 POP JUMP JUMPDEST POP POP POP POP PUSH1 0x5 ADD SLOAD PUSH1 0x18 SHR PUSH1 0xFF AND SWAP1 JUMP JUMPDEST POP POP POP POP PUSH1 0x5 ADD SLOAD PUSH1 0x10 SHR PUSH1 0xFF AND SWAP1 JUMP JUMPDEST POP POP POP POP PUSH1 0x5 ADD SLOAD PUSH1 0x8 SHR PUSH1 0xFF AND SWAP1 JUMP JUMPDEST POP POP POP POP PUSH1 0x5 ADD SLOAD PUSH1 0xFF AND SWAP1 JUMP JUMPDEST POP POP PUSH0 SWAP1 JUMP JUMPDEST ISZERO PUSH2 0x1FCB JUMPI JUMP JUMPDEST PUSH1 0x40 MLOAD PUSH3 0x461BCD PUSH1 0xE5 SHL DUP2 MSTORE PUSH1 0x20 PUSH1 0x4 DUP3 ADD MSTORE PUSH1 0x16 PUSH1 0x24 DUP3 ADD MSTORE PUSH22 0x27379030B1BA34BB329039BAB139B1B934B83A34B7B7 PUSH1 0x51 SHL PUSH1 0x44 DUP3 ADD MSTORE PUSH1 0x64 SWAP1 REVERT JUMPDEST SWAP2 SWAP1 DUP3 ADD DUP1 SWAP3 GT PUSH2 0x2016 JUMPI JUMP JUMPDEST PUSH4 0x4E487B71 PUSH1 0xE0 SHL PUSH0 MSTORE PUSH1 0x11 PUSH1 0x4 MSTORE PUSH1 0x24 PUSH0 REVERT JUMPDEST PUSH1 0x1 PUSH1 0x1 PUSH1 0xA0 SHL SUB AND PUSH0 SWAP1 DUP2 MSTORE PUSH1 0x4 PUSH1 0x20 MSTORE PUSH1 0x40 SWAP1 KECCAK256 PUSH1 0x6 DUP2 ADD SLOAD PUSH1 0xA0 SHR PUSH1 0xFF AND SWAP1 DUP2 PUSH2 0x2055 JUMPI POP SWAP1 JUMP JUMPDEST PUSH2 0x2067 SWAP2 POP PUSH1 0x2 ADD SLOAD PUSH1 0xD SLOAD SWAP1 PUSH2 0x2009 JUMP JUMPDEST TIMESTAMP GT ISZERO SWAP1 JUMP JUMPDEST ISZERO PUSH2 0x2074 JUMPI JUMP JUMPDEST PUSH1 0x40 MLOAD PUSH3 0x461BCD PUSH1 0xE5 SHL DUP2 MSTORE PUSH1 0x20 PUSH1 0x4 DUP3 ADD MSTORE PUSH1 0x12 PUSH1 0x24 DUP3 ADD MSTORE PUSH18 0x54696572206E6F7420617661696C61626C65 PUSH1 0x70 SHL PUSH1 0x44 DUP3 ADD MSTORE PUSH1 0x64 SWAP1 REVERT JUMPDEST SWAP2 SWAP1 DUP3 SUB SWAP2 DUP3 GT PUSH2 0x2016 JUMPI JUMP JUMPDEST DUP2 DUP2 MUL SWAP3 SWAP2 DUP2 ISZERO SWAP2 DUP5 DIV EQ OR ISZERO PUSH2 0x2016 JUMPI JUMP JUMPDEST SWAP1 PUSH1 0x4 DUP2 LT ISZERO PUSH2 0x1C6B JUMPI PUSH1 0xFF DUP1 NOT DUP4 SLOAD AND SWAP2 AND OR SWAP1 SSTORE JUMP JUMPDEST PUSH2 0x20EF DUP2 PUSH2 0x202A JUMP JUMPDEST ISZERO PUSH2 0x2111 JUMPI PUSH1 0x1 PUSH1 0x1 PUSH1 0xA0 SHL SUB AND PUSH0 SWAP1 DUP2 MSTORE PUSH1 0x4 PUSH1 0x20 MSTORE PUSH1 0x40 SWAP1 KECCAK256 PUSH1 0x7 ADD SLOAD SWAP1 JUMP JUMPDEST POP PUSH0 SWAP1 JUMP JUMPDEST PUSH1 0x2 PUSH1 0x1 SLOAD EQ PUSH2 0x2127 JUMPI PUSH1 0x2 PUSH1 0x1 SSTORE JUMP JUMPDEST PUSH1 0x40 MLOAD PUSH4 0x3EE5AEB5 PUSH1 0xE0 SHL DUP2 MSTORE PUSH1 0x4 SWAP1 REVERT JUMPDEST PUSH1 0x1 DUP1 PUSH1 0xA0 SHL SUB AND PUSH0 MSTORE PUSH1 0x4 PUSH1 0x20 MSTORE PUSH1 0x3 PUSH1 0x40 PUSH0 KECCAK256 PUSH0 PUSH1 0x7 DUP3 ADD PUSH2 0x2160 DUP2 SLOAD PUSH1 0xA SLOAD PUSH2 0x20AE JUMP JUMPDEST PUSH1 0xA SSTORE SSTORE PUSH1 0x6 DUP2 ADD DUP1 SLOAD PUSH1 0xFF PUSH1 0xA0 SHL NOT AND SWAP1 SSTORE ADD DUP1 SLOAD PUSH2 0xFF00 NOT AND SWAP1 SSTORE PUSH1 0xB SLOAD DUP1 ISZERO PUSH2 0x2016 JUMPI PUSH0 NOT ADD PUSH1 0xB SSTORE JUMP JUMPDEST CALLER PUSH0 SWAP1 DUP2 MSTORE PUSH32 0xAD3228B676F7D3CD4284A5443F17F1962B36E491B30A40B2405849E597BA5FB5 PUSH1 0x20 MSTORE PUSH1 0x40 SWAP1 KECCAK256 SLOAD PUSH1 0xFF AND ISZERO PUSH2 0x21C6 JUMPI JUMP JUMPDEST PUSH1 0x40 MLOAD PUSH4 0xE2517D3F PUSH1 0xE0 SHL DUP2 MSTORE CALLER PUSH1 0x4 DUP3 ADD MSTORE PUSH0 PUSH1 0x24 DUP3 ADD MSTORE PUSH1 0x44 SWAP1 REVERT JUMPDEST CALLER PUSH0 SWAP1 DUP2 MSTORE PUSH32 0x30D09331649DDFDCE960950CD8816672AB8F48F285D83240D17939FEE5DD05E2 PUSH1 0x20 MSTORE PUSH1 0x40 SWAP1 KECCAK256 SLOAD PUSH32 0x7BDB6B596B843035DDD2E81FD6F76604E18D00B7A5869D7D8F70D84E3C9965B4 SWAP1 PUSH1 0xFF AND ISZERO PUSH2 0x223F JUMPI POP JUMP JUMPDEST PUSH1 0x44 SWAP1 PUSH1 0x40 MLOAD SWAP1 PUSH4 0xE2517D3F PUSH1 0xE0 SHL DUP3 MSTORE CALLER PUSH1 0x4 DUP4 ADD MSTORE PUSH1 0x24 DUP3 ADD MSTORE REVERT JUMPDEST DUP1 PUSH0 MSTORE PUSH0 PUSH1 0x20 MSTORE PUSH1 0x40 PUSH0 KECCAK256 CALLER PUSH0 MSTORE PUSH1 0x20 MSTORE PUSH1 0xFF PUSH1 0x40 PUSH0 KECCAK256 SLOAD AND ISZERO PUSH2 0x223F JUMPI POP JUMP JUMPDEST SWAP1 DUP2 PUSH0 MSTORE PUSH0 PUSH1 0x20 MSTORE PUSH1 0x40 PUSH0 KECCAK256 SWAP1 PUSH1 0x1 DUP1 PUSH1 0xA0 SHL SUB AND SWAP1 DUP2 PUSH0 MSTORE PUSH1 0x20 MSTORE PUSH1 0xFF PUSH1 0x40 PUSH0 KECCAK256 SLOAD AND ISZERO PUSH0 EQ PUSH2 0x1FBE JUMPI DUP2 PUSH0 MSTORE PUSH0 PUSH1 0x20 MSTORE PUSH1 0x40 PUSH0 KECCAK256 DUP2 PUSH0 MSTORE PUSH1 0x20 MSTORE PUSH1 0x40 PUSH0 KECCAK256 PUSH1 0x1 PUSH1 0xFF NOT DUP3 SLOAD AND OR SWAP1 SSTORE CALLER SWAP2 PUSH32 0x2F8788117E7EFF1D82E926EC794901D17C78024A50270940304540A733656F0D PUSH0 DUP1 LOG4 PUSH1 0x1 SWAP1 JUMP JUMPDEST SWAP1 DUP2 PUSH0 MSTORE PUSH0 PUSH1 0x20 MSTORE PUSH1 0x40 PUSH0 KECCAK256 SWAP1 PUSH1 0x1 DUP1 PUSH1 0xA0 SHL SUB AND SWAP1 DUP2 PUSH0 MSTORE PUSH1 0x20 MSTORE PUSH1 0xFF PUSH1 0x40 PUSH0 KECCAK256 SLOAD AND PUSH0 EQ PUSH2 0x1FBE JUMPI DUP2 PUSH0 MSTORE PUSH0 PUSH1 0x20 MSTORE PUSH1 0x40 PUSH0 KECCAK256 DUP2 PUSH0 MSTORE PUSH1 0x20 MSTORE PUSH1 0x40 PUSH0 KECCAK256 PUSH1 0xFF NOT DUP2 SLOAD AND SWAP1 SSTORE CALLER SWAP2 PUSH32 0xF6391F5C32D9C69D2A47EA670B442974B53935D1EDC7FD64EB21E047A839171B PUSH0 DUP1 LOG4 PUSH1 0x1 SWAP1 JUMP JUMPDEST PUSH1 0x40 MLOAD PUSH4 0x23B872DD PUSH1 0xE0 SHL PUSH1 0x20 DUP3 ADD SWAP1 DUP2 MSTORE PUSH1 0x1 PUSH1 0x1 PUSH1 0xA0 SHL SUB SWAP4 DUP5 AND PUSH1 0x24 DUP4 ADD MSTORE SWAP4 DUP4 AND PUSH1 0x44 DUP3 ADD MSTORE PUSH1 0x64 DUP1 DUP3 ADD SWAP6 SWAP1 SWAP6 MSTORE SWAP4 DUP5 MSTORE SWAP3 SWAP1 SWAP2 PUSH1 0xA0 DUP3 ADD SWAP1 PUSH8 0xFFFFFFFFFFFFFFFF DUP3 GT DUP4 DUP4 LT OR PUSH2 0x1BB4 JUMPI PUSH1 0x20 SWAP3 PUSH0 SWAP3 PUSH1 0x40 MSTORE MLOAD SWAP1 DUP3 DUP7 GAS CALL ISZERO PUSH2 0x2403 JUMPI PUSH0 MLOAD RETURNDATASIZE PUSH2 0x23FA JUMPI POP DUP1 DUP3 AND EXTCODESIZE ISZERO JUMPDEST PUSH2 0x23E0 JUMPI POP POP JUMP JUMPDEST PUSH1 0x40 MLOAD PUSH4 0x5274AFE7 PUSH1 0xE0 SHL DUP2 MSTORE SWAP2 AND PUSH1 0x4 DUP3 ADD MSTORE PUSH1 0x24 SWAP2 POP REVERT JUMPDEST PUSH1 0x1 EQ ISZERO PUSH2 0x23D8 JUMP JUMPDEST PUSH1 0x40 MLOAD RETURNDATASIZE PUSH0 DUP3 RETURNDATACOPY RETURNDATASIZE SWAP1 REVERT JUMPDEST PUSH0 JUMPDEST PUSH1 0x9 SLOAD DUP2 LT ISZERO PUSH2 0x24A0 JUMPI DUP1 PUSH2 0x2426 PUSH1 0x1 SWAP3 PUSH2 0x1C7F JUMP JUMPDEST SWAP1 SLOAD SWAP1 PUSH1 0x3 SWAP2 DUP5 DUP1 PUSH1 0xA0 SHL SUB SWAP2 DUP4 SHL SHR AND SWAP1 DUP2 PUSH0 MSTORE PUSH1 0x20 SWAP1 PUSH1 0x6 DUP3 MSTORE PUSH1 0x40 SWAP1 PUSH1 0xFF DUP3 PUSH0 KECCAK256 SWAP2 DUP3 ADD SLOAD AND DUP1 PUSH2 0x2494 JUMPI JUMPDEST PUSH2 0x2464 JUMPI JUMPDEST POP POP POP POP ADD PUSH2 0x2410 JUMP JUMPDEST PUSH2 0x2489 SWAP3 PUSH2 0x2710 PUSH2 0x247A DUP9 PUSH1 0x10 SWAP5 ADD SLOAD DUP11 PUSH2 0x20BB JUMP JUMPDEST DIV SWAP5 PUSH0 MSTORE MSTORE PUSH0 KECCAK256 SWAP2 DUP3 SLOAD PUSH2 0x2009 JUMP JUMPDEST SWAP1 SSTORE PUSH0 DUP1 DUP1 DUP1 PUSH2 0x245A JUMP JUMPDEST POP DUP6 DUP2 ADD SLOAD ISZERO ISZERO PUSH2 0x2455 JUMP JUMPDEST POP PUSH1 0x40 PUSH32 0xF2838E4B541F90D41A1076A560D75E948F7D1008E72118A655568626A30B451F SWAP2 DUP2 MLOAD SWAP1 DUP2 MSTORE TIMESTAMP PUSH1 0x20 DUP3 ADD MSTORE LOG1 JUMP JUMPDEST PUSH1 0xFF PUSH1 0x2 SLOAD AND PUSH2 0x24DF JUMPI JUMP JUMPDEST PUSH1 0x40 MLOAD PUSH4 0xD93C0665 PUSH1 0xE0 SHL DUP2 MSTORE PUSH1 0x4 SWAP1 REVERT INVALID LOG2 PUSH5 0x6970667358 0x22 SLT KECCAK256 PUSH8 0x51784CF6461A63BA 0x1E 0xD3 SSTORE 0xCE 0xE0 PUSH23 0x643DAC41648E7084C5CA16999BE03B52E964736F6C6343 STOP ADDMOD XOR STOP CALLER 0x2F DUP8 DUP9 GT PUSH31 0x7EFF1D82E926EC794901D17C78024A50270940304540A733656F0DAD3228B6 PUSH23 0xF7D3CD4284A5443F17F1962B36E491B30A40B2405849E5 SWAP8 0xBA PUSH0 0xB5 "},"methodIdentifiers":{"BASIS_POINTS()":"e1f1c4a7","DEFAULT_ADMIN_ROLE()":"a217fddf","GOVERNANCE_ADMIN_ROLE()":"77fb8d7a","MONTH_DURATION()":"2a891534","REVENUE_MANAGER_ROLE()":"de197161","SUBSCRIPTION_MANAGER_ROLE()":"e8ad5d89","YEAR_DURATION()":"0dc0ba72","achievementContract()":"399dfe26","cancelSubscription()":"24e9edb0","claimRevenuePayout()":"04d157a2","getRoleAdmin(bytes32)":"248a9ca3","getSubscription(address)":"0cbebc24","getVotingPower(address)":"bb4d4436","gracePeriod()":"a06db7dc","grantRole(bytes32,address)":"2f2ff15d","hasFeatureAccess(address,string)":"052057f2","hasRole(bytes32,address)":"91d14854","isSubscriptionActive(address)":"14401329","pause()":"8456cb59","paused()":"5c975abb","pendingPayouts(address)":"784712f2","pforkToken()":"66c29b81","processAutoRenewal(address)":"bd6fbbd1","renewalWindow()":"604f9e83","renounceRole(bytes32,address)":"36568abe","revenueShares(address)":"70b6085e","revokeRole(bytes32,address)":"d547741f","setSupportedPaymentToken(address,bool)":"49bf28c4","stakeholders(uint256)":"1d6b8b72","subscribe(uint8,bool,address,bool)":"d5c3dbde","subscriptions(address)":"f046395a","supportedPaymentTokens(address)":"b1c5578c","supportsInterface(bytes4)":"01ffc9a7","tierConfigs(uint8)":"9da9db2a","tierRevenue(uint8)":"518b8cb3","toggleAutoRenewal(bool)":"0888ff7a","totalRevenue()":"bf2d9e0b","totalSubscribers()":"15e2475f","totalVotingPower()":"671b3793","unpause()":"3f4ba83a","updateRevenueShare(address,uint256,string,bool)":"9dc10fd5","updateTierConfig(uint8,uint256,uint256,uint256,uint256,uint256,bool,bool,bool,bool,uint256,bool)":"6cd2e1bf","upgradeSubscription(uint8)":"37d44c2a"}}}}}