{"contracts/ConsciousnessIdentity.sol":{"ConsciousnessIdentity":{"abi":[{"inputs":[{"internalType":"address","name":"_achievementsContract","type":"address"}],"stateMutability":"nonpayable","type":"constructor"},{"inputs":[],"name":"AccessControlBadConfirmation","type":"error"},{"inputs":[{"internalType":"address","name":"account","type":"address"},{"internalType":"bytes32","name":"neededRole","type":"bytes32"}],"name":"AccessControlUnauthorizedAccount","type":"error"},{"inputs":[],"name":"ECDSAInvalidSignature","type":"error"},{"inputs":[{"internalType":"uint256","name":"length","type":"uint256"}],"name":"ECDSAInvalidSignatureLength","type":"error"},{"inputs":[{"internalType":"bytes32","name":"s","type":"bytes32"}],"name":"ECDSAInvalidSignatureS","type":"error"},{"inputs":[],"name":"EnforcedPause","type":"error"},{"inputs":[],"name":"ExpectedPause","type":"error"},{"inputs":[],"name":"ReentrancyGuardReentrantCall","type":"error"},{"anonymous":false,"inputs":[{"indexed":true,"internalType":"bytes32","name":"attestationId","type":"bytes32"},{"indexed":true,"internalType":"address","name":"subject","type":"address"},{"indexed":true,"internalType":"address","name":"verifier","type":"address"}],"name":"AttestationCreated","type":"event"},{"anonymous":false,"inputs":[{"indexed":true,"internalType":"address","name":"user","type":"address"},{"indexed":false,"internalType":"uint256","name":"newScore","type":"uint256"}],"name":"ConsciousnessScoreUpdated","type":"event"},{"anonymous":false,"inputs":[{"indexed":true,"internalType":"address","name":"user","type":"address"},{"indexed":false,"internalType":"enum ConsciousnessIdentity.CredentialType","name":"credType","type":"uint8"},{"indexed":true,"internalType":"address","name":"issuer","type":"address"}],"name":"CredentialIssued","type":"event"},{"anonymous":false,"inputs":[{"indexed":true,"internalType":"address","name":"user","type":"address"},{"indexed":true,"internalType":"address","name":"viewer","type":"address"},{"indexed":false,"internalType":"enum ConsciousnessIdentity.CredentialType","name":"credType","type":"uint8"}],"name":"CredentialShared","type":"event"},{"anonymous":false,"inputs":[{"indexed":true,"internalType":"address","name":"user","type":"address"},{"indexed":false,"internalType":"enum ConsciousnessIdentity.CredentialType","name":"credType","type":"uint8"},{"indexed":true,"internalType":"address","name":"verifier","type":"address"}],"name":"CredentialVerified","type":"event"},{"anonymous":false,"inputs":[{"indexed":true,"internalType":"address","name":"user","type":"address"},{"indexed":false,"internalType":"enum ConsciousnessIdentity.VerificationLevel","name":"level","type":"uint8"}],"name":"IdentityCreated","type":"event"},{"anonymous":false,"inputs":[{"indexed":true,"internalType":"address","name":"user","type":"address"},{"indexed":false,"internalType":"enum ConsciousnessIdentity.VerificationLevel","name":"level","type":"uint8"}],"name":"IdentityUpdated","type":"event"},{"anonymous":false,"inputs":[{"indexed":false,"internalType":"address","name":"account","type":"address"}],"name":"Paused","type":"event"},{"anonymous":false,"inputs":[{"indexed":true,"internalType":"address","name":"user","type":"address"}],"name":"PrivacySettingsUpdated","type":"event"},{"anonymous":false,"inputs":[{"indexed":true,"internalType":"bytes32","name":"role","type":"bytes32"},{"indexed":true,"internalType":"bytes32","name":"previousAdminRole","type":"bytes32"},{"indexed":true,"internalType":"bytes32","name":"newAdminRole","type":"bytes32"}],"name":"RoleAdminChanged","type":"event"},{"anonymous":false,"inputs":[{"indexed":true,"internalType":"bytes32","name":"role","type":"bytes32"},{"indexed":true,"internalType":"address","name":"account","type":"address"},{"indexed":true,"internalType":"address","name":"sender","type":"address"}],"name":"RoleGranted","type":"event"},{"anonymous":false,"inputs":[{"indexed":true,"internalType":"bytes32","name":"role","type":"bytes32"},{"indexed":true,"internalType":"address","name":"account","type":"address"},{"indexed":true,"internalType":"address","name":"sender","type":"address"}],"name":"RoleRevoked","type":"event"},{"anonymous":false,"inputs":[{"indexed":false,"internalType":"address","name":"account","type":"address"}],"name":"Unpaused","type":"event"},{"anonymous":false,"inputs":[{"indexed":true,"internalType":"address","name":"user","type":"address"},{"indexed":false,"internalType":"enum ConsciousnessIdentity.VerificationLevel","name":"oldLevel","type":"uint8"},{"indexed":false,"internalType":"enum ConsciousnessIdentity.VerificationLevel","name":"newLevel","type":"uint8"}],"name":"VerificationLevelUpgraded","type":"event"},{"inputs":[],"name":"CREDENTIAL_ISSUER_ROLE","outputs":[{"internalType":"bytes32","name":"","type":"bytes32"}],"stateMutability":"view","type":"function"},{"inputs":[],"name":"DEFAULT_ADMIN_ROLE","outputs":[{"internalType":"bytes32","name":"","type":"bytes32"}],"stateMutability":"view","type":"function"},{"inputs":[],"name":"ENTERPRISE_ADMIN_ROLE","outputs":[{"internalType":"bytes32","name":"","type":"bytes32"}],"stateMutability":"view","type":"function"},{"inputs":[],"name":"MAX_CONSCIOUSNESS_SCORE","outputs":[{"internalType":"uint256","name":"","type":"uint256"}],"stateMutability":"view","type":"function"},{"inputs":[],"name":"PRIVACY_GUARDIAN_ROLE","outputs":[{"internalType":"bytes32","name":"","type":"bytes32"}],"stateMutability":"view","type":"function"},{"inputs":[],"name":"VERIFIER_ROLE","outputs":[{"internalType":"bytes32","name":"","type":"bytes32"}],"stateMutability":"view","type":"function"},{"inputs":[],"name":"achievementsContract","outputs":[{"internalType":"contract IConsciousnessAchievements","name":"","type":"address"}],"stateMutability":"view","type":"function"},{"inputs":[],"name":"attestationValidityPeriod","outputs":[{"internalType":"uint256","name":"","type":"uint256"}],"stateMutability":"view","type":"function"},{"inputs":[{"internalType":"bytes32","name":"","type":"bytes32"}],"name":"attestations","outputs":[{"internalType":"address","name":"subject","type":"address"},{"internalType":"address","name":"verifier","type":"address"},{"internalType":"enum ConsciousnessIdentity.VerificationLevel","name":"level","type":"uint8"},{"internalType":"string","name":"evidence","type":"string"},{"internalType":"uint256","name":"timestamp","type":"uint256"},{"internalType":"bool","name":"isValid","type":"bool"},{"internalType":"bytes","name":"signature","type":"bytes"}],"stateMutability":"view","type":"function"},{"inputs":[{"internalType":"address","name":"viewer","type":"address"},{"internalType":"address","name":"user","type":"address"},{"internalType":"enum ConsciousnessIdentity.CredentialType","name":"credType","type":"uint8"}],"name":"canViewCredential","outputs":[{"internalType":"bool","name":"","type":"bool"}],"stateMutability":"view","type":"function"},{"inputs":[{"internalType":"address","name":"subject","type":"address"},{"internalType":"enum ConsciousnessIdentity.VerificationLevel","name":"level","type":"uint8"},{"internalType":"string","name":"evidence","type":"string"},{"internalType":"bytes","name":"signature","type":"bytes"}],"name":"createAttestation","outputs":[{"internalType":"bytes32","name":"attestationId","type":"bytes32"}],"stateMutability":"nonpayable","type":"function"},{"inputs":[{"internalType":"string","name":"publicProfile","type":"string"},{"internalType":"bytes32","name":"privateProfileHash","type":"bytes32"},{"internalType":"bool","name":"isEnterpriseAccount","type":"bool"}],"name":"createIdentity","outputs":[],"stateMutability":"nonpayable","type":"function"},{"inputs":[],"name":"credentialValidityPeriod","outputs":[{"internalType":"uint256","name":"","type":"uint256"}],"stateMutability":"view","type":"function"},{"inputs":[{"internalType":"address","name":"user","type":"address"},{"internalType":"enum ConsciousnessIdentity.CredentialType","name":"credType","type":"uint8"}],"name":"getCredential","outputs":[{"internalType":"address","name":"issuer","type":"address"},{"internalType":"uint256","name":"score","type":"uint256"},{"internalType":"uint256","name":"issuedAt","type":"uint256"},{"internalType":"uint256","name":"expiresAt","type":"uint256"},{"internalType":"bool","name":"isVerified","type":"bool"},{"internalType":"bool","name":"isActive","type":"bool"},{"internalType":"string","name":"metadataURI","type":"string"}],"stateMutability":"view","type":"function"},{"inputs":[{"internalType":"address","name":"user","type":"address"}],"name":"getIdentity","outputs":[{"internalType":"enum ConsciousnessIdentity.VerificationLevel","name":"verificationLevel","type":"uint8"},{"internalType":"uint256","name":"consciousnessScore","type":"uint256"},{"internalType":"uint256","name":"lastScoreUpdate","type":"uint256"},{"internalType":"string","name":"publicProfile","type":"string"},{"internalType":"bool","name":"isEnterpriseAccount","type":"bool"},{"internalType":"uint256","name":"createdAt","type":"uint256"},{"internalType":"uint256","name":"lastUpdated","type":"uint256"}],"stateMutability":"view","type":"function"},{"inputs":[{"internalType":"bytes32","name":"role","type":"bytes32"}],"name":"getRoleAdmin","outputs":[{"internalType":"bytes32","name":"","type":"bytes32"}],"stateMutability":"view","type":"function"},{"inputs":[{"internalType":"bytes32","name":"role","type":"bytes32"},{"internalType":"address","name":"account","type":"address"}],"name":"grantRole","outputs":[],"stateMutability":"nonpayable","type":"function"},{"inputs":[{"internalType":"bytes32","name":"role","type":"bytes32"},{"internalType":"address","name":"account","type":"address"}],"name":"hasRole","outputs":[{"internalType":"bool","name":"","type":"bool"}],"stateMutability":"view","type":"function"},{"inputs":[{"internalType":"address","name":"","type":"address"}],"name":"identities","outputs":[{"internalType":"address","name":"owner","type":"address"},{"internalType":"enum ConsciousnessIdentity.VerificationLevel","name":"verificationLevel","type":"uint8"},{"internalType":"uint256","name":"consciousnessScore","type":"uint256"},{"internalType":"uint256","name":"lastScoreUpdate","type":"uint256"},{"internalType":"string","name":"publicProfile","type":"string"},{"internalType":"bytes32","name":"privateProfileHash","type":"bytes32"},{"internalType":"bool","name":"isEnterpriseAccount","type":"bool"},{"internalType":"uint256","name":"createdAt","type":"uint256"},{"internalType":"uint256","name":"lastUpdated","type":"uint256"}],"stateMutability":"view","type":"function"},{"inputs":[{"internalType":"address","name":"user","type":"address"},{"internalType":"enum ConsciousnessIdentity.CredentialType","name":"credType","type":"uint8"},{"internalType":"uint256","name":"score","type":"uint256"},{"internalType":"string","name":"metadataURI","type":"string"},{"internalType":"bytes32","name":"proofHash","type":"bytes32"}],"name":"issueCredential","outputs":[],"stateMutability":"nonpayable","type":"function"},{"inputs":[{"internalType":"bytes32","name":"","type":"bytes32"}],"name":"merkleRoots","outputs":[{"internalType":"bool","name":"","type":"bool"}],"stateMutability":"view","type":"function"},{"inputs":[{"internalType":"enum ConsciousnessIdentity.CredentialType","name":"","type":"uint8"}],"name":"minimumScoresRequired","outputs":[{"internalType":"uint256","name":"","type":"uint256"}],"stateMutability":"view","type":"function"},{"inputs":[],"name":"pause","outputs":[],"stateMutability":"nonpayable","type":"function"},{"inputs":[],"name":"paused","outputs":[{"internalType":"bool","name":"","type":"bool"}],"stateMutability":"view","type":"function"},{"inputs":[{"internalType":"address","name":"","type":"address"}],"name":"privacySettings","outputs":[{"internalType":"bool","name":"allowPublicProfile","type":"bool"},{"internalType":"bool","name":"allowCredentialSharing","type":"bool"},{"internalType":"bool","name":"allowConsciousnessScoring","type":"bool"},{"internalType":"bool","name":"allowEnterpriseAccess","type":"bool"}],"stateMutability":"view","type":"function"},{"inputs":[{"internalType":"bytes32","name":"role","type":"bytes32"},{"internalType":"address","name":"callerConfirmation","type":"address"}],"name":"renounceRole","outputs":[],"stateMutability":"nonpayable","type":"function"},{"inputs":[{"internalType":"bytes32","name":"role","type":"bytes32"},{"internalType":"address","name":"account","type":"address"}],"name":"revokeRole","outputs":[],"stateMutability":"nonpayable","type":"function"},{"inputs":[{"internalType":"enum ConsciousnessIdentity.CredentialType","name":"credType","type":"uint8"},{"internalType":"bool","name":"isPublic","type":"bool"}],"name":"setCredentialVisibility","outputs":[],"stateMutability":"nonpayable","type":"function"},{"inputs":[{"internalType":"address","name":"issuer","type":"address"},{"internalType":"bool","name":"trusted","type":"bool"}],"name":"setTrustedIssuer","outputs":[],"stateMutability":"nonpayable","type":"function"},{"inputs":[{"internalType":"address","name":"viewer","type":"address"},{"internalType":"enum ConsciousnessIdentity.CredentialType","name":"credType","type":"uint8"},{"internalType":"bool","name":"allowAccess","type":"bool"}],"name":"shareCredential","outputs":[],"stateMutability":"nonpayable","type":"function"},{"inputs":[{"internalType":"bytes4","name":"interfaceId","type":"bytes4"}],"name":"supportsInterface","outputs":[{"internalType":"bool","name":"","type":"bool"}],"stateMutability":"view","type":"function"},{"inputs":[{"internalType":"address","name":"","type":"address"}],"name":"trustedIssuers","outputs":[{"internalType":"bool","name":"","type":"bool"}],"stateMutability":"view","type":"function"},{"inputs":[],"name":"unpause","outputs":[],"stateMutability":"nonpayable","type":"function"},{"inputs":[{"internalType":"address","name":"user","type":"address"},{"internalType":"uint256","name":"newScore","type":"uint256"},{"internalType":"string","name":"assessmentData","type":"string"}],"name":"updateConsciousnessScore","outputs":[],"stateMutability":"nonpayable","type":"function"},{"inputs":[{"internalType":"bool","name":"allowPublicProfile","type":"bool"},{"internalType":"bool","name":"allowCredentialSharing","type":"bool"},{"internalType":"bool","name":"allowConsciousnessScoring","type":"bool"},{"internalType":"bool","name":"allowEnterpriseAccess","type":"bool"}],"name":"updatePrivacySettings","outputs":[],"stateMutability":"nonpayable","type":"function"},{"inputs":[{"internalType":"address","name":"","type":"address"}],"name":"userMerkleRoots","outputs":[{"internalType":"bytes32","name":"","type":"bytes32"}],"stateMutability":"view","type":"function"},{"inputs":[],"name":"verificationFee","outputs":[{"internalType":"uint256","name":"","type":"uint256"}],"stateMutability":"view","type":"function"},{"inputs":[{"internalType":"address","name":"","type":"address"}],"name":"verificationScores","outputs":[{"internalType":"uint256","name":"","type":"uint256"}],"stateMutability":"view","type":"function"},{"inputs":[{"internalType":"bytes32","name":"attestationId","type":"bytes32"}],"name":"verifyAttestation","outputs":[{"internalType":"bool","name":"","type":"bool"}],"stateMutability":"view","type":"function"},{"inputs":[{"internalType":"address","name":"user","type":"address"},{"internalType":"enum ConsciousnessIdentity.CredentialType","name":"credType","type":"uint8"},{"internalType":"string","name":"evidence","type":"string"}],"name":"verifyCredential","outputs":[],"stateMutability":"nonpayable","type":"function"}],"evm":{"bytecode":{"linkReferences":{},"object":"6080346200014157601f62002a8538819003918201601f191683019291906001600160401b03841183851017620001455781602092849260409687528339810103126200014157516001600160a01b03811690819003620001415760018055678ac7230489e80000600a556301e13380600b556276a700600c55620000843362000159565b506200009033620001c9565b506200009c3362000269565b50620000a83362000303565b50620000b4336200039d565b5060018060a01b031960095416176009555f8052600860205261012c80825f205560015f526101909081835f205560025f5260c8835f205560035f5261015e835f205560045f526101c2835f205560055f52825f205560065f52815f205560075f526101f4815f205560085f52610258815f205560095f526102bc815f20555161260d9081620004388239f35b5f80fd5b634e487b7160e01b5f52604160045260245ffd5b6001600160a01b03165f8181525f8051602062002a65833981519152602052604090205460ff16620001c4575f8181525f8051602062002a6583398151915260205260408120805460ff191660011790553391905f8051602062002a458339815191528180a4600190565b505f90565b6001600160a01b03165f8181527f1da0b5176dfe03406af5a6eed66ca01dda9b45ac4da671c3fa379cb93717ef8160205260409020547f0ce23c3e399818cfee81a7ab0880f714e53d7672b08df0fa62f2843416e1ea09919060ff166200026357815f525f60205260405f20815f5260205260405f20600160ff1982541617905533915f8051602062002a458339815191525f80a4600190565b50505f90565b6001600160a01b03165f8181527ffe759d5e0cc1d5596a40260ede48172dac0c1dba3f4e63d2ef0d3c99859a655360205260409020547f7a5ae009d6a61115ac0993f8e8e8d8ba374961395165c1b6f1f9cefa70d85159919060ff166200026357815f525f60205260405f20815f5260205260405f20600160ff1982541617905533915f8051602062002a458339815191525f80a4600190565b6001600160a01b03165f8181527fe359dae9942552f26c150e77668de60b5da80a7a955b3af91651d8145430ddd160205260409020547f12025c097d56f44d4f9420ea084f47f97cf51e1aecb99577dd0a00e83e3ba75a919060ff166200026357815f525f60205260405f20815f5260205260405f20600160ff1982541617905533915f8051602062002a458339815191525f80a4600190565b6001600160a01b03165f8181527f9e26f83d2a5fac73fdef98fbab7e6a227dde7b84de3b80fae2d8c09bf55782bf60205260409020547f4be6e8a751d29c6c2adb2514581f716b9d8fa441a0d0a8fcd9eeb4024b50f56e919060ff166200026357815f525f60205260405f20815f5260205260405f20600160ff1982541617905533915f8051602062002a458339815191525f80a460019056fe60806040818152600480361015610014575f80fd5b5f9260e05f35811c91826301ffc9a714611c735750816303eca86e14611a5c57816308f4695714611797578163099bb12914611735578163234c119614611630578163248a9ca3146116065781632f2ff15d146115cc5781632fd22bf3146115b05781632fea7b81146114f257816334c51b431461127d57816336568abe1461123857816338fe6d0d146111fe5781633be044fc146111c45781633f4ba83a1461115c57816353c7146614611117578163595bf86d146110f95781635a0eb7611461108c5781635c975abb1461106957816374bd6f0914610cd55781637eb599dc14610c9e57816383c2827414610c805781638456cb5914610c275781638b0e628814610bd457816391d1485414610b9057816392c54daf14610b54578163940992a314610a92578163959d025814610974578163a217fddf1461095a578163a894f9cb14610923578163a8c278a214610905578163b12acabc146108d3578163c2a55e65146108ab578163c4152593146106e6578163c4c1f353146106aa578163d547741f1461066b578163e7705db61461062f578163f2f346df146103ba578163f653b81e146102eb57508063fcc4d98b146102095763fe5a5377146101da575f80fd5b34610205576020366003190112610205578160209360ff92358152600d855220541690519015158152f35b8280fd5b503461020557608036600319011261020557803580151581036102e75761022e611d9a565b610236611d8b565b6064359384151585036102e7573387526003602052858720546102bf9661028892909161026d906001600160a01b03161515611ee7565b338952602052872093849060ff801983541691151516179055565b825463ffffff00191691151560081b61ff00169190911790151560101b62ff0000161791151560181b63ff00000016919091179055565b337f8ee564191af7ebaeea018fc820a33a7914326a241df4e4a925dcf2f69edf89a88280a280f35b5f80fd5b84939150346103b65760203660031901126103b65760ff936020936001600160a01b03939092909182908561031e611cc5565b16815260038752209161039c83549460018501549660028601548451926103538461034c8160038c01611e40565b0385611cf1565b870154988b60058901541695610386600760068b01549a01549a82519e8f9e8f6101209884168152019160a01c16611da9565b8b015260608a01528060808a0152880190611dca565b9460a0870152151560c08601528401526101008301520390f35b8380fd5b8285853461062b57606036600319011261062b5767ffffffffffffffff9083358281116103b6576103ee9036908601611d6d565b936103f7611d8b565b90610400612483565b33855260036020908152838620549094906001600160a01b03166105e85733808752600380875285882080546001600160a81b03191660ff60a01b1990931692909217600160a01b178255600180830189905542600284015589519293918401929182116105d55761047c826104768554611e08565b85611f98565b8790601f831160011461054857508161053196959493926104d6928b9c7f294d9b7c5035e19ed808723fcc013c393ce7bbf5c0a7acbf6d4997a404c2abf09b9c9261053d575b50508160011b915f199060031b1c19161790565b90555b602435828201556104f983600583019060ff801983541691151516179055565b42600682018190556007909101553387528552828620805463ffffffff191691151560181b63ff000000169190911762010001179055565b5191600183523392a280f35b015190508c806104c2565b99601f198316848b52898b209b8b905b8282106105be5750509a600192849261053199989796957f294d9b7c5035e19ed808723fcc013c393ce7bbf5c0a7acbf6d4997a404c2abf09c9d9e106105a6575b505050811b0190556104d9565b01515f1960f88460031b161c191690558b8080610599565b848401518e559c8d019c938b0193908b0190610558565b634e487b7160e01b895260418552602489fd5b835162461bcd60e51b8152808301869052601760248201527f4964656e7469747920616c7265616479206578697374730000000000000000006044820152606490fd5b5080fd5b5050503461062b578160031936011261062b57602090517f0ce23c3e399818cfee81a7ab0880f714e53d7672b08df0fa62f2843416e1ea098152f35b505090346102055780600319360112610205576106a691356106a16001610690611cdb565b938387528660205286200154612158565b612349565b5080f35b5050503461062b578160031936011261062b57602090517f12025c097d56f44d4f9420ea084f47f97cf51e1aecb99577dd0a00e83e3ba75a8152f35b505090346102e75760603660031901126102e757610702611cc5565b602435919067ffffffffffffffff6044358181116102e7576107279036908701611d6d565b5061073061202e565b60018060a01b039485831695865f52600360205261075481865f2054161515611ee7565b6107626103e8871115611f33565b865f528160205260ff855f205460101c161561085e57865f526003602052845f208660018201554260028201556007429101556009541691823b156102e7575f80936044875180968193630695f9b560e31b83528c888401528b60248401525af1801561085457610807575b505050916020916107ff7fe4d84668b4e408a627f283edc4532088940e9fba01cd0b2cd7f3efc7161f9a69946121f5565b51908152a280f35b90918093975011610841575081525f93816107ff7fe4d84668b4e408a627f283edc4532088940e9fba01cd0b2cd7f3efc7161f9a696107ce565b604190634e487b7160e01b5f525260245ffd5b85513d5f823e3d90fd5b845162461bcd60e51b8152602081840152602160248201527f436f6e7363696f75736e6573732073636f72696e67206e6f7420616c6c6f77656044820152601960fa1b6064820152608490fd5b83346102e7575f3660031901126102e75760095490516001600160a01b039091168152602090f35b5050346102e75760203660031901126102e7573590600a8210156102e7576020915f5260088252805f20549051908152f35b83346102e7575f3660031901126102e757602090600a549051908152f35b83346102e75760203660031901126102e7576020906001600160a01b03610948611cc5565b165f5260078252805f20549051908152f35b83346102e7575f3660031901126102e757602090515f8152f35b9050346102e757826003193601126102e75761098e611cc5565b602435600a8110156102e75760018060a01b03916109c88284831692835f5260036020526109c2868a5f2054161515611ee7565b336123bb565b15610a5f576005926109ed610a5b959360ff935f5260036020526008895f2001611ed1565b90815460081c1695600182015497600283015490610a2460038501549385015494610a1d8351809a819301611e40565b0388611cf1565b8051998a998a5260208a015288015260608701528181161515608087015260081c16151560a08501528060c0850152830190611dca565b0390f35b855162461bcd60e51b8152602081870152600d60248201526c1058d8d95cdcc819195b9a5959609a1b6044820152606490fd5b919050346102e75760203660031901126102e75780610a5b91355f5260056020526005845f20610b3a60018060a01b03968783541696610b2c600185015460ff845194610aed86610ae68160028c01611e40565b0387611cf1565b610b128260038a01549b8a01541698610b0b8351809c819301611e40565b038a611cf1565b80519c8d9c8d52831660208d01528b019160a01c16611da9565b806060890152870190611dca565b926080860152151560a085015283820360c0850152611dca565b83346102e75760203660031901126102e7576020906001600160a01b03610b79611cc5565b165f526006825260ff815f20541690519015158152f35b8284346102e757806003193601126102e757602091610bad611cdb565b90355f525f8352815f209060018060a01b03165f52825260ff815f20541690519015158152f35b83346102e757806003193601126102e757610c2590610bf1611cc5565b90610bfa611d9a565b91610c03612102565b60018060a01b03165f5260066020525f209060ff801983541691151516179055565b005b83346102e7575f3660031901126102e75760207f62e78cea01bee320cd4e420270b5ea74000d11b0c9f74754ebdbfc544b05a25891610c64612102565b610c6c612483565b600160ff19600254161760025551338152a1005b83346102e7575f3660031901126102e757602090600b549051908152f35b83346102e75760203660031901126102e7576020906001600160a01b03610cc3611cc5565b165f52600e8252805f20549051908152f35b8284346102e75760803660031901126102e757610cf0611cc5565b90602490813560068110156102e75767ffffffffffffffff926044358481116102e757610d209036908801611d6d565b956064358581116102e757366023820112156102e757610d4890369084818501359101611d27565b610d506120a7565b60018060a01b039788881697885f5260209960038b52875f205416156110275786518a8101916001600160601b03199060601b1682523360601b6034820152610d9c6048820188611ffa565b42604982015260498152608081018181108a82111761101557885251902096875f5260058a52865f206001600160601b0360a01b928a84835416178255610df18860019586850190339082541617815561200a565b80516002830191848211611003578d90610e1583610e0f8654611e08565b86611f98565b81601f8411600114610f9b57509180610e479260059695945f92610f905750508160011b915f199060031b1c19161790565b90555b4260038201558581018460ff1982541617905501928051918211610f7e57610e7682610e0f8654611e08565b8a92601f8311600114610f1b5750610ea3925f9183610f105750508160011b915f199060031b1c19161790565b90555b606483029280840460641490151715610eff575050835f5260078552610ed0825f20918254611f77565b905551913390827f63f86f3e95d67d75fed996a7db68f9e7eabf0600abbd54fccabf34ec3b5fa4a75f80a48152f35b601190634e487b7160e01b5f52525ffd5b015190508b806104c2565b928b9183601f198116875f52845f20945f905b88838310610f645750505010610f4c575b505050811b019055610ea6565b01515f1960f88460031b161c191690558a8080610f3f565b858701518855909601959485019487935090810190610f2e565b85604186634e487b7160e01b5f52525ffd5b015190505f806104c2565b8792601f9695949296198316855f52825f20925f905b828210610fea575050968360059810610fd2575b505050811b019055610e4a565b01515f1960f88460031b161c191690558f8080610fc5565b838a015185558b96909401939283019290810190610fb1565b88604189634e487b7160e01b5f52525ffd5b86604187634e487b7160e01b5f52525ffd5b865162461bcd60e51b81528085018b9052601f818701527f5375626a656374206964656e7469747920646f6573206e6f74206578697374006044820152606490fd5b83346102e7575f3660031901126102e75760209060ff6002541690519015158152f35b5050346102e757816003193601126102e757803591600a8310156102e757610c259260016110e8926110bc611d9a565b94335f5260036020526110da838060a01b03835f2054161515611ee7565b335f526020525f2001611ed1565b9060ff801983541691151516179055565b83346102e7575f3660031901126102e757602090600c549051908152f35b83346102e75760603660031901126102e757611131611cc5565b9061113a611cdb565b91604435600a8110156102e757602093611153926123bb565b90519015158152f35b8284346102e7575f3660031901126102e757611176612102565b6002549160ff8316156111b6577f5db9ee0a495bf2e6ff9c91a7834c1ba4fdd244a5e8aa4e537bd38aeae4b073aa6020838560ff191660025551338152a1005b9051638dfc202b60e01b8152fd5b83346102e7575f3660031901126102e757602090517f7a5ae009d6a61115ac0993f8e8e8d8ba374961395165c1b6f1f9cefa70d851598152f35b83346102e7575f3660031901126102e757602090517f4be6e8a751d29c6c2adb2514581f716b9d8fa441a0d0a8fcd9eeb4024b50f56e8152f35b8284346102e757806003193601126102e757611252611cdb565b90336001600160a01b0383160361126e5750610c259135612349565b5163334bd91960e11b81529050fd5b5050346102e75760603660031901126102e757611298611cc5565b9160249260243593600a90600a8610156102e75760443567ffffffffffffffff81116102e7576112cb9036908701611d6d565b506112d46120a7565b60018060a01b039485841695865f526003916112fb602092848452885f2054161515611ee7565b875f528282526008936113138a60088a5f2001611ed1565b958287019182549260ff9860ff8560081c16156114b757870154421161147f576001809460ff19161790555f975f975f5b8d8d8683106113fa5750505050505050508315801561139d575b89897f117f010ffe680c783fa27415a60c79527786ee73e64c5879702ece9e2936d86c8a61138b8b6121f5565b5180611398339582611fe7565b0390a3005b6113e757505f878152919052849020910460018201554260029091015561138b7f117f010ffe680c783fa27415a60c79527786ee73e64c5879702ece9e2936d86c8680808061135e565b601290634e487b7160e01b5f525260245ffd5b83839161140e935f528c8c525f2001611ed1565b87810154848082169182611473575b505080611466575b611432575b508501611344565b9a86611442929b9c015490611f77565b995f198114611454578501988561142a565b83601188634e487b7160e01b5f52525ffd5b5089810154421115611425565b851c169050845f61141d565b8a5162461bcd60e51b8152808601879052601260248201527110dc9959195b9d1a585b08195e1c1a5c995960721b6044820152606490fd5b8b5162461bcd60e51b8152808701889052601560248201527443726564656e7469616c206e6f742061637469766560581b6044820152606490fd5b8390346102e75760203660031901126102e75760ff916001600160a01b03918261151a611cc5565b165f526003602052815f209061153582549485161515611ee7565b61159a60036001840154926002850154886005870154169660068701549561157260078901549861156b84518098819301611e40565b0386611cf1565b6115848251809c819c60a01c16611da9565b60208a0152880152806060880152860190611dca565b921515608085015260a084015260c08301520390f35b83346102e7575f3660031901126102e757602090516103e88152f35b8284346102e757806003193601126102e757610c25913561160160016115f0611cdb565b93835f525f6020525f200154612158565b612179565b8284346102e75760203660031901126102e757602091355f525f82526001815f2001549051908152f35b5050346102e75760603660031901126102e75761164b611cc5565b9160243591600a8310156102e757611661611d8b565b90335f52600360205260018060a01b039061168282855f2054161515611ee7565b335f528060205260ff845f205460081c16156116f257335f526020526002835f2001941693845f526020526116bd816110e885855f20611ed1565b6116c357005b7fdd30e4a31b2957197408b815496aa92181ca0bc750281621eb2704cc0785d7db905180611398339482611fe7565b606490602085519162461bcd60e51b8352820152601b60248201527f43726564656e7469616c2073686172696e672064697361626c656400000000006044820152fd5b8284346102e75760203660031901126102e7576080916001600160a01b0361175b611cc5565b165f5260205260ff815f205482519282821615158452828260081c1615156020850152828260101c1615159084015260181c1615156060820152f35b5050346102e757602091826003193601126102e75781355f9081526005845281902080546001600160a01b0393919084811615611a195760ff8383015416156119d6576003820154926117ec600c5485611f77565b421161199d5750908491600193876001840154956002850192885193838501956001600160601b03199060601b16865261182f6034860160ff8b60a01c16611ffa565b60355f9382549261183f84611e08565b936001811690811561196f5750600114611922575b50505050926118786118cd98969382846005976118c4999652038084520182611cf1565b5190207f19457468657265756d205369676e6564204d6573736167653a0a3332000000005f52601c526118bf603c5f20916118b889518095819301611e40565b0383611cf1565b6124a1565b909491946124db565b16928391161491826118e3575b50519015158152f35b9091507f0ce23c3e399818cfee81a7ab0880f714e53d7672b08df0fa62f2843416e1ea095f525f8352815f20905f52825260ff815f20541690836118da565b5f9081528681209b9998979695505b8381106119595750979950959650939450919290919083016035019061187883856005611854565b8b548782018401529a81019a8d9a508501611931565b60ff19166035808b019190915285151590950289019094019550611878935086925087915060059050611854565b845162461bcd60e51b81529081018790526013602482015272105d1d195cdd185d1a5bdb88195e1c1a5c9959606a1b6044820152606490fd5b835162461bcd60e51b8152808401879052601860248201527f4174746573746174696f6e206973206e6f742076616c696400000000000000006044820152606490fd5b835162461bcd60e51b8152808401879052601a60248201527f4174746573746174696f6e20646f6573206e6f742065786973740000000000006044820152606490fd5b5050346102e75760a03660031901126102e757611a77611cc5565b9160243592600a8410156102e7576044359267ffffffffffffffff906064358281116102e757611aaa9036908301611d6d565b91611ab361202e565b60018060a01b0380941695865f52611ad760209560038752875f2054161515611ee7565b611ae56103e8821115611f33565b865f5260038552611afb886008885f2001611ed1565b80546001600160a81b03191660ff8a16173360081b610100600160a81b03161781556001808201929092554260028201819055600b54919591611b3d91611f77565b600386015583850161010061ffff19825416179055600585019381519384116108415750611b6f83610e0f8654611e08565b8591601f8411600114611be9575082600395937fad576cf3b403501fbc9bc3c189b51bde76f3401339b1570fb49ab5893089336b98979593611bc5935f92610f105750508160011b915f199060031b1c19161790565b90555b6006608435910155845f5252426007825f2001555180611398339582611fe7565b9190601f198416855f52875f20935f905b828210611c5c575050926001928592600398967fad576cf3b403501fbc9bc3c189b51bde76f3401339b1570fb49ab5893089336b9b9a989610611c45575b505050811b019055611bc8565b01515f1983891b60f8161c191690558a8080611c38565b838501518655948501949389019390890190611bfa565b83346102e75760203660031901126102e757359063ffffffff60e01b82168092036102e757602091637965db0b60e01b8114908115611cb4575b5015158152f35b6301ffc9a760e01b14905083611cad565b600435906001600160a01b03821682036102e757565b602435906001600160a01b03821682036102e757565b90601f8019910116810190811067ffffffffffffffff821117611d1357604052565b634e487b7160e01b5f52604160045260245ffd5b92919267ffffffffffffffff8211611d135760405191611d51601f8201601f191660200184611cf1565b8294818452818301116102e7578281602093845f960137010152565b9080601f830112156102e757816020611d8893359101611d27565b90565b6044359081151582036102e757565b6024359081151582036102e757565b906006821015611db65752565b634e487b7160e01b5f52602160045260245ffd5b91908251928382525f5b848110611df4575050825f602080949584010152601f8019910116010190565b602081830181015184830182015201611dd4565b90600182811c92168015611e36575b6020831014611e2257565b634e487b7160e01b5f52602260045260245ffd5b91607f1691611e17565b80545f9392611e4e82611e08565b918282526020936001916001811690815f14611eb25750600114611e74575b5050505050565b90939495505f92919252835f2092845f945b838610611e9e57505050500101905f80808080611e6d565b805485870183015294019385908201611e86565b60ff19168685015250505090151560051b010191505f80808080611e6d565b90600a811015611db6575f5260205260405f2090565b15611eee57565b60405162461bcd60e51b815260206004820152601760248201527f4964656e7469747920646f6573206e6f742065786973740000000000000000006044820152606490fd5b15611f3a57565b60405162461bcd60e51b815260206004820152601560248201527453636f72652065786365656473206d6178696d756d60581b6044820152606490fd5b91908201809211611f8457565b634e487b7160e01b5f52601160045260245ffd5b601f8211611fa557505050565b5f5260205f20906020601f840160051c83019310611fdd575b601f0160051c01905b818110611fd2575050565b5f8155600101611fc7565b9091508190611fbe565b91906020830192600a821015611db65752565b6006811015611db65760f81b9052565b906006811015611db657815460ff60a01b191660a09190911b60ff60a01b16179055565b335f9081527ffe759d5e0cc1d5596a40260ede48172dac0c1dba3f4e63d2ef0d3c99859a655360205260409020547f7a5ae009d6a61115ac0993f8e8e8d8ba374961395165c1b6f1f9cefa70d851599060ff16156120895750565b6044906040519063e2517d3f60e01b82523360048301526024820152fd5b335f9081527f1da0b5176dfe03406af5a6eed66ca01dda9b45ac4da671c3fa379cb93717ef8160205260409020547f0ce23c3e399818cfee81a7ab0880f714e53d7672b08df0fa62f2843416e1ea099060ff16156120895750565b335f9081527fad3228b676f7d3cd4284a5443f17f1962b36e491b30a40b2405849e597ba5fb5602052604090205460ff161561213a57565b60405163e2517d3f60e01b81523360048201525f6024820152604490fd5b805f525f60205260405f20335f5260205260ff60405f205416156120895750565b90815f525f60205260405f209060018060a01b031690815f5260205260ff60405f205416155f146121ef57815f525f60205260405f20815f5260205260405f20600160ff1982541617905533917f2f8788117e7eff1d82e926ec794901d17c78024a50270940304540a733656f0d5f80a4600190565b50505f90565b60018060a01b0316805f52600360205260405f206001810154600760205260405f205460ff835460a01c169182916103208210158061233d575b156122b3575060059250505b6006811015611db6576006821015611db65780821161225b575b50505050565b6122a9828461228d6040957f3fc5c721e06e298c91d615c5edb32b73b4333a7ded491cfe03f29d2a146abec59761200a565b60074291015561229f84518094611da9565b6020830190611da9565ba25f808080612255565b6102bc82101580612331575b156122d0575060049250505b61223b565b61025882101580612325575b156122ec5750600392505061223b565b6101908210159081612319575b501561230957506002915061223b565b60c8116122cb576001915061223b565b60c8915010155f6122f9565b5061012c8110156122dc565b506101908110156122bf565b506101f481101561222f565b90815f525f60205260405f209060018060a01b031690815f5260205260ff60405f2054165f146121ef57815f525f60205260405f20815f5260205260405f2060ff19815416905533917ff6391f5c32d9c69d2a47ea670b442974b53935d1edc7fd64eb21e047a839171b5f80a4600190565b6001600160a01b03908116911681811461247b575f52600460205260405f209160ff6123ea8260018601611ed1565b541661247b5761240960ff91835f526002850160205260405f20611ed1565b5416612474575f9081527fe359dae9942552f26c150e77668de60b5da80a7a955b3af91651d8145430ddd1602052604090205460ff169081612465575b5061246057600660205260ff60405f205416612460575f90565b600190565b60ff91505460181c165f612446565b5050600190565b505050600190565b60ff6002541661248f57565b60405163d93c066560e01b8152600490fd5b81519190604183036124d1576124ca9250602082015190606060408401519301515f1a9061254a565b9192909190565b50505f9160029190565b6004811015611db657806124ed575050565b600181036125075760405163f645eedf60e01b8152600490fd5b600281036125285760405163fce698f760e01b815260048101839052602490fd5b6003146125325750565b602490604051906335e2f38360e21b82526004820152fd5b91907f7fffffffffffffffffffffffffffffff5d576e7357a4501ddfe92f46681b20a084116125cc579160209360809260ff5f9560405194855216868401526040830152606082015282805260015afa156125c1575f516001600160a01b038116156125b757905f905f90565b505f906001905f90565b6040513d5f823e3d90fd5b5050505f916003919056fea2646970667358221220460b8affbf12f7b52067aef48066dd6d0f3719311203a9cf53f77ceaf5268bec64736f6c634300081800332f8788117e7eff1d82e926ec794901d17c78024a50270940304540a733656f0dad3228b676f7d3cd4284a5443f17f1962b36e491b30a40b2405849e597ba5fb5","opcodes":"PUSH1 0x80 CALLVALUE PUSH3 0x141 JUMPI PUSH1 0x1F PUSH3 0x2A85 CODESIZE DUP2 SWAP1 SUB SWAP2 DUP3 ADD PUSH1 0x1F NOT AND DUP4 ADD SWAP3 SWAP2 SWAP1 PUSH1 0x1 PUSH1 0x1 PUSH1 0x40 SHL SUB DUP5 GT DUP4 DUP6 LT OR PUSH3 0x145 JUMPI DUP2 PUSH1 0x20 SWAP3 DUP5 SWAP3 PUSH1 0x40 SWAP7 DUP8 MSTORE DUP4 CODECOPY DUP2 ADD SUB SLT PUSH3 0x141 JUMPI MLOAD PUSH1 0x1 PUSH1 0x1 PUSH1 0xA0 SHL SUB DUP2 AND SWAP1 DUP2 SWAP1 SUB PUSH3 0x141 JUMPI PUSH1 0x1 DUP1 SSTORE PUSH8 0x8AC7230489E80000 PUSH1 0xA SSTORE PUSH4 0x1E13380 PUSH1 0xB SSTORE PUSH3 0x76A700 PUSH1 0xC SSTORE PUSH3 0x84 CALLER PUSH3 0x159 JUMP JUMPDEST POP PUSH3 0x90 CALLER PUSH3 0x1C9 JUMP JUMPDEST POP PUSH3 0x9C CALLER PUSH3 0x269 JUMP JUMPDEST POP PUSH3 0xA8 CALLER PUSH3 0x303 JUMP JUMPDEST POP PUSH3 0xB4 CALLER PUSH3 0x39D JUMP JUMPDEST POP PUSH1 0x1 DUP1 PUSH1 0xA0 SHL SUB NOT PUSH1 0x9 SLOAD AND OR PUSH1 0x9 SSTORE PUSH0 DUP1 MSTORE PUSH1 0x8 PUSH1 0x20 MSTORE PUSH2 0x12C DUP1 DUP3 PUSH0 KECCAK256 SSTORE PUSH1 0x1 PUSH0 MSTORE PUSH2 0x190 SWAP1 DUP2 DUP4 PUSH0 KECCAK256 SSTORE PUSH1 0x2 PUSH0 MSTORE PUSH1 0xC8 DUP4 PUSH0 KECCAK256 SSTORE PUSH1 0x3 PUSH0 MSTORE PUSH2 0x15E DUP4 PUSH0 KECCAK256 SSTORE PUSH1 0x4 PUSH0 MSTORE PUSH2 0x1C2 DUP4 PUSH0 KECCAK256 SSTORE PUSH1 0x5 PUSH0 MSTORE DUP3 PUSH0 KECCAK256 SSTORE PUSH1 0x6 PUSH0 MSTORE DUP2 PUSH0 KECCAK256 SSTORE PUSH1 0x7 PUSH0 MSTORE PUSH2 0x1F4 DUP2 PUSH0 KECCAK256 SSTORE PUSH1 0x8 PUSH0 MSTORE PUSH2 0x258 DUP2 PUSH0 KECCAK256 SSTORE PUSH1 0x9 PUSH0 MSTORE PUSH2 0x2BC DUP2 PUSH0 KECCAK256 SSTORE MLOAD PUSH2 0x260D SWAP1 DUP2 PUSH3 0x438 DUP3 CODECOPY RETURN JUMPDEST PUSH0 DUP1 REVERT JUMPDEST PUSH4 0x4E487B71 PUSH1 0xE0 SHL PUSH0 MSTORE PUSH1 0x41 PUSH1 0x4 MSTORE PUSH1 0x24 PUSH0 REVERT JUMPDEST PUSH1 0x1 PUSH1 0x1 PUSH1 0xA0 SHL SUB AND PUSH0 DUP2 DUP2 MSTORE PUSH0 DUP1 MLOAD PUSH1 0x20 PUSH3 0x2A65 DUP4 CODECOPY DUP2 MLOAD SWAP2 MSTORE PUSH1 0x20 MSTORE PUSH1 0x40 SWAP1 KECCAK256 SLOAD PUSH1 0xFF AND PUSH3 0x1C4 JUMPI PUSH0 DUP2 DUP2 MSTORE PUSH0 DUP1 MLOAD PUSH1 0x20 PUSH3 0x2A65 DUP4 CODECOPY DUP2 MLOAD SWAP2 MSTORE PUSH1 0x20 MSTORE PUSH1 0x40 DUP2 KECCAK256 DUP1 SLOAD PUSH1 0xFF NOT AND PUSH1 0x1 OR SWAP1 SSTORE CALLER SWAP2 SWAP1 PUSH0 DUP1 MLOAD PUSH1 0x20 PUSH3 0x2A45 DUP4 CODECOPY DUP2 MLOAD SWAP2 MSTORE DUP2 DUP1 LOG4 PUSH1 0x1 SWAP1 JUMP JUMPDEST POP PUSH0 SWAP1 JUMP JUMPDEST PUSH1 0x1 PUSH1 0x1 PUSH1 0xA0 SHL SUB AND PUSH0 DUP2 DUP2 MSTORE PUSH32 0x1DA0B5176DFE03406AF5A6EED66CA01DDA9B45AC4DA671C3FA379CB93717EF81 PUSH1 0x20 MSTORE PUSH1 0x40 SWAP1 KECCAK256 SLOAD PUSH32 0xCE23C3E399818CFEE81A7AB0880F714E53D7672B08DF0FA62F2843416E1EA09 SWAP2 SWAP1 PUSH1 0xFF AND PUSH3 0x263 JUMPI DUP2 PUSH0 MSTORE PUSH0 PUSH1 0x20 MSTORE PUSH1 0x40 PUSH0 KECCAK256 DUP2 PUSH0 MSTORE PUSH1 0x20 MSTORE PUSH1 0x40 PUSH0 KECCAK256 PUSH1 0x1 PUSH1 0xFF NOT DUP3 SLOAD AND OR SWAP1 SSTORE CALLER SWAP2 PUSH0 DUP1 MLOAD PUSH1 0x20 PUSH3 0x2A45 DUP4 CODECOPY DUP2 MLOAD SWAP2 MSTORE PUSH0 DUP1 LOG4 PUSH1 0x1 SWAP1 JUMP JUMPDEST POP POP PUSH0 SWAP1 JUMP JUMPDEST PUSH1 0x1 PUSH1 0x1 PUSH1 0xA0 SHL SUB AND PUSH0 DUP2 DUP2 MSTORE PUSH32 0xFE759D5E0CC1D5596A40260EDE48172DAC0C1DBA3F4E63D2EF0D3C99859A6553 PUSH1 0x20 MSTORE PUSH1 0x40 SWAP1 KECCAK256 SLOAD PUSH32 0x7A5AE009D6A61115AC0993F8E8E8D8BA374961395165C1B6F1F9CEFA70D85159 SWAP2 SWAP1 PUSH1 0xFF AND PUSH3 0x263 JUMPI DUP2 PUSH0 MSTORE PUSH0 PUSH1 0x20 MSTORE PUSH1 0x40 PUSH0 KECCAK256 DUP2 PUSH0 MSTORE PUSH1 0x20 MSTORE PUSH1 0x40 PUSH0 KECCAK256 PUSH1 0x1 PUSH1 0xFF NOT DUP3 SLOAD AND OR SWAP1 SSTORE CALLER SWAP2 PUSH0 DUP1 MLOAD PUSH1 0x20 PUSH3 0x2A45 DUP4 CODECOPY DUP2 MLOAD SWAP2 MSTORE PUSH0 DUP1 LOG4 PUSH1 0x1 SWAP1 JUMP JUMPDEST PUSH1 0x1 PUSH1 0x1 PUSH1 0xA0 SHL SUB AND PUSH0 DUP2 DUP2 MSTORE PUSH32 0xE359DAE9942552F26C150E77668DE60B5DA80A7A955B3AF91651D8145430DDD1 PUSH1 0x20 MSTORE PUSH1 0x40 SWAP1 KECCAK256 SLOAD PUSH32 0x12025C097D56F44D4F9420EA084F47F97CF51E1AECB99577DD0A00E83E3BA75A SWAP2 SWAP1 PUSH1 0xFF AND PUSH3 0x263 JUMPI DUP2 PUSH0 MSTORE PUSH0 PUSH1 0x20 MSTORE PUSH1 0x40 PUSH0 KECCAK256 DUP2 PUSH0 MSTORE PUSH1 0x20 MSTORE PUSH1 0x40 PUSH0 KECCAK256 PUSH1 0x1 PUSH1 0xFF NOT DUP3 SLOAD AND OR SWAP1 SSTORE CALLER SWAP2 PUSH0 DUP1 MLOAD PUSH1 0x20 PUSH3 0x2A45 DUP4 CODECOPY DUP2 MLOAD SWAP2 MSTORE PUSH0 DUP1 LOG4 PUSH1 0x1 SWAP1 JUMP JUMPDEST PUSH1 0x1 PUSH1 0x1 PUSH1 0xA0 SHL SUB AND PUSH0 DUP2 DUP2 MSTORE PUSH32 0x9E26F83D2A5FAC73FDEF98FBAB7E6A227DDE7B84DE3B80FAE2D8C09BF55782BF PUSH1 0x20 MSTORE PUSH1 0x40 SWAP1 KECCAK256 SLOAD PUSH32 0x4BE6E8A751D29C6C2ADB2514581F716B9D8FA441A0D0A8FCD9EEB4024B50F56E SWAP2 SWAP1 PUSH1 0xFF AND PUSH3 0x263 JUMPI DUP2 PUSH0 MSTORE PUSH0 PUSH1 0x20 MSTORE PUSH1 0x40 PUSH0 KECCAK256 DUP2 PUSH0 MSTORE PUSH1 0x20 MSTORE PUSH1 0x40 PUSH0 KECCAK256 PUSH1 0x1 PUSH1 0xFF NOT DUP3 SLOAD AND OR SWAP1 SSTORE CALLER SWAP2 PUSH0 DUP1 MLOAD PUSH1 0x20 PUSH3 0x2A45 DUP4 CODECOPY DUP2 MLOAD SWAP2 MSTORE PUSH0 DUP1 LOG4 PUSH1 0x1 SWAP1 JUMP INVALID PUSH1 0x80 PUSH1 0x40 DUP2 DUP2 MSTORE PUSH1 0x4 DUP1 CALLDATASIZE LT ISZERO PUSH2 0x14 JUMPI PUSH0 DUP1 REVERT JUMPDEST PUSH0 SWAP3 PUSH1 0xE0 PUSH0 CALLDATALOAD DUP2 SHR SWAP2 DUP3 PUSH4 0x1FFC9A7 EQ PUSH2 0x1C73 JUMPI POP DUP2 PUSH4 0x3ECA86E EQ PUSH2 0x1A5C JUMPI DUP2 PUSH4 0x8F46957 EQ PUSH2 0x1797 JUMPI DUP2 PUSH4 0x99BB129 EQ PUSH2 0x1735 JUMPI DUP2 PUSH4 0x234C1196 EQ PUSH2 0x1630 JUMPI DUP2 PUSH4 0x248A9CA3 EQ PUSH2 0x1606 JUMPI DUP2 PUSH4 0x2F2FF15D EQ PUSH2 0x15CC JUMPI DUP2 PUSH4 0x2FD22BF3 EQ PUSH2 0x15B0 JUMPI DUP2 PUSH4 0x2FEA7B81 EQ PUSH2 0x14F2 JUMPI DUP2 PUSH4 0x34C51B43 EQ PUSH2 0x127D JUMPI DUP2 PUSH4 0x36568ABE EQ PUSH2 0x1238 JUMPI DUP2 PUSH4 0x38FE6D0D EQ PUSH2 0x11FE JUMPI DUP2 PUSH4 0x3BE044FC EQ PUSH2 0x11C4 JUMPI DUP2 PUSH4 0x3F4BA83A EQ PUSH2 0x115C JUMPI DUP2 PUSH4 0x53C71466 EQ PUSH2 0x1117 JUMPI DUP2 PUSH4 0x595BF86D EQ PUSH2 0x10F9 JUMPI DUP2 PUSH4 0x5A0EB761 EQ PUSH2 0x108C JUMPI DUP2 PUSH4 0x5C975ABB EQ PUSH2 0x1069 JUMPI DUP2 PUSH4 0x74BD6F09 EQ PUSH2 0xCD5 JUMPI DUP2 PUSH4 0x7EB599DC EQ PUSH2 0xC9E JUMPI DUP2 PUSH4 0x83C28274 EQ PUSH2 0xC80 JUMPI DUP2 PUSH4 0x8456CB59 EQ PUSH2 0xC27 JUMPI DUP2 PUSH4 0x8B0E6288 EQ PUSH2 0xBD4 JUMPI DUP2 PUSH4 0x91D14854 EQ PUSH2 0xB90 JUMPI DUP2 PUSH4 0x92C54DAF EQ PUSH2 0xB54 JUMPI DUP2 PUSH4 0x940992A3 EQ PUSH2 0xA92 JUMPI DUP2 PUSH4 0x959D0258 EQ PUSH2 0x974 JUMPI DUP2 PUSH4 0xA217FDDF EQ PUSH2 0x95A JUMPI DUP2 PUSH4 0xA894F9CB EQ PUSH2 0x923 JUMPI DUP2 PUSH4 0xA8C278A2 EQ PUSH2 0x905 JUMPI DUP2 PUSH4 0xB12ACABC EQ PUSH2 0x8D3 JUMPI DUP2 PUSH4 0xC2A55E65 EQ PUSH2 0x8AB JUMPI DUP2 PUSH4 0xC4152593 EQ PUSH2 0x6E6 JUMPI DUP2 PUSH4 0xC4C1F353 EQ PUSH2 0x6AA JUMPI DUP2 PUSH4 0xD547741F EQ PUSH2 0x66B JUMPI DUP2 PUSH4 0xE7705DB6 EQ PUSH2 0x62F JUMPI DUP2 PUSH4 0xF2F346DF EQ PUSH2 0x3BA JUMPI DUP2 PUSH4 0xF653B81E EQ PUSH2 0x2EB JUMPI POP DUP1 PUSH4 0xFCC4D98B EQ PUSH2 0x209 JUMPI PUSH4 0xFE5A5377 EQ PUSH2 0x1DA JUMPI PUSH0 DUP1 REVERT JUMPDEST CALLVALUE PUSH2 0x205 JUMPI PUSH1 0x20 CALLDATASIZE PUSH1 0x3 NOT ADD SLT PUSH2 0x205 JUMPI DUP2 PUSH1 0x20 SWAP4 PUSH1 0xFF SWAP3 CALLDATALOAD DUP2 MSTORE PUSH1 0xD DUP6 MSTORE KECCAK256 SLOAD AND SWAP1 MLOAD SWAP1 ISZERO ISZERO DUP2 MSTORE RETURN JUMPDEST DUP3 DUP1 REVERT JUMPDEST POP CALLVALUE PUSH2 0x205 JUMPI PUSH1 0x80 CALLDATASIZE PUSH1 0x3 NOT ADD SLT PUSH2 0x205 JUMPI DUP1 CALLDATALOAD DUP1 ISZERO ISZERO DUP2 SUB PUSH2 0x2E7 JUMPI PUSH2 0x22E PUSH2 0x1D9A JUMP JUMPDEST PUSH2 0x236 PUSH2 0x1D8B JUMP JUMPDEST PUSH1 0x64 CALLDATALOAD SWAP4 DUP5 ISZERO ISZERO DUP6 SUB PUSH2 0x2E7 JUMPI CALLER DUP8 MSTORE PUSH1 0x3 PUSH1 0x20 MSTORE DUP6 DUP8 KECCAK256 SLOAD PUSH2 0x2BF SWAP7 PUSH2 0x288 SWAP3 SWAP1 SWAP2 PUSH2 0x26D SWAP1 PUSH1 0x1 PUSH1 0x1 PUSH1 0xA0 SHL SUB AND ISZERO ISZERO PUSH2 0x1EE7 JUMP JUMPDEST CALLER DUP10 MSTORE PUSH1 0x20 MSTORE DUP8 KECCAK256 SWAP4 DUP5 SWAP1 PUSH1 0xFF DUP1 NOT DUP4 SLOAD AND SWAP2 ISZERO ISZERO AND OR SWAP1 SSTORE JUMP JUMPDEST DUP3 SLOAD PUSH4 0xFFFFFF00 NOT AND SWAP2 ISZERO ISZERO PUSH1 0x8 SHL PUSH2 0xFF00 AND SWAP2 SWAP1 SWAP2 OR SWAP1 ISZERO ISZERO PUSH1 0x10 SHL PUSH3 0xFF0000 AND OR SWAP2 ISZERO ISZERO PUSH1 0x18 SHL PUSH4 0xFF000000 AND SWAP2 SWAP1 SWAP2 OR SWAP1 SSTORE JUMP JUMPDEST CALLER PUSH32 0x8EE564191AF7EBAEEA018FC820A33A7914326A241DF4E4A925DCF2F69EDF89A8 DUP3 DUP1 LOG2 DUP1 RETURN JUMPDEST PUSH0 DUP1 REVERT JUMPDEST DUP5 SWAP4 SWAP2 POP CALLVALUE PUSH2 0x3B6 JUMPI PUSH1 0x20 CALLDATASIZE PUSH1 0x3 NOT ADD SLT PUSH2 0x3B6 JUMPI PUSH1 0xFF SWAP4 PUSH1 0x20 SWAP4 PUSH1 0x1 PUSH1 0x1 PUSH1 0xA0 SHL SUB SWAP4 SWAP1 SWAP3 SWAP1 SWAP2 DUP3 SWAP1 DUP6 PUSH2 0x31E PUSH2 0x1CC5 JUMP JUMPDEST AND DUP2 MSTORE PUSH1 0x3 DUP8 MSTORE KECCAK256 SWAP2 PUSH2 0x39C DUP4 SLOAD SWAP5 PUSH1 0x1 DUP6 ADD SLOAD SWAP7 PUSH1 0x2 DUP7 ADD SLOAD DUP5 MLOAD SWAP3 PUSH2 0x353 DUP5 PUSH2 0x34C DUP2 PUSH1 0x3 DUP13 ADD PUSH2 0x1E40 JUMP JUMPDEST SUB DUP6 PUSH2 0x1CF1 JUMP JUMPDEST DUP8 ADD SLOAD SWAP9 DUP12 PUSH1 0x5 DUP10 ADD SLOAD AND SWAP6 PUSH2 0x386 PUSH1 0x7 PUSH1 0x6 DUP12 ADD SLOAD SWAP11 ADD SLOAD SWAP11 DUP3 MLOAD SWAP15 DUP16 SWAP15 DUP16 PUSH2 0x120 SWAP9 DUP5 AND DUP2 MSTORE ADD SWAP2 PUSH1 0xA0 SHR AND PUSH2 0x1DA9 JUMP JUMPDEST DUP12 ADD MSTORE PUSH1 0x60 DUP11 ADD MSTORE DUP1 PUSH1 0x80 DUP11 ADD MSTORE DUP9 ADD SWAP1 PUSH2 0x1DCA JUMP JUMPDEST SWAP5 PUSH1 0xA0 DUP8 ADD MSTORE ISZERO ISZERO PUSH1 0xC0 DUP7 ADD MSTORE DUP5 ADD MSTORE PUSH2 0x100 DUP4 ADD MSTORE SUB SWAP1 RETURN JUMPDEST DUP4 DUP1 REVERT JUMPDEST DUP3 DUP6 DUP6 CALLVALUE PUSH2 0x62B JUMPI PUSH1 0x60 CALLDATASIZE PUSH1 0x3 NOT ADD SLT PUSH2 0x62B JUMPI PUSH8 0xFFFFFFFFFFFFFFFF SWAP1 DUP4 CALLDATALOAD DUP3 DUP2 GT PUSH2 0x3B6 JUMPI PUSH2 0x3EE SWAP1 CALLDATASIZE SWAP1 DUP7 ADD PUSH2 0x1D6D JUMP JUMPDEST SWAP4 PUSH2 0x3F7 PUSH2 0x1D8B JUMP JUMPDEST SWAP1 PUSH2 0x400 PUSH2 0x2483 JUMP JUMPDEST CALLER DUP6 MSTORE PUSH1 0x3 PUSH1 0x20 SWAP1 DUP2 MSTORE DUP4 DUP7 KECCAK256 SLOAD SWAP1 SWAP5 SWAP1 PUSH1 0x1 PUSH1 0x1 PUSH1 0xA0 SHL SUB AND PUSH2 0x5E8 JUMPI CALLER DUP1 DUP8 MSTORE PUSH1 0x3 DUP1 DUP8 MSTORE DUP6 DUP9 KECCAK256 DUP1 SLOAD PUSH1 0x1 PUSH1 0x1 PUSH1 0xA8 SHL SUB NOT AND PUSH1 0xFF PUSH1 0xA0 SHL NOT SWAP1 SWAP4 AND SWAP3 SWAP1 SWAP3 OR PUSH1 0x1 PUSH1 0xA0 SHL OR DUP3 SSTORE PUSH1 0x1 DUP1 DUP4 ADD DUP10 SWAP1 SSTORE TIMESTAMP PUSH1 0x2 DUP5 ADD SSTORE DUP10 MLOAD SWAP3 SWAP4 SWAP2 DUP5 ADD SWAP3 SWAP2 DUP3 GT PUSH2 0x5D5 JUMPI PUSH2 0x47C DUP3 PUSH2 0x476 DUP6 SLOAD PUSH2 0x1E08 JUMP JUMPDEST DUP6 PUSH2 0x1F98 JUMP JUMPDEST DUP8 SWAP1 PUSH1 0x1F DUP4 GT PUSH1 0x1 EQ PUSH2 0x548 JUMPI POP DUP2 PUSH2 0x531 SWAP7 SWAP6 SWAP5 SWAP4 SWAP3 PUSH2 0x4D6 SWAP3 DUP12 SWAP13 PUSH32 0x294D9B7C5035E19ED808723FCC013C393CE7BBF5C0A7ACBF6D4997A404C2ABF0 SWAP12 SWAP13 SWAP3 PUSH2 0x53D JUMPI JUMPDEST POP POP DUP2 PUSH1 0x1 SHL SWAP2 PUSH0 NOT SWAP1 PUSH1 0x3 SHL SHR NOT AND OR SWAP1 JUMP JUMPDEST SWAP1 SSTORE JUMPDEST PUSH1 0x24 CALLDATALOAD DUP3 DUP3 ADD SSTORE PUSH2 0x4F9 DUP4 PUSH1 0x5 DUP4 ADD SWAP1 PUSH1 0xFF DUP1 NOT DUP4 SLOAD AND SWAP2 ISZERO ISZERO AND OR SWAP1 SSTORE JUMP JUMPDEST TIMESTAMP PUSH1 0x6 DUP3 ADD DUP2 SWAP1 SSTORE PUSH1 0x7 SWAP1 SWAP2 ADD SSTORE CALLER DUP8 MSTORE DUP6 MSTORE DUP3 DUP7 KECCAK256 DUP1 SLOAD PUSH4 0xFFFFFFFF NOT AND SWAP2 ISZERO ISZERO PUSH1 0x18 SHL PUSH4 0xFF000000 AND SWAP2 SWAP1 SWAP2 OR PUSH3 0x10001 OR SWAP1 SSTORE JUMP JUMPDEST MLOAD SWAP2 PUSH1 0x1 DUP4 MSTORE CALLER SWAP3 LOG2 DUP1 RETURN JUMPDEST ADD MLOAD SWAP1 POP DUP13 DUP1 PUSH2 0x4C2 JUMP JUMPDEST SWAP10 PUSH1 0x1F NOT DUP4 AND DUP5 DUP12 MSTORE DUP10 DUP12 KECCAK256 SWAP12 DUP12 SWAP1 JUMPDEST DUP3 DUP3 LT PUSH2 0x5BE JUMPI POP POP SWAP11 PUSH1 0x1 SWAP3 DUP5 SWAP3 PUSH2 0x531 SWAP10 SWAP9 SWAP8 SWAP7 SWAP6 PUSH32 0x294D9B7C5035E19ED808723FCC013C393CE7BBF5C0A7ACBF6D4997A404C2ABF0 SWAP13 SWAP14 SWAP15 LT PUSH2 0x5A6 JUMPI JUMPDEST POP POP POP DUP2 SHL ADD SWAP1 SSTORE PUSH2 0x4D9 JUMP JUMPDEST ADD MLOAD PUSH0 NOT PUSH1 0xF8 DUP5 PUSH1 0x3 SHL AND SHR NOT AND SWAP1 SSTORE DUP12 DUP1 DUP1 PUSH2 0x599 JUMP JUMPDEST DUP5 DUP5 ADD MLOAD DUP15 SSTORE SWAP13 DUP14 ADD SWAP13 SWAP4 DUP12 ADD SWAP4 SWAP1 DUP12 ADD SWAP1 PUSH2 0x558 JUMP JUMPDEST PUSH4 0x4E487B71 PUSH1 0xE0 SHL DUP10 MSTORE PUSH1 0x41 DUP6 MSTORE PUSH1 0x24 DUP10 REVERT JUMPDEST DUP4 MLOAD PUSH3 0x461BCD PUSH1 0xE5 SHL DUP2 MSTORE DUP1 DUP4 ADD DUP7 SWAP1 MSTORE PUSH1 0x17 PUSH1 0x24 DUP3 ADD MSTORE PUSH32 0x4964656E7469747920616C726561647920657869737473000000000000000000 PUSH1 0x44 DUP3 ADD MSTORE PUSH1 0x64 SWAP1 REVERT JUMPDEST POP DUP1 REVERT JUMPDEST POP POP POP CALLVALUE PUSH2 0x62B JUMPI DUP2 PUSH1 0x3 NOT CALLDATASIZE ADD SLT PUSH2 0x62B JUMPI PUSH1 0x20 SWAP1 MLOAD PUSH32 0xCE23C3E399818CFEE81A7AB0880F714E53D7672B08DF0FA62F2843416E1EA09 DUP2 MSTORE RETURN JUMPDEST POP POP SWAP1 CALLVALUE PUSH2 0x205 JUMPI DUP1 PUSH1 0x3 NOT CALLDATASIZE ADD SLT PUSH2 0x205 JUMPI PUSH2 0x6A6 SWAP2 CALLDATALOAD PUSH2 0x6A1 PUSH1 0x1 PUSH2 0x690 PUSH2 0x1CDB JUMP JUMPDEST SWAP4 DUP4 DUP8 MSTORE DUP7 PUSH1 0x20 MSTORE DUP7 KECCAK256 ADD SLOAD PUSH2 0x2158 JUMP JUMPDEST PUSH2 0x2349 JUMP JUMPDEST POP DUP1 RETURN JUMPDEST POP POP POP CALLVALUE PUSH2 0x62B JUMPI DUP2 PUSH1 0x3 NOT CALLDATASIZE ADD SLT PUSH2 0x62B JUMPI PUSH1 0x20 SWAP1 MLOAD PUSH32 0x12025C097D56F44D4F9420EA084F47F97CF51E1AECB99577DD0A00E83E3BA75A DUP2 MSTORE RETURN JUMPDEST POP POP SWAP1 CALLVALUE PUSH2 0x2E7 JUMPI PUSH1 0x60 CALLDATASIZE PUSH1 0x3 NOT ADD SLT PUSH2 0x2E7 JUMPI PUSH2 0x702 PUSH2 0x1CC5 JUMP JUMPDEST PUSH1 0x24 CALLDATALOAD SWAP2 SWAP1 PUSH8 0xFFFFFFFFFFFFFFFF PUSH1 0x44 CALLDATALOAD DUP2 DUP2 GT PUSH2 0x2E7 JUMPI PUSH2 0x727 SWAP1 CALLDATASIZE SWAP1 DUP8 ADD PUSH2 0x1D6D JUMP JUMPDEST POP PUSH2 0x730 PUSH2 0x202E JUMP JUMPDEST PUSH1 0x1 DUP1 PUSH1 0xA0 SHL SUB SWAP5 DUP6 DUP4 AND SWAP6 DUP7 PUSH0 MSTORE PUSH1 0x3 PUSH1 0x20 MSTORE PUSH2 0x754 DUP2 DUP7 PUSH0 KECCAK256 SLOAD AND ISZERO ISZERO PUSH2 0x1EE7 JUMP JUMPDEST PUSH2 0x762 PUSH2 0x3E8 DUP8 GT ISZERO PUSH2 0x1F33 JUMP JUMPDEST DUP7 PUSH0 MSTORE DUP2 PUSH1 0x20 MSTORE PUSH1 0xFF DUP6 PUSH0 KECCAK256 SLOAD PUSH1 0x10 SHR AND ISZERO PUSH2 0x85E JUMPI DUP7 PUSH0 MSTORE PUSH1 0x3 PUSH1 0x20 MSTORE DUP5 PUSH0 KECCAK256 DUP7 PUSH1 0x1 DUP3 ADD SSTORE TIMESTAMP PUSH1 0x2 DUP3 ADD SSTORE PUSH1 0x7 TIMESTAMP SWAP2 ADD SSTORE PUSH1 0x9 SLOAD AND SWAP2 DUP3 EXTCODESIZE ISZERO PUSH2 0x2E7 JUMPI PUSH0 DUP1 SWAP4 PUSH1 0x44 DUP8 MLOAD DUP1 SWAP7 DUP2 SWAP4 PUSH4 0x695F9B5 PUSH1 0xE3 SHL DUP4 MSTORE DUP13 DUP9 DUP5 ADD MSTORE DUP12 PUSH1 0x24 DUP5 ADD MSTORE GAS CALL DUP1 ISZERO PUSH2 0x854 JUMPI PUSH2 0x807 JUMPI JUMPDEST POP POP POP SWAP2 PUSH1 0x20 SWAP2 PUSH2 0x7FF PUSH32 0xE4D84668B4E408A627F283EDC4532088940E9FBA01CD0B2CD7F3EFC7161F9A69 SWAP5 PUSH2 0x21F5 JUMP JUMPDEST MLOAD SWAP1 DUP2 MSTORE LOG2 DUP1 RETURN JUMPDEST SWAP1 SWAP2 DUP1 SWAP4 SWAP8 POP GT PUSH2 0x841 JUMPI POP DUP2 MSTORE PUSH0 SWAP4 DUP2 PUSH2 0x7FF PUSH32 0xE4D84668B4E408A627F283EDC4532088940E9FBA01CD0B2CD7F3EFC7161F9A69 PUSH2 0x7CE JUMP JUMPDEST PUSH1 0x41 SWAP1 PUSH4 0x4E487B71 PUSH1 0xE0 SHL PUSH0 MSTORE MSTORE PUSH1 0x24 PUSH0 REVERT JUMPDEST DUP6 MLOAD RETURNDATASIZE PUSH0 DUP3 RETURNDATACOPY RETURNDATASIZE SWAP1 REVERT JUMPDEST DUP5 MLOAD PUSH3 0x461BCD PUSH1 0xE5 SHL DUP2 MSTORE PUSH1 0x20 DUP2 DUP5 ADD MSTORE PUSH1 0x21 PUSH1 0x24 DUP3 ADD MSTORE PUSH32 0x436F6E7363696F75736E6573732073636F72696E67206E6F7420616C6C6F7765 PUSH1 0x44 DUP3 ADD MSTORE PUSH1 0x19 PUSH1 0xFA SHL PUSH1 0x64 DUP3 ADD MSTORE PUSH1 0x84 SWAP1 REVERT JUMPDEST DUP4 CALLVALUE PUSH2 0x2E7 JUMPI PUSH0 CALLDATASIZE PUSH1 0x3 NOT ADD SLT PUSH2 0x2E7 JUMPI PUSH1 0x9 SLOAD SWAP1 MLOAD PUSH1 0x1 PUSH1 0x1 PUSH1 0xA0 SHL SUB SWAP1 SWAP2 AND DUP2 MSTORE PUSH1 0x20 SWAP1 RETURN JUMPDEST POP POP CALLVALUE PUSH2 0x2E7 JUMPI PUSH1 0x20 CALLDATASIZE PUSH1 0x3 NOT ADD SLT PUSH2 0x2E7 JUMPI CALLDATALOAD SWAP1 PUSH1 0xA DUP3 LT ISZERO PUSH2 0x2E7 JUMPI PUSH1 0x20 SWAP2 PUSH0 MSTORE PUSH1 0x8 DUP3 MSTORE DUP1 PUSH0 KECCAK256 SLOAD SWAP1 MLOAD SWAP1 DUP2 MSTORE RETURN JUMPDEST DUP4 CALLVALUE PUSH2 0x2E7 JUMPI PUSH0 CALLDATASIZE PUSH1 0x3 NOT ADD SLT PUSH2 0x2E7 JUMPI PUSH1 0x20 SWAP1 PUSH1 0xA SLOAD SWAP1 MLOAD SWAP1 DUP2 MSTORE RETURN JUMPDEST DUP4 CALLVALUE PUSH2 0x2E7 JUMPI PUSH1 0x20 CALLDATASIZE PUSH1 0x3 NOT ADD SLT PUSH2 0x2E7 JUMPI PUSH1 0x20 SWAP1 PUSH1 0x1 PUSH1 0x1 PUSH1 0xA0 SHL SUB PUSH2 0x948 PUSH2 0x1CC5 JUMP JUMPDEST AND PUSH0 MSTORE PUSH1 0x7 DUP3 MSTORE DUP1 PUSH0 KECCAK256 SLOAD SWAP1 MLOAD SWAP1 DUP2 MSTORE RETURN JUMPDEST DUP4 CALLVALUE PUSH2 0x2E7 JUMPI PUSH0 CALLDATASIZE PUSH1 0x3 NOT ADD SLT PUSH2 0x2E7 JUMPI PUSH1 0x20 SWAP1 MLOAD PUSH0 DUP2 MSTORE RETURN JUMPDEST SWAP1 POP CALLVALUE PUSH2 0x2E7 JUMPI DUP3 PUSH1 0x3 NOT CALLDATASIZE ADD SLT PUSH2 0x2E7 JUMPI PUSH2 0x98E PUSH2 0x1CC5 JUMP JUMPDEST PUSH1 0x24 CALLDATALOAD PUSH1 0xA DUP2 LT ISZERO PUSH2 0x2E7 JUMPI PUSH1 0x1 DUP1 PUSH1 0xA0 SHL SUB SWAP2 PUSH2 0x9C8 DUP3 DUP5 DUP4 AND SWAP3 DUP4 PUSH0 MSTORE PUSH1 0x3 PUSH1 0x20 MSTORE PUSH2 0x9C2 DUP7 DUP11 PUSH0 KECCAK256 SLOAD AND ISZERO ISZERO PUSH2 0x1EE7 JUMP JUMPDEST CALLER PUSH2 0x23BB JUMP JUMPDEST ISZERO PUSH2 0xA5F JUMPI PUSH1 0x5 SWAP3 PUSH2 0x9ED PUSH2 0xA5B SWAP6 SWAP4 PUSH1 0xFF SWAP4 PUSH0 MSTORE PUSH1 0x3 PUSH1 0x20 MSTORE PUSH1 0x8 DUP10 PUSH0 KECCAK256 ADD PUSH2 0x1ED1 JUMP JUMPDEST SWAP1 DUP2 SLOAD PUSH1 0x8 SHR AND SWAP6 PUSH1 0x1 DUP3 ADD SLOAD SWAP8 PUSH1 0x2 DUP4 ADD SLOAD SWAP1 PUSH2 0xA24 PUSH1 0x3 DUP6 ADD SLOAD SWAP4 DUP6 ADD SLOAD SWAP5 PUSH2 0xA1D DUP4 MLOAD DUP1 SWAP11 DUP2 SWAP4 ADD PUSH2 0x1E40 JUMP JUMPDEST SUB DUP9 PUSH2 0x1CF1 JUMP JUMPDEST DUP1 MLOAD SWAP10 DUP11 SWAP10 DUP11 MSTORE PUSH1 0x20 DUP11 ADD MSTORE DUP9 ADD MSTORE PUSH1 0x60 DUP8 ADD MSTORE DUP2 DUP2 AND ISZERO ISZERO PUSH1 0x80 DUP8 ADD MSTORE PUSH1 0x8 SHR AND ISZERO ISZERO PUSH1 0xA0 DUP6 ADD MSTORE DUP1 PUSH1 0xC0 DUP6 ADD MSTORE DUP4 ADD SWAP1 PUSH2 0x1DCA JUMP JUMPDEST SUB SWAP1 RETURN JUMPDEST DUP6 MLOAD PUSH3 0x461BCD PUSH1 0xE5 SHL DUP2 MSTORE PUSH1 0x20 DUP2 DUP8 ADD MSTORE PUSH1 0xD PUSH1 0x24 DUP3 ADD MSTORE PUSH13 0x1058D8D95CDCC819195B9A5959 PUSH1 0x9A SHL PUSH1 0x44 DUP3 ADD MSTORE PUSH1 0x64 SWAP1 REVERT JUMPDEST SWAP2 SWAP1 POP CALLVALUE PUSH2 0x2E7 JUMPI PUSH1 0x20 CALLDATASIZE PUSH1 0x3 NOT ADD SLT PUSH2 0x2E7 JUMPI DUP1 PUSH2 0xA5B SWAP2 CALLDATALOAD PUSH0 MSTORE PUSH1 0x5 PUSH1 0x20 MSTORE PUSH1 0x5 DUP5 PUSH0 KECCAK256 PUSH2 0xB3A PUSH1 0x1 DUP1 PUSH1 0xA0 SHL SUB SWAP7 DUP8 DUP4 SLOAD AND SWAP7 PUSH2 0xB2C PUSH1 0x1 DUP6 ADD SLOAD PUSH1 0xFF DUP5 MLOAD SWAP5 PUSH2 0xAED DUP7 PUSH2 0xAE6 DUP2 PUSH1 0x2 DUP13 ADD PUSH2 0x1E40 JUMP JUMPDEST SUB DUP8 PUSH2 0x1CF1 JUMP JUMPDEST PUSH2 0xB12 DUP3 PUSH1 0x3 DUP11 ADD SLOAD SWAP12 DUP11 ADD SLOAD AND SWAP9 PUSH2 0xB0B DUP4 MLOAD DUP1 SWAP13 DUP2 SWAP4 ADD PUSH2 0x1E40 JUMP JUMPDEST SUB DUP11 PUSH2 0x1CF1 JUMP JUMPDEST DUP1 MLOAD SWAP13 DUP14 SWAP13 DUP14 MSTORE DUP4 AND PUSH1 0x20 DUP14 ADD MSTORE DUP12 ADD SWAP2 PUSH1 0xA0 SHR AND PUSH2 0x1DA9 JUMP JUMPDEST DUP1 PUSH1 0x60 DUP10 ADD MSTORE DUP8 ADD SWAP1 PUSH2 0x1DCA JUMP JUMPDEST SWAP3 PUSH1 0x80 DUP7 ADD MSTORE ISZERO ISZERO PUSH1 0xA0 DUP6 ADD MSTORE DUP4 DUP3 SUB PUSH1 0xC0 DUP6 ADD MSTORE PUSH2 0x1DCA JUMP JUMPDEST DUP4 CALLVALUE PUSH2 0x2E7 JUMPI PUSH1 0x20 CALLDATASIZE PUSH1 0x3 NOT ADD SLT PUSH2 0x2E7 JUMPI PUSH1 0x20 SWAP1 PUSH1 0x1 PUSH1 0x1 PUSH1 0xA0 SHL SUB PUSH2 0xB79 PUSH2 0x1CC5 JUMP JUMPDEST AND PUSH0 MSTORE PUSH1 0x6 DUP3 MSTORE PUSH1 0xFF DUP2 PUSH0 KECCAK256 SLOAD AND SWAP1 MLOAD SWAP1 ISZERO ISZERO DUP2 MSTORE RETURN JUMPDEST DUP3 DUP5 CALLVALUE PUSH2 0x2E7 JUMPI DUP1 PUSH1 0x3 NOT CALLDATASIZE ADD SLT PUSH2 0x2E7 JUMPI PUSH1 0x20 SWAP2 PUSH2 0xBAD PUSH2 0x1CDB JUMP JUMPDEST SWAP1 CALLDATALOAD PUSH0 MSTORE PUSH0 DUP4 MSTORE DUP2 PUSH0 KECCAK256 SWAP1 PUSH1 0x1 DUP1 PUSH1 0xA0 SHL SUB AND PUSH0 MSTORE DUP3 MSTORE PUSH1 0xFF DUP2 PUSH0 KECCAK256 SLOAD AND SWAP1 MLOAD SWAP1 ISZERO ISZERO DUP2 MSTORE RETURN JUMPDEST DUP4 CALLVALUE PUSH2 0x2E7 JUMPI DUP1 PUSH1 0x3 NOT CALLDATASIZE ADD SLT PUSH2 0x2E7 JUMPI PUSH2 0xC25 SWAP1 PUSH2 0xBF1 PUSH2 0x1CC5 JUMP JUMPDEST SWAP1 PUSH2 0xBFA PUSH2 0x1D9A JUMP JUMPDEST SWAP2 PUSH2 0xC03 PUSH2 0x2102 JUMP JUMPDEST PUSH1 0x1 DUP1 PUSH1 0xA0 SHL SUB AND PUSH0 MSTORE PUSH1 0x6 PUSH1 0x20 MSTORE PUSH0 KECCAK256 SWAP1 PUSH1 0xFF DUP1 NOT DUP4 SLOAD AND SWAP2 ISZERO ISZERO AND OR SWAP1 SSTORE JUMP JUMPDEST STOP JUMPDEST DUP4 CALLVALUE PUSH2 0x2E7 JUMPI PUSH0 CALLDATASIZE PUSH1 0x3 NOT ADD SLT PUSH2 0x2E7 JUMPI PUSH1 0x20 PUSH32 0x62E78CEA01BEE320CD4E420270B5EA74000D11B0C9F74754EBDBFC544B05A258 SWAP2 PUSH2 0xC64 PUSH2 0x2102 JUMP JUMPDEST PUSH2 0xC6C PUSH2 0x2483 JUMP JUMPDEST PUSH1 0x1 PUSH1 0xFF NOT PUSH1 0x2 SLOAD AND OR PUSH1 0x2 SSTORE MLOAD CALLER DUP2 MSTORE LOG1 STOP JUMPDEST DUP4 CALLVALUE PUSH2 0x2E7 JUMPI PUSH0 CALLDATASIZE PUSH1 0x3 NOT ADD SLT PUSH2 0x2E7 JUMPI PUSH1 0x20 SWAP1 PUSH1 0xB SLOAD SWAP1 MLOAD SWAP1 DUP2 MSTORE RETURN JUMPDEST DUP4 CALLVALUE PUSH2 0x2E7 JUMPI PUSH1 0x20 CALLDATASIZE PUSH1 0x3 NOT ADD SLT PUSH2 0x2E7 JUMPI PUSH1 0x20 SWAP1 PUSH1 0x1 PUSH1 0x1 PUSH1 0xA0 SHL SUB PUSH2 0xCC3 PUSH2 0x1CC5 JUMP JUMPDEST AND PUSH0 MSTORE PUSH1 0xE DUP3 MSTORE DUP1 PUSH0 KECCAK256 SLOAD SWAP1 MLOAD SWAP1 DUP2 MSTORE RETURN JUMPDEST DUP3 DUP5 CALLVALUE PUSH2 0x2E7 JUMPI PUSH1 0x80 CALLDATASIZE PUSH1 0x3 NOT ADD SLT PUSH2 0x2E7 JUMPI PUSH2 0xCF0 PUSH2 0x1CC5 JUMP JUMPDEST SWAP1 PUSH1 0x24 SWAP1 DUP2 CALLDATALOAD PUSH1 0x6 DUP2 LT ISZERO PUSH2 0x2E7 JUMPI PUSH8 0xFFFFFFFFFFFFFFFF SWAP3 PUSH1 0x44 CALLDATALOAD DUP5 DUP2 GT PUSH2 0x2E7 JUMPI PUSH2 0xD20 SWAP1 CALLDATASIZE SWAP1 DUP9 ADD PUSH2 0x1D6D JUMP JUMPDEST SWAP6 PUSH1 0x64 CALLDATALOAD DUP6 DUP2 GT PUSH2 0x2E7 JUMPI CALLDATASIZE PUSH1 0x23 DUP3 ADD SLT ISZERO PUSH2 0x2E7 JUMPI PUSH2 0xD48 SWAP1 CALLDATASIZE SWAP1 DUP5 DUP2 DUP6 ADD CALLDATALOAD SWAP2 ADD PUSH2 0x1D27 JUMP JUMPDEST PUSH2 0xD50 PUSH2 0x20A7 JUMP JUMPDEST PUSH1 0x1 DUP1 PUSH1 0xA0 SHL SUB SWAP8 DUP9 DUP9 AND SWAP8 DUP9 PUSH0 MSTORE PUSH1 0x20 SWAP10 PUSH1 0x3 DUP12 MSTORE DUP8 PUSH0 KECCAK256 SLOAD AND ISZERO PUSH2 0x1027 JUMPI DUP7 MLOAD DUP11 DUP2 ADD SWAP2 PUSH1 0x1 PUSH1 0x1 PUSH1 0x60 SHL SUB NOT SWAP1 PUSH1 0x60 SHL AND DUP3 MSTORE CALLER PUSH1 0x60 SHL PUSH1 0x34 DUP3 ADD MSTORE PUSH2 0xD9C PUSH1 0x48 DUP3 ADD DUP9 PUSH2 0x1FFA JUMP JUMPDEST TIMESTAMP PUSH1 0x49 DUP3 ADD MSTORE PUSH1 0x49 DUP2 MSTORE PUSH1 0x80 DUP2 ADD DUP2 DUP2 LT DUP11 DUP3 GT OR PUSH2 0x1015 JUMPI DUP9 MSTORE MLOAD SWAP1 KECCAK256 SWAP7 DUP8 PUSH0 MSTORE PUSH1 0x5 DUP11 MSTORE DUP7 PUSH0 KECCAK256 PUSH1 0x1 PUSH1 0x1 PUSH1 0x60 SHL SUB PUSH1 0xA0 SHL SWAP3 DUP11 DUP5 DUP4 SLOAD AND OR DUP3 SSTORE PUSH2 0xDF1 DUP9 PUSH1 0x1 SWAP6 DUP7 DUP6 ADD SWAP1 CALLER SWAP1 DUP3 SLOAD AND OR DUP2 SSTORE PUSH2 0x200A JUMP JUMPDEST DUP1 MLOAD PUSH1 0x2 DUP4 ADD SWAP2 DUP5 DUP3 GT PUSH2 0x1003 JUMPI DUP14 SWAP1 PUSH2 0xE15 DUP4 PUSH2 0xE0F DUP7 SLOAD PUSH2 0x1E08 JUMP JUMPDEST DUP7 PUSH2 0x1F98 JUMP JUMPDEST DUP2 PUSH1 0x1F DUP5 GT PUSH1 0x1 EQ PUSH2 0xF9B JUMPI POP SWAP2 DUP1 PUSH2 0xE47 SWAP3 PUSH1 0x5 SWAP7 SWAP6 SWAP5 PUSH0 SWAP3 PUSH2 0xF90 JUMPI POP POP DUP2 PUSH1 0x1 SHL SWAP2 PUSH0 NOT SWAP1 PUSH1 0x3 SHL SHR NOT AND OR SWAP1 JUMP JUMPDEST SWAP1 SSTORE JUMPDEST TIMESTAMP PUSH1 0x3 DUP3 ADD SSTORE DUP6 DUP2 ADD DUP5 PUSH1 0xFF NOT DUP3 SLOAD AND OR SWAP1 SSTORE ADD SWAP3 DUP1 MLOAD SWAP2 DUP3 GT PUSH2 0xF7E JUMPI PUSH2 0xE76 DUP3 PUSH2 0xE0F DUP7 SLOAD PUSH2 0x1E08 JUMP JUMPDEST DUP11 SWAP3 PUSH1 0x1F DUP4 GT PUSH1 0x1 EQ PUSH2 0xF1B JUMPI POP PUSH2 0xEA3 SWAP3 PUSH0 SWAP2 DUP4 PUSH2 0xF10 JUMPI POP POP DUP2 PUSH1 0x1 SHL SWAP2 PUSH0 NOT SWAP1 PUSH1 0x3 SHL SHR NOT AND OR SWAP1 JUMP JUMPDEST SWAP1 SSTORE JUMPDEST PUSH1 0x64 DUP4 MUL SWAP3 DUP1 DUP5 DIV PUSH1 0x64 EQ SWAP1 ISZERO OR ISZERO PUSH2 0xEFF JUMPI POP POP DUP4 PUSH0 MSTORE PUSH1 0x7 DUP6 MSTORE PUSH2 0xED0 DUP3 PUSH0 KECCAK256 SWAP2 DUP3 SLOAD PUSH2 0x1F77 JUMP JUMPDEST SWAP1 SSTORE MLOAD SWAP2 CALLER SWAP1 DUP3 PUSH32 0x63F86F3E95D67D75FED996A7DB68F9E7EABF0600ABBD54FCCABF34EC3B5FA4A7 PUSH0 DUP1 LOG4 DUP2 MSTORE RETURN JUMPDEST PUSH1 0x11 SWAP1 PUSH4 0x4E487B71 PUSH1 0xE0 SHL PUSH0 MSTORE MSTORE PUSH0 REVERT JUMPDEST ADD MLOAD SWAP1 POP DUP12 DUP1 PUSH2 0x4C2 JUMP JUMPDEST SWAP3 DUP12 SWAP2 DUP4 PUSH1 0x1F NOT DUP2 AND DUP8 PUSH0 MSTORE DUP5 PUSH0 KECCAK256 SWAP5 PUSH0 SWAP1 JUMPDEST DUP9 DUP4 DUP4 LT PUSH2 0xF64 JUMPI POP POP POP LT PUSH2 0xF4C JUMPI JUMPDEST POP POP POP DUP2 SHL ADD SWAP1 SSTORE PUSH2 0xEA6 JUMP JUMPDEST ADD MLOAD PUSH0 NOT PUSH1 0xF8 DUP5 PUSH1 0x3 SHL AND SHR NOT AND SWAP1 SSTORE DUP11 DUP1 DUP1 PUSH2 0xF3F JUMP JUMPDEST DUP6 DUP8 ADD MLOAD DUP9 SSTORE SWAP1 SWAP7 ADD SWAP6 SWAP5 DUP6 ADD SWAP5 DUP8 SWAP4 POP SWAP1 DUP2 ADD SWAP1 PUSH2 0xF2E JUMP JUMPDEST DUP6 PUSH1 0x41 DUP7 PUSH4 0x4E487B71 PUSH1 0xE0 SHL PUSH0 MSTORE MSTORE PUSH0 REVERT JUMPDEST ADD MLOAD SWAP1 POP PUSH0 DUP1 PUSH2 0x4C2 JUMP JUMPDEST DUP8 SWAP3 PUSH1 0x1F SWAP7 SWAP6 SWAP5 SWAP3 SWAP7 NOT DUP4 AND DUP6 PUSH0 MSTORE DUP3 PUSH0 KECCAK256 SWAP3 PUSH0 SWAP1 JUMPDEST DUP3 DUP3 LT PUSH2 0xFEA JUMPI POP POP SWAP7 DUP4 PUSH1 0x5 SWAP9 LT PUSH2 0xFD2 JUMPI JUMPDEST POP POP POP DUP2 SHL ADD SWAP1 SSTORE PUSH2 0xE4A JUMP JUMPDEST ADD MLOAD PUSH0 NOT PUSH1 0xF8 DUP5 PUSH1 0x3 SHL AND SHR NOT AND SWAP1 SSTORE DUP16 DUP1 DUP1 PUSH2 0xFC5 JUMP JUMPDEST DUP4 DUP11 ADD MLOAD DUP6 SSTORE DUP12 SWAP7 SWAP1 SWAP5 ADD SWAP4 SWAP3 DUP4 ADD SWAP3 SWAP1 DUP2 ADD SWAP1 PUSH2 0xFB1 JUMP JUMPDEST DUP9 PUSH1 0x41 DUP10 PUSH4 0x4E487B71 PUSH1 0xE0 SHL PUSH0 MSTORE MSTORE PUSH0 REVERT JUMPDEST DUP7 PUSH1 0x41 DUP8 PUSH4 0x4E487B71 PUSH1 0xE0 SHL PUSH0 MSTORE MSTORE PUSH0 REVERT JUMPDEST DUP7 MLOAD PUSH3 0x461BCD PUSH1 0xE5 SHL DUP2 MSTORE DUP1 DUP6 ADD DUP12 SWAP1 MSTORE PUSH1 0x1F DUP2 DUP8 ADD MSTORE PUSH32 0x5375626A656374206964656E7469747920646F6573206E6F7420657869737400 PUSH1 0x44 DUP3 ADD MSTORE PUSH1 0x64 SWAP1 REVERT JUMPDEST DUP4 CALLVALUE PUSH2 0x2E7 JUMPI PUSH0 CALLDATASIZE PUSH1 0x3 NOT ADD SLT PUSH2 0x2E7 JUMPI PUSH1 0x20 SWAP1 PUSH1 0xFF PUSH1 0x2 SLOAD AND SWAP1 MLOAD SWAP1 ISZERO ISZERO DUP2 MSTORE RETURN JUMPDEST POP POP CALLVALUE PUSH2 0x2E7 JUMPI DUP2 PUSH1 0x3 NOT CALLDATASIZE ADD SLT PUSH2 0x2E7 JUMPI DUP1 CALLDATALOAD SWAP2 PUSH1 0xA DUP4 LT ISZERO PUSH2 0x2E7 JUMPI PUSH2 0xC25 SWAP3 PUSH1 0x1 PUSH2 0x10E8 SWAP3 PUSH2 0x10BC PUSH2 0x1D9A JUMP JUMPDEST SWAP5 CALLER PUSH0 MSTORE PUSH1 0x3 PUSH1 0x20 MSTORE PUSH2 0x10DA DUP4 DUP1 PUSH1 0xA0 SHL SUB DUP4 PUSH0 KECCAK256 SLOAD AND ISZERO ISZERO PUSH2 0x1EE7 JUMP JUMPDEST CALLER PUSH0 MSTORE PUSH1 0x20 MSTORE PUSH0 KECCAK256 ADD PUSH2 0x1ED1 JUMP JUMPDEST SWAP1 PUSH1 0xFF DUP1 NOT DUP4 SLOAD AND SWAP2 ISZERO ISZERO AND OR SWAP1 SSTORE JUMP JUMPDEST DUP4 CALLVALUE PUSH2 0x2E7 JUMPI PUSH0 CALLDATASIZE PUSH1 0x3 NOT ADD SLT PUSH2 0x2E7 JUMPI PUSH1 0x20 SWAP1 PUSH1 0xC SLOAD SWAP1 MLOAD SWAP1 DUP2 MSTORE RETURN JUMPDEST DUP4 CALLVALUE PUSH2 0x2E7 JUMPI PUSH1 0x60 CALLDATASIZE PUSH1 0x3 NOT ADD SLT PUSH2 0x2E7 JUMPI PUSH2 0x1131 PUSH2 0x1CC5 JUMP JUMPDEST SWAP1 PUSH2 0x113A PUSH2 0x1CDB JUMP JUMPDEST SWAP2 PUSH1 0x44 CALLDATALOAD PUSH1 0xA DUP2 LT ISZERO PUSH2 0x2E7 JUMPI PUSH1 0x20 SWAP4 PUSH2 0x1153 SWAP3 PUSH2 0x23BB JUMP JUMPDEST SWAP1 MLOAD SWAP1 ISZERO ISZERO DUP2 MSTORE RETURN JUMPDEST DUP3 DUP5 CALLVALUE PUSH2 0x2E7 JUMPI PUSH0 CALLDATASIZE PUSH1 0x3 NOT ADD SLT PUSH2 0x2E7 JUMPI PUSH2 0x1176 PUSH2 0x2102 JUMP JUMPDEST PUSH1 0x2 SLOAD SWAP2 PUSH1 0xFF DUP4 AND ISZERO PUSH2 0x11B6 JUMPI PUSH32 0x5DB9EE0A495BF2E6FF9C91A7834C1BA4FDD244A5E8AA4E537BD38AEAE4B073AA PUSH1 0x20 DUP4 DUP6 PUSH1 0xFF NOT AND PUSH1 0x2 SSTORE MLOAD CALLER DUP2 MSTORE LOG1 STOP JUMPDEST SWAP1 MLOAD PUSH4 0x8DFC202B PUSH1 0xE0 SHL DUP2 MSTORE REVERT JUMPDEST DUP4 CALLVALUE PUSH2 0x2E7 JUMPI PUSH0 CALLDATASIZE PUSH1 0x3 NOT ADD SLT PUSH2 0x2E7 JUMPI PUSH1 0x20 SWAP1 MLOAD PUSH32 0x7A5AE009D6A61115AC0993F8E8E8D8BA374961395165C1B6F1F9CEFA70D85159 DUP2 MSTORE RETURN JUMPDEST DUP4 CALLVALUE PUSH2 0x2E7 JUMPI PUSH0 CALLDATASIZE PUSH1 0x3 NOT ADD SLT PUSH2 0x2E7 JUMPI PUSH1 0x20 SWAP1 MLOAD PUSH32 0x4BE6E8A751D29C6C2ADB2514581F716B9D8FA441A0D0A8FCD9EEB4024B50F56E DUP2 MSTORE RETURN JUMPDEST DUP3 DUP5 CALLVALUE PUSH2 0x2E7 JUMPI DUP1 PUSH1 0x3 NOT CALLDATASIZE ADD SLT PUSH2 0x2E7 JUMPI PUSH2 0x1252 PUSH2 0x1CDB JUMP JUMPDEST SWAP1 CALLER PUSH1 0x1 PUSH1 0x1 PUSH1 0xA0 SHL SUB DUP4 AND SUB PUSH2 0x126E JUMPI POP PUSH2 0xC25 SWAP2 CALLDATALOAD PUSH2 0x2349 JUMP JUMPDEST MLOAD PUSH4 0x334BD919 PUSH1 0xE1 SHL DUP2 MSTORE SWAP1 POP REVERT JUMPDEST POP POP CALLVALUE PUSH2 0x2E7 JUMPI PUSH1 0x60 CALLDATASIZE PUSH1 0x3 NOT ADD SLT PUSH2 0x2E7 JUMPI PUSH2 0x1298 PUSH2 0x1CC5 JUMP JUMPDEST SWAP2 PUSH1 0x24 SWAP3 PUSH1 0x24 CALLDATALOAD SWAP4 PUSH1 0xA SWAP1 PUSH1 0xA DUP7 LT ISZERO PUSH2 0x2E7 JUMPI PUSH1 0x44 CALLDATALOAD PUSH8 0xFFFFFFFFFFFFFFFF DUP2 GT PUSH2 0x2E7 JUMPI PUSH2 0x12CB SWAP1 CALLDATASIZE SWAP1 DUP8 ADD PUSH2 0x1D6D JUMP JUMPDEST POP PUSH2 0x12D4 PUSH2 0x20A7 JUMP JUMPDEST PUSH1 0x1 DUP1 PUSH1 0xA0 SHL SUB SWAP5 DUP6 DUP5 AND SWAP6 DUP7 PUSH0 MSTORE PUSH1 0x3 SWAP2 PUSH2 0x12FB PUSH1 0x20 SWAP3 DUP5 DUP5 MSTORE DUP9 PUSH0 KECCAK256 SLOAD AND ISZERO ISZERO PUSH2 0x1EE7 JUMP JUMPDEST DUP8 PUSH0 MSTORE DUP3 DUP3 MSTORE PUSH1 0x8 SWAP4 PUSH2 0x1313 DUP11 PUSH1 0x8 DUP11 PUSH0 KECCAK256 ADD PUSH2 0x1ED1 JUMP JUMPDEST SWAP6 DUP3 DUP8 ADD SWAP2 DUP3 SLOAD SWAP3 PUSH1 0xFF SWAP9 PUSH1 0xFF DUP6 PUSH1 0x8 SHR AND ISZERO PUSH2 0x14B7 JUMPI DUP8 ADD SLOAD TIMESTAMP GT PUSH2 0x147F JUMPI PUSH1 0x1 DUP1 SWAP5 PUSH1 0xFF NOT AND OR SWAP1 SSTORE PUSH0 SWAP8 PUSH0 SWAP8 PUSH0 JUMPDEST DUP14 DUP14 DUP7 DUP4 LT PUSH2 0x13FA JUMPI POP POP POP POP POP POP POP POP DUP4 ISZERO DUP1 ISZERO PUSH2 0x139D JUMPI JUMPDEST DUP10 DUP10 PUSH32 0x117F010FFE680C783FA27415A60C79527786EE73E64C5879702ECE9E2936D86C DUP11 PUSH2 0x138B DUP12 PUSH2 0x21F5 JUMP JUMPDEST MLOAD DUP1 PUSH2 0x1398 CALLER SWAP6 DUP3 PUSH2 0x1FE7 JUMP JUMPDEST SUB SWAP1 LOG3 STOP JUMPDEST PUSH2 0x13E7 JUMPI POP PUSH0 DUP8 DUP2 MSTORE SWAP2 SWAP1 MSTORE DUP5 SWAP1 KECCAK256 SWAP2 DIV PUSH1 0x1 DUP3 ADD SSTORE TIMESTAMP PUSH1 0x2 SWAP1 SWAP2 ADD SSTORE PUSH2 0x138B PUSH32 0x117F010FFE680C783FA27415A60C79527786EE73E64C5879702ECE9E2936D86C DUP7 DUP1 DUP1 DUP1 PUSH2 0x135E JUMP JUMPDEST PUSH1 0x12 SWAP1 PUSH4 0x4E487B71 PUSH1 0xE0 SHL PUSH0 MSTORE MSTORE PUSH1 0x24 PUSH0 REVERT JUMPDEST DUP4 DUP4 SWAP2 PUSH2 0x140E SWAP4 PUSH0 MSTORE DUP13 DUP13 MSTORE PUSH0 KECCAK256 ADD PUSH2 0x1ED1 JUMP JUMPDEST DUP8 DUP2 ADD SLOAD DUP5 DUP1 DUP3 AND SWAP2 DUP3 PUSH2 0x1473 JUMPI JUMPDEST POP POP DUP1 PUSH2 0x1466 JUMPI JUMPDEST PUSH2 0x1432 JUMPI JUMPDEST POP DUP6 ADD PUSH2 0x1344 JUMP JUMPDEST SWAP11 DUP7 PUSH2 0x1442 SWAP3 SWAP12 SWAP13 ADD SLOAD SWAP1 PUSH2 0x1F77 JUMP JUMPDEST SWAP10 PUSH0 NOT DUP2 EQ PUSH2 0x1454 JUMPI DUP6 ADD SWAP9 DUP6 PUSH2 0x142A JUMP JUMPDEST DUP4 PUSH1 0x11 DUP9 PUSH4 0x4E487B71 PUSH1 0xE0 SHL PUSH0 MSTORE MSTORE PUSH0 REVERT JUMPDEST POP DUP10 DUP2 ADD SLOAD TIMESTAMP GT ISZERO PUSH2 0x1425 JUMP JUMPDEST DUP6 SHR AND SWAP1 POP DUP5 PUSH0 PUSH2 0x141D JUMP JUMPDEST DUP11 MLOAD PUSH3 0x461BCD PUSH1 0xE5 SHL DUP2 MSTORE DUP1 DUP7 ADD DUP8 SWAP1 MSTORE PUSH1 0x12 PUSH1 0x24 DUP3 ADD MSTORE PUSH18 0x10DC9959195B9D1A585B08195E1C1A5C9959 PUSH1 0x72 SHL PUSH1 0x44 DUP3 ADD MSTORE PUSH1 0x64 SWAP1 REVERT JUMPDEST DUP12 MLOAD PUSH3 0x461BCD PUSH1 0xE5 SHL DUP2 MSTORE DUP1 DUP8 ADD DUP9 SWAP1 MSTORE PUSH1 0x15 PUSH1 0x24 DUP3 ADD MSTORE PUSH21 0x43726564656E7469616C206E6F7420616374697665 PUSH1 0x58 SHL PUSH1 0x44 DUP3 ADD MSTORE PUSH1 0x64 SWAP1 REVERT JUMPDEST DUP4 SWAP1 CALLVALUE PUSH2 0x2E7 JUMPI PUSH1 0x20 CALLDATASIZE PUSH1 0x3 NOT ADD SLT PUSH2 0x2E7 JUMPI PUSH1 0xFF SWAP2 PUSH1 0x1 PUSH1 0x1 PUSH1 0xA0 SHL SUB SWAP2 DUP3 PUSH2 0x151A PUSH2 0x1CC5 JUMP JUMPDEST AND PUSH0 MSTORE PUSH1 0x3 PUSH1 0x20 MSTORE DUP2 PUSH0 KECCAK256 SWAP1 PUSH2 0x1535 DUP3 SLOAD SWAP5 DUP6 AND ISZERO ISZERO PUSH2 0x1EE7 JUMP JUMPDEST PUSH2 0x159A PUSH1 0x3 PUSH1 0x1 DUP5 ADD SLOAD SWAP3 PUSH1 0x2 DUP6 ADD SLOAD DUP9 PUSH1 0x5 DUP8 ADD SLOAD AND SWAP7 PUSH1 0x6 DUP8 ADD SLOAD SWAP6 PUSH2 0x1572 PUSH1 0x7 DUP10 ADD SLOAD SWAP9 PUSH2 0x156B DUP5 MLOAD DUP1 SWAP9 DUP2 SWAP4 ADD PUSH2 0x1E40 JUMP JUMPDEST SUB DUP7 PUSH2 0x1CF1 JUMP JUMPDEST PUSH2 0x1584 DUP3 MLOAD DUP1 SWAP13 DUP2 SWAP13 PUSH1 0xA0 SHR AND PUSH2 0x1DA9 JUMP JUMPDEST PUSH1 0x20 DUP11 ADD MSTORE DUP9 ADD MSTORE DUP1 PUSH1 0x60 DUP9 ADD MSTORE DUP7 ADD SWAP1 PUSH2 0x1DCA JUMP JUMPDEST SWAP3 ISZERO ISZERO PUSH1 0x80 DUP6 ADD MSTORE PUSH1 0xA0 DUP5 ADD MSTORE PUSH1 0xC0 DUP4 ADD MSTORE SUB SWAP1 RETURN JUMPDEST DUP4 CALLVALUE PUSH2 0x2E7 JUMPI PUSH0 CALLDATASIZE PUSH1 0x3 NOT ADD SLT PUSH2 0x2E7 JUMPI PUSH1 0x20 SWAP1 MLOAD PUSH2 0x3E8 DUP2 MSTORE RETURN JUMPDEST DUP3 DUP5 CALLVALUE PUSH2 0x2E7 JUMPI DUP1 PUSH1 0x3 NOT CALLDATASIZE ADD SLT PUSH2 0x2E7 JUMPI PUSH2 0xC25 SWAP2 CALLDATALOAD PUSH2 0x1601 PUSH1 0x1 PUSH2 0x15F0 PUSH2 0x1CDB JUMP JUMPDEST SWAP4 DUP4 PUSH0 MSTORE PUSH0 PUSH1 0x20 MSTORE PUSH0 KECCAK256 ADD SLOAD PUSH2 0x2158 JUMP JUMPDEST PUSH2 0x2179 JUMP JUMPDEST DUP3 DUP5 CALLVALUE PUSH2 0x2E7 JUMPI PUSH1 0x20 CALLDATASIZE PUSH1 0x3 NOT ADD SLT PUSH2 0x2E7 JUMPI PUSH1 0x20 SWAP2 CALLDATALOAD PUSH0 MSTORE PUSH0 DUP3 MSTORE PUSH1 0x1 DUP2 PUSH0 KECCAK256 ADD SLOAD SWAP1 MLOAD SWAP1 DUP2 MSTORE RETURN JUMPDEST POP POP CALLVALUE PUSH2 0x2E7 JUMPI PUSH1 0x60 CALLDATASIZE PUSH1 0x3 NOT ADD SLT PUSH2 0x2E7 JUMPI PUSH2 0x164B PUSH2 0x1CC5 JUMP JUMPDEST SWAP2 PUSH1 0x24 CALLDATALOAD SWAP2 PUSH1 0xA DUP4 LT ISZERO PUSH2 0x2E7 JUMPI PUSH2 0x1661 PUSH2 0x1D8B JUMP JUMPDEST SWAP1 CALLER PUSH0 MSTORE PUSH1 0x3 PUSH1 0x20 MSTORE PUSH1 0x1 DUP1 PUSH1 0xA0 SHL SUB SWAP1 PUSH2 0x1682 DUP3 DUP6 PUSH0 KECCAK256 SLOAD AND ISZERO ISZERO PUSH2 0x1EE7 JUMP JUMPDEST CALLER PUSH0 MSTORE DUP1 PUSH1 0x20 MSTORE PUSH1 0xFF DUP5 PUSH0 KECCAK256 SLOAD PUSH1 0x8 SHR AND ISZERO PUSH2 0x16F2 JUMPI CALLER PUSH0 MSTORE PUSH1 0x20 MSTORE PUSH1 0x2 DUP4 PUSH0 KECCAK256 ADD SWAP5 AND SWAP4 DUP5 PUSH0 MSTORE PUSH1 0x20 MSTORE PUSH2 0x16BD DUP2 PUSH2 0x10E8 DUP6 DUP6 PUSH0 KECCAK256 PUSH2 0x1ED1 JUMP JUMPDEST PUSH2 0x16C3 JUMPI STOP JUMPDEST PUSH32 0xDD30E4A31B2957197408B815496AA92181CA0BC750281621EB2704CC0785D7DB SWAP1 MLOAD DUP1 PUSH2 0x1398 CALLER SWAP5 DUP3 PUSH2 0x1FE7 JUMP JUMPDEST PUSH1 0x64 SWAP1 PUSH1 0x20 DUP6 MLOAD SWAP2 PUSH3 0x461BCD PUSH1 0xE5 SHL DUP4 MSTORE DUP3 ADD MSTORE PUSH1 0x1B PUSH1 0x24 DUP3 ADD MSTORE PUSH32 0x43726564656E7469616C2073686172696E672064697361626C65640000000000 PUSH1 0x44 DUP3 ADD MSTORE REVERT JUMPDEST DUP3 DUP5 CALLVALUE PUSH2 0x2E7 JUMPI PUSH1 0x20 CALLDATASIZE PUSH1 0x3 NOT ADD SLT PUSH2 0x2E7 JUMPI PUSH1 0x80 SWAP2 PUSH1 0x1 PUSH1 0x1 PUSH1 0xA0 SHL SUB PUSH2 0x175B PUSH2 0x1CC5 JUMP JUMPDEST AND PUSH0 MSTORE PUSH1 0x20 MSTORE PUSH1 0xFF DUP2 PUSH0 KECCAK256 SLOAD DUP3 MLOAD SWAP3 DUP3 DUP3 AND ISZERO ISZERO DUP5 MSTORE DUP3 DUP3 PUSH1 0x8 SHR AND ISZERO ISZERO PUSH1 0x20 DUP6 ADD MSTORE DUP3 DUP3 PUSH1 0x10 SHR AND ISZERO ISZERO SWAP1 DUP5 ADD MSTORE PUSH1 0x18 SHR AND ISZERO ISZERO PUSH1 0x60 DUP3 ADD MSTORE RETURN JUMPDEST POP POP CALLVALUE PUSH2 0x2E7 JUMPI PUSH1 0x20 SWAP2 DUP3 PUSH1 0x3 NOT CALLDATASIZE ADD SLT PUSH2 0x2E7 JUMPI DUP2 CALLDATALOAD PUSH0 SWAP1 DUP2 MSTORE PUSH1 0x5 DUP5 MSTORE DUP2 SWAP1 KECCAK256 DUP1 SLOAD PUSH1 0x1 PUSH1 0x1 PUSH1 0xA0 SHL SUB SWAP4 SWAP2 SWAP1 DUP5 DUP2 AND ISZERO PUSH2 0x1A19 JUMPI PUSH1 0xFF DUP4 DUP4 ADD SLOAD AND ISZERO PUSH2 0x19D6 JUMPI PUSH1 0x3 DUP3 ADD SLOAD SWAP3 PUSH2 0x17EC PUSH1 0xC SLOAD DUP6 PUSH2 0x1F77 JUMP JUMPDEST TIMESTAMP GT PUSH2 0x199D JUMPI POP SWAP1 DUP5 SWAP2 PUSH1 0x1 SWAP4 DUP8 PUSH1 0x1 DUP5 ADD SLOAD SWAP6 PUSH1 0x2 DUP6 ADD SWAP3 DUP9 MLOAD SWAP4 DUP4 DUP6 ADD SWAP6 PUSH1 0x1 PUSH1 0x1 PUSH1 0x60 SHL SUB NOT SWAP1 PUSH1 0x60 SHL AND DUP7 MSTORE PUSH2 0x182F PUSH1 0x34 DUP7 ADD PUSH1 0xFF DUP12 PUSH1 0xA0 SHR AND PUSH2 0x1FFA JUMP JUMPDEST PUSH1 0x35 PUSH0 SWAP4 DUP3 SLOAD SWAP3 PUSH2 0x183F DUP5 PUSH2 0x1E08 JUMP JUMPDEST SWAP4 PUSH1 0x1 DUP2 AND SWAP1 DUP2 ISZERO PUSH2 0x196F JUMPI POP PUSH1 0x1 EQ PUSH2 0x1922 JUMPI JUMPDEST POP POP POP POP SWAP3 PUSH2 0x1878 PUSH2 0x18CD SWAP9 SWAP7 SWAP4 DUP3 DUP5 PUSH1 0x5 SWAP8 PUSH2 0x18C4 SWAP10 SWAP7 MSTORE SUB DUP1 DUP5 MSTORE ADD DUP3 PUSH2 0x1CF1 JUMP JUMPDEST MLOAD SWAP1 KECCAK256 PUSH32 0x19457468657265756D205369676E6564204D6573736167653A0A333200000000 PUSH0 MSTORE PUSH1 0x1C MSTORE PUSH2 0x18BF PUSH1 0x3C PUSH0 KECCAK256 SWAP2 PUSH2 0x18B8 DUP10 MLOAD DUP1 SWAP6 DUP2 SWAP4 ADD PUSH2 0x1E40 JUMP JUMPDEST SUB DUP4 PUSH2 0x1CF1 JUMP JUMPDEST PUSH2 0x24A1 JUMP JUMPDEST SWAP1 SWAP5 SWAP2 SWAP5 PUSH2 0x24DB JUMP JUMPDEST AND SWAP3 DUP4 SWAP2 AND EQ SWAP2 DUP3 PUSH2 0x18E3 JUMPI JUMPDEST POP MLOAD SWAP1 ISZERO ISZERO DUP2 MSTORE RETURN JUMPDEST SWAP1 SWAP2 POP PUSH32 0xCE23C3E399818CFEE81A7AB0880F714E53D7672B08DF0FA62F2843416E1EA09 PUSH0 MSTORE PUSH0 DUP4 MSTORE DUP2 PUSH0 KECCAK256 SWAP1 PUSH0 MSTORE DUP3 MSTORE PUSH1 0xFF DUP2 PUSH0 KECCAK256 SLOAD AND SWAP1 DUP4 PUSH2 0x18DA JUMP JUMPDEST PUSH0 SWAP1 DUP2 MSTORE DUP7 DUP2 KECCAK256 SWAP12 SWAP10 SWAP9 SWAP8 SWAP7 SWAP6 POP JUMPDEST DUP4 DUP2 LT PUSH2 0x1959 JUMPI POP SWAP8 SWAP10 POP SWAP6 SWAP7 POP SWAP4 SWAP5 POP SWAP2 SWAP3 SWAP1 SWAP2 SWAP1 DUP4 ADD PUSH1 0x35 ADD SWAP1 PUSH2 0x1878 DUP4 DUP6 PUSH1 0x5 PUSH2 0x1854 JUMP JUMPDEST DUP12 SLOAD DUP8 DUP3 ADD DUP5 ADD MSTORE SWAP11 DUP2 ADD SWAP11 DUP14 SWAP11 POP DUP6 ADD PUSH2 0x1931 JUMP JUMPDEST PUSH1 0xFF NOT AND PUSH1 0x35 DUP1 DUP12 ADD SWAP2 SWAP1 SWAP2 MSTORE DUP6 ISZERO ISZERO SWAP1 SWAP6 MUL DUP10 ADD SWAP1 SWAP5 ADD SWAP6 POP PUSH2 0x1878 SWAP4 POP DUP7 SWAP3 POP DUP8 SWAP2 POP PUSH1 0x5 SWAP1 POP PUSH2 0x1854 JUMP JUMPDEST DUP5 MLOAD PUSH3 0x461BCD PUSH1 0xE5 SHL DUP2 MSTORE SWAP1 DUP2 ADD DUP8 SWAP1 MSTORE PUSH1 0x13 PUSH1 0x24 DUP3 ADD MSTORE PUSH19 0x105D1D195CDD185D1A5BDB88195E1C1A5C9959 PUSH1 0x6A SHL PUSH1 0x44 DUP3 ADD MSTORE PUSH1 0x64 SWAP1 REVERT JUMPDEST DUP4 MLOAD PUSH3 0x461BCD PUSH1 0xE5 SHL DUP2 MSTORE DUP1 DUP5 ADD DUP8 SWAP1 MSTORE PUSH1 0x18 PUSH1 0x24 DUP3 ADD MSTORE PUSH32 0x4174746573746174696F6E206973206E6F742076616C69640000000000000000 PUSH1 0x44 DUP3 ADD MSTORE PUSH1 0x64 SWAP1 REVERT JUMPDEST DUP4 MLOAD PUSH3 0x461BCD PUSH1 0xE5 SHL DUP2 MSTORE DUP1 DUP5 ADD DUP8 SWAP1 MSTORE PUSH1 0x1A PUSH1 0x24 DUP3 ADD MSTORE PUSH32 0x4174746573746174696F6E20646F6573206E6F74206578697374000000000000 PUSH1 0x44 DUP3 ADD MSTORE PUSH1 0x64 SWAP1 REVERT JUMPDEST POP POP CALLVALUE PUSH2 0x2E7 JUMPI PUSH1 0xA0 CALLDATASIZE PUSH1 0x3 NOT ADD SLT PUSH2 0x2E7 JUMPI PUSH2 0x1A77 PUSH2 0x1CC5 JUMP JUMPDEST SWAP2 PUSH1 0x24 CALLDATALOAD SWAP3 PUSH1 0xA DUP5 LT ISZERO PUSH2 0x2E7 JUMPI PUSH1 0x44 CALLDATALOAD SWAP3 PUSH8 0xFFFFFFFFFFFFFFFF SWAP1 PUSH1 0x64 CALLDATALOAD DUP3 DUP2 GT PUSH2 0x2E7 JUMPI PUSH2 0x1AAA SWAP1 CALLDATASIZE SWAP1 DUP4 ADD PUSH2 0x1D6D JUMP JUMPDEST SWAP2 PUSH2 0x1AB3 PUSH2 0x202E JUMP JUMPDEST PUSH1 0x1 DUP1 PUSH1 0xA0 SHL SUB DUP1 SWAP5 AND SWAP6 DUP7 PUSH0 MSTORE PUSH2 0x1AD7 PUSH1 0x20 SWAP6 PUSH1 0x3 DUP8 MSTORE DUP8 PUSH0 KECCAK256 SLOAD AND ISZERO ISZERO PUSH2 0x1EE7 JUMP JUMPDEST PUSH2 0x1AE5 PUSH2 0x3E8 DUP3 GT ISZERO PUSH2 0x1F33 JUMP JUMPDEST DUP7 PUSH0 MSTORE PUSH1 0x3 DUP6 MSTORE PUSH2 0x1AFB DUP9 PUSH1 0x8 DUP9 PUSH0 KECCAK256 ADD PUSH2 0x1ED1 JUMP JUMPDEST DUP1 SLOAD PUSH1 0x1 PUSH1 0x1 PUSH1 0xA8 SHL SUB NOT AND PUSH1 0xFF DUP11 AND OR CALLER PUSH1 0x8 SHL PUSH2 0x100 PUSH1 0x1 PUSH1 0xA8 SHL SUB AND OR DUP2 SSTORE PUSH1 0x1 DUP1 DUP3 ADD SWAP3 SWAP1 SWAP3 SSTORE TIMESTAMP PUSH1 0x2 DUP3 ADD DUP2 SWAP1 SSTORE PUSH1 0xB SLOAD SWAP2 SWAP6 SWAP2 PUSH2 0x1B3D SWAP2 PUSH2 0x1F77 JUMP JUMPDEST PUSH1 0x3 DUP7 ADD SSTORE DUP4 DUP6 ADD PUSH2 0x100 PUSH2 0xFFFF NOT DUP3 SLOAD AND OR SWAP1 SSTORE PUSH1 0x5 DUP6 ADD SWAP4 DUP2 MLOAD SWAP4 DUP5 GT PUSH2 0x841 JUMPI POP PUSH2 0x1B6F DUP4 PUSH2 0xE0F DUP7 SLOAD PUSH2 0x1E08 JUMP JUMPDEST DUP6 SWAP2 PUSH1 0x1F DUP5 GT PUSH1 0x1 EQ PUSH2 0x1BE9 JUMPI POP DUP3 PUSH1 0x3 SWAP6 SWAP4 PUSH32 0xAD576CF3B403501FBC9BC3C189B51BDE76F3401339B1570FB49AB5893089336B SWAP9 SWAP8 SWAP6 SWAP4 PUSH2 0x1BC5 SWAP4 PUSH0 SWAP3 PUSH2 0xF10 JUMPI POP POP DUP2 PUSH1 0x1 SHL SWAP2 PUSH0 NOT SWAP1 PUSH1 0x3 SHL SHR NOT AND OR SWAP1 JUMP JUMPDEST SWAP1 SSTORE JUMPDEST PUSH1 0x6 PUSH1 0x84 CALLDATALOAD SWAP2 ADD SSTORE DUP5 PUSH0 MSTORE MSTORE TIMESTAMP PUSH1 0x7 DUP3 PUSH0 KECCAK256 ADD SSTORE MLOAD DUP1 PUSH2 0x1398 CALLER SWAP6 DUP3 PUSH2 0x1FE7 JUMP JUMPDEST SWAP2 SWAP1 PUSH1 0x1F NOT DUP5 AND DUP6 PUSH0 MSTORE DUP8 PUSH0 KECCAK256 SWAP4 PUSH0 SWAP1 JUMPDEST DUP3 DUP3 LT PUSH2 0x1C5C JUMPI POP POP SWAP3 PUSH1 0x1 SWAP3 DUP6 SWAP3 PUSH1 0x3 SWAP9 SWAP7 PUSH32 0xAD576CF3B403501FBC9BC3C189B51BDE76F3401339B1570FB49AB5893089336B SWAP12 SWAP11 SWAP9 SWAP7 LT PUSH2 0x1C45 JUMPI JUMPDEST POP POP POP DUP2 SHL ADD SWAP1 SSTORE PUSH2 0x1BC8 JUMP JUMPDEST ADD MLOAD PUSH0 NOT DUP4 DUP10 SHL PUSH1 0xF8 AND SHR NOT AND SWAP1 SSTORE DUP11 DUP1 DUP1 PUSH2 0x1C38 JUMP JUMPDEST DUP4 DUP6 ADD MLOAD DUP7 SSTORE SWAP5 DUP6 ADD SWAP5 SWAP4 DUP10 ADD SWAP4 SWAP1 DUP10 ADD SWAP1 PUSH2 0x1BFA JUMP JUMPDEST DUP4 CALLVALUE PUSH2 0x2E7 JUMPI PUSH1 0x20 CALLDATASIZE PUSH1 0x3 NOT ADD SLT PUSH2 0x2E7 JUMPI CALLDATALOAD SWAP1 PUSH4 0xFFFFFFFF PUSH1 0xE0 SHL DUP3 AND DUP1 SWAP3 SUB PUSH2 0x2E7 JUMPI PUSH1 0x20 SWAP2 PUSH4 0x7965DB0B PUSH1 0xE0 SHL DUP2 EQ SWAP1 DUP2 ISZERO PUSH2 0x1CB4 JUMPI JUMPDEST POP ISZERO ISZERO DUP2 MSTORE RETURN JUMPDEST PUSH4 0x1FFC9A7 PUSH1 0xE0 SHL EQ SWAP1 POP DUP4 PUSH2 0x1CAD JUMP JUMPDEST PUSH1 0x4 CALLDATALOAD SWAP1 PUSH1 0x1 PUSH1 0x1 PUSH1 0xA0 SHL SUB DUP3 AND DUP3 SUB PUSH2 0x2E7 JUMPI JUMP JUMPDEST PUSH1 0x24 CALLDATALOAD SWAP1 PUSH1 0x1 PUSH1 0x1 PUSH1 0xA0 SHL SUB DUP3 AND DUP3 SUB PUSH2 0x2E7 JUMPI JUMP JUMPDEST SWAP1 PUSH1 0x1F DUP1 NOT SWAP2 ADD AND DUP2 ADD SWAP1 DUP2 LT PUSH8 0xFFFFFFFFFFFFFFFF DUP3 GT OR PUSH2 0x1D13 JUMPI PUSH1 0x40 MSTORE JUMP JUMPDEST PUSH4 0x4E487B71 PUSH1 0xE0 SHL PUSH0 MSTORE PUSH1 0x41 PUSH1 0x4 MSTORE PUSH1 0x24 PUSH0 REVERT JUMPDEST SWAP3 SWAP2 SWAP3 PUSH8 0xFFFFFFFFFFFFFFFF DUP3 GT PUSH2 0x1D13 JUMPI PUSH1 0x40 MLOAD SWAP2 PUSH2 0x1D51 PUSH1 0x1F DUP3 ADD PUSH1 0x1F NOT AND PUSH1 0x20 ADD DUP5 PUSH2 0x1CF1 JUMP JUMPDEST DUP3 SWAP5 DUP2 DUP5 MSTORE DUP2 DUP4 ADD GT PUSH2 0x2E7 JUMPI DUP3 DUP2 PUSH1 0x20 SWAP4 DUP5 PUSH0 SWAP7 ADD CALLDATACOPY ADD ADD MSTORE JUMP JUMPDEST SWAP1 DUP1 PUSH1 0x1F DUP4 ADD SLT ISZERO PUSH2 0x2E7 JUMPI DUP2 PUSH1 0x20 PUSH2 0x1D88 SWAP4 CALLDATALOAD SWAP2 ADD PUSH2 0x1D27 JUMP JUMPDEST SWAP1 JUMP JUMPDEST PUSH1 0x44 CALLDATALOAD SWAP1 DUP2 ISZERO ISZERO DUP3 SUB PUSH2 0x2E7 JUMPI JUMP JUMPDEST PUSH1 0x24 CALLDATALOAD SWAP1 DUP2 ISZERO ISZERO DUP3 SUB PUSH2 0x2E7 JUMPI JUMP JUMPDEST SWAP1 PUSH1 0x6 DUP3 LT ISZERO PUSH2 0x1DB6 JUMPI MSTORE JUMP JUMPDEST PUSH4 0x4E487B71 PUSH1 0xE0 SHL PUSH0 MSTORE PUSH1 0x21 PUSH1 0x4 MSTORE PUSH1 0x24 PUSH0 REVERT JUMPDEST SWAP2 SWAP1 DUP3 MLOAD SWAP3 DUP4 DUP3 MSTORE PUSH0 JUMPDEST DUP5 DUP2 LT PUSH2 0x1DF4 JUMPI POP POP DUP3 PUSH0 PUSH1 0x20 DUP1 SWAP5 SWAP6 DUP5 ADD ADD MSTORE PUSH1 0x1F DUP1 NOT SWAP2 ADD AND ADD ADD SWAP1 JUMP JUMPDEST PUSH1 0x20 DUP2 DUP4 ADD DUP2 ADD MLOAD DUP5 DUP4 ADD DUP3 ADD MSTORE ADD PUSH2 0x1DD4 JUMP JUMPDEST SWAP1 PUSH1 0x1 DUP3 DUP2 SHR SWAP3 AND DUP1 ISZERO PUSH2 0x1E36 JUMPI JUMPDEST PUSH1 0x20 DUP4 LT EQ PUSH2 0x1E22 JUMPI JUMP JUMPDEST PUSH4 0x4E487B71 PUSH1 0xE0 SHL PUSH0 MSTORE PUSH1 0x22 PUSH1 0x4 MSTORE PUSH1 0x24 PUSH0 REVERT JUMPDEST SWAP2 PUSH1 0x7F AND SWAP2 PUSH2 0x1E17 JUMP JUMPDEST DUP1 SLOAD PUSH0 SWAP4 SWAP3 PUSH2 0x1E4E DUP3 PUSH2 0x1E08 JUMP JUMPDEST SWAP2 DUP3 DUP3 MSTORE PUSH1 0x20 SWAP4 PUSH1 0x1 SWAP2 PUSH1 0x1 DUP2 AND SWAP1 DUP2 PUSH0 EQ PUSH2 0x1EB2 JUMPI POP PUSH1 0x1 EQ PUSH2 0x1E74 JUMPI JUMPDEST POP POP POP POP POP JUMP JUMPDEST SWAP1 SWAP4 SWAP5 SWAP6 POP PUSH0 SWAP3 SWAP2 SWAP3 MSTORE DUP4 PUSH0 KECCAK256 SWAP3 DUP5 PUSH0 SWAP5 JUMPDEST DUP4 DUP7 LT PUSH2 0x1E9E JUMPI POP POP POP POP ADD ADD SWAP1 PUSH0 DUP1 DUP1 DUP1 DUP1 PUSH2 0x1E6D JUMP JUMPDEST DUP1 SLOAD DUP6 DUP8 ADD DUP4 ADD MSTORE SWAP5 ADD SWAP4 DUP6 SWAP1 DUP3 ADD PUSH2 0x1E86 JUMP JUMPDEST PUSH1 0xFF NOT AND DUP7 DUP6 ADD MSTORE POP POP POP SWAP1 ISZERO ISZERO PUSH1 0x5 SHL ADD ADD SWAP2 POP PUSH0 DUP1 DUP1 DUP1 DUP1 PUSH2 0x1E6D JUMP JUMPDEST SWAP1 PUSH1 0xA DUP2 LT ISZERO PUSH2 0x1DB6 JUMPI PUSH0 MSTORE PUSH1 0x20 MSTORE PUSH1 0x40 PUSH0 KECCAK256 SWAP1 JUMP JUMPDEST ISZERO PUSH2 0x1EEE JUMPI JUMP JUMPDEST PUSH1 0x40 MLOAD PUSH3 0x461BCD PUSH1 0xE5 SHL DUP2 MSTORE PUSH1 0x20 PUSH1 0x4 DUP3 ADD MSTORE PUSH1 0x17 PUSH1 0x24 DUP3 ADD MSTORE PUSH32 0x4964656E7469747920646F6573206E6F74206578697374000000000000000000 PUSH1 0x44 DUP3 ADD MSTORE PUSH1 0x64 SWAP1 REVERT JUMPDEST ISZERO PUSH2 0x1F3A JUMPI JUMP JUMPDEST PUSH1 0x40 MLOAD PUSH3 0x461BCD PUSH1 0xE5 SHL DUP2 MSTORE PUSH1 0x20 PUSH1 0x4 DUP3 ADD MSTORE PUSH1 0x15 PUSH1 0x24 DUP3 ADD MSTORE PUSH21 0x53636F72652065786365656473206D6178696D756D PUSH1 0x58 SHL PUSH1 0x44 DUP3 ADD MSTORE PUSH1 0x64 SWAP1 REVERT JUMPDEST SWAP2 SWAP1 DUP3 ADD DUP1 SWAP3 GT PUSH2 0x1F84 JUMPI JUMP JUMPDEST PUSH4 0x4E487B71 PUSH1 0xE0 SHL PUSH0 MSTORE PUSH1 0x11 PUSH1 0x4 MSTORE PUSH1 0x24 PUSH0 REVERT JUMPDEST PUSH1 0x1F DUP3 GT PUSH2 0x1FA5 JUMPI POP POP POP JUMP JUMPDEST PUSH0 MSTORE PUSH1 0x20 PUSH0 KECCAK256 SWAP1 PUSH1 0x20 PUSH1 0x1F DUP5 ADD PUSH1 0x5 SHR DUP4 ADD SWAP4 LT PUSH2 0x1FDD JUMPI JUMPDEST PUSH1 0x1F ADD PUSH1 0x5 SHR ADD SWAP1 JUMPDEST DUP2 DUP2 LT PUSH2 0x1FD2 JUMPI POP POP JUMP JUMPDEST PUSH0 DUP2 SSTORE PUSH1 0x1 ADD PUSH2 0x1FC7 JUMP JUMPDEST SWAP1 SWAP2 POP DUP2 SWAP1 PUSH2 0x1FBE JUMP JUMPDEST SWAP2 SWAP1 PUSH1 0x20 DUP4 ADD SWAP3 PUSH1 0xA DUP3 LT ISZERO PUSH2 0x1DB6 JUMPI MSTORE JUMP JUMPDEST PUSH1 0x6 DUP2 LT ISZERO PUSH2 0x1DB6 JUMPI PUSH1 0xF8 SHL SWAP1 MSTORE JUMP JUMPDEST SWAP1 PUSH1 0x6 DUP2 LT ISZERO PUSH2 0x1DB6 JUMPI DUP2 SLOAD PUSH1 0xFF PUSH1 0xA0 SHL NOT AND PUSH1 0xA0 SWAP2 SWAP1 SWAP2 SHL PUSH1 0xFF PUSH1 0xA0 SHL AND OR SWAP1 SSTORE JUMP JUMPDEST CALLER PUSH0 SWAP1 DUP2 MSTORE PUSH32 0xFE759D5E0CC1D5596A40260EDE48172DAC0C1DBA3F4E63D2EF0D3C99859A6553 PUSH1 0x20 MSTORE PUSH1 0x40 SWAP1 KECCAK256 SLOAD PUSH32 0x7A5AE009D6A61115AC0993F8E8E8D8BA374961395165C1B6F1F9CEFA70D85159 SWAP1 PUSH1 0xFF AND ISZERO PUSH2 0x2089 JUMPI POP JUMP JUMPDEST PUSH1 0x44 SWAP1 PUSH1 0x40 MLOAD SWAP1 PUSH4 0xE2517D3F PUSH1 0xE0 SHL DUP3 MSTORE CALLER PUSH1 0x4 DUP4 ADD MSTORE PUSH1 0x24 DUP3 ADD MSTORE REVERT JUMPDEST CALLER PUSH0 SWAP1 DUP2 MSTORE PUSH32 0x1DA0B5176DFE03406AF5A6EED66CA01DDA9B45AC4DA671C3FA379CB93717EF81 PUSH1 0x20 MSTORE PUSH1 0x40 SWAP1 KECCAK256 SLOAD PUSH32 0xCE23C3E399818CFEE81A7AB0880F714E53D7672B08DF0FA62F2843416E1EA09 SWAP1 PUSH1 0xFF AND ISZERO PUSH2 0x2089 JUMPI POP JUMP JUMPDEST CALLER PUSH0 SWAP1 DUP2 MSTORE PUSH32 0xAD3228B676F7D3CD4284A5443F17F1962B36E491B30A40B2405849E597BA5FB5 PUSH1 0x20 MSTORE PUSH1 0x40 SWAP1 KECCAK256 SLOAD PUSH1 0xFF AND ISZERO PUSH2 0x213A JUMPI JUMP JUMPDEST PUSH1 0x40 MLOAD PUSH4 0xE2517D3F PUSH1 0xE0 SHL DUP2 MSTORE CALLER PUSH1 0x4 DUP3 ADD MSTORE PUSH0 PUSH1 0x24 DUP3 ADD MSTORE PUSH1 0x44 SWAP1 REVERT JUMPDEST DUP1 PUSH0 MSTORE PUSH0 PUSH1 0x20 MSTORE PUSH1 0x40 PUSH0 KECCAK256 CALLER PUSH0 MSTORE PUSH1 0x20 MSTORE PUSH1 0xFF PUSH1 0x40 PUSH0 KECCAK256 SLOAD AND ISZERO PUSH2 0x2089 JUMPI POP JUMP JUMPDEST SWAP1 DUP2 PUSH0 MSTORE PUSH0 PUSH1 0x20 MSTORE PUSH1 0x40 PUSH0 KECCAK256 SWAP1 PUSH1 0x1 DUP1 PUSH1 0xA0 SHL SUB AND SWAP1 DUP2 PUSH0 MSTORE PUSH1 0x20 MSTORE PUSH1 0xFF PUSH1 0x40 PUSH0 KECCAK256 SLOAD AND ISZERO PUSH0 EQ PUSH2 0x21EF JUMPI DUP2 PUSH0 MSTORE PUSH0 PUSH1 0x20 MSTORE PUSH1 0x40 PUSH0 KECCAK256 DUP2 PUSH0 MSTORE PUSH1 0x20 MSTORE PUSH1 0x40 PUSH0 KECCAK256 PUSH1 0x1 PUSH1 0xFF NOT DUP3 SLOAD AND OR SWAP1 SSTORE CALLER SWAP2 PUSH32 0x2F8788117E7EFF1D82E926EC794901D17C78024A50270940304540A733656F0D PUSH0 DUP1 LOG4 PUSH1 0x1 SWAP1 JUMP JUMPDEST POP POP PUSH0 SWAP1 JUMP JUMPDEST PUSH1 0x1 DUP1 PUSH1 0xA0 SHL SUB AND DUP1 PUSH0 MSTORE PUSH1 0x3 PUSH1 0x20 MSTORE PUSH1 0x40 PUSH0 KECCAK256 PUSH1 0x1 DUP2 ADD SLOAD PUSH1 0x7 PUSH1 0x20 MSTORE PUSH1 0x40 PUSH0 KECCAK256 SLOAD PUSH1 0xFF DUP4 SLOAD PUSH1 0xA0 SHR AND SWAP2 DUP3 SWAP2 PUSH2 0x320 DUP3 LT ISZERO DUP1 PUSH2 0x233D JUMPI JUMPDEST ISZERO PUSH2 0x22B3 JUMPI POP PUSH1 0x5 SWAP3 POP POP JUMPDEST PUSH1 0x6 DUP2 LT ISZERO PUSH2 0x1DB6 JUMPI PUSH1 0x6 DUP3 LT ISZERO PUSH2 0x1DB6 JUMPI DUP1 DUP3 GT PUSH2 0x225B JUMPI JUMPDEST POP POP POP POP JUMP JUMPDEST PUSH2 0x22A9 DUP3 DUP5 PUSH2 0x228D PUSH1 0x40 SWAP6 PUSH32 0x3FC5C721E06E298C91D615C5EDB32B73B4333A7DED491CFE03F29D2A146ABEC5 SWAP8 PUSH2 0x200A JUMP JUMPDEST PUSH1 0x7 TIMESTAMP SWAP2 ADD SSTORE PUSH2 0x229F DUP5 MLOAD DUP1 SWAP5 PUSH2 0x1DA9 JUMP JUMPDEST PUSH1 0x20 DUP4 ADD SWAP1 PUSH2 0x1DA9 JUMP JUMPDEST LOG2 PUSH0 DUP1 DUP1 DUP1 PUSH2 0x2255 JUMP JUMPDEST PUSH2 0x2BC DUP3 LT ISZERO DUP1 PUSH2 0x2331 JUMPI JUMPDEST ISZERO PUSH2 0x22D0 JUMPI POP PUSH1 0x4 SWAP3 POP POP JUMPDEST PUSH2 0x223B JUMP JUMPDEST PUSH2 0x258 DUP3 LT ISZERO DUP1 PUSH2 0x2325 JUMPI JUMPDEST ISZERO PUSH2 0x22EC JUMPI POP PUSH1 0x3 SWAP3 POP POP PUSH2 0x223B JUMP JUMPDEST PUSH2 0x190 DUP3 LT ISZERO SWAP1 DUP2 PUSH2 0x2319 JUMPI JUMPDEST POP ISZERO PUSH2 0x2309 JUMPI POP PUSH1 0x2 SWAP2 POP PUSH2 0x223B JUMP JUMPDEST PUSH1 0xC8 GT PUSH2 0x22CB JUMPI PUSH1 0x1 SWAP2 POP PUSH2 0x223B JUMP JUMPDEST PUSH1 0xC8 SWAP2 POP LT ISZERO PUSH0 PUSH2 0x22F9 JUMP JUMPDEST POP PUSH2 0x12C DUP2 LT ISZERO PUSH2 0x22DC JUMP JUMPDEST POP PUSH2 0x190 DUP2 LT ISZERO PUSH2 0x22BF JUMP JUMPDEST POP PUSH2 0x1F4 DUP2 LT ISZERO PUSH2 0x222F JUMP JUMPDEST SWAP1 DUP2 PUSH0 MSTORE PUSH0 PUSH1 0x20 MSTORE PUSH1 0x40 PUSH0 KECCAK256 SWAP1 PUSH1 0x1 DUP1 PUSH1 0xA0 SHL SUB AND SWAP1 DUP2 PUSH0 MSTORE PUSH1 0x20 MSTORE PUSH1 0xFF PUSH1 0x40 PUSH0 KECCAK256 SLOAD AND PUSH0 EQ PUSH2 0x21EF JUMPI DUP2 PUSH0 MSTORE PUSH0 PUSH1 0x20 MSTORE PUSH1 0x40 PUSH0 KECCAK256 DUP2 PUSH0 MSTORE PUSH1 0x20 MSTORE PUSH1 0x40 PUSH0 KECCAK256 PUSH1 0xFF NOT DUP2 SLOAD AND SWAP1 SSTORE CALLER SWAP2 PUSH32 0xF6391F5C32D9C69D2A47EA670B442974B53935D1EDC7FD64EB21E047A839171B PUSH0 DUP1 LOG4 PUSH1 0x1 SWAP1 JUMP JUMPDEST PUSH1 0x1 PUSH1 0x1 PUSH1 0xA0 SHL SUB SWAP1 DUP2 AND SWAP2 AND DUP2 DUP2 EQ PUSH2 0x247B JUMPI PUSH0 MSTORE PUSH1 0x4 PUSH1 0x20 MSTORE PUSH1 0x40 PUSH0 KECCAK256 SWAP2 PUSH1 0xFF PUSH2 0x23EA DUP3 PUSH1 0x1 DUP7 ADD PUSH2 0x1ED1 JUMP JUMPDEST SLOAD AND PUSH2 0x247B JUMPI PUSH2 0x2409 PUSH1 0xFF SWAP2 DUP4 PUSH0 MSTORE PUSH1 0x2 DUP6 ADD PUSH1 0x20 MSTORE PUSH1 0x40 PUSH0 KECCAK256 PUSH2 0x1ED1 JUMP JUMPDEST SLOAD AND PUSH2 0x2474 JUMPI PUSH0 SWAP1 DUP2 MSTORE PUSH32 0xE359DAE9942552F26C150E77668DE60B5DA80A7A955B3AF91651D8145430DDD1 PUSH1 0x20 MSTORE PUSH1 0x40 SWAP1 KECCAK256 SLOAD PUSH1 0xFF AND SWAP1 DUP2 PUSH2 0x2465 JUMPI JUMPDEST POP PUSH2 0x2460 JUMPI PUSH1 0x6 PUSH1 0x20 MSTORE PUSH1 0xFF PUSH1 0x40 PUSH0 KECCAK256 SLOAD AND PUSH2 0x2460 JUMPI PUSH0 SWAP1 JUMP JUMPDEST PUSH1 0x1 SWAP1 JUMP JUMPDEST PUSH1 0xFF SWAP2 POP SLOAD PUSH1 0x18 SHR AND PUSH0 PUSH2 0x2446 JUMP JUMPDEST POP POP PUSH1 0x1 SWAP1 JUMP JUMPDEST POP POP POP PUSH1 0x1 SWAP1 JUMP JUMPDEST PUSH1 0xFF PUSH1 0x2 SLOAD AND PUSH2 0x248F JUMPI JUMP JUMPDEST PUSH1 0x40 MLOAD PUSH4 0xD93C0665 PUSH1 0xE0 SHL DUP2 MSTORE PUSH1 0x4 SWAP1 REVERT JUMPDEST DUP2 MLOAD SWAP2 SWAP1 PUSH1 0x41 DUP4 SUB PUSH2 0x24D1 JUMPI PUSH2 0x24CA SWAP3 POP PUSH1 0x20 DUP3 ADD MLOAD SWAP1 PUSH1 0x60 PUSH1 0x40 DUP5 ADD MLOAD SWAP4 ADD MLOAD PUSH0 BYTE SWAP1 PUSH2 0x254A JUMP JUMPDEST SWAP2 SWAP3 SWAP1 SWAP2 SWAP1 JUMP JUMPDEST POP POP PUSH0 SWAP2 PUSH1 0x2 SWAP2 SWAP1 JUMP JUMPDEST PUSH1 0x4 DUP2 LT ISZERO PUSH2 0x1DB6 JUMPI DUP1 PUSH2 0x24ED JUMPI POP POP JUMP JUMPDEST PUSH1 0x1 DUP2 SUB PUSH2 0x2507 JUMPI PUSH1 0x40 MLOAD PUSH4 0xF645EEDF PUSH1 0xE0 SHL DUP2 MSTORE PUSH1 0x4 SWAP1 REVERT JUMPDEST PUSH1 0x2 DUP2 SUB PUSH2 0x2528 JUMPI PUSH1 0x40 MLOAD PUSH4 0xFCE698F7 PUSH1 0xE0 SHL DUP2 MSTORE PUSH1 0x4 DUP2 ADD DUP4 SWAP1 MSTORE PUSH1 0x24 SWAP1 REVERT JUMPDEST PUSH1 0x3 EQ PUSH2 0x2532 JUMPI POP JUMP JUMPDEST PUSH1 0x24 SWAP1 PUSH1 0x40 MLOAD SWAP1 PUSH4 0x35E2F383 PUSH1 0xE2 SHL DUP3 MSTORE PUSH1 0x4 DUP3 ADD MSTORE REVERT JUMPDEST SWAP2 SWAP1 PUSH32 0x7FFFFFFFFFFFFFFFFFFFFFFFFFFFFFFF5D576E7357A4501DDFE92F46681B20A0 DUP5 GT PUSH2 0x25CC JUMPI SWAP2 PUSH1 0x20 SWAP4 PUSH1 0x80 SWAP3 PUSH1 0xFF PUSH0 SWAP6 PUSH1 0x40 MLOAD SWAP5 DUP6 MSTORE AND DUP7 DUP5 ADD MSTORE PUSH1 0x40 DUP4 ADD MSTORE PUSH1 0x60 DUP3 ADD MSTORE DUP3 DUP1 MSTORE PUSH1 0x1 GAS STATICCALL ISZERO PUSH2 0x25C1 JUMPI PUSH0 MLOAD PUSH1 0x1 PUSH1 0x1 PUSH1 0xA0 SHL SUB DUP2 AND ISZERO PUSH2 0x25B7 JUMPI SWAP1 PUSH0 SWAP1 PUSH0 SWAP1 JUMP JUMPDEST POP PUSH0 SWAP1 PUSH1 0x1 SWAP1 PUSH0 SWAP1 JUMP JUMPDEST PUSH1 0x40 MLOAD RETURNDATASIZE PUSH0 DUP3 RETURNDATACOPY RETURNDATASIZE SWAP1 REVERT JUMPDEST POP POP POP PUSH0 SWAP2 PUSH1 0x3 SWAP2 SWAP1 JUMP INVALID LOG2 PUSH5 0x6970667358 0x22 SLT KECCAK256 CHAINID SIGNEXTEND DUP11 SELFDESTRUCT 0xBF SLT 0xF7 0xB5 KECCAK256 PUSH8 0xAEF48066DD6D0F37 NOT BALANCE SLT SUB 0xA9 0xCF MSTORE8 0xF7 PUSH29 0xEAF5268BEC64736F6C634300081800332F8788117E7EFF1D82E926EC79 BLOBHASH ADD 0xD1 PUSH29 0x78024A50270940304540A733656F0DAD3228B676F7D3CD4284A5443F17 CALL SWAP7 0x2B CALLDATASIZE 0xE4 SWAP2 0xB3 EXP BLOCKHASH 0xB2 BLOCKHASH PC BLOBHASH 0xE5 SWAP8 0xBA PUSH0 0xB5 "},"methodIdentifiers":{"CREDENTIAL_ISSUER_ROLE()":"3be044fc","DEFAULT_ADMIN_ROLE()":"a217fddf","ENTERPRISE_ADMIN_ROLE()":"c4c1f353","MAX_CONSCIOUSNESS_SCORE()":"2fd22bf3","PRIVACY_GUARDIAN_ROLE()":"38fe6d0d","VERIFIER_ROLE()":"e7705db6","achievementsContract()":"c2a55e65","attestationValidityPeriod()":"595bf86d","attestations(bytes32)":"940992a3","canViewCredential(address,address,uint8)":"53c71466","createAttestation(address,uint8,string,bytes)":"74bd6f09","createIdentity(string,bytes32,bool)":"f2f346df","credentialValidityPeriod()":"83c28274","getCredential(address,uint8)":"959d0258","getIdentity(address)":"2fea7b81","getRoleAdmin(bytes32)":"248a9ca3","grantRole(bytes32,address)":"2f2ff15d","hasRole(bytes32,address)":"91d14854","identities(address)":"f653b81e","issueCredential(address,uint8,uint256,string,bytes32)":"03eca86e","merkleRoots(bytes32)":"fe5a5377","minimumScoresRequired(uint8)":"b12acabc","pause()":"8456cb59","paused()":"5c975abb","privacySettings(address)":"099bb129","renounceRole(bytes32,address)":"36568abe","revokeRole(bytes32,address)":"d547741f","setCredentialVisibility(uint8,bool)":"5a0eb761","setTrustedIssuer(address,bool)":"8b0e6288","shareCredential(address,uint8,bool)":"234c1196","supportsInterface(bytes4)":"01ffc9a7","trustedIssuers(address)":"92c54daf","unpause()":"3f4ba83a","updateConsciousnessScore(address,uint256,string)":"c4152593","updatePrivacySettings(bool,bool,bool,bool)":"fcc4d98b","userMerkleRoots(address)":"7eb599dc","verificationFee()":"a8c278a2","verificationScores(address)":"a894f9cb","verifyAttestation(bytes32)":"08f46957","verifyCredential(address,uint8,string)":"34c51b43"}}}}}