{"contracts/AIServicePayment.sol":{"AIServicePayment":{"abi":[{"inputs":[{"internalType":"address","name":"_pforkToken","type":"address"},{"internalType":"address","name":"_gPforkToken","type":"address"},{"internalType":"address","name":"_treasuryAddress","type":"address"}],"stateMutability":"nonpayable","type":"constructor"},{"inputs":[],"name":"AccessControlBadConfirmation","type":"error"},{"inputs":[{"internalType":"address","name":"account","type":"address"},{"internalType":"bytes32","name":"neededRole","type":"bytes32"}],"name":"AccessControlUnauthorizedAccount","type":"error"},{"inputs":[],"name":"EnforcedPause","type":"error"},{"inputs":[],"name":"ExpectedPause","type":"error"},{"inputs":[],"name":"ReentrancyGuardReentrantCall","type":"error"},{"inputs":[{"internalType":"address","name":"token","type":"address"}],"name":"SafeERC20FailedOperation","type":"error"},{"anonymous":false,"inputs":[{"indexed":true,"internalType":"address","name":"user","type":"address"},{"indexed":true,"internalType":"address","name":"token","type":"address"},{"indexed":false,"internalType":"uint256","name":"amount","type":"uint256"}],"name":"AccountFunded","type":"event"},{"anonymous":false,"inputs":[{"indexed":true,"internalType":"address","name":"user","type":"address"},{"indexed":false,"internalType":"uint256","name":"newLimit","type":"uint256"}],"name":"DailyLimitUpdated","type":"event"},{"anonymous":false,"inputs":[{"indexed":true,"internalType":"address","name":"token","type":"address"},{"indexed":false,"internalType":"uint256","name":"amount","type":"uint256"}],"name":"EmergencyWithdrawal","type":"event"},{"anonymous":false,"inputs":[{"indexed":false,"internalType":"address","name":"account","type":"address"}],"name":"Paused","type":"event"},{"anonymous":false,"inputs":[{"indexed":true,"internalType":"address","name":"user","type":"address"},{"indexed":true,"internalType":"bytes32","name":"paymentId","type":"bytes32"},{"indexed":false,"internalType":"uint256","name":"amount","type":"uint256"}],"name":"RefundIssued","type":"event"},{"anonymous":false,"inputs":[{"indexed":true,"internalType":"bytes32","name":"role","type":"bytes32"},{"indexed":true,"internalType":"bytes32","name":"previousAdminRole","type":"bytes32"},{"indexed":true,"internalType":"bytes32","name":"newAdminRole","type":"bytes32"}],"name":"RoleAdminChanged","type":"event"},{"anonymous":false,"inputs":[{"indexed":true,"internalType":"bytes32","name":"role","type":"bytes32"},{"indexed":true,"internalType":"address","name":"account","type":"address"},{"indexed":true,"internalType":"address","name":"sender","type":"address"}],"name":"RoleGranted","type":"event"},{"anonymous":false,"inputs":[{"indexed":true,"internalType":"bytes32","name":"role","type":"bytes32"},{"indexed":true,"internalType":"address","name":"account","type":"address"},{"indexed":true,"internalType":"address","name":"sender","type":"address"}],"name":"RoleRevoked","type":"event"},{"anonymous":false,"inputs":[{"indexed":true,"internalType":"enum AIServicePayment.ServiceType","name":"serviceType","type":"uint8"},{"indexed":false,"internalType":"uint256","name":"newCost","type":"uint256"},{"indexed":false,"internalType":"bool","name":"isActive","type":"bool"}],"name":"ServiceConfigUpdated","type":"event"},{"anonymous":false,"inputs":[{"indexed":true,"internalType":"address","name":"user","type":"address"},{"indexed":true,"internalType":"enum AIServicePayment.ServiceType","name":"serviceType","type":"uint8"},{"indexed":false,"internalType":"address","name":"token","type":"address"},{"indexed":false,"internalType":"uint256","name":"amount","type":"uint256"},{"indexed":false,"internalType":"bytes32","name":"sessionId","type":"bytes32"}],"name":"ServicePayment","type":"event"},{"anonymous":false,"inputs":[{"indexed":true,"internalType":"address","name":"token","type":"address"},{"indexed":false,"internalType":"bool","name":"supported","type":"bool"}],"name":"TokenSupport","type":"event"},{"anonymous":false,"inputs":[{"indexed":false,"internalType":"address","name":"account","type":"address"}],"name":"Unpaused","type":"event"},{"inputs":[],"name":"BILLING_ADMIN_ROLE","outputs":[{"internalType":"bytes32","name":"","type":"bytes32"}],"stateMutability":"view","type":"function"},{"inputs":[],"name":"DEFAULT_ADMIN_ROLE","outputs":[{"internalType":"bytes32","name":"","type":"bytes32"}],"stateMutability":"view","type":"function"},{"inputs":[],"name":"MAX_DAILY_QUERIES","outputs":[{"internalType":"uint256","name":"","type":"uint256"}],"stateMutability":"view","type":"function"},{"inputs":[],"name":"MAX_SPENDING_CAP","outputs":[{"internalType":"uint256","name":"","type":"uint256"}],"stateMutability":"view","type":"function"},{"inputs":[],"name":"REFUND_MANAGER_ROLE","outputs":[{"internalType":"bytes32","name":"","type":"bytes32"}],"stateMutability":"view","type":"function"},{"inputs":[],"name":"SERVICE_MANAGER_ROLE","outputs":[{"internalType":"bytes32","name":"","type":"bytes32"}],"stateMutability":"view","type":"function"},{"inputs":[{"internalType":"address","name":"user","type":"address"},{"internalType":"enum AIServicePayment.ServiceType","name":"serviceType","type":"uint8"}],"name":"canAccessService","outputs":[{"internalType":"bool","name":"","type":"bool"},{"internalType":"string","name":"","type":"string"}],"stateMutability":"view","type":"function"},{"inputs":[{"internalType":"address","name":"token","type":"address"},{"internalType":"uint256","name":"amount","type":"uint256"}],"name":"fundAccount","outputs":[],"stateMutability":"nonpayable","type":"function"},{"inputs":[],"name":"fundAccountETH","outputs":[],"stateMutability":"payable","type":"function"},{"inputs":[],"name":"gPforkToken","outputs":[{"internalType":"contract IERC20","name":"","type":"address"}],"stateMutability":"view","type":"function"},{"inputs":[{"internalType":"bytes32","name":"role","type":"bytes32"}],"name":"getRoleAdmin","outputs":[{"internalType":"bytes32","name":"","type":"bytes32"}],"stateMutability":"view","type":"function"},{"inputs":[{"internalType":"address","name":"user","type":"address"}],"name":"getUserAccount","outputs":[{"internalType":"uint256","name":"dailySpendingLimit","type":"uint256"},{"internalType":"uint256","name":"totalSpendingCap","type":"uint256"},{"internalType":"uint256","name":"accountCreated","type":"uint256"},{"internalType":"bool","name":"isActive","type":"bool"},{"internalType":"uint256","name":"refundableAmount","type":"uint256"}],"stateMutability":"view","type":"function"},{"inputs":[{"internalType":"address","name":"user","type":"address"},{"internalType":"enum AIServicePayment.ServiceType","name":"serviceType","type":"uint8"}],"name":"getUserDailyUsage","outputs":[{"internalType":"uint256","name":"","type":"uint256"}],"stateMutability":"view","type":"function"},{"inputs":[{"internalType":"address","name":"user","type":"address"},{"internalType":"address","name":"token","type":"address"}],"name":"getUserTokenBalance","outputs":[{"internalType":"uint256","name":"","type":"uint256"}],"stateMutability":"view","type":"function"},{"inputs":[{"internalType":"bytes32","name":"role","type":"bytes32"},{"internalType":"address","name":"account","type":"address"}],"name":"grantRole","outputs":[],"stateMutability":"nonpayable","type":"function"},{"inputs":[{"internalType":"bytes32","name":"role","type":"bytes32"},{"internalType":"address","name":"account","type":"address"}],"name":"hasRole","outputs":[{"internalType":"bool","name":"","type":"bool"}],"stateMutability":"view","type":"function"},{"inputs":[{"internalType":"bytes32","name":"paymentId","type":"bytes32"},{"internalType":"string","name":"reason","type":"string"}],"name":"issueRefund","outputs":[],"stateMutability":"nonpayable","type":"function"},{"inputs":[],"name":"pause","outputs":[],"stateMutability":"nonpayable","type":"function"},{"inputs":[],"name":"paused","outputs":[{"internalType":"bool","name":"","type":"bool"}],"stateMutability":"view","type":"function"},{"inputs":[{"internalType":"bytes32","name":"","type":"bytes32"}],"name":"paymentRecords","outputs":[{"internalType":"address","name":"user","type":"address"},{"internalType":"enum AIServicePayment.ServiceType","name":"serviceType","type":"uint8"},{"internalType":"address","name":"paymentToken","type":"address"},{"internalType":"uint256","name":"amount","type":"uint256"},{"internalType":"uint256","name":"timestamp","type":"uint256"},{"internalType":"bytes32","name":"sessionId","type":"bytes32"},{"internalType":"bool","name":"wasRefunded","type":"bool"}],"stateMutability":"view","type":"function"},{"inputs":[],"name":"pforkToken","outputs":[{"internalType":"contract IERC20","name":"","type":"address"}],"stateMutability":"view","type":"function"},{"inputs":[],"name":"platformFeePercentage","outputs":[{"internalType":"uint256","name":"","type":"uint256"}],"stateMutability":"view","type":"function"},{"inputs":[{"internalType":"address","name":"user","type":"address"},{"internalType":"enum AIServicePayment.ServiceType","name":"serviceType","type":"uint8"},{"internalType":"address","name":"paymentToken","type":"address"},{"internalType":"bytes32","name":"sessionId","type":"bytes32"}],"name":"processServicePayment","outputs":[{"internalType":"bool","name":"success","type":"bool"}],"stateMutability":"nonpayable","type":"function"},{"inputs":[{"internalType":"bytes32","name":"role","type":"bytes32"},{"internalType":"address","name":"callerConfirmation","type":"address"}],"name":"renounceRole","outputs":[],"stateMutability":"nonpayable","type":"function"},{"inputs":[{"internalType":"bytes32","name":"role","type":"bytes32"},{"internalType":"address","name":"account","type":"address"}],"name":"revokeRole","outputs":[],"stateMutability":"nonpayable","type":"function"},{"inputs":[{"internalType":"enum AIServicePayment.ServiceType","name":"","type":"uint8"}],"name":"serviceConfigs","outputs":[{"internalType":"uint256","name":"baseCostPerQuery","type":"uint256"},{"internalType":"uint256","name":"maxQueriesPerDay","type":"uint256"},{"internalType":"uint256","name":"discountForStakers","type":"uint256"},{"internalType":"bool","name":"isActive","type":"bool"},{"internalType":"string","name":"serviceName","type":"string"},{"internalType":"uint256","name":"minimumStakeRequired","type":"uint256"}],"stateMutability":"view","type":"function"},{"inputs":[{"internalType":"enum AIServicePayment.ServiceType","name":"","type":"uint8"}],"name":"serviceUsageStats","outputs":[{"internalType":"uint256","name":"","type":"uint256"}],"stateMutability":"view","type":"function"},{"inputs":[{"internalType":"address","name":"token","type":"address"},{"internalType":"bool","name":"supported","type":"bool"},{"internalType":"string","name":"name","type":"string"},{"internalType":"uint8","name":"decimals","type":"uint8"}],"name":"setSupportedToken","outputs":[],"stateMutability":"nonpayable","type":"function"},{"inputs":[{"internalType":"address","name":"user","type":"address"},{"internalType":"uint256","name":"newLimit","type":"uint256"}],"name":"setUserDailyLimit","outputs":[],"stateMutability":"nonpayable","type":"function"},{"inputs":[{"internalType":"address","name":"","type":"address"}],"name":"supportedTokens","outputs":[{"internalType":"bool","name":"","type":"bool"}],"stateMutability":"view","type":"function"},{"inputs":[{"internalType":"bytes4","name":"interfaceId","type":"bytes4"}],"name":"supportsInterface","outputs":[{"internalType":"bool","name":"","type":"bool"}],"stateMutability":"view","type":"function"},{"inputs":[{"internalType":"address","name":"","type":"address"}],"name":"tokenDecimals","outputs":[{"internalType":"uint8","name":"","type":"uint8"}],"stateMutability":"view","type":"function"},{"inputs":[{"internalType":"address","name":"","type":"address"}],"name":"tokenNames","outputs":[{"internalType":"string","name":"","type":"string"}],"stateMutability":"view","type":"function"},{"inputs":[],"name":"totalPaymentsProcessed","outputs":[{"internalType":"uint256","name":"","type":"uint256"}],"stateMutability":"view","type":"function"},{"inputs":[],"name":"totalRefundsIssued","outputs":[{"internalType":"uint256","name":"","type":"uint256"}],"stateMutability":"view","type":"function"},{"inputs":[],"name":"treasuryAddress","outputs":[{"internalType":"address","name":"","type":"address"}],"stateMutability":"view","type":"function"},{"inputs":[],"name":"unpause","outputs":[],"stateMutability":"nonpayable","type":"function"},{"inputs":[{"internalType":"enum AIServicePayment.ServiceType","name":"serviceType","type":"uint8"},{"internalType":"uint256","name":"baseCost","type":"uint256"},{"internalType":"uint256","name":"maxQueries","type":"uint256"},{"internalType":"uint256","name":"discount","type":"uint256"},{"internalType":"bool","name":"isActive","type":"bool"},{"internalType":"string","name":"serviceName","type":"string"},{"internalType":"uint256","name":"minimumStake","type":"uint256"}],"name":"updateServiceConfig","outputs":[],"stateMutability":"nonpayable","type":"function"},{"inputs":[{"internalType":"address","name":"","type":"address"}],"name":"userAccounts","outputs":[{"internalType":"uint256","name":"dailySpendingLimit","type":"uint256"},{"internalType":"uint256","name":"totalSpendingCap","type":"uint256"},{"internalType":"uint256","name":"accountCreated","type":"uint256"},{"internalType":"bool","name":"isActive","type":"bool"},{"internalType":"uint256","name":"refundableAmount","type":"uint256"}],"stateMutability":"view","type":"function"},{"inputs":[{"internalType":"address","name":"token","type":"address"},{"internalType":"uint256","name":"amount","type":"uint256"}],"name":"withdrawAccountBalance","outputs":[],"stateMutability":"nonpayable","type":"function"},{"inputs":[{"internalType":"address","name":"token","type":"address"}],"name":"withdrawRefund","outputs":[],"stateMutability":"nonpayable","type":"function"}],"evm":{"bytecode":{"linkReferences":{},"object":"608034620005dd57601f62002ba638819003918201601f191683019291906001600160401b03841183851017620005c9578160609284926040968752833981010312620005dd57620000518162000601565b906200006d83620000656020840162000601565b920162000601565b90600180556101f4600c55620000833362000616565b506200008f3362000686565b506200009b3362000726565b50620000a733620007c0565b50600980546001600160a01b03199081166001600160a01b0395861617909155600a8054821692851692909217909155600b805490911691909216179055805161010081016001600160401b03811182821017620005c9578252906200010c620005e1565b601681527f436f6e7363696f75736e65737320416e616c79736973000000000000000000006020820152825262000142620005e1565b601281527153747261746567696320496e73696768747360701b6020820152602083015262000170620005e1565b60128152714465636973696f6e2053796e74686573697360701b6020820152818301526200019d620005e1565b601381527f5061747465726e205265636f676e6974696f6e0000000000000000000000000060208201526060830152620001d6620005e1565b60128152712bb4b9b237b69024b73a32b3b930ba34b7b760711b6020820152608083015262000204620005e1565b601181527010dc9a5cda5cc813585b9859d95b595b9d607a1b602082015260a083015262000231620005e1565b601381527f4c65616465727368697020436f616368696e6700000000000000000000000000602082015260c08301526200026a620005e1565b601381527f5265666c656374696f6e2047756964616e636500000000000000000000000000602082015260e08301525f915b60088310620003a957505f80526003602052805f2060ff19906001828254161790556004602052815f20620002dd620002d682546200085a565b82620008ad565b7f457468657265756d00000000000000000000000000000000000000000000001090555f80805260056020908152838220805484166012179055600980546001600160a01b0390811684526003835285842080548616600117905590541682526004905282902080546200035690620002d6906200085a565b7f5069746368666f726b20546f6b656e000000000000000000000000000000001e90556009546001600160a01b03165f9081526005602052829020805490911660121790555161228d9081620008d98239f35b825f526006602052815f20600184018411620004f557662386f26fc1000060018501818102918183041490151715620004f5578155600a8402841590858104600a14821715620004f55760640360648111620004f55760018301556101f48502908582046101f4141715620004f5576103e8908101809111620004f557600282015560038101805460ff19166001179055600584901b82015180519094906001600160401b038111620005c9576200046560048401546200085a565b601f811162000586575b506020601f821160011462000515578192939495965f9262000509575b50508160011b915f199060031b1c19161760048301555b6064600182010260018201810460641460018301151715620004f55768056bc75e2d63100000600183010290808204670de0b6b3a76400001490151715620004f557600560019301550191906200029c565b634e487b7160e01b5f52601160045260245ffd5b015190505f806200048c565b600484015f5260205f20905f5b601f19841681106200056d57506001939495969783601f1981161062000554575b505050811b016004830155620004a3565b01515f1960f88460031b161c191690555f808062000543565b9091602060018192858c01518155019301910162000522565b620005b790600485015f5260205f20601f840160051c81019160208510620005be575b601f0160051c019062000895565b5f6200046f565b9091508190620005a9565b634e487b7160e01b5f52604160045260245ffd5b5f80fd5b60408051919082016001600160401b03811183821017620005c957604052565b51906001600160a01b0382168203620005dd57565b6001600160a01b03165f8181525f8051602062002b86833981519152602052604090205460ff1662000681575f8181525f8051602062002b8683398151915260205260408120805460ff191660011790553391905f8051602062002b668339815191528180a4600190565b505f90565b6001600160a01b03165f8181527f29152311108055f848337cef7f4aa231fcb3761fe61a0e784567e3ff5217393560205260409020547f09717ac20005278352439ebfe1b489a0fa1eccb8e4f93830ef8886bb58ec7bc5919060ff166200072057815f525f60205260405f20815f5260205260405f20600160ff1982541617905533915f8051602062002b668339815191525f80a4600190565b50505f90565b6001600160a01b03165f8181527ff65f1e21292c0916561c1a8e90ecf6045cf602d2b224c969034c3ff7e13de05e60205260409020547fd98bd38965825a7af6ae08c852b128dc25eb9f0288e41a50907cae35f789c07e919060ff166200072057815f525f60205260405f20815f5260205260405f20600160ff1982541617905533915f8051602062002b668339815191525f80a4600190565b6001600160a01b03165f8181527feb2c2d0841e9da5fca78674283a7cb3a9e5b8317de4c414bc414531bab5f623360205260409020547fc89f08b49c068684bf15b77e68611a9f601e70d1f919059510bccd18e691e535919060ff166200072057815f525f60205260405f20815f5260205260405f20600160ff1982541617905533915f8051602062002b668339815191525f80a4600190565b90600182811c921680156200088a575b60208310146200087657565b634e487b7160e01b5f52602260045260245ffd5b91607f16916200086a565b818110620008a1575050565b5f815560010162000895565b90601f8111620008bb575050565b620008d6915f52601f60205f20910160051c81019062000895565b56fe604060808152600480361015610013575f80fd5b5f3560e01c9081626e3266146117e357816301ffc9a71461178f5781631567ddb11461123f578163177c49a71461113857816318c1326e146110fe57816323290bad14610ef7578163248a9ca314610ece5781632601e6ec14610eb05781632e5b86a014610e885781632f2ff15d14610e6057816336568abe14610e1c57816337e32d1d14610dfe57816339ee3be614610dc95781633a8611b514610d8f5781633f4ba83a14610d285781634200003b14610c89578163450fac7114610b155781634aaeeaf7146109eb5781635251d91c146101fe5781635c975abb146109c857816366c29b81146109a057816368c4ac261461096457816373f8fd4b1461091b5781637cf21a98146108f75781638456cb591461089e5781638ee573ac1461086457816391d1485414610821578163a16c86f714610749578163a217fddf1461072f578163a8fc75e1146106e5578163ab691551146106bc578163afd9769914610681578163b329b6a7146105e9578163c5f956af146105c1578163c979e8a714610587578163ca06d74414610505578163cdd78cfc146104e7578163d547741f146104ac578163efcb45f71461027b578163fb47e016146101fe575063fefa554b146101df575f80fd5b346101fa575f3660031901126101fa57602090516103e88152f35b5f80fd5b82346101fa5760203660031901126101fa576001600160a01b03610220611a7e565b165f526007602052610277815f2092830154916005840154936006810154600860ff6007840154169201549251958695869192608093969594919660a0840197845260208401526040830152151560608201520152565b0390f35b82346101fa5760803660031901126101fa57610295611a7e565b9060243590811515908183036101fa5767ffffffffffffffff936044358581116101fa576102c69036908801611a38565b956064359160ff83168093036101fa576102de611ffc565b60018060a01b031695865f526020956003875261030981865f209060ff801983541691151516179055565b61033a575b867f9acd25432e73c8fd87c1f86fcc1337f44943fe5d5b8ff9651af0fd79a3e2b15e87878751908152a2005b818652835f2091885191821161049957506103558254611b17565b601f8111610456575b5085601f82116001146103d35781907f9acd25432e73c8fd87c1f86fcc1337f44943fe5d5b8ff9651af0fd79a3e2b15e98995f926103c8575b50508160011b915f199060031b1c19161790555b855f5260058452815f209060ff198254161790558493868061030e565b015190508980610397565b601f19821698835f52875f20995f5b81811061043f5750917f9acd25432e73c8fd87c1f86fcc1337f44943fe5d5b8ff9651af0fd79a3e2b15e999a91846001959410610427575b505050811b0190556103ab565b01515f1960f88460031b161c1916905589808061041a565b838301518c556001909b019a9289019289016103e2565b825f52865f20601f830160051c81019188841061048f575b601f0160051c01905b818110610484575061035e565b5f8155600101610477565b909150819061046e565b604190634e487b7160e01b5f525260245ffd5b82346101fa57806003193601126101fa576104e591356104e060016104cf611a94565b93835f525f6020525f200154612052565b612180565b005b82346101fa575f3660031901126101fa57602090600c549051908152f35b82346101fa5760203660031901126101fa57813560088110156101fa5761052b90611bf1565b9061057d8254926001810154946002820154600561055260ff600386015416938501611b4f565b930154948051978897885260208801528601521515606085015260c0608085015260c0840190611ad9565b9060a08301520390f35b82346101fa575f3660031901126101fa57602090517f09717ac20005278352439ebfe1b489a0fa1eccb8e4f93830ef8886bb58ec7bc58152f35b82346101fa575f3660031901126101fa57600b5490516001600160a01b039091168152602090f35b82346101fa5760203660031901126101fa5781355f526008602052805f209081549160018060a01b039160ff8460a01c16908360018401541660028401549160038501549360ff60058a8801549701541696825198168852600881101561066e5760e0985060208801528601526060850152608084015260a0830152151560c0820152f35b602189634e487b7160e01b5f525260245ffd5b82346101fa576020906106b461069636611aaa565b6001600160a01b039091165f90815260078552839020600101611c33565b549051908152f35b9050346101fa5760203660031901126101fa57359060088210156101fa576106b4602092611c1c565b82346101fa5760203660031901126101fa57610277916001600160a01b0361070b611a7e565b165f5260205261071c815f20611b4f565b9051918291602083526020830190611ad9565b82346101fa575f3660031901126101fa57602090515f8152f35b82346101fa5760203660031901126101fa57610763611a7e565b61076b612073565b335f5260076020526008825f2001549283156107e8575060085f9160018060a01b03169283835260036020526107a660ff8285205416611f41565b338352600760205282200155806107d757505f8080806107d194335af16107cb611cdb565b50611d0a565b60018055005b906107e39133906120b4565b6107d1565b606490602084519162461bcd60e51b835282015260136024820152724e6f20726566756e6420617661696c61626c6560681b6044820152fd5b82346101fa57806003193601126101fa5760209161083d611a94565b90355f525f8352815f209060018060a01b03165f52825260ff815f20541690519015158152f35b82346101fa5760203660031901126101fa576020906001600160a01b03610889611a7e565b165f526005825260ff815f2054169051908152f35b82346101fa575f3660031901126101fa5760207f62e78cea01bee320cd4e420270b5ea74000d11b0c9f74754ebdbfc544b05a258916108db611ffc565b6108e3612096565b600160ff19600254161760025551338152a1005b82346101fa575f3660031901126101fa576020905169021e19e0c9bab24000008152f35b82346101fa57806003193601126101fa57602090610937611a7e565b61093f611a94565b9060018060a01b038091165f5260078452825f2091165f528252805f20549051908152f35b82346101fa5760203660031901126101fa576020906001600160a01b03610989611a7e565b165f526003825260ff815f20541690519015158152f35b82346101fa575f3660031901126101fa5760095490516001600160a01b039091168152602090f35b82346101fa575f3660031901126101fa5760209060ff6002541690519015158152f35b90505f3660031901126101fa57610a00612073565b610a08612096565b3415610ae3575f8052600360205260ff825f20541615610aad57905f913383526007602052818320906006820190815415610a86575b5050828052602052808220610a54348254611c49565b9055513481527f291f84cc50460ba253dd410dfb3142a5f89d5d3e95bcbcb3c3739fc60abe10f860203392a360018055005b68056bc75e2d631000009142905560078301600160ff198254161790558201555f80610a3e565b6020606492519162461bcd60e51b83528201526011602482015270115512081b9bdd081cdd5c1c1bdc9d1959607a1b6044820152fd5b6020606492519162461bcd60e51b8352820152600d60248201526c09aeae6e840e6cadcc8408aa89609b1b6044820152fd5b9050346101fa57816003193601126101fa57610b2f611a7e565b9060243591610b3c612073565b610b44612096565b60018060a01b031692835f5260209160038352610b6660ff835f205416611f41565b8315610c4857335f5260078352815f20816006820191825415610c21575b505082516323b872dd60e01b85820152336024820152306044820152606480820187905281529160a08301915067ffffffffffffffff82118383101761049957508291610bf5917f291f84cc50460ba253dd410dfb3142a5f89d5d3e95bcbcb3c3739fc60abe10f8959452866121f2565b335f5260078252805f20855f528252805f20610c12858254611c49565b9055519283523392a360018055005b68056bc75e2d631000009242905560078101600160ff1982541617905501555f8181610b84565b82606492519162461bcd60e51b8352820152601760248201527f416d6f756e74206d75737420626520706f7369746976650000000000000000006044820152fd5b82346101fa57806003193601126101fa57610ca2611a7e565b9060243591610caf612073565b60018060a01b031690815f526003602052610ccf60ff825f205416611f41565b335f526007602052805f20825f52602052610cef83825f20541015611c6a565b335f526007602052805f20825f526020525f20610d0d838254611cad565b9055806107d757505f8080806107d194335af16107cb611cdb565b82346101fa575f3660031901126101fa57610d41611ffc565b6002549160ff831615610d81577f5db9ee0a495bf2e6ff9c91a7834c1ba4fdd244a5e8aa4e537bd38aeae4b073aa6020838560ff191660025551338152a1005b9051638dfc202b60e01b8152fd5b82346101fa575f3660031901126101fa57602090517fd98bd38965825a7af6ae08c852b128dc25eb9f0288e41a50907cae35f789c07e8152f35b82346101fa57610277610de4610dde36611aaa565b90611d4c565b839291925193849315158452806020850152830190611ad9565b82346101fa575f3660031901126101fa57602090600d549051908152f35b82346101fa57806003193601126101fa57610e35611a94565b90336001600160a01b03831603610e5157506104e59135612180565b5163334bd91960e11b81529050fd5b82346101fa57806003193601126101fa576104e59135610e8360016104cf611a94565b612104565b82346101fa575f3660031901126101fa57600a5490516001600160a01b039091168152602090f35b82346101fa575f3660031901126101fa57602090600e549051908152f35b82346101fa5760203660031901126101fa57602091355f525f82526001815f2001549051908152f35b9050346101fa57816003193601126101fa57803590602492833567ffffffffffffffff81116101fa57610f2d9036908401611a38565b507fc89f08b49c068684bf15b77e68611a9f601e70d1f919059510bccd18e691e53590815f526020915f8352815f20335f52835260ff825f205416156110e15750610f76612073565b835f5260088252805f2060018060a01b0390818154169485156110ab57600582019081549860ff8a1661107657600384015462093a80810180911161106357421161102957505060017fccceb8e0cf7d8f38cd67b4af450f99eafc2b50da1a8540a256eb35b3aaecf43696979860ff191617905560028101958654905f52600785526110096008855f2001918254611c49565b9055611016600e54611cba565b600e55541693549051908152a360018055005b855162461bcd60e51b8152918201879052601590820152741499599d5b99081c195c9a5bd908195e1c1a5c9959605a1b6044820152606490fd5b50634e487b7160e01b5f90815260118352fd5b855162461bcd60e51b81529182018790526010908201526f105b1c9958591e481c99599d5b99195960821b6044820152606490fd5b835162461bcd60e51b81529081018590526011818901527014185e5b595b9d081b9bdd08199bdd5b99607a1b6044820152606490fd5b905163e2517d3f60e01b8152338185015280860191909152604490fd5b82346101fa575f3660031901126101fa57602090517fc89f08b49c068684bf15b77e68611a9f601e70d1f919059510bccd18e691e5358152f35b9050346101fa57816003193601126101fa57611152611a7e565b602435907fd98bd38965825a7af6ae08c852b128dc25eb9f0288e41a50907cae35f789c07e805f525f602052845f20335f5260205260ff855f20541615611221575069021e19e0c9bab240000082116111e85781847f074424510750f675220b94bac388bff82d6407b38f341b0226af2ab45af33dc29360209360018060a01b031695865f5260078552825f20015551908152a2005b835162461bcd60e51b81526020818501526013602482015272045786365656473206d6178696d756d2063617606c1b6044820152606490fd5b845163e2517d3f60e01b815233818601526024810191909152604490fd5b9050346101fa5760803660031901126101fa5761125a611a7e565b9160249182359060088210156101fa5760449485356001600160a01b0381811692918390036101fa5760649381853593611292611f83565b61129a612073565b6112a2612096565b1694855f5260079060209a828c5260ff838b5f200154161561175157865f5260038c5260ff8a5f205416156117135760ff60036112de8b611bf1565b015416156116e057875f52828c526112fb8960028c5f2001611c33565b546201518081018091116116ce5742101561169b575b875f52828c5260019a6113288a8d8d5f2001611c33565b548c6113338c611bf1565b0154111561165d57908c95949392918b61134c8c611bf1565b54978b8389600a54169351809481936370a0823160e01b83528b8301525afa90811561165357908f915f91611624575b506115d2575b84908b5f5252848c5f2001548711611593578d846113b7898f8f8f6113b1926003915f528688525f2001611c33565b54611c49565b918c5f525260058d5f2001541061155457505050918a60058b8787956114708d8f6003908f9b7fa9916cfc916048f749749f9b9bc7084d59ae139782ad7e971ba3b69d4857d5009f9d9c60609f9d8f9061142590848e855f52528d865f2090845f5252855f20541015611c6a565b815f52828c52835f20905f528b528c611442845f20918254611cad565b9055805f52818b52611458858a855f2001611c33565b6114628154611cba565b90555f5289525f2001611c33565b61147b888254611c49565b90556114868d611c1c565b6114908154611cba565b905561149d600d54611cba565b600d5560086114bb6127106114b4600c548b611cc8565b0489611cad565b5f848152919096528e902080546001600160a81b0319168d1760a08f901b60ff60a01b1617815592830180546001600160a01b0319168a1790556002830187905542600384015582015501805460ff1916905584611541575f8080809361152a95600b54165af16107cb611cdb565b87519283528983015286820152a381805551908152f35b61154f91600b5416856120b4565b61152a565b8491601a8f927f4578636565647320746f74616c207370656e64696e6720636170000000000000938f519562461bcd60e51b8752860152840152820152fd5b8491601c8f927f45786365656473206461696c79207370656e64696e67206c696d697400000000938f519562461bcd60e51b8752860152840152820152fd5b5090919293949560026115e48c611bf1565b0154906127109182039082821161161257918f98979695949392869261160991611cc8565b04979050611382565b83601189634e487b7160e01b5f52525ffd5b82819392503d831161164c575b61163b81836119fa565b810103126101fa578e90515f61137c565b503d611631565b8d513d5f823e3d90fd5b8491601a7f4461696c79207175657279206c696d6974206578636565646564000000000000928f8e519562461bcd60e51b8752860152840152820152fd5b875f52828c525f6116b18a60018d842001611c33565b55875f52828c52426116c88a60028d5f2001611c33565b55611311565b8b601186634e487b7160e01b5f52525ffd5b7153657276696365206e6f742061637469766560701b849160128d8f8e519562461bcd60e51b8752860152840152820152fd5b7f5061796d656e7420746f6b656e206e6f7420737570706f7274656400000000008491601b8d8f8e519562461bcd60e51b8752860152840152820152fd5b7f55736572206163636f756e74206e6f7420616374697665000000000000000000849160178d8f8e519562461bcd60e51b8752860152840152820152fd5b9050346101fa5760203660031901126101fa573563ffffffff60e01b81168091036101fa57602091637965db0b60e01b82149182156117d2575b50519015158152f35b6301ffc9a760e01b1491505f6117c9565b82346101fa5760e03660031901126101fa5781359060088210156101fa57602435608435801515908181036101fa5767ffffffffffffffff9560a4358781116101fa576118339036908301611a38565b9161183c611f83565b61184587611bf1565b92858455611873600192604435848701556064356002870155600386019060ff801983541691151516179055565b828401928151998a11610499575061188b8354611b17565b601f8111611982575b50602090601f8a116001146119035798809281927f4ff705835d9605dd3527958e66b551f383a33866fbb8bd40cda2303bab7eda4d9a9b5f946118f8575b50501b915f199060031b1c19161790555b600560c43591015582519182526020820152a2005b015192508b806118d2565b9890601f19821690845f52805f20915f5b81811061196c57509a837f4ff705835d9605dd3527958e66b551f383a33866fbb8bd40cda2303bab7eda4d9b9c10611954575b505050811b0190556118e3565b01515f1960f88460031b161c19169055898080611947565b8c83015184559285019260209283019201611914565b835f5260205f20601f8b0160051c81019160208c106119c0575b601f0160051c019083905b8281106119b5575050611894565b5f81550183906119a7565b909150819061199c565b6040810190811067ffffffffffffffff8211176119e657604052565b634e487b7160e01b5f52604160045260245ffd5b90601f8019910116810190811067ffffffffffffffff8211176119e657604052565b67ffffffffffffffff81116119e657601f01601f191660200190565b81601f820112156101fa57803590611a4f82611a1c565b92611a5d60405194856119fa565b828452602083830101116101fa57815f926020809301838601378301015290565b600435906001600160a01b03821682036101fa57565b602435906001600160a01b03821682036101fa57565b60409060031901126101fa576004356001600160a01b03811681036101fa579060243560088110156101fa5790565b91908251928382525f5b848110611b03575050825f602080949584010152601f8019910116010190565b602081830181015184830182015201611ae3565b90600182811c92168015611b45575b6020831014611b3157565b634e487b7160e01b5f52602260045260245ffd5b91607f1691611b26565b9060405191825f8254611b6181611b17565b908184526020946001916001811690815f14611bcf5750600114611b91575b505050611b8f925003836119fa565b565b5f90815285812095935091905b818310611bb7575050611b8f93508201015f8080611b80565b85548884018501529485019487945091830191611b9e565b92505050611b8f94925060ff191682840152151560051b8201015f8080611b80565b6008811015611c08575f52600660205260405f2090565b634e487b7160e01b5f52602160045260245ffd5b6008811015611c08575f52600f60205260405f2090565b906008811015611c08575f5260205260405f2090565b91908201809211611c5657565b634e487b7160e01b5f52601160045260245ffd5b15611c7157565b60405162461bcd60e51b8152602060048201526014602482015273496e73756666696369656e742062616c616e636560601b6044820152606490fd5b91908203918211611c5657565b5f198114611c565760010190565b81810292918115918404141715611c5657565b3d15611d05573d90611cec82611a1c565b91611cfa60405193846119fa565b82523d5f602084013e565b606090565b15611d1157565b60405162461bcd60e51b8152602060048201526013602482015272115512081d1c985b9cd9995c8819985a5b1959606a1b6044820152606490fd5b919060018060a01b0380931690815f526020916007835260409460ff6007875f2001541615611f1b578360ff6003611d8386611bf1565b01541615611eea57602491600a54168751928380926370a0823160e01b82528660048301525afa908115611ee0575f91611eb3575b506005611dc484611bf1565b015411611e55575f52600782526001611deb611de48383885f2001611c33565b5492611bf1565b01541115611e1d576d1058d8d95cdcc819dc985b9d195960921b6001935191611e13836119ca565b600e835282015290565b7f4461696c79207175657279206c696d69742072656163686564000000000000005f935191611e4b836119ca565b6019835282015290565b5050915f928151916060830183811067ffffffffffffffff8211176119e6576865642050464f524b2960b81b927f496e73756666696369656e74206750464f524b20746f6b656e7320287374616b9183526029855284015282015290565b90508381813d8311611ed9575b611eca81836119fa565b810103126101fa57515f611db8565b503d611ec0565b86513d5f823e3d90fd5b505050507153657276696365206e6f742061637469766560701b5f935191611f11836119ca565b6012835282015290565b505050714163636f756e74206e6f742061637469766560701b5f935191611f11836119ca565b15611f4857565b60405162461bcd60e51b8152602060048201526013602482015272151bdad95b881b9bdd081cdd5c1c1bdc9d1959606a1b6044820152606490fd5b335f9081527f29152311108055f848337cef7f4aa231fcb3761fe61a0e784567e3ff5217393560205260409020547f09717ac20005278352439ebfe1b489a0fa1eccb8e4f93830ef8886bb58ec7bc59060ff1615611fde5750565b6044906040519063e2517d3f60e01b82523360048301526024820152fd5b335f9081527fad3228b676f7d3cd4284a5443f17f1962b36e491b30a40b2405849e597ba5fb5602052604090205460ff161561203457565b60405163e2517d3f60e01b81523360048201525f6024820152604490fd5b805f525f60205260405f20335f5260205260ff60405f20541615611fde5750565b600260015414612084576002600155565b604051633ee5aeb560e01b8152600490fd5b60ff600254166120a257565b60405163d93c066560e01b8152600490fd5b60405163a9059cbb60e01b60208201526001600160a01b039092166024830152604480830193909352918152608081019167ffffffffffffffff8311828410176119e657611b8f926040526121f2565b90815f525f60205260405f209060018060a01b031690815f5260205260ff60405f205416155f1461217a57815f525f60205260405f20815f5260205260405f20600160ff1982541617905533917f2f8788117e7eff1d82e926ec794901d17c78024a50270940304540a733656f0d5f80a4600190565b50505f90565b90815f525f60205260405f209060018060a01b031690815f5260205260ff60405f2054165f1461217a57815f525f60205260405f20815f5260205260405f2060ff19815416905533917ff6391f5c32d9c69d2a47ea670b442974b53935d1edc7fd64eb21e047a839171b5f80a4600190565b905f602091828151910182855af11561224c575f513d61224357506001600160a01b0381163b155b6122215750565b604051635274afe760e01b81526001600160a01b039091166004820152602490fd5b6001141561221a565b6040513d5f823e3d90fdfea2646970667358221220bbed80592fe1a103df883c79fc80ff3d8078931224e7c3425a76666a3a29259264736f6c634300081800332f8788117e7eff1d82e926ec794901d17c78024a50270940304540a733656f0dad3228b676f7d3cd4284a5443f17f1962b36e491b30a40b2405849e597ba5fb5","opcodes":"PUSH1 0x80 CALLVALUE PUSH3 0x5DD JUMPI PUSH1 0x1F PUSH3 0x2BA6 CODESIZE DUP2 SWAP1 SUB SWAP2 DUP3 ADD PUSH1 0x1F NOT AND DUP4 ADD SWAP3 SWAP2 SWAP1 PUSH1 0x1 PUSH1 0x1 PUSH1 0x40 SHL SUB DUP5 GT DUP4 DUP6 LT OR PUSH3 0x5C9 JUMPI DUP2 PUSH1 0x60 SWAP3 DUP5 SWAP3 PUSH1 0x40 SWAP7 DUP8 MSTORE DUP4 CODECOPY DUP2 ADD SUB SLT PUSH3 0x5DD JUMPI PUSH3 0x51 DUP2 PUSH3 0x601 JUMP JUMPDEST SWAP1 PUSH3 0x6D DUP4 PUSH3 0x65 PUSH1 0x20 DUP5 ADD PUSH3 0x601 JUMP JUMPDEST SWAP3 ADD PUSH3 0x601 JUMP JUMPDEST SWAP1 PUSH1 0x1 DUP1 SSTORE PUSH2 0x1F4 PUSH1 0xC SSTORE PUSH3 0x83 CALLER PUSH3 0x616 JUMP JUMPDEST POP PUSH3 0x8F CALLER PUSH3 0x686 JUMP JUMPDEST POP PUSH3 0x9B CALLER PUSH3 0x726 JUMP JUMPDEST POP PUSH3 0xA7 CALLER PUSH3 0x7C0 JUMP JUMPDEST POP PUSH1 0x9 DUP1 SLOAD PUSH1 0x1 PUSH1 0x1 PUSH1 0xA0 SHL SUB NOT SWAP1 DUP2 AND PUSH1 0x1 PUSH1 0x1 PUSH1 0xA0 SHL SUB SWAP6 DUP7 AND OR SWAP1 SWAP2 SSTORE PUSH1 0xA DUP1 SLOAD DUP3 AND SWAP3 DUP6 AND SWAP3 SWAP1 SWAP3 OR SWAP1 SWAP2 SSTORE PUSH1 0xB DUP1 SLOAD SWAP1 SWAP2 AND SWAP2 SWAP1 SWAP3 AND OR SWAP1 SSTORE DUP1 MLOAD PUSH2 0x100 DUP2 ADD PUSH1 0x1 PUSH1 0x1 PUSH1 0x40 SHL SUB DUP2 GT DUP3 DUP3 LT OR PUSH3 0x5C9 JUMPI DUP3 MSTORE SWAP1 PUSH3 0x10C PUSH3 0x5E1 JUMP JUMPDEST PUSH1 0x16 DUP2 MSTORE PUSH32 0x436F6E7363696F75736E65737320416E616C7973697300000000000000000000 PUSH1 0x20 DUP3 ADD MSTORE DUP3 MSTORE PUSH3 0x142 PUSH3 0x5E1 JUMP JUMPDEST PUSH1 0x12 DUP2 MSTORE PUSH18 0x53747261746567696320496E736967687473 PUSH1 0x70 SHL PUSH1 0x20 DUP3 ADD MSTORE PUSH1 0x20 DUP4 ADD MSTORE PUSH3 0x170 PUSH3 0x5E1 JUMP JUMPDEST PUSH1 0x12 DUP2 MSTORE PUSH18 0x4465636973696F6E2053796E746865736973 PUSH1 0x70 SHL PUSH1 0x20 DUP3 ADD MSTORE DUP2 DUP4 ADD MSTORE PUSH3 0x19D PUSH3 0x5E1 JUMP JUMPDEST PUSH1 0x13 DUP2 MSTORE PUSH32 0x5061747465726E205265636F676E6974696F6E00000000000000000000000000 PUSH1 0x20 DUP3 ADD MSTORE PUSH1 0x60 DUP4 ADD MSTORE PUSH3 0x1D6 PUSH3 0x5E1 JUMP JUMPDEST PUSH1 0x12 DUP2 MSTORE PUSH18 0x2BB4B9B237B69024B73A32B3B930BA34B7B7 PUSH1 0x71 SHL PUSH1 0x20 DUP3 ADD MSTORE PUSH1 0x80 DUP4 ADD MSTORE PUSH3 0x204 PUSH3 0x5E1 JUMP JUMPDEST PUSH1 0x11 DUP2 MSTORE PUSH17 0x10DC9A5CDA5CC813585B9859D95B595B9D PUSH1 0x7A SHL PUSH1 0x20 DUP3 ADD MSTORE PUSH1 0xA0 DUP4 ADD MSTORE PUSH3 0x231 PUSH3 0x5E1 JUMP JUMPDEST PUSH1 0x13 DUP2 MSTORE PUSH32 0x4C65616465727368697020436F616368696E6700000000000000000000000000 PUSH1 0x20 DUP3 ADD MSTORE PUSH1 0xC0 DUP4 ADD MSTORE PUSH3 0x26A PUSH3 0x5E1 JUMP JUMPDEST PUSH1 0x13 DUP2 MSTORE PUSH32 0x5265666C656374696F6E2047756964616E636500000000000000000000000000 PUSH1 0x20 DUP3 ADD MSTORE PUSH1 0xE0 DUP4 ADD MSTORE PUSH0 SWAP2 JUMPDEST PUSH1 0x8 DUP4 LT PUSH3 0x3A9 JUMPI POP PUSH0 DUP1 MSTORE PUSH1 0x3 PUSH1 0x20 MSTORE DUP1 PUSH0 KECCAK256 PUSH1 0xFF NOT SWAP1 PUSH1 0x1 DUP3 DUP3 SLOAD AND OR SWAP1 SSTORE PUSH1 0x4 PUSH1 0x20 MSTORE DUP2 PUSH0 KECCAK256 PUSH3 0x2DD PUSH3 0x2D6 DUP3 SLOAD PUSH3 0x85A JUMP JUMPDEST DUP3 PUSH3 0x8AD JUMP JUMPDEST PUSH32 0x457468657265756D000000000000000000000000000000000000000000000010 SWAP1 SSTORE PUSH0 DUP1 DUP1 MSTORE PUSH1 0x5 PUSH1 0x20 SWAP1 DUP2 MSTORE DUP4 DUP3 KECCAK256 DUP1 SLOAD DUP5 AND PUSH1 0x12 OR SWAP1 SSTORE PUSH1 0x9 DUP1 SLOAD PUSH1 0x1 PUSH1 0x1 PUSH1 0xA0 SHL SUB SWAP1 DUP2 AND DUP5 MSTORE PUSH1 0x3 DUP4 MSTORE DUP6 DUP5 KECCAK256 DUP1 SLOAD DUP7 AND PUSH1 0x1 OR SWAP1 SSTORE SWAP1 SLOAD AND DUP3 MSTORE PUSH1 0x4 SWAP1 MSTORE DUP3 SWAP1 KECCAK256 DUP1 SLOAD PUSH3 0x356 SWAP1 PUSH3 0x2D6 SWAP1 PUSH3 0x85A JUMP JUMPDEST PUSH32 0x5069746368666F726B20546F6B656E000000000000000000000000000000001E SWAP1 SSTORE PUSH1 0x9 SLOAD PUSH1 0x1 PUSH1 0x1 PUSH1 0xA0 SHL SUB AND PUSH0 SWAP1 DUP2 MSTORE PUSH1 0x5 PUSH1 0x20 MSTORE DUP3 SWAP1 KECCAK256 DUP1 SLOAD SWAP1 SWAP2 AND PUSH1 0x12 OR SWAP1 SSTORE MLOAD PUSH2 0x228D SWAP1 DUP2 PUSH3 0x8D9 DUP3 CODECOPY RETURN JUMPDEST DUP3 PUSH0 MSTORE PUSH1 0x6 PUSH1 0x20 MSTORE DUP2 PUSH0 KECCAK256 PUSH1 0x1 DUP5 ADD DUP5 GT PUSH3 0x4F5 JUMPI PUSH7 0x2386F26FC10000 PUSH1 0x1 DUP6 ADD DUP2 DUP2 MUL SWAP2 DUP2 DUP4 DIV EQ SWAP1 ISZERO OR ISZERO PUSH3 0x4F5 JUMPI DUP2 SSTORE PUSH1 0xA DUP5 MUL DUP5 ISZERO SWAP1 DUP6 DUP2 DIV PUSH1 0xA EQ DUP3 OR ISZERO PUSH3 0x4F5 JUMPI PUSH1 0x64 SUB PUSH1 0x64 DUP2 GT PUSH3 0x4F5 JUMPI PUSH1 0x1 DUP4 ADD SSTORE PUSH2 0x1F4 DUP6 MUL SWAP1 DUP6 DUP3 DIV PUSH2 0x1F4 EQ OR ISZERO PUSH3 0x4F5 JUMPI PUSH2 0x3E8 SWAP1 DUP2 ADD DUP1 SWAP2 GT PUSH3 0x4F5 JUMPI PUSH1 0x2 DUP3 ADD SSTORE PUSH1 0x3 DUP2 ADD DUP1 SLOAD PUSH1 0xFF NOT AND PUSH1 0x1 OR SWAP1 SSTORE PUSH1 0x5 DUP5 SWAP1 SHL DUP3 ADD MLOAD DUP1 MLOAD SWAP1 SWAP5 SWAP1 PUSH1 0x1 PUSH1 0x1 PUSH1 0x40 SHL SUB DUP2 GT PUSH3 0x5C9 JUMPI PUSH3 0x465 PUSH1 0x4 DUP5 ADD SLOAD PUSH3 0x85A JUMP JUMPDEST PUSH1 0x1F DUP2 GT PUSH3 0x586 JUMPI JUMPDEST POP PUSH1 0x20 PUSH1 0x1F DUP3 GT PUSH1 0x1 EQ PUSH3 0x515 JUMPI DUP2 SWAP3 SWAP4 SWAP5 SWAP6 SWAP7 PUSH0 SWAP3 PUSH3 0x509 JUMPI JUMPDEST POP POP DUP2 PUSH1 0x1 SHL SWAP2 PUSH0 NOT SWAP1 PUSH1 0x3 SHL SHR NOT AND OR PUSH1 0x4 DUP4 ADD SSTORE JUMPDEST PUSH1 0x64 PUSH1 0x1 DUP3 ADD MUL PUSH1 0x1 DUP3 ADD DUP2 DIV PUSH1 0x64 EQ PUSH1 0x1 DUP4 ADD ISZERO OR ISZERO PUSH3 0x4F5 JUMPI PUSH9 0x56BC75E2D63100000 PUSH1 0x1 DUP4 ADD MUL SWAP1 DUP1 DUP3 DIV PUSH8 0xDE0B6B3A7640000 EQ SWAP1 ISZERO OR ISZERO PUSH3 0x4F5 JUMPI PUSH1 0x5 PUSH1 0x1 SWAP4 ADD SSTORE ADD SWAP2 SWAP1 PUSH3 0x29C JUMP JUMPDEST PUSH4 0x4E487B71 PUSH1 0xE0 SHL PUSH0 MSTORE PUSH1 0x11 PUSH1 0x4 MSTORE PUSH1 0x24 PUSH0 REVERT JUMPDEST ADD MLOAD SWAP1 POP PUSH0 DUP1 PUSH3 0x48C JUMP JUMPDEST PUSH1 0x4 DUP5 ADD PUSH0 MSTORE PUSH1 0x20 PUSH0 KECCAK256 SWAP1 PUSH0 JUMPDEST PUSH1 0x1F NOT DUP5 AND DUP2 LT PUSH3 0x56D JUMPI POP PUSH1 0x1 SWAP4 SWAP5 SWAP6 SWAP7 SWAP8 DUP4 PUSH1 0x1F NOT DUP2 AND LT PUSH3 0x554 JUMPI JUMPDEST POP POP POP DUP2 SHL ADD PUSH1 0x4 DUP4 ADD SSTORE PUSH3 0x4A3 JUMP JUMPDEST ADD MLOAD PUSH0 NOT PUSH1 0xF8 DUP5 PUSH1 0x3 SHL AND SHR NOT AND SWAP1 SSTORE PUSH0 DUP1 DUP1 PUSH3 0x543 JUMP JUMPDEST SWAP1 SWAP2 PUSH1 0x20 PUSH1 0x1 DUP2 SWAP3 DUP6 DUP13 ADD MLOAD DUP2 SSTORE ADD SWAP4 ADD SWAP2 ADD PUSH3 0x522 JUMP JUMPDEST PUSH3 0x5B7 SWAP1 PUSH1 0x4 DUP6 ADD PUSH0 MSTORE PUSH1 0x20 PUSH0 KECCAK256 PUSH1 0x1F DUP5 ADD PUSH1 0x5 SHR DUP2 ADD SWAP2 PUSH1 0x20 DUP6 LT PUSH3 0x5BE JUMPI JUMPDEST PUSH1 0x1F ADD PUSH1 0x5 SHR ADD SWAP1 PUSH3 0x895 JUMP JUMPDEST PUSH0 PUSH3 0x46F JUMP JUMPDEST SWAP1 SWAP2 POP DUP2 SWAP1 PUSH3 0x5A9 JUMP JUMPDEST PUSH4 0x4E487B71 PUSH1 0xE0 SHL PUSH0 MSTORE PUSH1 0x41 PUSH1 0x4 MSTORE PUSH1 0x24 PUSH0 REVERT JUMPDEST PUSH0 DUP1 REVERT JUMPDEST PUSH1 0x40 DUP1 MLOAD SWAP2 SWAP1 DUP3 ADD PUSH1 0x1 PUSH1 0x1 PUSH1 0x40 SHL SUB DUP2 GT DUP4 DUP3 LT OR PUSH3 0x5C9 JUMPI PUSH1 0x40 MSTORE JUMP JUMPDEST MLOAD SWAP1 PUSH1 0x1 PUSH1 0x1 PUSH1 0xA0 SHL SUB DUP3 AND DUP3 SUB PUSH3 0x5DD JUMPI JUMP JUMPDEST PUSH1 0x1 PUSH1 0x1 PUSH1 0xA0 SHL SUB AND PUSH0 DUP2 DUP2 MSTORE PUSH0 DUP1 MLOAD PUSH1 0x20 PUSH3 0x2B86 DUP4 CODECOPY DUP2 MLOAD SWAP2 MSTORE PUSH1 0x20 MSTORE PUSH1 0x40 SWAP1 KECCAK256 SLOAD PUSH1 0xFF AND PUSH3 0x681 JUMPI PUSH0 DUP2 DUP2 MSTORE PUSH0 DUP1 MLOAD PUSH1 0x20 PUSH3 0x2B86 DUP4 CODECOPY DUP2 MLOAD SWAP2 MSTORE PUSH1 0x20 MSTORE PUSH1 0x40 DUP2 KECCAK256 DUP1 SLOAD PUSH1 0xFF NOT AND PUSH1 0x1 OR SWAP1 SSTORE CALLER SWAP2 SWAP1 PUSH0 DUP1 MLOAD PUSH1 0x20 PUSH3 0x2B66 DUP4 CODECOPY DUP2 MLOAD SWAP2 MSTORE DUP2 DUP1 LOG4 PUSH1 0x1 SWAP1 JUMP JUMPDEST POP PUSH0 SWAP1 JUMP JUMPDEST PUSH1 0x1 PUSH1 0x1 PUSH1 0xA0 SHL SUB AND PUSH0 DUP2 DUP2 MSTORE PUSH32 0x29152311108055F848337CEF7F4AA231FCB3761FE61A0E784567E3FF52173935 PUSH1 0x20 MSTORE PUSH1 0x40 SWAP1 KECCAK256 SLOAD PUSH32 0x9717AC20005278352439EBFE1B489A0FA1ECCB8E4F93830EF8886BB58EC7BC5 SWAP2 SWAP1 PUSH1 0xFF AND PUSH3 0x720 JUMPI DUP2 PUSH0 MSTORE PUSH0 PUSH1 0x20 MSTORE PUSH1 0x40 PUSH0 KECCAK256 DUP2 PUSH0 MSTORE PUSH1 0x20 MSTORE PUSH1 0x40 PUSH0 KECCAK256 PUSH1 0x1 PUSH1 0xFF NOT DUP3 SLOAD AND OR SWAP1 SSTORE CALLER SWAP2 PUSH0 DUP1 MLOAD PUSH1 0x20 PUSH3 0x2B66 DUP4 CODECOPY DUP2 MLOAD SWAP2 MSTORE PUSH0 DUP1 LOG4 PUSH1 0x1 SWAP1 JUMP JUMPDEST POP POP PUSH0 SWAP1 JUMP JUMPDEST PUSH1 0x1 PUSH1 0x1 PUSH1 0xA0 SHL SUB AND PUSH0 DUP2 DUP2 MSTORE PUSH32 0xF65F1E21292C0916561C1A8E90ECF6045CF602D2B224C969034C3FF7E13DE05E PUSH1 0x20 MSTORE PUSH1 0x40 SWAP1 KECCAK256 SLOAD PUSH32 0xD98BD38965825A7AF6AE08C852B128DC25EB9F0288E41A50907CAE35F789C07E SWAP2 SWAP1 PUSH1 0xFF AND PUSH3 0x720 JUMPI DUP2 PUSH0 MSTORE PUSH0 PUSH1 0x20 MSTORE PUSH1 0x40 PUSH0 KECCAK256 DUP2 PUSH0 MSTORE PUSH1 0x20 MSTORE PUSH1 0x40 PUSH0 KECCAK256 PUSH1 0x1 PUSH1 0xFF NOT DUP3 SLOAD AND OR SWAP1 SSTORE CALLER SWAP2 PUSH0 DUP1 MLOAD PUSH1 0x20 PUSH3 0x2B66 DUP4 CODECOPY DUP2 MLOAD SWAP2 MSTORE PUSH0 DUP1 LOG4 PUSH1 0x1 SWAP1 JUMP JUMPDEST PUSH1 0x1 PUSH1 0x1 PUSH1 0xA0 SHL SUB AND PUSH0 DUP2 DUP2 MSTORE PUSH32 0xEB2C2D0841E9DA5FCA78674283A7CB3A9E5B8317DE4C414BC414531BAB5F6233 PUSH1 0x20 MSTORE PUSH1 0x40 SWAP1 KECCAK256 SLOAD PUSH32 0xC89F08B49C068684BF15B77E68611A9F601E70D1F919059510BCCD18E691E535 SWAP2 SWAP1 PUSH1 0xFF AND PUSH3 0x720 JUMPI DUP2 PUSH0 MSTORE PUSH0 PUSH1 0x20 MSTORE PUSH1 0x40 PUSH0 KECCAK256 DUP2 PUSH0 MSTORE PUSH1 0x20 MSTORE PUSH1 0x40 PUSH0 KECCAK256 PUSH1 0x1 PUSH1 0xFF NOT DUP3 SLOAD AND OR SWAP1 SSTORE CALLER SWAP2 PUSH0 DUP1 MLOAD PUSH1 0x20 PUSH3 0x2B66 DUP4 CODECOPY DUP2 MLOAD SWAP2 MSTORE PUSH0 DUP1 LOG4 PUSH1 0x1 SWAP1 JUMP JUMPDEST SWAP1 PUSH1 0x1 DUP3 DUP2 SHR SWAP3 AND DUP1 ISZERO PUSH3 0x88A JUMPI JUMPDEST PUSH1 0x20 DUP4 LT EQ PUSH3 0x876 JUMPI JUMP JUMPDEST PUSH4 0x4E487B71 PUSH1 0xE0 SHL PUSH0 MSTORE PUSH1 0x22 PUSH1 0x4 MSTORE PUSH1 0x24 PUSH0 REVERT JUMPDEST SWAP2 PUSH1 0x7F AND SWAP2 PUSH3 0x86A JUMP JUMPDEST DUP2 DUP2 LT PUSH3 0x8A1 JUMPI POP POP JUMP JUMPDEST PUSH0 DUP2 SSTORE PUSH1 0x1 ADD PUSH3 0x895 JUMP JUMPDEST SWAP1 PUSH1 0x1F DUP2 GT PUSH3 0x8BB JUMPI POP POP JUMP JUMPDEST PUSH3 0x8D6 SWAP2 PUSH0 MSTORE PUSH1 0x1F PUSH1 0x20 PUSH0 KECCAK256 SWAP2 ADD PUSH1 0x5 SHR DUP2 ADD SWAP1 PUSH3 0x895 JUMP JUMPDEST JUMP INVALID PUSH1 0x40 PUSH1 0x80 DUP2 MSTORE PUSH1 0x4 DUP1 CALLDATASIZE LT ISZERO PUSH2 0x13 JUMPI PUSH0 DUP1 REVERT JUMPDEST PUSH0 CALLDATALOAD PUSH1 0xE0 SHR SWAP1 DUP2 PUSH3 0x6E3266 EQ PUSH2 0x17E3 JUMPI DUP2 PUSH4 0x1FFC9A7 EQ PUSH2 0x178F JUMPI DUP2 PUSH4 0x1567DDB1 EQ PUSH2 0x123F JUMPI DUP2 PUSH4 0x177C49A7 EQ PUSH2 0x1138 JUMPI DUP2 PUSH4 0x18C1326E EQ PUSH2 0x10FE JUMPI DUP2 PUSH4 0x23290BAD EQ PUSH2 0xEF7 JUMPI DUP2 PUSH4 0x248A9CA3 EQ PUSH2 0xECE JUMPI DUP2 PUSH4 0x2601E6EC EQ PUSH2 0xEB0 JUMPI DUP2 PUSH4 0x2E5B86A0 EQ PUSH2 0xE88 JUMPI DUP2 PUSH4 0x2F2FF15D EQ PUSH2 0xE60 JUMPI DUP2 PUSH4 0x36568ABE EQ PUSH2 0xE1C JUMPI DUP2 PUSH4 0x37E32D1D EQ PUSH2 0xDFE JUMPI DUP2 PUSH4 0x39EE3BE6 EQ PUSH2 0xDC9 JUMPI DUP2 PUSH4 0x3A8611B5 EQ PUSH2 0xD8F JUMPI DUP2 PUSH4 0x3F4BA83A EQ PUSH2 0xD28 JUMPI DUP2 PUSH4 0x4200003B EQ PUSH2 0xC89 JUMPI DUP2 PUSH4 0x450FAC71 EQ PUSH2 0xB15 JUMPI DUP2 PUSH4 0x4AAEEAF7 EQ PUSH2 0x9EB JUMPI DUP2 PUSH4 0x5251D91C EQ PUSH2 0x1FE JUMPI DUP2 PUSH4 0x5C975ABB EQ PUSH2 0x9C8 JUMPI DUP2 PUSH4 0x66C29B81 EQ PUSH2 0x9A0 JUMPI DUP2 PUSH4 0x68C4AC26 EQ PUSH2 0x964 JUMPI DUP2 PUSH4 0x73F8FD4B EQ PUSH2 0x91B JUMPI DUP2 PUSH4 0x7CF21A98 EQ PUSH2 0x8F7 JUMPI DUP2 PUSH4 0x8456CB59 EQ PUSH2 0x89E JUMPI DUP2 PUSH4 0x8EE573AC EQ PUSH2 0x864 JUMPI DUP2 PUSH4 0x91D14854 EQ PUSH2 0x821 JUMPI DUP2 PUSH4 0xA16C86F7 EQ PUSH2 0x749 JUMPI DUP2 PUSH4 0xA217FDDF EQ PUSH2 0x72F JUMPI DUP2 PUSH4 0xA8FC75E1 EQ PUSH2 0x6E5 JUMPI DUP2 PUSH4 0xAB691551 EQ PUSH2 0x6BC JUMPI DUP2 PUSH4 0xAFD97699 EQ PUSH2 0x681 JUMPI DUP2 PUSH4 0xB329B6A7 EQ PUSH2 0x5E9 JUMPI DUP2 PUSH4 0xC5F956AF EQ PUSH2 0x5C1 JUMPI DUP2 PUSH4 0xC979E8A7 EQ PUSH2 0x587 JUMPI DUP2 PUSH4 0xCA06D744 EQ PUSH2 0x505 JUMPI DUP2 PUSH4 0xCDD78CFC EQ PUSH2 0x4E7 JUMPI DUP2 PUSH4 0xD547741F EQ PUSH2 0x4AC JUMPI DUP2 PUSH4 0xEFCB45F7 EQ PUSH2 0x27B JUMPI DUP2 PUSH4 0xFB47E016 EQ PUSH2 0x1FE JUMPI POP PUSH4 0xFEFA554B EQ PUSH2 0x1DF JUMPI PUSH0 DUP1 REVERT JUMPDEST CALLVALUE PUSH2 0x1FA JUMPI PUSH0 CALLDATASIZE PUSH1 0x3 NOT ADD SLT PUSH2 0x1FA JUMPI PUSH1 0x20 SWAP1 MLOAD PUSH2 0x3E8 DUP2 MSTORE RETURN JUMPDEST PUSH0 DUP1 REVERT JUMPDEST DUP3 CALLVALUE PUSH2 0x1FA JUMPI PUSH1 0x20 CALLDATASIZE PUSH1 0x3 NOT ADD SLT PUSH2 0x1FA JUMPI PUSH1 0x1 PUSH1 0x1 PUSH1 0xA0 SHL SUB PUSH2 0x220 PUSH2 0x1A7E JUMP JUMPDEST AND PUSH0 MSTORE PUSH1 0x7 PUSH1 0x20 MSTORE PUSH2 0x277 DUP2 PUSH0 KECCAK256 SWAP3 DUP4 ADD SLOAD SWAP2 PUSH1 0x5 DUP5 ADD SLOAD SWAP4 PUSH1 0x6 DUP2 ADD SLOAD PUSH1 0x8 PUSH1 0xFF PUSH1 0x7 DUP5 ADD SLOAD AND SWAP3 ADD SLOAD SWAP3 MLOAD SWAP6 DUP7 SWAP6 DUP7 SWAP2 SWAP3 PUSH1 0x80 SWAP4 SWAP7 SWAP6 SWAP5 SWAP2 SWAP7 PUSH1 0xA0 DUP5 ADD SWAP8 DUP5 MSTORE PUSH1 0x20 DUP5 ADD MSTORE PUSH1 0x40 DUP4 ADD MSTORE ISZERO ISZERO PUSH1 0x60 DUP3 ADD MSTORE ADD MSTORE JUMP JUMPDEST SUB SWAP1 RETURN JUMPDEST DUP3 CALLVALUE PUSH2 0x1FA JUMPI PUSH1 0x80 CALLDATASIZE PUSH1 0x3 NOT ADD SLT PUSH2 0x1FA JUMPI PUSH2 0x295 PUSH2 0x1A7E JUMP JUMPDEST SWAP1 PUSH1 0x24 CALLDATALOAD SWAP1 DUP2 ISZERO ISZERO SWAP1 DUP2 DUP4 SUB PUSH2 0x1FA JUMPI PUSH8 0xFFFFFFFFFFFFFFFF SWAP4 PUSH1 0x44 CALLDATALOAD DUP6 DUP2 GT PUSH2 0x1FA JUMPI PUSH2 0x2C6 SWAP1 CALLDATASIZE SWAP1 DUP9 ADD PUSH2 0x1A38 JUMP JUMPDEST SWAP6 PUSH1 0x64 CALLDATALOAD SWAP2 PUSH1 0xFF DUP4 AND DUP1 SWAP4 SUB PUSH2 0x1FA JUMPI PUSH2 0x2DE PUSH2 0x1FFC JUMP JUMPDEST PUSH1 0x1 DUP1 PUSH1 0xA0 SHL SUB AND SWAP6 DUP7 PUSH0 MSTORE PUSH1 0x20 SWAP6 PUSH1 0x3 DUP8 MSTORE PUSH2 0x309 DUP2 DUP7 PUSH0 KECCAK256 SWAP1 PUSH1 0xFF DUP1 NOT DUP4 SLOAD AND SWAP2 ISZERO ISZERO AND OR SWAP1 SSTORE JUMP JUMPDEST PUSH2 0x33A JUMPI JUMPDEST DUP7 PUSH32 0x9ACD25432E73C8FD87C1F86FCC1337F44943FE5D5B8FF9651AF0FD79A3E2B15E DUP8 DUP8 DUP8 MLOAD SWAP1 DUP2 MSTORE LOG2 STOP JUMPDEST DUP2 DUP7 MSTORE DUP4 PUSH0 KECCAK256 SWAP2 DUP9 MLOAD SWAP2 DUP3 GT PUSH2 0x499 JUMPI POP PUSH2 0x355 DUP3 SLOAD PUSH2 0x1B17 JUMP JUMPDEST PUSH1 0x1F DUP2 GT PUSH2 0x456 JUMPI JUMPDEST POP DUP6 PUSH1 0x1F DUP3 GT PUSH1 0x1 EQ PUSH2 0x3D3 JUMPI DUP2 SWAP1 PUSH32 0x9ACD25432E73C8FD87C1F86FCC1337F44943FE5D5B8FF9651AF0FD79A3E2B15E SWAP9 SWAP10 PUSH0 SWAP3 PUSH2 0x3C8 JUMPI JUMPDEST POP POP DUP2 PUSH1 0x1 SHL SWAP2 PUSH0 NOT SWAP1 PUSH1 0x3 SHL SHR NOT AND OR SWAP1 SSTORE JUMPDEST DUP6 PUSH0 MSTORE PUSH1 0x5 DUP5 MSTORE DUP2 PUSH0 KECCAK256 SWAP1 PUSH1 0xFF NOT DUP3 SLOAD AND OR SWAP1 SSTORE DUP5 SWAP4 DUP7 DUP1 PUSH2 0x30E JUMP JUMPDEST ADD MLOAD SWAP1 POP DUP10 DUP1 PUSH2 0x397 JUMP JUMPDEST PUSH1 0x1F NOT DUP3 AND SWAP9 DUP4 PUSH0 MSTORE DUP8 PUSH0 KECCAK256 SWAP10 PUSH0 JUMPDEST DUP2 DUP2 LT PUSH2 0x43F JUMPI POP SWAP2 PUSH32 0x9ACD25432E73C8FD87C1F86FCC1337F44943FE5D5B8FF9651AF0FD79A3E2B15E SWAP10 SWAP11 SWAP2 DUP5 PUSH1 0x1 SWAP6 SWAP5 LT PUSH2 0x427 JUMPI JUMPDEST POP POP POP DUP2 SHL ADD SWAP1 SSTORE PUSH2 0x3AB JUMP JUMPDEST ADD MLOAD PUSH0 NOT PUSH1 0xF8 DUP5 PUSH1 0x3 SHL AND SHR NOT AND SWAP1 SSTORE DUP10 DUP1 DUP1 PUSH2 0x41A JUMP JUMPDEST DUP4 DUP4 ADD MLOAD DUP13 SSTORE PUSH1 0x1 SWAP1 SWAP12 ADD SWAP11 SWAP3 DUP10 ADD SWAP3 DUP10 ADD PUSH2 0x3E2 JUMP JUMPDEST DUP3 PUSH0 MSTORE DUP7 PUSH0 KECCAK256 PUSH1 0x1F DUP4 ADD PUSH1 0x5 SHR DUP2 ADD SWAP2 DUP9 DUP5 LT PUSH2 0x48F JUMPI JUMPDEST PUSH1 0x1F ADD PUSH1 0x5 SHR ADD SWAP1 JUMPDEST DUP2 DUP2 LT PUSH2 0x484 JUMPI POP PUSH2 0x35E JUMP JUMPDEST PUSH0 DUP2 SSTORE PUSH1 0x1 ADD PUSH2 0x477 JUMP JUMPDEST SWAP1 SWAP2 POP DUP2 SWAP1 PUSH2 0x46E JUMP JUMPDEST PUSH1 0x41 SWAP1 PUSH4 0x4E487B71 PUSH1 0xE0 SHL PUSH0 MSTORE MSTORE PUSH1 0x24 PUSH0 REVERT JUMPDEST DUP3 CALLVALUE PUSH2 0x1FA JUMPI DUP1 PUSH1 0x3 NOT CALLDATASIZE ADD SLT PUSH2 0x1FA JUMPI PUSH2 0x4E5 SWAP2 CALLDATALOAD PUSH2 0x4E0 PUSH1 0x1 PUSH2 0x4CF PUSH2 0x1A94 JUMP JUMPDEST SWAP4 DUP4 PUSH0 MSTORE PUSH0 PUSH1 0x20 MSTORE PUSH0 KECCAK256 ADD SLOAD PUSH2 0x2052 JUMP JUMPDEST PUSH2 0x2180 JUMP JUMPDEST STOP JUMPDEST DUP3 CALLVALUE PUSH2 0x1FA JUMPI PUSH0 CALLDATASIZE PUSH1 0x3 NOT ADD SLT PUSH2 0x1FA JUMPI PUSH1 0x20 SWAP1 PUSH1 0xC SLOAD SWAP1 MLOAD SWAP1 DUP2 MSTORE RETURN JUMPDEST DUP3 CALLVALUE PUSH2 0x1FA JUMPI PUSH1 0x20 CALLDATASIZE PUSH1 0x3 NOT ADD SLT PUSH2 0x1FA JUMPI DUP2 CALLDATALOAD PUSH1 0x8 DUP2 LT ISZERO PUSH2 0x1FA JUMPI PUSH2 0x52B SWAP1 PUSH2 0x1BF1 JUMP JUMPDEST SWAP1 PUSH2 0x57D DUP3 SLOAD SWAP3 PUSH1 0x1 DUP2 ADD SLOAD SWAP5 PUSH1 0x2 DUP3 ADD SLOAD PUSH1 0x5 PUSH2 0x552 PUSH1 0xFF PUSH1 0x3 DUP7 ADD SLOAD AND SWAP4 DUP6 ADD PUSH2 0x1B4F JUMP JUMPDEST SWAP4 ADD SLOAD SWAP5 DUP1 MLOAD SWAP8 DUP9 SWAP8 DUP9 MSTORE PUSH1 0x20 DUP9 ADD MSTORE DUP7 ADD MSTORE ISZERO ISZERO PUSH1 0x60 DUP6 ADD MSTORE PUSH1 0xC0 PUSH1 0x80 DUP6 ADD MSTORE PUSH1 0xC0 DUP5 ADD SWAP1 PUSH2 0x1AD9 JUMP JUMPDEST SWAP1 PUSH1 0xA0 DUP4 ADD MSTORE SUB SWAP1 RETURN JUMPDEST DUP3 CALLVALUE PUSH2 0x1FA JUMPI PUSH0 CALLDATASIZE PUSH1 0x3 NOT ADD SLT PUSH2 0x1FA JUMPI PUSH1 0x20 SWAP1 MLOAD PUSH32 0x9717AC20005278352439EBFE1B489A0FA1ECCB8E4F93830EF8886BB58EC7BC5 DUP2 MSTORE RETURN JUMPDEST DUP3 CALLVALUE PUSH2 0x1FA JUMPI PUSH0 CALLDATASIZE PUSH1 0x3 NOT ADD SLT PUSH2 0x1FA JUMPI PUSH1 0xB SLOAD SWAP1 MLOAD PUSH1 0x1 PUSH1 0x1 PUSH1 0xA0 SHL SUB SWAP1 SWAP2 AND DUP2 MSTORE PUSH1 0x20 SWAP1 RETURN JUMPDEST DUP3 CALLVALUE PUSH2 0x1FA JUMPI PUSH1 0x20 CALLDATASIZE PUSH1 0x3 NOT ADD SLT PUSH2 0x1FA JUMPI DUP2 CALLDATALOAD PUSH0 MSTORE PUSH1 0x8 PUSH1 0x20 MSTORE DUP1 PUSH0 KECCAK256 SWAP1 DUP2 SLOAD SWAP2 PUSH1 0x1 DUP1 PUSH1 0xA0 SHL SUB SWAP2 PUSH1 0xFF DUP5 PUSH1 0xA0 SHR AND SWAP1 DUP4 PUSH1 0x1 DUP5 ADD SLOAD AND PUSH1 0x2 DUP5 ADD SLOAD SWAP2 PUSH1 0x3 DUP6 ADD SLOAD SWAP4 PUSH1 0xFF PUSH1 0x5 DUP11 DUP9 ADD SLOAD SWAP8 ADD SLOAD AND SWAP7 DUP3 MLOAD SWAP9 AND DUP9 MSTORE PUSH1 0x8 DUP2 LT ISZERO PUSH2 0x66E JUMPI PUSH1 0xE0 SWAP9 POP PUSH1 0x20 DUP9 ADD MSTORE DUP7 ADD MSTORE PUSH1 0x60 DUP6 ADD MSTORE PUSH1 0x80 DUP5 ADD MSTORE PUSH1 0xA0 DUP4 ADD MSTORE ISZERO ISZERO PUSH1 0xC0 DUP3 ADD MSTORE RETURN JUMPDEST PUSH1 0x21 DUP10 PUSH4 0x4E487B71 PUSH1 0xE0 SHL PUSH0 MSTORE MSTORE PUSH1 0x24 PUSH0 REVERT JUMPDEST DUP3 CALLVALUE PUSH2 0x1FA JUMPI PUSH1 0x20 SWAP1 PUSH2 0x6B4 PUSH2 0x696 CALLDATASIZE PUSH2 0x1AAA JUMP JUMPDEST PUSH1 0x1 PUSH1 0x1 PUSH1 0xA0 SHL SUB SWAP1 SWAP2 AND PUSH0 SWAP1 DUP2 MSTORE PUSH1 0x7 DUP6 MSTORE DUP4 SWAP1 KECCAK256 PUSH1 0x1 ADD PUSH2 0x1C33 JUMP JUMPDEST SLOAD SWAP1 MLOAD SWAP1 DUP2 MSTORE RETURN JUMPDEST SWAP1 POP CALLVALUE PUSH2 0x1FA JUMPI PUSH1 0x20 CALLDATASIZE PUSH1 0x3 NOT ADD SLT PUSH2 0x1FA JUMPI CALLDATALOAD SWAP1 PUSH1 0x8 DUP3 LT ISZERO PUSH2 0x1FA JUMPI PUSH2 0x6B4 PUSH1 0x20 SWAP3 PUSH2 0x1C1C JUMP JUMPDEST DUP3 CALLVALUE PUSH2 0x1FA JUMPI PUSH1 0x20 CALLDATASIZE PUSH1 0x3 NOT ADD SLT PUSH2 0x1FA JUMPI PUSH2 0x277 SWAP2 PUSH1 0x1 PUSH1 0x1 PUSH1 0xA0 SHL SUB PUSH2 0x70B PUSH2 0x1A7E JUMP JUMPDEST AND PUSH0 MSTORE PUSH1 0x20 MSTORE PUSH2 0x71C DUP2 PUSH0 KECCAK256 PUSH2 0x1B4F JUMP JUMPDEST SWAP1 MLOAD SWAP2 DUP3 SWAP2 PUSH1 0x20 DUP4 MSTORE PUSH1 0x20 DUP4 ADD SWAP1 PUSH2 0x1AD9 JUMP JUMPDEST DUP3 CALLVALUE PUSH2 0x1FA JUMPI PUSH0 CALLDATASIZE PUSH1 0x3 NOT ADD SLT PUSH2 0x1FA JUMPI PUSH1 0x20 SWAP1 MLOAD PUSH0 DUP2 MSTORE RETURN JUMPDEST DUP3 CALLVALUE PUSH2 0x1FA JUMPI PUSH1 0x20 CALLDATASIZE PUSH1 0x3 NOT ADD SLT PUSH2 0x1FA JUMPI PUSH2 0x763 PUSH2 0x1A7E JUMP JUMPDEST PUSH2 0x76B PUSH2 0x2073 JUMP JUMPDEST CALLER PUSH0 MSTORE PUSH1 0x7 PUSH1 0x20 MSTORE PUSH1 0x8 DUP3 PUSH0 KECCAK256 ADD SLOAD SWAP3 DUP4 ISZERO PUSH2 0x7E8 JUMPI POP PUSH1 0x8 PUSH0 SWAP2 PUSH1 0x1 DUP1 PUSH1 0xA0 SHL SUB AND SWAP3 DUP4 DUP4 MSTORE PUSH1 0x3 PUSH1 0x20 MSTORE PUSH2 0x7A6 PUSH1 0xFF DUP3 DUP6 KECCAK256 SLOAD AND PUSH2 0x1F41 JUMP JUMPDEST CALLER DUP4 MSTORE PUSH1 0x7 PUSH1 0x20 MSTORE DUP3 KECCAK256 ADD SSTORE DUP1 PUSH2 0x7D7 JUMPI POP PUSH0 DUP1 DUP1 DUP1 PUSH2 0x7D1 SWAP5 CALLER GAS CALL PUSH2 0x7CB PUSH2 0x1CDB JUMP JUMPDEST POP PUSH2 0x1D0A JUMP JUMPDEST PUSH1 0x1 DUP1 SSTORE STOP JUMPDEST SWAP1 PUSH2 0x7E3 SWAP2 CALLER SWAP1 PUSH2 0x20B4 JUMP JUMPDEST PUSH2 0x7D1 JUMP JUMPDEST PUSH1 0x64 SWAP1 PUSH1 0x20 DUP5 MLOAD SWAP2 PUSH3 0x461BCD PUSH1 0xE5 SHL DUP4 MSTORE DUP3 ADD MSTORE PUSH1 0x13 PUSH1 0x24 DUP3 ADD MSTORE PUSH19 0x4E6F20726566756E6420617661696C61626C65 PUSH1 0x68 SHL PUSH1 0x44 DUP3 ADD MSTORE REVERT JUMPDEST DUP3 CALLVALUE PUSH2 0x1FA JUMPI DUP1 PUSH1 0x3 NOT CALLDATASIZE ADD SLT PUSH2 0x1FA JUMPI PUSH1 0x20 SWAP2 PUSH2 0x83D PUSH2 0x1A94 JUMP JUMPDEST SWAP1 CALLDATALOAD PUSH0 MSTORE PUSH0 DUP4 MSTORE DUP2 PUSH0 KECCAK256 SWAP1 PUSH1 0x1 DUP1 PUSH1 0xA0 SHL SUB AND PUSH0 MSTORE DUP3 MSTORE PUSH1 0xFF DUP2 PUSH0 KECCAK256 SLOAD AND SWAP1 MLOAD SWAP1 ISZERO ISZERO DUP2 MSTORE RETURN JUMPDEST DUP3 CALLVALUE PUSH2 0x1FA JUMPI PUSH1 0x20 CALLDATASIZE PUSH1 0x3 NOT ADD SLT PUSH2 0x1FA JUMPI PUSH1 0x20 SWAP1 PUSH1 0x1 PUSH1 0x1 PUSH1 0xA0 SHL SUB PUSH2 0x889 PUSH2 0x1A7E JUMP JUMPDEST AND PUSH0 MSTORE PUSH1 0x5 DUP3 MSTORE PUSH1 0xFF DUP2 PUSH0 KECCAK256 SLOAD AND SWAP1 MLOAD SWAP1 DUP2 MSTORE RETURN JUMPDEST DUP3 CALLVALUE PUSH2 0x1FA JUMPI PUSH0 CALLDATASIZE PUSH1 0x3 NOT ADD SLT PUSH2 0x1FA JUMPI PUSH1 0x20 PUSH32 0x62E78CEA01BEE320CD4E420270B5EA74000D11B0C9F74754EBDBFC544B05A258 SWAP2 PUSH2 0x8DB PUSH2 0x1FFC JUMP JUMPDEST PUSH2 0x8E3 PUSH2 0x2096 JUMP JUMPDEST PUSH1 0x1 PUSH1 0xFF NOT PUSH1 0x2 SLOAD AND OR PUSH1 0x2 SSTORE MLOAD CALLER DUP2 MSTORE LOG1 STOP JUMPDEST DUP3 CALLVALUE PUSH2 0x1FA JUMPI PUSH0 CALLDATASIZE PUSH1 0x3 NOT ADD SLT PUSH2 0x1FA JUMPI PUSH1 0x20 SWAP1 MLOAD PUSH10 0x21E19E0C9BAB2400000 DUP2 MSTORE RETURN JUMPDEST DUP3 CALLVALUE PUSH2 0x1FA JUMPI DUP1 PUSH1 0x3 NOT CALLDATASIZE ADD SLT PUSH2 0x1FA JUMPI PUSH1 0x20 SWAP1 PUSH2 0x937 PUSH2 0x1A7E JUMP JUMPDEST PUSH2 0x93F PUSH2 0x1A94 JUMP JUMPDEST SWAP1 PUSH1 0x1 DUP1 PUSH1 0xA0 SHL SUB DUP1 SWAP2 AND PUSH0 MSTORE PUSH1 0x7 DUP5 MSTORE DUP3 PUSH0 KECCAK256 SWAP2 AND PUSH0 MSTORE DUP3 MSTORE DUP1 PUSH0 KECCAK256 SLOAD SWAP1 MLOAD SWAP1 DUP2 MSTORE RETURN JUMPDEST DUP3 CALLVALUE PUSH2 0x1FA JUMPI PUSH1 0x20 CALLDATASIZE PUSH1 0x3 NOT ADD SLT PUSH2 0x1FA JUMPI PUSH1 0x20 SWAP1 PUSH1 0x1 PUSH1 0x1 PUSH1 0xA0 SHL SUB PUSH2 0x989 PUSH2 0x1A7E JUMP JUMPDEST AND PUSH0 MSTORE PUSH1 0x3 DUP3 MSTORE PUSH1 0xFF DUP2 PUSH0 KECCAK256 SLOAD AND SWAP1 MLOAD SWAP1 ISZERO ISZERO DUP2 MSTORE RETURN JUMPDEST DUP3 CALLVALUE PUSH2 0x1FA JUMPI PUSH0 CALLDATASIZE PUSH1 0x3 NOT ADD SLT PUSH2 0x1FA JUMPI PUSH1 0x9 SLOAD SWAP1 MLOAD PUSH1 0x1 PUSH1 0x1 PUSH1 0xA0 SHL SUB SWAP1 SWAP2 AND DUP2 MSTORE PUSH1 0x20 SWAP1 RETURN JUMPDEST DUP3 CALLVALUE PUSH2 0x1FA JUMPI PUSH0 CALLDATASIZE PUSH1 0x3 NOT ADD SLT PUSH2 0x1FA JUMPI PUSH1 0x20 SWAP1 PUSH1 0xFF PUSH1 0x2 SLOAD AND SWAP1 MLOAD SWAP1 ISZERO ISZERO DUP2 MSTORE RETURN JUMPDEST SWAP1 POP PUSH0 CALLDATASIZE PUSH1 0x3 NOT ADD SLT PUSH2 0x1FA JUMPI PUSH2 0xA00 PUSH2 0x2073 JUMP JUMPDEST PUSH2 0xA08 PUSH2 0x2096 JUMP JUMPDEST CALLVALUE ISZERO PUSH2 0xAE3 JUMPI PUSH0 DUP1 MSTORE PUSH1 0x3 PUSH1 0x20 MSTORE PUSH1 0xFF DUP3 PUSH0 KECCAK256 SLOAD AND ISZERO PUSH2 0xAAD JUMPI SWAP1 PUSH0 SWAP2 CALLER DUP4 MSTORE PUSH1 0x7 PUSH1 0x20 MSTORE DUP2 DUP4 KECCAK256 SWAP1 PUSH1 0x6 DUP3 ADD SWAP1 DUP2 SLOAD ISZERO PUSH2 0xA86 JUMPI JUMPDEST POP POP DUP3 DUP1 MSTORE PUSH1 0x20 MSTORE DUP1 DUP3 KECCAK256 PUSH2 0xA54 CALLVALUE DUP3 SLOAD PUSH2 0x1C49 JUMP JUMPDEST SWAP1 SSTORE MLOAD CALLVALUE DUP2 MSTORE PUSH32 0x291F84CC50460BA253DD410DFB3142A5F89D5D3E95BCBCB3C3739FC60ABE10F8 PUSH1 0x20 CALLER SWAP3 LOG3 PUSH1 0x1 DUP1 SSTORE STOP JUMPDEST PUSH9 0x56BC75E2D63100000 SWAP2 TIMESTAMP SWAP1 SSTORE PUSH1 0x7 DUP4 ADD PUSH1 0x1 PUSH1 0xFF NOT DUP3 SLOAD AND OR SWAP1 SSTORE DUP3 ADD SSTORE PUSH0 DUP1 PUSH2 0xA3E JUMP JUMPDEST PUSH1 0x20 PUSH1 0x64 SWAP3 MLOAD SWAP2 PUSH3 0x461BCD PUSH1 0xE5 SHL DUP4 MSTORE DUP3 ADD MSTORE PUSH1 0x11 PUSH1 0x24 DUP3 ADD MSTORE PUSH17 0x115512081B9BDD081CDD5C1C1BDC9D1959 PUSH1 0x7A SHL PUSH1 0x44 DUP3 ADD MSTORE REVERT JUMPDEST PUSH1 0x20 PUSH1 0x64 SWAP3 MLOAD SWAP2 PUSH3 0x461BCD PUSH1 0xE5 SHL DUP4 MSTORE DUP3 ADD MSTORE PUSH1 0xD PUSH1 0x24 DUP3 ADD MSTORE PUSH13 0x9AEAE6E840E6CADCC8408AA89 PUSH1 0x9B SHL PUSH1 0x44 DUP3 ADD MSTORE REVERT JUMPDEST SWAP1 POP CALLVALUE PUSH2 0x1FA JUMPI DUP2 PUSH1 0x3 NOT CALLDATASIZE ADD SLT PUSH2 0x1FA JUMPI PUSH2 0xB2F PUSH2 0x1A7E JUMP JUMPDEST SWAP1 PUSH1 0x24 CALLDATALOAD SWAP2 PUSH2 0xB3C PUSH2 0x2073 JUMP JUMPDEST PUSH2 0xB44 PUSH2 0x2096 JUMP JUMPDEST PUSH1 0x1 DUP1 PUSH1 0xA0 SHL SUB AND SWAP3 DUP4 PUSH0 MSTORE PUSH1 0x20 SWAP2 PUSH1 0x3 DUP4 MSTORE PUSH2 0xB66 PUSH1 0xFF DUP4 PUSH0 KECCAK256 SLOAD AND PUSH2 0x1F41 JUMP JUMPDEST DUP4 ISZERO PUSH2 0xC48 JUMPI CALLER PUSH0 MSTORE PUSH1 0x7 DUP4 MSTORE DUP2 PUSH0 KECCAK256 DUP2 PUSH1 0x6 DUP3 ADD SWAP2 DUP3 SLOAD ISZERO PUSH2 0xC21 JUMPI JUMPDEST POP POP DUP3 MLOAD PUSH4 0x23B872DD PUSH1 0xE0 SHL DUP6 DUP3 ADD MSTORE CALLER PUSH1 0x24 DUP3 ADD MSTORE ADDRESS PUSH1 0x44 DUP3 ADD MSTORE PUSH1 0x64 DUP1 DUP3 ADD DUP8 SWAP1 MSTORE DUP2 MSTORE SWAP2 PUSH1 0xA0 DUP4 ADD SWAP2 POP PUSH8 0xFFFFFFFFFFFFFFFF DUP3 GT DUP4 DUP4 LT OR PUSH2 0x499 JUMPI POP DUP3 SWAP2 PUSH2 0xBF5 SWAP2 PUSH32 0x291F84CC50460BA253DD410DFB3142A5F89D5D3E95BCBCB3C3739FC60ABE10F8 SWAP6 SWAP5 MSTORE DUP7 PUSH2 0x21F2 JUMP JUMPDEST CALLER PUSH0 MSTORE PUSH1 0x7 DUP3 MSTORE DUP1 PUSH0 KECCAK256 DUP6 PUSH0 MSTORE DUP3 MSTORE DUP1 PUSH0 KECCAK256 PUSH2 0xC12 DUP6 DUP3 SLOAD PUSH2 0x1C49 JUMP JUMPDEST SWAP1 SSTORE MLOAD SWAP3 DUP4 MSTORE CALLER SWAP3 LOG3 PUSH1 0x1 DUP1 SSTORE STOP JUMPDEST PUSH9 0x56BC75E2D63100000 SWAP3 TIMESTAMP SWAP1 SSTORE PUSH1 0x7 DUP2 ADD PUSH1 0x1 PUSH1 0xFF NOT DUP3 SLOAD AND OR SWAP1 SSTORE ADD SSTORE PUSH0 DUP2 DUP2 PUSH2 0xB84 JUMP JUMPDEST DUP3 PUSH1 0x64 SWAP3 MLOAD SWAP2 PUSH3 0x461BCD PUSH1 0xE5 SHL DUP4 MSTORE DUP3 ADD MSTORE PUSH1 0x17 PUSH1 0x24 DUP3 ADD MSTORE PUSH32 0x416D6F756E74206D75737420626520706F736974697665000000000000000000 PUSH1 0x44 DUP3 ADD MSTORE REVERT JUMPDEST DUP3 CALLVALUE PUSH2 0x1FA JUMPI DUP1 PUSH1 0x3 NOT CALLDATASIZE ADD SLT PUSH2 0x1FA JUMPI PUSH2 0xCA2 PUSH2 0x1A7E JUMP JUMPDEST SWAP1 PUSH1 0x24 CALLDATALOAD SWAP2 PUSH2 0xCAF PUSH2 0x2073 JUMP JUMPDEST PUSH1 0x1 DUP1 PUSH1 0xA0 SHL SUB AND SWAP1 DUP2 PUSH0 MSTORE PUSH1 0x3 PUSH1 0x20 MSTORE PUSH2 0xCCF PUSH1 0xFF DUP3 PUSH0 KECCAK256 SLOAD AND PUSH2 0x1F41 JUMP JUMPDEST CALLER PUSH0 MSTORE PUSH1 0x7 PUSH1 0x20 MSTORE DUP1 PUSH0 KECCAK256 DUP3 PUSH0 MSTORE PUSH1 0x20 MSTORE PUSH2 0xCEF DUP4 DUP3 PUSH0 KECCAK256 SLOAD LT ISZERO PUSH2 0x1C6A JUMP JUMPDEST CALLER PUSH0 MSTORE PUSH1 0x7 PUSH1 0x20 MSTORE DUP1 PUSH0 KECCAK256 DUP3 PUSH0 MSTORE PUSH1 0x20 MSTORE PUSH0 KECCAK256 PUSH2 0xD0D DUP4 DUP3 SLOAD PUSH2 0x1CAD JUMP JUMPDEST SWAP1 SSTORE DUP1 PUSH2 0x7D7 JUMPI POP PUSH0 DUP1 DUP1 DUP1 PUSH2 0x7D1 SWAP5 CALLER GAS CALL PUSH2 0x7CB PUSH2 0x1CDB JUMP JUMPDEST DUP3 CALLVALUE PUSH2 0x1FA JUMPI PUSH0 CALLDATASIZE PUSH1 0x3 NOT ADD SLT PUSH2 0x1FA JUMPI PUSH2 0xD41 PUSH2 0x1FFC JUMP JUMPDEST PUSH1 0x2 SLOAD SWAP2 PUSH1 0xFF DUP4 AND ISZERO PUSH2 0xD81 JUMPI PUSH32 0x5DB9EE0A495BF2E6FF9C91A7834C1BA4FDD244A5E8AA4E537BD38AEAE4B073AA PUSH1 0x20 DUP4 DUP6 PUSH1 0xFF NOT AND PUSH1 0x2 SSTORE MLOAD CALLER DUP2 MSTORE LOG1 STOP JUMPDEST SWAP1 MLOAD PUSH4 0x8DFC202B PUSH1 0xE0 SHL DUP2 MSTORE REVERT JUMPDEST DUP3 CALLVALUE PUSH2 0x1FA JUMPI PUSH0 CALLDATASIZE PUSH1 0x3 NOT ADD SLT PUSH2 0x1FA JUMPI PUSH1 0x20 SWAP1 MLOAD PUSH32 0xD98BD38965825A7AF6AE08C852B128DC25EB9F0288E41A50907CAE35F789C07E DUP2 MSTORE RETURN JUMPDEST DUP3 CALLVALUE PUSH2 0x1FA JUMPI PUSH2 0x277 PUSH2 0xDE4 PUSH2 0xDDE CALLDATASIZE PUSH2 0x1AAA JUMP JUMPDEST SWAP1 PUSH2 0x1D4C JUMP JUMPDEST DUP4 SWAP3 SWAP2 SWAP3 MLOAD SWAP4 DUP5 SWAP4 ISZERO ISZERO DUP5 MSTORE DUP1 PUSH1 0x20 DUP6 ADD MSTORE DUP4 ADD SWAP1 PUSH2 0x1AD9 JUMP JUMPDEST DUP3 CALLVALUE PUSH2 0x1FA JUMPI PUSH0 CALLDATASIZE PUSH1 0x3 NOT ADD SLT PUSH2 0x1FA JUMPI PUSH1 0x20 SWAP1 PUSH1 0xD SLOAD SWAP1 MLOAD SWAP1 DUP2 MSTORE RETURN JUMPDEST DUP3 CALLVALUE PUSH2 0x1FA JUMPI DUP1 PUSH1 0x3 NOT CALLDATASIZE ADD SLT PUSH2 0x1FA JUMPI PUSH2 0xE35 PUSH2 0x1A94 JUMP JUMPDEST SWAP1 CALLER PUSH1 0x1 PUSH1 0x1 PUSH1 0xA0 SHL SUB DUP4 AND SUB PUSH2 0xE51 JUMPI POP PUSH2 0x4E5 SWAP2 CALLDATALOAD PUSH2 0x2180 JUMP JUMPDEST MLOAD PUSH4 0x334BD919 PUSH1 0xE1 SHL DUP2 MSTORE SWAP1 POP REVERT JUMPDEST DUP3 CALLVALUE PUSH2 0x1FA JUMPI DUP1 PUSH1 0x3 NOT CALLDATASIZE ADD SLT PUSH2 0x1FA JUMPI PUSH2 0x4E5 SWAP2 CALLDATALOAD PUSH2 0xE83 PUSH1 0x1 PUSH2 0x4CF PUSH2 0x1A94 JUMP JUMPDEST PUSH2 0x2104 JUMP JUMPDEST DUP3 CALLVALUE PUSH2 0x1FA JUMPI PUSH0 CALLDATASIZE PUSH1 0x3 NOT ADD SLT PUSH2 0x1FA JUMPI PUSH1 0xA SLOAD SWAP1 MLOAD PUSH1 0x1 PUSH1 0x1 PUSH1 0xA0 SHL SUB SWAP1 SWAP2 AND DUP2 MSTORE PUSH1 0x20 SWAP1 RETURN JUMPDEST DUP3 CALLVALUE PUSH2 0x1FA JUMPI PUSH0 CALLDATASIZE PUSH1 0x3 NOT ADD SLT PUSH2 0x1FA JUMPI PUSH1 0x20 SWAP1 PUSH1 0xE SLOAD SWAP1 MLOAD SWAP1 DUP2 MSTORE RETURN JUMPDEST DUP3 CALLVALUE PUSH2 0x1FA JUMPI PUSH1 0x20 CALLDATASIZE PUSH1 0x3 NOT ADD SLT PUSH2 0x1FA JUMPI PUSH1 0x20 SWAP2 CALLDATALOAD PUSH0 MSTORE PUSH0 DUP3 MSTORE PUSH1 0x1 DUP2 PUSH0 KECCAK256 ADD SLOAD SWAP1 MLOAD SWAP1 DUP2 MSTORE RETURN JUMPDEST SWAP1 POP CALLVALUE PUSH2 0x1FA JUMPI DUP2 PUSH1 0x3 NOT CALLDATASIZE ADD SLT PUSH2 0x1FA JUMPI DUP1 CALLDATALOAD SWAP1 PUSH1 0x24 SWAP3 DUP4 CALLDATALOAD PUSH8 0xFFFFFFFFFFFFFFFF DUP2 GT PUSH2 0x1FA JUMPI PUSH2 0xF2D SWAP1 CALLDATASIZE SWAP1 DUP5 ADD PUSH2 0x1A38 JUMP JUMPDEST POP PUSH32 0xC89F08B49C068684BF15B77E68611A9F601E70D1F919059510BCCD18E691E535 SWAP1 DUP2 PUSH0 MSTORE PUSH1 0x20 SWAP2 PUSH0 DUP4 MSTORE DUP2 PUSH0 KECCAK256 CALLER PUSH0 MSTORE DUP4 MSTORE PUSH1 0xFF DUP3 PUSH0 KECCAK256 SLOAD AND ISZERO PUSH2 0x10E1 JUMPI POP PUSH2 0xF76 PUSH2 0x2073 JUMP JUMPDEST DUP4 PUSH0 MSTORE PUSH1 0x8 DUP3 MSTORE DUP1 PUSH0 KECCAK256 PUSH1 0x1 DUP1 PUSH1 0xA0 SHL SUB SWAP1 DUP2 DUP2 SLOAD AND SWAP5 DUP6 ISZERO PUSH2 0x10AB JUMPI PUSH1 0x5 DUP3 ADD SWAP1 DUP2 SLOAD SWAP9 PUSH1 0xFF DUP11 AND PUSH2 0x1076 JUMPI PUSH1 0x3 DUP5 ADD SLOAD PUSH3 0x93A80 DUP2 ADD DUP1 SWAP2 GT PUSH2 0x1063 JUMPI TIMESTAMP GT PUSH2 0x1029 JUMPI POP POP PUSH1 0x1 PUSH32 0xCCCEB8E0CF7D8F38CD67B4AF450F99EAFC2B50DA1A8540A256EB35B3AAECF436 SWAP7 SWAP8 SWAP9 PUSH1 0xFF NOT AND OR SWAP1 SSTORE PUSH1 0x2 DUP2 ADD SWAP6 DUP7 SLOAD SWAP1 PUSH0 MSTORE PUSH1 0x7 DUP6 MSTORE PUSH2 0x1009 PUSH1 0x8 DUP6 PUSH0 KECCAK256 ADD SWAP2 DUP3 SLOAD PUSH2 0x1C49 JUMP JUMPDEST SWAP1 SSTORE PUSH2 0x1016 PUSH1 0xE SLOAD PUSH2 0x1CBA JUMP JUMPDEST PUSH1 0xE SSTORE SLOAD AND SWAP4 SLOAD SWAP1 MLOAD SWAP1 DUP2 MSTORE LOG3 PUSH1 0x1 DUP1 SSTORE STOP JUMPDEST DUP6 MLOAD PUSH3 0x461BCD PUSH1 0xE5 SHL DUP2 MSTORE SWAP2 DUP3 ADD DUP8 SWAP1 MSTORE PUSH1 0x15 SWAP1 DUP3 ADD MSTORE PUSH21 0x1499599D5B99081C195C9A5BD908195E1C1A5C9959 PUSH1 0x5A SHL PUSH1 0x44 DUP3 ADD MSTORE PUSH1 0x64 SWAP1 REVERT JUMPDEST POP PUSH4 0x4E487B71 PUSH1 0xE0 SHL PUSH0 SWAP1 DUP2 MSTORE PUSH1 0x11 DUP4 MSTORE REVERT JUMPDEST DUP6 MLOAD PUSH3 0x461BCD PUSH1 0xE5 SHL DUP2 MSTORE SWAP2 DUP3 ADD DUP8 SWAP1 MSTORE PUSH1 0x10 SWAP1 DUP3 ADD MSTORE PUSH16 0x105B1C9958591E481C99599D5B991959 PUSH1 0x82 SHL PUSH1 0x44 DUP3 ADD MSTORE PUSH1 0x64 SWAP1 REVERT JUMPDEST DUP4 MLOAD PUSH3 0x461BCD PUSH1 0xE5 SHL DUP2 MSTORE SWAP1 DUP2 ADD DUP6 SWAP1 MSTORE PUSH1 0x11 DUP2 DUP10 ADD MSTORE PUSH17 0x14185E5B595B9D081B9BDD08199BDD5B99 PUSH1 0x7A SHL PUSH1 0x44 DUP3 ADD MSTORE PUSH1 0x64 SWAP1 REVERT JUMPDEST SWAP1 MLOAD PUSH4 0xE2517D3F PUSH1 0xE0 SHL DUP2 MSTORE CALLER DUP2 DUP6 ADD MSTORE DUP1 DUP7 ADD SWAP2 SWAP1 SWAP2 MSTORE PUSH1 0x44 SWAP1 REVERT JUMPDEST DUP3 CALLVALUE PUSH2 0x1FA JUMPI PUSH0 CALLDATASIZE PUSH1 0x3 NOT ADD SLT PUSH2 0x1FA JUMPI PUSH1 0x20 SWAP1 MLOAD PUSH32 0xC89F08B49C068684BF15B77E68611A9F601E70D1F919059510BCCD18E691E535 DUP2 MSTORE RETURN JUMPDEST SWAP1 POP CALLVALUE PUSH2 0x1FA JUMPI DUP2 PUSH1 0x3 NOT CALLDATASIZE ADD SLT PUSH2 0x1FA JUMPI PUSH2 0x1152 PUSH2 0x1A7E JUMP JUMPDEST PUSH1 0x24 CALLDATALOAD SWAP1 PUSH32 0xD98BD38965825A7AF6AE08C852B128DC25EB9F0288E41A50907CAE35F789C07E DUP1 PUSH0 MSTORE PUSH0 PUSH1 0x20 MSTORE DUP5 PUSH0 KECCAK256 CALLER PUSH0 MSTORE PUSH1 0x20 MSTORE PUSH1 0xFF DUP6 PUSH0 KECCAK256 SLOAD AND ISZERO PUSH2 0x1221 JUMPI POP PUSH10 0x21E19E0C9BAB2400000 DUP3 GT PUSH2 0x11E8 JUMPI DUP2 DUP5 PUSH32 0x74424510750F675220B94BAC388BFF82D6407B38F341B0226AF2AB45AF33DC2 SWAP4 PUSH1 0x20 SWAP4 PUSH1 0x1 DUP1 PUSH1 0xA0 SHL SUB AND SWAP6 DUP7 PUSH0 MSTORE PUSH1 0x7 DUP6 MSTORE DUP3 PUSH0 KECCAK256 ADD SSTORE MLOAD SWAP1 DUP2 MSTORE LOG2 STOP JUMPDEST DUP4 MLOAD PUSH3 0x461BCD PUSH1 0xE5 SHL DUP2 MSTORE PUSH1 0x20 DUP2 DUP6 ADD MSTORE PUSH1 0x13 PUSH1 0x24 DUP3 ADD MSTORE PUSH19 0x45786365656473206D6178696D756D2063617 PUSH1 0x6C SHL PUSH1 0x44 DUP3 ADD MSTORE PUSH1 0x64 SWAP1 REVERT JUMPDEST DUP5 MLOAD PUSH4 0xE2517D3F PUSH1 0xE0 SHL DUP2 MSTORE CALLER DUP2 DUP7 ADD MSTORE PUSH1 0x24 DUP2 ADD SWAP2 SWAP1 SWAP2 MSTORE PUSH1 0x44 SWAP1 REVERT JUMPDEST SWAP1 POP CALLVALUE PUSH2 0x1FA JUMPI PUSH1 0x80 CALLDATASIZE PUSH1 0x3 NOT ADD SLT PUSH2 0x1FA JUMPI PUSH2 0x125A PUSH2 0x1A7E JUMP JUMPDEST SWAP2 PUSH1 0x24 SWAP2 DUP3 CALLDATALOAD SWAP1 PUSH1 0x8 DUP3 LT ISZERO PUSH2 0x1FA JUMPI PUSH1 0x44 SWAP5 DUP6 CALLDATALOAD PUSH1 0x1 PUSH1 0x1 PUSH1 0xA0 SHL SUB DUP2 DUP2 AND SWAP3 SWAP2 DUP4 SWAP1 SUB PUSH2 0x1FA JUMPI PUSH1 0x64 SWAP4 DUP2 DUP6 CALLDATALOAD SWAP4 PUSH2 0x1292 PUSH2 0x1F83 JUMP JUMPDEST PUSH2 0x129A PUSH2 0x2073 JUMP JUMPDEST PUSH2 0x12A2 PUSH2 0x2096 JUMP JUMPDEST AND SWAP5 DUP6 PUSH0 MSTORE PUSH1 0x7 SWAP1 PUSH1 0x20 SWAP11 DUP3 DUP13 MSTORE PUSH1 0xFF DUP4 DUP12 PUSH0 KECCAK256 ADD SLOAD AND ISZERO PUSH2 0x1751 JUMPI DUP7 PUSH0 MSTORE PUSH1 0x3 DUP13 MSTORE PUSH1 0xFF DUP11 PUSH0 KECCAK256 SLOAD AND ISZERO PUSH2 0x1713 JUMPI PUSH1 0xFF PUSH1 0x3 PUSH2 0x12DE DUP12 PUSH2 0x1BF1 JUMP JUMPDEST ADD SLOAD AND ISZERO PUSH2 0x16E0 JUMPI DUP8 PUSH0 MSTORE DUP3 DUP13 MSTORE PUSH2 0x12FB DUP10 PUSH1 0x2 DUP13 PUSH0 KECCAK256 ADD PUSH2 0x1C33 JUMP JUMPDEST SLOAD PUSH3 0x15180 DUP2 ADD DUP1 SWAP2 GT PUSH2 0x16CE JUMPI TIMESTAMP LT ISZERO PUSH2 0x169B JUMPI JUMPDEST DUP8 PUSH0 MSTORE DUP3 DUP13 MSTORE PUSH1 0x1 SWAP11 PUSH2 0x1328 DUP11 DUP14 DUP14 PUSH0 KECCAK256 ADD PUSH2 0x1C33 JUMP JUMPDEST SLOAD DUP13 PUSH2 0x1333 DUP13 PUSH2 0x1BF1 JUMP JUMPDEST ADD SLOAD GT ISZERO PUSH2 0x165D JUMPI SWAP1 DUP13 SWAP6 SWAP5 SWAP4 SWAP3 SWAP2 DUP12 PUSH2 0x134C DUP13 PUSH2 0x1BF1 JUMP JUMPDEST SLOAD SWAP8 DUP12 DUP4 DUP10 PUSH1 0xA SLOAD AND SWAP4 MLOAD DUP1 SWAP5 DUP2 SWAP4 PUSH4 0x70A08231 PUSH1 0xE0 SHL DUP4 MSTORE DUP12 DUP4 ADD MSTORE GAS STATICCALL SWAP1 DUP2 ISZERO PUSH2 0x1653 JUMPI SWAP1 DUP16 SWAP2 PUSH0 SWAP2 PUSH2 0x1624 JUMPI JUMPDEST POP PUSH2 0x15D2 JUMPI JUMPDEST DUP5 SWAP1 DUP12 PUSH0 MSTORE MSTORE DUP5 DUP13 PUSH0 KECCAK256 ADD SLOAD DUP8 GT PUSH2 0x1593 JUMPI DUP14 DUP5 PUSH2 0x13B7 DUP10 DUP16 DUP16 DUP16 PUSH2 0x13B1 SWAP3 PUSH1 0x3 SWAP2 PUSH0 MSTORE DUP7 DUP9 MSTORE PUSH0 KECCAK256 ADD PUSH2 0x1C33 JUMP JUMPDEST SLOAD PUSH2 0x1C49 JUMP JUMPDEST SWAP2 DUP13 PUSH0 MSTORE MSTORE PUSH1 0x5 DUP14 PUSH0 KECCAK256 ADD SLOAD LT PUSH2 0x1554 JUMPI POP POP POP SWAP2 DUP11 PUSH1 0x5 DUP12 DUP8 DUP8 SWAP6 PUSH2 0x1470 DUP14 DUP16 PUSH1 0x3 SWAP1 DUP16 SWAP12 PUSH32 0xA9916CFC916048F749749F9B9BC7084D59AE139782AD7E971BA3B69D4857D500 SWAP16 SWAP14 SWAP13 PUSH1 0x60 SWAP16 SWAP14 DUP16 SWAP1 PUSH2 0x1425 SWAP1 DUP5 DUP15 DUP6 PUSH0 MSTORE MSTORE DUP14 DUP7 PUSH0 KECCAK256 SWAP1 DUP5 PUSH0 MSTORE MSTORE DUP6 PUSH0 KECCAK256 SLOAD LT ISZERO PUSH2 0x1C6A JUMP JUMPDEST DUP2 PUSH0 MSTORE DUP3 DUP13 MSTORE DUP4 PUSH0 KECCAK256 SWAP1 PUSH0 MSTORE DUP12 MSTORE DUP13 PUSH2 0x1442 DUP5 PUSH0 KECCAK256 SWAP2 DUP3 SLOAD PUSH2 0x1CAD JUMP JUMPDEST SWAP1 SSTORE DUP1 PUSH0 MSTORE DUP2 DUP12 MSTORE PUSH2 0x1458 DUP6 DUP11 DUP6 PUSH0 KECCAK256 ADD PUSH2 0x1C33 JUMP JUMPDEST PUSH2 0x1462 DUP2 SLOAD PUSH2 0x1CBA JUMP JUMPDEST SWAP1 SSTORE PUSH0 MSTORE DUP10 MSTORE PUSH0 KECCAK256 ADD PUSH2 0x1C33 JUMP JUMPDEST PUSH2 0x147B DUP9 DUP3 SLOAD PUSH2 0x1C49 JUMP JUMPDEST SWAP1 SSTORE PUSH2 0x1486 DUP14 PUSH2 0x1C1C JUMP JUMPDEST PUSH2 0x1490 DUP2 SLOAD PUSH2 0x1CBA JUMP JUMPDEST SWAP1 SSTORE PUSH2 0x149D PUSH1 0xD SLOAD PUSH2 0x1CBA JUMP JUMPDEST PUSH1 0xD SSTORE PUSH1 0x8 PUSH2 0x14BB PUSH2 0x2710 PUSH2 0x14B4 PUSH1 0xC SLOAD DUP12 PUSH2 0x1CC8 JUMP JUMPDEST DIV DUP10 PUSH2 0x1CAD JUMP JUMPDEST PUSH0 DUP5 DUP2 MSTORE SWAP2 SWAP1 SWAP7 MSTORE DUP15 SWAP1 KECCAK256 DUP1 SLOAD PUSH1 0x1 PUSH1 0x1 PUSH1 0xA8 SHL SUB NOT AND DUP14 OR PUSH1 0xA0 DUP16 SWAP1 SHL PUSH1 0xFF PUSH1 0xA0 SHL AND OR DUP2 SSTORE SWAP3 DUP4 ADD DUP1 SLOAD PUSH1 0x1 PUSH1 0x1 PUSH1 0xA0 SHL SUB NOT AND DUP11 OR SWAP1 SSTORE PUSH1 0x2 DUP4 ADD DUP8 SWAP1 SSTORE TIMESTAMP PUSH1 0x3 DUP5 ADD SSTORE DUP3 ADD SSTORE ADD DUP1 SLOAD PUSH1 0xFF NOT AND SWAP1 SSTORE DUP5 PUSH2 0x1541 JUMPI PUSH0 DUP1 DUP1 DUP1 SWAP4 PUSH2 0x152A SWAP6 PUSH1 0xB SLOAD AND GAS CALL PUSH2 0x7CB PUSH2 0x1CDB JUMP JUMPDEST DUP8 MLOAD SWAP3 DUP4 MSTORE DUP10 DUP4 ADD MSTORE DUP7 DUP3 ADD MSTORE LOG3 DUP2 DUP1 SSTORE MLOAD SWAP1 DUP2 MSTORE RETURN JUMPDEST PUSH2 0x154F SWAP2 PUSH1 0xB SLOAD AND DUP6 PUSH2 0x20B4 JUMP JUMPDEST PUSH2 0x152A JUMP JUMPDEST DUP5 SWAP2 PUSH1 0x1A DUP16 SWAP3 PUSH32 0x4578636565647320746F74616C207370656E64696E6720636170000000000000 SWAP4 DUP16 MLOAD SWAP6 PUSH3 0x461BCD PUSH1 0xE5 SHL DUP8 MSTORE DUP7 ADD MSTORE DUP5 ADD MSTORE DUP3 ADD MSTORE REVERT JUMPDEST DUP5 SWAP2 PUSH1 0x1C DUP16 SWAP3 PUSH32 0x45786365656473206461696C79207370656E64696E67206C696D697400000000 SWAP4 DUP16 MLOAD SWAP6 PUSH3 0x461BCD PUSH1 0xE5 SHL DUP8 MSTORE DUP7 ADD MSTORE DUP5 ADD MSTORE DUP3 ADD MSTORE REVERT JUMPDEST POP SWAP1 SWAP2 SWAP3 SWAP4 SWAP5 SWAP6 PUSH1 0x2 PUSH2 0x15E4 DUP13 PUSH2 0x1BF1 JUMP JUMPDEST ADD SLOAD SWAP1 PUSH2 0x2710 SWAP2 DUP3 SUB SWAP1 DUP3 DUP3 GT PUSH2 0x1612 JUMPI SWAP2 DUP16 SWAP9 SWAP8 SWAP7 SWAP6 SWAP5 SWAP4 SWAP3 DUP7 SWAP3 PUSH2 0x1609 SWAP2 PUSH2 0x1CC8 JUMP JUMPDEST DIV SWAP8 SWAP1 POP PUSH2 0x1382 JUMP JUMPDEST DUP4 PUSH1 0x11 DUP10 PUSH4 0x4E487B71 PUSH1 0xE0 SHL PUSH0 MSTORE MSTORE PUSH0 REVERT JUMPDEST DUP3 DUP2 SWAP4 SWAP3 POP RETURNDATASIZE DUP4 GT PUSH2 0x164C JUMPI JUMPDEST PUSH2 0x163B DUP2 DUP4 PUSH2 0x19FA JUMP JUMPDEST DUP2 ADD SUB SLT PUSH2 0x1FA JUMPI DUP15 SWAP1 MLOAD PUSH0 PUSH2 0x137C JUMP JUMPDEST POP RETURNDATASIZE PUSH2 0x1631 JUMP JUMPDEST DUP14 MLOAD RETURNDATASIZE PUSH0 DUP3 RETURNDATACOPY RETURNDATASIZE SWAP1 REVERT JUMPDEST DUP5 SWAP2 PUSH1 0x1A PUSH32 0x4461696C79207175657279206C696D6974206578636565646564000000000000 SWAP3 DUP16 DUP15 MLOAD SWAP6 PUSH3 0x461BCD PUSH1 0xE5 SHL DUP8 MSTORE DUP7 ADD MSTORE DUP5 ADD MSTORE DUP3 ADD MSTORE REVERT JUMPDEST DUP8 PUSH0 MSTORE DUP3 DUP13 MSTORE PUSH0 PUSH2 0x16B1 DUP11 PUSH1 0x1 DUP14 DUP5 KECCAK256 ADD PUSH2 0x1C33 JUMP JUMPDEST SSTORE DUP8 PUSH0 MSTORE DUP3 DUP13 MSTORE TIMESTAMP PUSH2 0x16C8 DUP11 PUSH1 0x2 DUP14 PUSH0 KECCAK256 ADD PUSH2 0x1C33 JUMP JUMPDEST SSTORE PUSH2 0x1311 JUMP JUMPDEST DUP12 PUSH1 0x11 DUP7 PUSH4 0x4E487B71 PUSH1 0xE0 SHL PUSH0 MSTORE MSTORE PUSH0 REVERT JUMPDEST PUSH18 0x53657276696365206E6F7420616374697665 PUSH1 0x70 SHL DUP5 SWAP2 PUSH1 0x12 DUP14 DUP16 DUP15 MLOAD SWAP6 PUSH3 0x461BCD PUSH1 0xE5 SHL DUP8 MSTORE DUP7 ADD MSTORE DUP5 ADD MSTORE DUP3 ADD MSTORE REVERT JUMPDEST PUSH32 0x5061796D656E7420746F6B656E206E6F7420737570706F727465640000000000 DUP5 SWAP2 PUSH1 0x1B DUP14 DUP16 DUP15 MLOAD SWAP6 PUSH3 0x461BCD PUSH1 0xE5 SHL DUP8 MSTORE DUP7 ADD MSTORE DUP5 ADD MSTORE DUP3 ADD MSTORE REVERT JUMPDEST PUSH32 0x55736572206163636F756E74206E6F7420616374697665000000000000000000 DUP5 SWAP2 PUSH1 0x17 DUP14 DUP16 DUP15 MLOAD SWAP6 PUSH3 0x461BCD PUSH1 0xE5 SHL DUP8 MSTORE DUP7 ADD MSTORE DUP5 ADD MSTORE DUP3 ADD MSTORE REVERT JUMPDEST SWAP1 POP CALLVALUE PUSH2 0x1FA JUMPI PUSH1 0x20 CALLDATASIZE PUSH1 0x3 NOT ADD SLT PUSH2 0x1FA JUMPI CALLDATALOAD PUSH4 0xFFFFFFFF PUSH1 0xE0 SHL DUP2 AND DUP1 SWAP2 SUB PUSH2 0x1FA JUMPI PUSH1 0x20 SWAP2 PUSH4 0x7965DB0B PUSH1 0xE0 SHL DUP3 EQ SWAP2 DUP3 ISZERO PUSH2 0x17D2 JUMPI JUMPDEST POP MLOAD SWAP1 ISZERO ISZERO DUP2 MSTORE RETURN JUMPDEST PUSH4 0x1FFC9A7 PUSH1 0xE0 SHL EQ SWAP2 POP PUSH0 PUSH2 0x17C9 JUMP JUMPDEST DUP3 CALLVALUE PUSH2 0x1FA JUMPI PUSH1 0xE0 CALLDATASIZE PUSH1 0x3 NOT ADD SLT PUSH2 0x1FA JUMPI DUP2 CALLDATALOAD SWAP1 PUSH1 0x8 DUP3 LT ISZERO PUSH2 0x1FA JUMPI PUSH1 0x24 CALLDATALOAD PUSH1 0x84 CALLDATALOAD DUP1 ISZERO ISZERO SWAP1 DUP2 DUP2 SUB PUSH2 0x1FA JUMPI PUSH8 0xFFFFFFFFFFFFFFFF SWAP6 PUSH1 0xA4 CALLDATALOAD DUP8 DUP2 GT PUSH2 0x1FA JUMPI PUSH2 0x1833 SWAP1 CALLDATASIZE SWAP1 DUP4 ADD PUSH2 0x1A38 JUMP JUMPDEST SWAP2 PUSH2 0x183C PUSH2 0x1F83 JUMP JUMPDEST PUSH2 0x1845 DUP8 PUSH2 0x1BF1 JUMP JUMPDEST SWAP3 DUP6 DUP5 SSTORE PUSH2 0x1873 PUSH1 0x1 SWAP3 PUSH1 0x44 CALLDATALOAD DUP5 DUP8 ADD SSTORE PUSH1 0x64 CALLDATALOAD PUSH1 0x2 DUP8 ADD SSTORE PUSH1 0x3 DUP7 ADD SWAP1 PUSH1 0xFF DUP1 NOT DUP4 SLOAD AND SWAP2 ISZERO ISZERO AND OR SWAP1 SSTORE JUMP JUMPDEST DUP3 DUP5 ADD SWAP3 DUP2 MLOAD SWAP10 DUP11 GT PUSH2 0x499 JUMPI POP PUSH2 0x188B DUP4 SLOAD PUSH2 0x1B17 JUMP JUMPDEST PUSH1 0x1F DUP2 GT PUSH2 0x1982 JUMPI JUMPDEST POP PUSH1 0x20 SWAP1 PUSH1 0x1F DUP11 GT PUSH1 0x1 EQ PUSH2 0x1903 JUMPI SWAP9 DUP1 SWAP3 DUP2 SWAP3 PUSH32 0x4FF705835D9605DD3527958E66B551F383A33866FBB8BD40CDA2303BAB7EDA4D SWAP11 SWAP12 PUSH0 SWAP5 PUSH2 0x18F8 JUMPI JUMPDEST POP POP SHL SWAP2 PUSH0 NOT SWAP1 PUSH1 0x3 SHL SHR NOT AND OR SWAP1 SSTORE JUMPDEST PUSH1 0x5 PUSH1 0xC4 CALLDATALOAD SWAP2 ADD SSTORE DUP3 MLOAD SWAP2 DUP3 MSTORE PUSH1 0x20 DUP3 ADD MSTORE LOG2 STOP JUMPDEST ADD MLOAD SWAP3 POP DUP12 DUP1 PUSH2 0x18D2 JUMP JUMPDEST SWAP9 SWAP1 PUSH1 0x1F NOT DUP3 AND SWAP1 DUP5 PUSH0 MSTORE DUP1 PUSH0 KECCAK256 SWAP2 PUSH0 JUMPDEST DUP2 DUP2 LT PUSH2 0x196C JUMPI POP SWAP11 DUP4 PUSH32 0x4FF705835D9605DD3527958E66B551F383A33866FBB8BD40CDA2303BAB7EDA4D SWAP12 SWAP13 LT PUSH2 0x1954 JUMPI JUMPDEST POP POP POP DUP2 SHL ADD SWAP1 SSTORE PUSH2 0x18E3 JUMP JUMPDEST ADD MLOAD PUSH0 NOT PUSH1 0xF8 DUP5 PUSH1 0x3 SHL AND SHR NOT AND SWAP1 SSTORE DUP10 DUP1 DUP1 PUSH2 0x1947 JUMP JUMPDEST DUP13 DUP4 ADD MLOAD DUP5 SSTORE SWAP3 DUP6 ADD SWAP3 PUSH1 0x20 SWAP3 DUP4 ADD SWAP3 ADD PUSH2 0x1914 JUMP JUMPDEST DUP4 PUSH0 MSTORE PUSH1 0x20 PUSH0 KECCAK256 PUSH1 0x1F DUP12 ADD PUSH1 0x5 SHR DUP2 ADD SWAP2 PUSH1 0x20 DUP13 LT PUSH2 0x19C0 JUMPI JUMPDEST PUSH1 0x1F ADD PUSH1 0x5 SHR ADD SWAP1 DUP4 SWAP1 JUMPDEST DUP3 DUP2 LT PUSH2 0x19B5 JUMPI POP POP PUSH2 0x1894 JUMP JUMPDEST PUSH0 DUP2 SSTORE ADD DUP4 SWAP1 PUSH2 0x19A7 JUMP JUMPDEST SWAP1 SWAP2 POP DUP2 SWAP1 PUSH2 0x199C JUMP JUMPDEST PUSH1 0x40 DUP2 ADD SWAP1 DUP2 LT PUSH8 0xFFFFFFFFFFFFFFFF DUP3 GT OR PUSH2 0x19E6 JUMPI PUSH1 0x40 MSTORE JUMP JUMPDEST PUSH4 0x4E487B71 PUSH1 0xE0 SHL PUSH0 MSTORE PUSH1 0x41 PUSH1 0x4 MSTORE PUSH1 0x24 PUSH0 REVERT JUMPDEST SWAP1 PUSH1 0x1F DUP1 NOT SWAP2 ADD AND DUP2 ADD SWAP1 DUP2 LT PUSH8 0xFFFFFFFFFFFFFFFF DUP3 GT OR PUSH2 0x19E6 JUMPI PUSH1 0x40 MSTORE JUMP JUMPDEST PUSH8 0xFFFFFFFFFFFFFFFF DUP2 GT PUSH2 0x19E6 JUMPI PUSH1 0x1F ADD PUSH1 0x1F NOT AND PUSH1 0x20 ADD SWAP1 JUMP JUMPDEST DUP2 PUSH1 0x1F DUP3 ADD SLT ISZERO PUSH2 0x1FA JUMPI DUP1 CALLDATALOAD SWAP1 PUSH2 0x1A4F DUP3 PUSH2 0x1A1C JUMP JUMPDEST SWAP3 PUSH2 0x1A5D PUSH1 0x40 MLOAD SWAP5 DUP6 PUSH2 0x19FA JUMP JUMPDEST DUP3 DUP5 MSTORE PUSH1 0x20 DUP4 DUP4 ADD ADD GT PUSH2 0x1FA JUMPI DUP2 PUSH0 SWAP3 PUSH1 0x20 DUP1 SWAP4 ADD DUP4 DUP7 ADD CALLDATACOPY DUP4 ADD ADD MSTORE SWAP1 JUMP JUMPDEST PUSH1 0x4 CALLDATALOAD SWAP1 PUSH1 0x1 PUSH1 0x1 PUSH1 0xA0 SHL SUB DUP3 AND DUP3 SUB PUSH2 0x1FA JUMPI JUMP JUMPDEST PUSH1 0x24 CALLDATALOAD SWAP1 PUSH1 0x1 PUSH1 0x1 PUSH1 0xA0 SHL SUB DUP3 AND DUP3 SUB PUSH2 0x1FA JUMPI JUMP JUMPDEST PUSH1 0x40 SWAP1 PUSH1 0x3 NOT ADD SLT PUSH2 0x1FA JUMPI PUSH1 0x4 CALLDATALOAD PUSH1 0x1 PUSH1 0x1 PUSH1 0xA0 SHL SUB DUP2 AND DUP2 SUB PUSH2 0x1FA JUMPI SWAP1 PUSH1 0x24 CALLDATALOAD PUSH1 0x8 DUP2 LT ISZERO PUSH2 0x1FA JUMPI SWAP1 JUMP JUMPDEST SWAP2 SWAP1 DUP3 MLOAD SWAP3 DUP4 DUP3 MSTORE PUSH0 JUMPDEST DUP5 DUP2 LT PUSH2 0x1B03 JUMPI POP POP DUP3 PUSH0 PUSH1 0x20 DUP1 SWAP5 SWAP6 DUP5 ADD ADD MSTORE PUSH1 0x1F DUP1 NOT SWAP2 ADD AND ADD ADD SWAP1 JUMP JUMPDEST PUSH1 0x20 DUP2 DUP4 ADD DUP2 ADD MLOAD DUP5 DUP4 ADD DUP3 ADD MSTORE ADD PUSH2 0x1AE3 JUMP JUMPDEST SWAP1 PUSH1 0x1 DUP3 DUP2 SHR SWAP3 AND DUP1 ISZERO PUSH2 0x1B45 JUMPI JUMPDEST PUSH1 0x20 DUP4 LT EQ PUSH2 0x1B31 JUMPI JUMP JUMPDEST PUSH4 0x4E487B71 PUSH1 0xE0 SHL PUSH0 MSTORE PUSH1 0x22 PUSH1 0x4 MSTORE PUSH1 0x24 PUSH0 REVERT JUMPDEST SWAP2 PUSH1 0x7F AND SWAP2 PUSH2 0x1B26 JUMP JUMPDEST SWAP1 PUSH1 0x40 MLOAD SWAP2 DUP3 PUSH0 DUP3 SLOAD PUSH2 0x1B61 DUP2 PUSH2 0x1B17 JUMP JUMPDEST SWAP1 DUP2 DUP5 MSTORE PUSH1 0x20 SWAP5 PUSH1 0x1 SWAP2 PUSH1 0x1 DUP2 AND SWAP1 DUP2 PUSH0 EQ PUSH2 0x1BCF JUMPI POP PUSH1 0x1 EQ PUSH2 0x1B91 JUMPI JUMPDEST POP POP POP PUSH2 0x1B8F SWAP3 POP SUB DUP4 PUSH2 0x19FA JUMP JUMPDEST JUMP JUMPDEST PUSH0 SWAP1 DUP2 MSTORE DUP6 DUP2 KECCAK256 SWAP6 SWAP4 POP SWAP2 SWAP1 JUMPDEST DUP2 DUP4 LT PUSH2 0x1BB7 JUMPI POP POP PUSH2 0x1B8F SWAP4 POP DUP3 ADD ADD PUSH0 DUP1 DUP1 PUSH2 0x1B80 JUMP JUMPDEST DUP6 SLOAD DUP9 DUP5 ADD DUP6 ADD MSTORE SWAP5 DUP6 ADD SWAP5 DUP8 SWAP5 POP SWAP2 DUP4 ADD SWAP2 PUSH2 0x1B9E JUMP JUMPDEST SWAP3 POP POP POP PUSH2 0x1B8F SWAP5 SWAP3 POP PUSH1 0xFF NOT AND DUP3 DUP5 ADD MSTORE ISZERO ISZERO PUSH1 0x5 SHL DUP3 ADD ADD PUSH0 DUP1 DUP1 PUSH2 0x1B80 JUMP JUMPDEST PUSH1 0x8 DUP2 LT ISZERO PUSH2 0x1C08 JUMPI PUSH0 MSTORE PUSH1 0x6 PUSH1 0x20 MSTORE PUSH1 0x40 PUSH0 KECCAK256 SWAP1 JUMP JUMPDEST PUSH4 0x4E487B71 PUSH1 0xE0 SHL PUSH0 MSTORE PUSH1 0x21 PUSH1 0x4 MSTORE PUSH1 0x24 PUSH0 REVERT JUMPDEST PUSH1 0x8 DUP2 LT ISZERO PUSH2 0x1C08 JUMPI PUSH0 MSTORE PUSH1 0xF PUSH1 0x20 MSTORE PUSH1 0x40 PUSH0 KECCAK256 SWAP1 JUMP JUMPDEST SWAP1 PUSH1 0x8 DUP2 LT ISZERO PUSH2 0x1C08 JUMPI PUSH0 MSTORE PUSH1 0x20 MSTORE PUSH1 0x40 PUSH0 KECCAK256 SWAP1 JUMP JUMPDEST SWAP2 SWAP1 DUP3 ADD DUP1 SWAP3 GT PUSH2 0x1C56 JUMPI JUMP JUMPDEST PUSH4 0x4E487B71 PUSH1 0xE0 SHL PUSH0 MSTORE PUSH1 0x11 PUSH1 0x4 MSTORE PUSH1 0x24 PUSH0 REVERT JUMPDEST ISZERO PUSH2 0x1C71 JUMPI JUMP JUMPDEST PUSH1 0x40 MLOAD PUSH3 0x461BCD PUSH1 0xE5 SHL DUP2 MSTORE PUSH1 0x20 PUSH1 0x4 DUP3 ADD MSTORE PUSH1 0x14 PUSH1 0x24 DUP3 ADD MSTORE PUSH20 0x496E73756666696369656E742062616C616E6365 PUSH1 0x60 SHL PUSH1 0x44 DUP3 ADD MSTORE PUSH1 0x64 SWAP1 REVERT JUMPDEST SWAP2 SWAP1 DUP3 SUB SWAP2 DUP3 GT PUSH2 0x1C56 JUMPI JUMP JUMPDEST PUSH0 NOT DUP2 EQ PUSH2 0x1C56 JUMPI PUSH1 0x1 ADD SWAP1 JUMP JUMPDEST DUP2 DUP2 MUL SWAP3 SWAP2 DUP2 ISZERO SWAP2 DUP5 DIV EQ OR ISZERO PUSH2 0x1C56 JUMPI JUMP JUMPDEST RETURNDATASIZE ISZERO PUSH2 0x1D05 JUMPI RETURNDATASIZE SWAP1 PUSH2 0x1CEC DUP3 PUSH2 0x1A1C JUMP JUMPDEST SWAP2 PUSH2 0x1CFA PUSH1 0x40 MLOAD SWAP4 DUP5 PUSH2 0x19FA JUMP JUMPDEST DUP3 MSTORE RETURNDATASIZE PUSH0 PUSH1 0x20 DUP5 ADD RETURNDATACOPY JUMP JUMPDEST PUSH1 0x60 SWAP1 JUMP JUMPDEST ISZERO PUSH2 0x1D11 JUMPI JUMP JUMPDEST PUSH1 0x40 MLOAD PUSH3 0x461BCD PUSH1 0xE5 SHL DUP2 MSTORE PUSH1 0x20 PUSH1 0x4 DUP3 ADD MSTORE PUSH1 0x13 PUSH1 0x24 DUP3 ADD MSTORE PUSH19 0x115512081D1C985B9CD9995C8819985A5B1959 PUSH1 0x6A SHL PUSH1 0x44 DUP3 ADD MSTORE PUSH1 0x64 SWAP1 REVERT JUMPDEST SWAP2 SWAP1 PUSH1 0x1 DUP1 PUSH1 0xA0 SHL SUB DUP1 SWAP4 AND SWAP1 DUP2 PUSH0 MSTORE PUSH1 0x20 SWAP2 PUSH1 0x7 DUP4 MSTORE PUSH1 0x40 SWAP5 PUSH1 0xFF PUSH1 0x7 DUP8 PUSH0 KECCAK256 ADD SLOAD AND ISZERO PUSH2 0x1F1B JUMPI DUP4 PUSH1 0xFF PUSH1 0x3 PUSH2 0x1D83 DUP7 PUSH2 0x1BF1 JUMP JUMPDEST ADD SLOAD AND ISZERO PUSH2 0x1EEA JUMPI PUSH1 0x24 SWAP2 PUSH1 0xA SLOAD AND DUP8 MLOAD SWAP3 DUP4 DUP1 SWAP3 PUSH4 0x70A08231 PUSH1 0xE0 SHL DUP3 MSTORE DUP7 PUSH1 0x4 DUP4 ADD MSTORE GAS STATICCALL SWAP1 DUP2 ISZERO PUSH2 0x1EE0 JUMPI PUSH0 SWAP2 PUSH2 0x1EB3 JUMPI JUMPDEST POP PUSH1 0x5 PUSH2 0x1DC4 DUP5 PUSH2 0x1BF1 JUMP JUMPDEST ADD SLOAD GT PUSH2 0x1E55 JUMPI PUSH0 MSTORE PUSH1 0x7 DUP3 MSTORE PUSH1 0x1 PUSH2 0x1DEB PUSH2 0x1DE4 DUP4 DUP4 DUP9 PUSH0 KECCAK256 ADD PUSH2 0x1C33 JUMP JUMPDEST SLOAD SWAP3 PUSH2 0x1BF1 JUMP JUMPDEST ADD SLOAD GT ISZERO PUSH2 0x1E1D JUMPI PUSH14 0x1058D8D95CDCC819DC985B9D1959 PUSH1 0x92 SHL PUSH1 0x1 SWAP4 MLOAD SWAP2 PUSH2 0x1E13 DUP4 PUSH2 0x19CA JUMP JUMPDEST PUSH1 0xE DUP4 MSTORE DUP3 ADD MSTORE SWAP1 JUMP JUMPDEST PUSH32 0x4461696C79207175657279206C696D6974207265616368656400000000000000 PUSH0 SWAP4 MLOAD SWAP2 PUSH2 0x1E4B DUP4 PUSH2 0x19CA JUMP JUMPDEST PUSH1 0x19 DUP4 MSTORE DUP3 ADD MSTORE SWAP1 JUMP JUMPDEST POP POP SWAP2 PUSH0 SWAP3 DUP2 MLOAD SWAP2 PUSH1 0x60 DUP4 ADD DUP4 DUP2 LT PUSH8 0xFFFFFFFFFFFFFFFF DUP3 GT OR PUSH2 0x19E6 JUMPI PUSH9 0x65642050464F524B29 PUSH1 0xB8 SHL SWAP3 PUSH32 0x496E73756666696369656E74206750464F524B20746F6B656E7320287374616B SWAP2 DUP4 MSTORE PUSH1 0x29 DUP6 MSTORE DUP5 ADD MSTORE DUP3 ADD MSTORE SWAP1 JUMP JUMPDEST SWAP1 POP DUP4 DUP2 DUP2 RETURNDATASIZE DUP4 GT PUSH2 0x1ED9 JUMPI JUMPDEST PUSH2 0x1ECA DUP2 DUP4 PUSH2 0x19FA JUMP JUMPDEST DUP2 ADD SUB SLT PUSH2 0x1FA JUMPI MLOAD PUSH0 PUSH2 0x1DB8 JUMP JUMPDEST POP RETURNDATASIZE PUSH2 0x1EC0 JUMP JUMPDEST DUP7 MLOAD RETURNDATASIZE PUSH0 DUP3 RETURNDATACOPY RETURNDATASIZE SWAP1 REVERT JUMPDEST POP POP POP POP PUSH18 0x53657276696365206E6F7420616374697665 PUSH1 0x70 SHL PUSH0 SWAP4 MLOAD SWAP2 PUSH2 0x1F11 DUP4 PUSH2 0x19CA JUMP JUMPDEST PUSH1 0x12 DUP4 MSTORE DUP3 ADD MSTORE SWAP1 JUMP JUMPDEST POP POP POP PUSH18 0x4163636F756E74206E6F7420616374697665 PUSH1 0x70 SHL PUSH0 SWAP4 MLOAD SWAP2 PUSH2 0x1F11 DUP4 PUSH2 0x19CA JUMP JUMPDEST ISZERO PUSH2 0x1F48 JUMPI JUMP JUMPDEST PUSH1 0x40 MLOAD PUSH3 0x461BCD PUSH1 0xE5 SHL DUP2 MSTORE PUSH1 0x20 PUSH1 0x4 DUP3 ADD MSTORE PUSH1 0x13 PUSH1 0x24 DUP3 ADD MSTORE PUSH19 0x151BDAD95B881B9BDD081CDD5C1C1BDC9D1959 PUSH1 0x6A SHL PUSH1 0x44 DUP3 ADD MSTORE PUSH1 0x64 SWAP1 REVERT JUMPDEST CALLER PUSH0 SWAP1 DUP2 MSTORE PUSH32 0x29152311108055F848337CEF7F4AA231FCB3761FE61A0E784567E3FF52173935 PUSH1 0x20 MSTORE PUSH1 0x40 SWAP1 KECCAK256 SLOAD PUSH32 0x9717AC20005278352439EBFE1B489A0FA1ECCB8E4F93830EF8886BB58EC7BC5 SWAP1 PUSH1 0xFF AND ISZERO PUSH2 0x1FDE JUMPI POP JUMP JUMPDEST PUSH1 0x44 SWAP1 PUSH1 0x40 MLOAD SWAP1 PUSH4 0xE2517D3F PUSH1 0xE0 SHL DUP3 MSTORE CALLER PUSH1 0x4 DUP4 ADD MSTORE PUSH1 0x24 DUP3 ADD MSTORE REVERT JUMPDEST CALLER PUSH0 SWAP1 DUP2 MSTORE PUSH32 0xAD3228B676F7D3CD4284A5443F17F1962B36E491B30A40B2405849E597BA5FB5 PUSH1 0x20 MSTORE PUSH1 0x40 SWAP1 KECCAK256 SLOAD PUSH1 0xFF AND ISZERO PUSH2 0x2034 JUMPI JUMP JUMPDEST PUSH1 0x40 MLOAD PUSH4 0xE2517D3F PUSH1 0xE0 SHL DUP2 MSTORE CALLER PUSH1 0x4 DUP3 ADD MSTORE PUSH0 PUSH1 0x24 DUP3 ADD MSTORE PUSH1 0x44 SWAP1 REVERT JUMPDEST DUP1 PUSH0 MSTORE PUSH0 PUSH1 0x20 MSTORE PUSH1 0x40 PUSH0 KECCAK256 CALLER PUSH0 MSTORE PUSH1 0x20 MSTORE PUSH1 0xFF PUSH1 0x40 PUSH0 KECCAK256 SLOAD AND ISZERO PUSH2 0x1FDE JUMPI POP JUMP JUMPDEST PUSH1 0x2 PUSH1 0x1 SLOAD EQ PUSH2 0x2084 JUMPI PUSH1 0x2 PUSH1 0x1 SSTORE JUMP JUMPDEST PUSH1 0x40 MLOAD PUSH4 0x3EE5AEB5 PUSH1 0xE0 SHL DUP2 MSTORE PUSH1 0x4 SWAP1 REVERT JUMPDEST PUSH1 0xFF PUSH1 0x2 SLOAD AND PUSH2 0x20A2 JUMPI JUMP JUMPDEST PUSH1 0x40 MLOAD PUSH4 0xD93C0665 PUSH1 0xE0 SHL DUP2 MSTORE PUSH1 0x4 SWAP1 REVERT JUMPDEST PUSH1 0x40 MLOAD PUSH4 0xA9059CBB PUSH1 0xE0 SHL PUSH1 0x20 DUP3 ADD MSTORE PUSH1 0x1 PUSH1 0x1 PUSH1 0xA0 SHL SUB SWAP1 SWAP3 AND PUSH1 0x24 DUP4 ADD MSTORE PUSH1 0x44 DUP1 DUP4 ADD SWAP4 SWAP1 SWAP4 MSTORE SWAP2 DUP2 MSTORE PUSH1 0x80 DUP2 ADD SWAP2 PUSH8 0xFFFFFFFFFFFFFFFF DUP4 GT DUP3 DUP5 LT OR PUSH2 0x19E6 JUMPI PUSH2 0x1B8F SWAP3 PUSH1 0x40 MSTORE PUSH2 0x21F2 JUMP JUMPDEST SWAP1 DUP2 PUSH0 MSTORE PUSH0 PUSH1 0x20 MSTORE PUSH1 0x40 PUSH0 KECCAK256 SWAP1 PUSH1 0x1 DUP1 PUSH1 0xA0 SHL SUB AND SWAP1 DUP2 PUSH0 MSTORE PUSH1 0x20 MSTORE PUSH1 0xFF PUSH1 0x40 PUSH0 KECCAK256 SLOAD AND ISZERO PUSH0 EQ PUSH2 0x217A JUMPI DUP2 PUSH0 MSTORE PUSH0 PUSH1 0x20 MSTORE PUSH1 0x40 PUSH0 KECCAK256 DUP2 PUSH0 MSTORE PUSH1 0x20 MSTORE PUSH1 0x40 PUSH0 KECCAK256 PUSH1 0x1 PUSH1 0xFF NOT DUP3 SLOAD AND OR SWAP1 SSTORE CALLER SWAP2 PUSH32 0x2F8788117E7EFF1D82E926EC794901D17C78024A50270940304540A733656F0D PUSH0 DUP1 LOG4 PUSH1 0x1 SWAP1 JUMP JUMPDEST POP POP PUSH0 SWAP1 JUMP JUMPDEST SWAP1 DUP2 PUSH0 MSTORE PUSH0 PUSH1 0x20 MSTORE PUSH1 0x40 PUSH0 KECCAK256 SWAP1 PUSH1 0x1 DUP1 PUSH1 0xA0 SHL SUB AND SWAP1 DUP2 PUSH0 MSTORE PUSH1 0x20 MSTORE PUSH1 0xFF PUSH1 0x40 PUSH0 KECCAK256 SLOAD AND PUSH0 EQ PUSH2 0x217A JUMPI DUP2 PUSH0 MSTORE PUSH0 PUSH1 0x20 MSTORE PUSH1 0x40 PUSH0 KECCAK256 DUP2 PUSH0 MSTORE PUSH1 0x20 MSTORE PUSH1 0x40 PUSH0 KECCAK256 PUSH1 0xFF NOT DUP2 SLOAD AND SWAP1 SSTORE CALLER SWAP2 PUSH32 0xF6391F5C32D9C69D2A47EA670B442974B53935D1EDC7FD64EB21E047A839171B PUSH0 DUP1 LOG4 PUSH1 0x1 SWAP1 JUMP JUMPDEST SWAP1 PUSH0 PUSH1 0x20 SWAP2 DUP3 DUP2 MLOAD SWAP2 ADD DUP3 DUP6 GAS CALL ISZERO PUSH2 0x224C JUMPI PUSH0 MLOAD RETURNDATASIZE PUSH2 0x2243 JUMPI POP PUSH1 0x1 PUSH1 0x1 PUSH1 0xA0 SHL SUB DUP2 AND EXTCODESIZE ISZERO JUMPDEST PUSH2 0x2221 JUMPI POP JUMP JUMPDEST PUSH1 0x40 MLOAD PUSH4 0x5274AFE7 PUSH1 0xE0 SHL DUP2 MSTORE PUSH1 0x1 PUSH1 0x1 PUSH1 0xA0 SHL SUB SWAP1 SWAP2 AND PUSH1 0x4 DUP3 ADD MSTORE PUSH1 0x24 SWAP1 REVERT JUMPDEST PUSH1 0x1 EQ ISZERO PUSH2 0x221A JUMP JUMPDEST PUSH1 0x40 MLOAD RETURNDATASIZE PUSH0 DUP3 RETURNDATACOPY RETURNDATASIZE SWAP1 REVERT INVALID LOG2 PUSH5 0x6970667358 0x22 SLT KECCAK256 0xBB 0xED DUP1 MSIZE 0x2F 0xE1 LOG1 SUB 0xDF DUP9 EXTCODECOPY PUSH26 0xFC80FF3D8078931224E7C3425A76666A3A29259264736F6C6343 STOP ADDMOD XOR STOP CALLER 0x2F DUP8 DUP9 GT PUSH31 0x7EFF1D82E926EC794901D17C78024A50270940304540A733656F0DAD3228B6 PUSH23 0xF7D3CD4284A5443F17F1962B36E491B30A40B2405849E5 SWAP8 0xBA PUSH0 0xB5 "},"methodIdentifiers":{"BILLING_ADMIN_ROLE()":"3a8611b5","DEFAULT_ADMIN_ROLE()":"a217fddf","MAX_DAILY_QUERIES()":"fefa554b","MAX_SPENDING_CAP()":"7cf21a98","REFUND_MANAGER_ROLE()":"18c1326e","SERVICE_MANAGER_ROLE()":"c979e8a7","canAccessService(address,uint8)":"39ee3be6","fundAccount(address,uint256)":"450fac71","fundAccountETH()":"4aaeeaf7","gPforkToken()":"2e5b86a0","getRoleAdmin(bytes32)":"248a9ca3","getUserAccount(address)":"fb47e016","getUserDailyUsage(address,uint8)":"afd97699","getUserTokenBalance(address,address)":"73f8fd4b","grantRole(bytes32,address)":"2f2ff15d","hasRole(bytes32,address)":"91d14854","issueRefund(bytes32,string)":"23290bad","pause()":"8456cb59","paused()":"5c975abb","paymentRecords(bytes32)":"b329b6a7","pforkToken()":"66c29b81","platformFeePercentage()":"cdd78cfc","processServicePayment(address,uint8,address,bytes32)":"1567ddb1","renounceRole(bytes32,address)":"36568abe","revokeRole(bytes32,address)":"d547741f","serviceConfigs(uint8)":"ca06d744","serviceUsageStats(uint8)":"ab691551","setSupportedToken(address,bool,string,uint8)":"efcb45f7","setUserDailyLimit(address,uint256)":"177c49a7","supportedTokens(address)":"68c4ac26","supportsInterface(bytes4)":"01ffc9a7","tokenDecimals(address)":"8ee573ac","tokenNames(address)":"a8fc75e1","totalPaymentsProcessed()":"37e32d1d","totalRefundsIssued()":"2601e6ec","treasuryAddress()":"c5f956af","unpause()":"3f4ba83a","updateServiceConfig(uint8,uint256,uint256,uint256,bool,string,uint256)":"006e3266","userAccounts(address)":"5251d91c","withdrawAccountBalance(address,uint256)":"4200003b","withdrawRefund(address)":"a16c86f7"}}}}}