{
  "_format": "hh-sol-artifact-1",
  "contractName": "PitchforkFunding",
  "sourceName": "contracts/PitchforkFunding.sol",
  "abi": [
    {
      "anonymous": false,
      "inputs": [
        {
          "indexed": true,
          "internalType": "uint256",
          "name": "campaignId",
          "type": "uint256"
        },
        {
          "indexed": false,
          "internalType": "uint256",
          "name": "totalRaised",
          "type": "uint256"
        },
        {
          "indexed": false,
          "internalType": "bool",
          "name": "goalReached",
          "type": "bool"
        }
      ],
      "name": "CampaignCompleted",
      "type": "event"
    },
    {
      "anonymous": false,
      "inputs": [
        {
          "indexed": true,
          "internalType": "uint256",
          "name": "campaignId",
          "type": "uint256"
        },
        {
          "indexed": false,
          "internalType": "string",
          "name": "title",
          "type": "string"
        },
        {
          "indexed": true,
          "internalType": "address",
          "name": "creator",
          "type": "address"
        },
        {
          "indexed": false,
          "internalType": "uint256",
          "name": "goalAmount",
          "type": "uint256"
        },
        {
          "indexed": false,
          "internalType": "uint256",
          "name": "deadline",
          "type": "uint256"
        }
      ],
      "name": "CampaignCreated",
      "type": "event"
    },
    {
      "anonymous": false,
      "inputs": [
        {
          "indexed": true,
          "internalType": "uint256",
          "name": "campaignId",
          "type": "uint256"
        },
        {
          "indexed": true,
          "internalType": "address",
          "name": "contributor",
          "type": "address"
        },
        {
          "indexed": false,
          "internalType": "uint256",
          "name": "amount",
          "type": "uint256"
        },
        {
          "indexed": false,
          "internalType": "uint256",
          "name": "timestamp",
          "type": "uint256"
        }
      ],
      "name": "ContributionMade",
      "type": "event"
    },
    {
      "anonymous": false,
      "inputs": [
        {
          "indexed": true,
          "internalType": "uint256",
          "name": "campaignId",
          "type": "uint256"
        },
        {
          "indexed": true,
          "internalType": "address",
          "name": "creator",
          "type": "address"
        },
        {
          "indexed": false,
          "internalType": "uint256",
          "name": "amount",
          "type": "uint256"
        }
      ],
      "name": "FundsWithdrawn",
      "type": "event"
    },
    {
      "inputs": [
        {
          "internalType": "uint256",
          "name": "",
          "type": "uint256"
        },
        {
          "internalType": "uint256",
          "name": "",
          "type": "uint256"
        }
      ],
      "name": "campaignContributions",
      "outputs": [
        {
          "internalType": "address",
          "name": "contributor",
          "type": "address"
        },
        {
          "internalType": "uint256",
          "name": "amount",
          "type": "uint256"
        },
        {
          "internalType": "uint256",
          "name": "timestamp",
          "type": "uint256"
        }
      ],
      "stateMutability": "view",
      "type": "function"
    },
    {
      "inputs": [],
      "name": "campaignCounter",
      "outputs": [
        {
          "internalType": "uint256",
          "name": "",
          "type": "uint256"
        }
      ],
      "stateMutability": "view",
      "type": "function"
    },
    {
      "inputs": [
        {
          "internalType": "uint256",
          "name": "",
          "type": "uint256"
        }
      ],
      "name": "campaigns",
      "outputs": [
        {
          "internalType": "string",
          "name": "title",
          "type": "string"
        },
        {
          "internalType": "string",
          "name": "description",
          "type": "string"
        },
        {
          "internalType": "address payable",
          "name": "creator",
          "type": "address"
        },
        {
          "internalType": "uint256",
          "name": "goalAmount",
          "type": "uint256"
        },
        {
          "internalType": "uint256",
          "name": "raisedAmount",
          "type": "uint256"
        },
        {
          "internalType": "uint256",
          "name": "deadline",
          "type": "uint256"
        },
        {
          "internalType": "bool",
          "name": "isActive",
          "type": "bool"
        },
        {
          "internalType": "bool",
          "name": "goalReached",
          "type": "bool"
        }
      ],
      "stateMutability": "view",
      "type": "function"
    },
    {
      "inputs": [
        {
          "internalType": "uint256",
          "name": "_campaignId",
          "type": "uint256"
        }
      ],
      "name": "contribute",
      "outputs": [],
      "stateMutability": "payable",
      "type": "function"
    },
    {
      "inputs": [
        {
          "internalType": "string",
          "name": "_title",
          "type": "string"
        },
        {
          "internalType": "string",
          "name": "_description",
          "type": "string"
        },
        {
          "internalType": "uint256",
          "name": "_goalAmount",
          "type": "uint256"
        },
        {
          "internalType": "uint256",
          "name": "_durationDays",
          "type": "uint256"
        }
      ],
      "name": "createCampaign",
      "outputs": [
        {
          "internalType": "uint256",
          "name": "",
          "type": "uint256"
        }
      ],
      "stateMutability": "nonpayable",
      "type": "function"
    },
    {
      "inputs": [
        {
          "internalType": "uint256",
          "name": "_campaignId",
          "type": "uint256"
        }
      ],
      "name": "deactivateCampaign",
      "outputs": [],
      "stateMutability": "nonpayable",
      "type": "function"
    },
    {
      "inputs": [
        {
          "internalType": "uint256",
          "name": "_campaignId",
          "type": "uint256"
        }
      ],
      "name": "getCampaign",
      "outputs": [
        {
          "internalType": "string",
          "name": "title",
          "type": "string"
        },
        {
          "internalType": "string",
          "name": "description",
          "type": "string"
        },
        {
          "internalType": "address",
          "name": "creator",
          "type": "address"
        },
        {
          "internalType": "uint256",
          "name": "goalAmount",
          "type": "uint256"
        },
        {
          "internalType": "uint256",
          "name": "raisedAmount",
          "type": "uint256"
        },
        {
          "internalType": "uint256",
          "name": "deadline",
          "type": "uint256"
        },
        {
          "internalType": "bool",
          "name": "isActive",
          "type": "bool"
        },
        {
          "internalType": "bool",
          "name": "goalReached",
          "type": "bool"
        },
        {
          "internalType": "uint256",
          "name": "contributorCount",
          "type": "uint256"
        }
      ],
      "stateMutability": "view",
      "type": "function"
    },
    {
      "inputs": [
        {
          "internalType": "uint256",
          "name": "_campaignId",
          "type": "uint256"
        },
        {
          "internalType": "address",
          "name": "_contributor",
          "type": "address"
        }
      ],
      "name": "getContribution",
      "outputs": [
        {
          "internalType": "uint256",
          "name": "",
          "type": "uint256"
        }
      ],
      "stateMutability": "view",
      "type": "function"
    },
    {
      "inputs": [
        {
          "internalType": "uint256",
          "name": "_campaignId",
          "type": "uint256"
        }
      ],
      "name": "getContributionHistory",
      "outputs": [
        {
          "components": [
            {
              "internalType": "address",
              "name": "contributor",
              "type": "address"
            },
            {
              "internalType": "uint256",
              "name": "amount",
              "type": "uint256"
            },
            {
              "internalType": "uint256",
              "name": "timestamp",
              "type": "uint256"
            }
          ],
          "internalType": "struct PitchforkFunding.Contributor[]",
          "name": "",
          "type": "tuple[]"
        }
      ],
      "stateMutability": "view",
      "type": "function"
    },
    {
      "inputs": [
        {
          "internalType": "uint256",
          "name": "_campaignId",
          "type": "uint256"
        }
      ],
      "name": "getContributors",
      "outputs": [
        {
          "internalType": "address[]",
          "name": "",
          "type": "address[]"
        }
      ],
      "stateMutability": "view",
      "type": "function"
    },
    {
      "inputs": [],
      "name": "getTotalCampaigns",
      "outputs": [
        {
          "internalType": "uint256",
          "name": "",
          "type": "uint256"
        }
      ],
      "stateMutability": "view",
      "type": "function"
    },
    {
      "inputs": [
        {
          "internalType": "uint256",
          "name": "_campaignId",
          "type": "uint256"
        }
      ],
      "name": "isDeadlinePassed",
      "outputs": [
        {
          "internalType": "bool",
          "name": "",
          "type": "bool"
        }
      ],
      "stateMutability": "view",
      "type": "function"
    },
    {
      "inputs": [
        {
          "internalType": "uint256",
          "name": "_campaignId",
          "type": "uint256"
        }
      ],
      "name": "withdrawFunds",
      "outputs": [],
      "stateMutability": "nonpayable",
      "type": "function"
    }
  ],
  "bytecode": "0x608080604052346100165761106f908161001b8239f35b5f80fdfe6080806040526004361015610012575f80fd5b5f3560e01c908162f7df8b14610dda57508063141961bc14610d2a578063155dd5ee14610b6d57806316f43dd4146100aa5780633c1ab00f14610ab9578063539157bd14610a595780635598f8cc146109a05780637eca30fe14610903578063a318f269146104dc578063c1cbbca71461022e578063d19c876814610116578063e081dbf9146100cb5763fca604d7146100aa575f80fd5b346100c7575f3660031901126100c7576020600254604051908152f35b5f80fd5b346100c75760403660031901126100c7576024356001600160a01b038116908190036100c7576004355f525f602052600760405f2001905f52602052602060405f2054604051908152f35b346100c7576020806003193601126100c7576004355f526001906001815260405f20805467ffffffffffffffff811161021a5783836040519261015e828260051b0185610e59565b80845281840180955f52825f205f915b8383106101cf57505050506040519281840190828552518091526040840194915f5b82811061019d5785870386f35b835180516001600160a01b03168852828101518389015260409081015190880152606090960195928101928401610190565b946003858299976040999799516101e581610e3d565b85546001600160a01b03168152848601548382015260028601546040820152815297999698969794909201939201910161016e565b634e487b7160e01b5f52604160045260245ffd5b6020806003193601126100c757600435805f525f825260ff600660405f200154161561049e57805f525f8252600560405f20015442101561045957341561040857805f525f825260405f2060078101335f5280845260405f2054156103b1575b335f52835260405f206102a234825461102c565b9055600481016102b334825461102c565b8155825f526001845260405f206040516102cc81610e3d565b3381528581019134835260408201904282528054600160401b81101561021a576102fb91600182018155610f5b565b93909361039e57915183546001600160a01b0319166001600160a01b039190911617835590516001830155516002919091015554600382015411158061038c575b610376575b506040519134835242908301527ff9b7589b7a8d939b9da5dae90770378fe5fd7802be5d66432e85bedbdbfbcb7a60403393a3005b600601805461ff00191661010017905582610341565b5060ff600682015460081c161561033c565b634e487b7160e01b5f525f60045260245ffd5b60088201805490600160401b82101561021a57600182018082558210156103f4575f52845f2001336bffffffffffffffffffffffff60a01b82541617905561028e565b634e487b7160e01b5f52603260045260245ffd5b60405162461bcd60e51b815260048101839052602360248201527f436f6e747269627574696f6e206d75737420626520677265617465722074686160448201526206e20360ec1b6064820152608490fd5b60405162461bcd60e51b815260048101839052601860248201527f43616d706169676e20646561646c696e652070617373656400000000000000006044820152606490fd5b60405162461bcd60e51b815260048101839052601660248201527543616d706169676e206973206e6f742061637469766560501b6044820152606490fd5b346100c75760803660031901126100c75760043567ffffffffffffffff81116100c75761050d903690600401610f74565b60243567ffffffffffffffff81116100c75761052d903690600401610f74565b908051156108c657604435156108765760643515610831576002545f1981146106b85760018101600255805f525f60205260405f20825167ffffffffffffffff811161021a5761057d8254610e05565b601f81116107f0575b50806020601f821160011461078e575f91610783575b508160011b915f199060031b1c19161781555b835167ffffffffffffffff811161021a576105cd6001830154610e05565b601f811161073f575b50602094601f82116001146106d7579481929394955f926106cc575b50508160011b915f199060031b1c19161760018201555b6002810180546001600160a01b0319163317905560443560038201555f600482015560643562015180810293906201517f19908504016106b8577f2e4be7f0a0275b06869815699165e220352ac35bdea8c927565a098fa77dffb6839160066106746020974261102c565b9485600582015501600161ffff1982541617905561069d60405191606083526060830190610f1d565b936044358783015260408201528033940390a3604051908152f35b634e487b7160e01b5f52601160045260245ffd5b0151905085806105f2565b601f19821695600184015f5260205f20915f5b8881106107275750836001959697981061070f575b505050811b016001820155610609565b01515f1960f88460031b161c191690558580806106ff565b919260206001819286850151815501940192016106ea565b600183015f5260205f20601f830160051c81016020841061077c575b601f830160051c820181106107715750506105d6565b5f815560010161075b565b508061075b565b90508401518661059c565b5f848152602081209250601f198416905b8181106107d8575090836001949392106107c0575b5050811b0181556105af565b8601515f1960f88460031b161c1916905586806107b4565b9192602060018192868b01518155019401920161079f565b825f5260205f20601f830160051c81016020841061082a575b601f830160051c8201811061081f575050610586565b5f8155600101610809565b5080610809565b60405162461bcd60e51b815260206004820152601f60248201527f4475726174696f6e206d7573742062652067726561746572207468616e2030006044820152606490fd5b60405162461bcd60e51b815260206004820152602260248201527f476f616c20616d6f756e74206d7573742062652067726561746572207468616e604482015261020360f41b6064820152608490fd5b60405162461bcd60e51b81526020600482015260156024820152745469746c652063616e6e6f7420626520656d70747960581b6044820152606490fd5b346100c75760203660031901126100c757600435805f525f60205261093860018060a01b03600260405f200154163314610fca565b805f525f6020527fe47957762038cc18ffb262fc25a8123668d0f3b412920de3457a3d9272e77ebd60ff60405f2061099b60046006830192835493851985169055015460405193849360081c169083909291602090604083019483521515910152565b0390a2005b346100c75760203660031901126100c7576004355f525f602052610a1760405f2060018060a01b03600282015416600382015460ff60048401546005850154600686015491600887015494610a25610a0360016109fc8b610e7b565b9a01610e7b565b6040519a8b9a610120808d528c0190610f1d565b908a820360208c0152610f1d565b9660408901526060880152608087015260a0860152818116151560c086015260081c16151560e08401526101008301520390f35b346100c75760403660031901126100c7576024356004355f52600160205260405f2080548210156100c757606091610a9091610f5b565b5060018060a01b0381541690600260018201549101549060405192835260208301526040820152f35b346100c7576020806003193601126100c7576004355f525f8152600860405f2001604051908183825491828152019081925f52845f20905f5b86828210610b50578686610b0882880383610e59565b60405192839281840190828552518091526040840192915f5b828110610b3057505050500390f35b83516001600160a01b031685528695509381019392810192600101610b21565b83546001600160a01b031685529093019260019283019201610af2565b346100c7576020806003193601126100c75760043590815f525f815260018060a01b0390610ba582600260405f200154163314610fca565b825f525f815260405f2090600482018054928315610cee57600681019182549060ff8260081c168015610ce0575b15610c7557905f600293925560ff1916835501915f808080878988541682f115610c6a57857ff440aec6b52895984d061d622e6edeba6210f7c3e059be920663140c084560d77fe47957762038cc18ffb262fc25a8123668d0f3b412920de3457a3d9272e77ebd9660ff95541692604051878152a3546040805193845260089190911c91909116151560208301528190810161099b565b6040513d5f823e3d90fd5b60405162461bcd60e51b815260048101869052603b60248201527f43616e6e6f742077697468647261773a20676f616c206e6f742072656163686560448201527f6420616e642063616d706169676e207374696c6c2061637469766500000000006064820152608490fd5b506005830154421015610bd3565b60405162461bcd60e51b81526004810184905260146024820152734e6f2066756e647320746f20776974686472617760601b6044820152606490fd5b346100c75760203660031901126100c7576004355f525f602052610d9e60405f20610d5481610e7b565b9060ff610d6360018301610e7b565b60018060a01b03600284015416926003810154600482015490610dac6006600585015494015494604051998a99610100808c528b0190610f1d565b9089820360208b0152610f1d565b9560408801526060870152608086015260a0850152818116151560c085015260081c16151560e08301520390f35b346100c75760203660031901126100c7576020906004355f525f8252600560405f2001544210158152f35b90600182811c92168015610e33575b6020831014610e1f57565b634e487b7160e01b5f52602260045260245ffd5b91607f1691610e14565b6060810190811067ffffffffffffffff82111761021a57604052565b90601f8019910116810190811067ffffffffffffffff82111761021a57604052565b9060405191825f8254610e8d81610e05565b908184526020946001916001811690815f14610efb5750600114610ebd575b505050610ebb92500383610e59565b565b5f90815285812095935091905b818310610ee3575050610ebb93508201015f8080610eac565b85548884018501529485019487945091830191610eca565b92505050610ebb94925060ff191682840152151560051b8201015f8080610eac565b91908251928382525f5b848110610f47575050825f602080949584010152601f8019910116010190565b602081830181015184830182015201610f27565b80548210156103f4575f52600360205f20910201905f90565b81601f820112156100c75780359067ffffffffffffffff821161021a5760405192610fa9601f8401601f191660200185610e59565b828452602083830101116100c757815f926020809301838601378301015290565b15610fd157565b60405162461bcd60e51b815260206004820152602d60248201527f4f6e6c792063616d706169676e2063726561746f722063616e20706572666f7260448201526c36903a3434b99030b1ba34b7b760991b6064820152608490fd5b919082018092116106b85756fea26469706673582212205a36c8318b27999d414b38342e5fb9fe18d2ec74cc5fa487938248074e91533764736f6c63430008180033",
  "linkReferences": {},
  "deployedLinkReferences": {}
}