{
  "_format": "hh-sol-artifact-1",
  "contractName": "AIServicePayment",
  "sourceName": "contracts/AIServicePayment.sol",
  "abi": [
    {
      "inputs": [
        {
          "internalType": "address",
          "name": "_pforkToken",
          "type": "address"
        },
        {
          "internalType": "address",
          "name": "_gPforkToken",
          "type": "address"
        },
        {
          "internalType": "address",
          "name": "_treasuryAddress",
          "type": "address"
        }
      ],
      "stateMutability": "nonpayable",
      "type": "constructor"
    },
    {
      "inputs": [],
      "name": "AccessControlBadConfirmation",
      "type": "error"
    },
    {
      "inputs": [
        {
          "internalType": "address",
          "name": "account",
          "type": "address"
        },
        {
          "internalType": "bytes32",
          "name": "neededRole",
          "type": "bytes32"
        }
      ],
      "name": "AccessControlUnauthorizedAccount",
      "type": "error"
    },
    {
      "inputs": [],
      "name": "EnforcedPause",
      "type": "error"
    },
    {
      "inputs": [],
      "name": "ExpectedPause",
      "type": "error"
    },
    {
      "inputs": [],
      "name": "ReentrancyGuardReentrantCall",
      "type": "error"
    },
    {
      "inputs": [
        {
          "internalType": "address",
          "name": "token",
          "type": "address"
        }
      ],
      "name": "SafeERC20FailedOperation",
      "type": "error"
    },
    {
      "anonymous": false,
      "inputs": [
        {
          "indexed": true,
          "internalType": "address",
          "name": "user",
          "type": "address"
        },
        {
          "indexed": true,
          "internalType": "address",
          "name": "token",
          "type": "address"
        },
        {
          "indexed": false,
          "internalType": "uint256",
          "name": "amount",
          "type": "uint256"
        }
      ],
      "name": "AccountFunded",
      "type": "event"
    },
    {
      "anonymous": false,
      "inputs": [
        {
          "indexed": true,
          "internalType": "address",
          "name": "user",
          "type": "address"
        },
        {
          "indexed": false,
          "internalType": "uint256",
          "name": "newLimit",
          "type": "uint256"
        }
      ],
      "name": "DailyLimitUpdated",
      "type": "event"
    },
    {
      "anonymous": false,
      "inputs": [
        {
          "indexed": true,
          "internalType": "address",
          "name": "token",
          "type": "address"
        },
        {
          "indexed": false,
          "internalType": "uint256",
          "name": "amount",
          "type": "uint256"
        }
      ],
      "name": "EmergencyWithdrawal",
      "type": "event"
    },
    {
      "anonymous": false,
      "inputs": [
        {
          "indexed": false,
          "internalType": "address",
          "name": "account",
          "type": "address"
        }
      ],
      "name": "Paused",
      "type": "event"
    },
    {
      "anonymous": false,
      "inputs": [
        {
          "indexed": true,
          "internalType": "address",
          "name": "user",
          "type": "address"
        },
        {
          "indexed": true,
          "internalType": "bytes32",
          "name": "paymentId",
          "type": "bytes32"
        },
        {
          "indexed": false,
          "internalType": "uint256",
          "name": "amount",
          "type": "uint256"
        }
      ],
      "name": "RefundIssued",
      "type": "event"
    },
    {
      "anonymous": false,
      "inputs": [
        {
          "indexed": true,
          "internalType": "bytes32",
          "name": "role",
          "type": "bytes32"
        },
        {
          "indexed": true,
          "internalType": "bytes32",
          "name": "previousAdminRole",
          "type": "bytes32"
        },
        {
          "indexed": true,
          "internalType": "bytes32",
          "name": "newAdminRole",
          "type": "bytes32"
        }
      ],
      "name": "RoleAdminChanged",
      "type": "event"
    },
    {
      "anonymous": false,
      "inputs": [
        {
          "indexed": true,
          "internalType": "bytes32",
          "name": "role",
          "type": "bytes32"
        },
        {
          "indexed": true,
          "internalType": "address",
          "name": "account",
          "type": "address"
        },
        {
          "indexed": true,
          "internalType": "address",
          "name": "sender",
          "type": "address"
        }
      ],
      "name": "RoleGranted",
      "type": "event"
    },
    {
      "anonymous": false,
      "inputs": [
        {
          "indexed": true,
          "internalType": "bytes32",
          "name": "role",
          "type": "bytes32"
        },
        {
          "indexed": true,
          "internalType": "address",
          "name": "account",
          "type": "address"
        },
        {
          "indexed": true,
          "internalType": "address",
          "name": "sender",
          "type": "address"
        }
      ],
      "name": "RoleRevoked",
      "type": "event"
    },
    {
      "anonymous": false,
      "inputs": [
        {
          "indexed": true,
          "internalType": "enum AIServicePayment.ServiceType",
          "name": "serviceType",
          "type": "uint8"
        },
        {
          "indexed": false,
          "internalType": "uint256",
          "name": "newCost",
          "type": "uint256"
        },
        {
          "indexed": false,
          "internalType": "bool",
          "name": "isActive",
          "type": "bool"
        }
      ],
      "name": "ServiceConfigUpdated",
      "type": "event"
    },
    {
      "anonymous": false,
      "inputs": [
        {
          "indexed": true,
          "internalType": "address",
          "name": "user",
          "type": "address"
        },
        {
          "indexed": true,
          "internalType": "enum AIServicePayment.ServiceType",
          "name": "serviceType",
          "type": "uint8"
        },
        {
          "indexed": false,
          "internalType": "address",
          "name": "token",
          "type": "address"
        },
        {
          "indexed": false,
          "internalType": "uint256",
          "name": "amount",
          "type": "uint256"
        },
        {
          "indexed": false,
          "internalType": "bytes32",
          "name": "sessionId",
          "type": "bytes32"
        }
      ],
      "name": "ServicePayment",
      "type": "event"
    },
    {
      "anonymous": false,
      "inputs": [
        {
          "indexed": true,
          "internalType": "address",
          "name": "token",
          "type": "address"
        },
        {
          "indexed": false,
          "internalType": "bool",
          "name": "supported",
          "type": "bool"
        }
      ],
      "name": "TokenSupport",
      "type": "event"
    },
    {
      "anonymous": false,
      "inputs": [
        {
          "indexed": false,
          "internalType": "address",
          "name": "account",
          "type": "address"
        }
      ],
      "name": "Unpaused",
      "type": "event"
    },
    {
      "inputs": [],
      "name": "BILLING_ADMIN_ROLE",
      "outputs": [
        {
          "internalType": "bytes32",
          "name": "",
          "type": "bytes32"
        }
      ],
      "stateMutability": "view",
      "type": "function"
    },
    {
      "inputs": [],
      "name": "DEFAULT_ADMIN_ROLE",
      "outputs": [
        {
          "internalType": "bytes32",
          "name": "",
          "type": "bytes32"
        }
      ],
      "stateMutability": "view",
      "type": "function"
    },
    {
      "inputs": [],
      "name": "MAX_DAILY_QUERIES",
      "outputs": [
        {
          "internalType": "uint256",
          "name": "",
          "type": "uint256"
        }
      ],
      "stateMutability": "view",
      "type": "function"
    },
    {
      "inputs": [],
      "name": "MAX_SPENDING_CAP",
      "outputs": [
        {
          "internalType": "uint256",
          "name": "",
          "type": "uint256"
        }
      ],
      "stateMutability": "view",
      "type": "function"
    },
    {
      "inputs": [],
      "name": "REFUND_MANAGER_ROLE",
      "outputs": [
        {
          "internalType": "bytes32",
          "name": "",
          "type": "bytes32"
        }
      ],
      "stateMutability": "view",
      "type": "function"
    },
    {
      "inputs": [],
      "name": "SERVICE_MANAGER_ROLE",
      "outputs": [
        {
          "internalType": "bytes32",
          "name": "",
          "type": "bytes32"
        }
      ],
      "stateMutability": "view",
      "type": "function"
    },
    {
      "inputs": [
        {
          "internalType": "address",
          "name": "user",
          "type": "address"
        },
        {
          "internalType": "enum AIServicePayment.ServiceType",
          "name": "serviceType",
          "type": "uint8"
        }
      ],
      "name": "canAccessService",
      "outputs": [
        {
          "internalType": "bool",
          "name": "",
          "type": "bool"
        },
        {
          "internalType": "string",
          "name": "",
          "type": "string"
        }
      ],
      "stateMutability": "view",
      "type": "function"
    },
    {
      "inputs": [
        {
          "internalType": "address",
          "name": "token",
          "type": "address"
        },
        {
          "internalType": "uint256",
          "name": "amount",
          "type": "uint256"
        }
      ],
      "name": "fundAccount",
      "outputs": [],
      "stateMutability": "nonpayable",
      "type": "function"
    },
    {
      "inputs": [],
      "name": "fundAccountETH",
      "outputs": [],
      "stateMutability": "payable",
      "type": "function"
    },
    {
      "inputs": [],
      "name": "gPforkToken",
      "outputs": [
        {
          "internalType": "contract IERC20",
          "name": "",
          "type": "address"
        }
      ],
      "stateMutability": "view",
      "type": "function"
    },
    {
      "inputs": [
        {
          "internalType": "bytes32",
          "name": "role",
          "type": "bytes32"
        }
      ],
      "name": "getRoleAdmin",
      "outputs": [
        {
          "internalType": "bytes32",
          "name": "",
          "type": "bytes32"
        }
      ],
      "stateMutability": "view",
      "type": "function"
    },
    {
      "inputs": [
        {
          "internalType": "address",
          "name": "user",
          "type": "address"
        }
      ],
      "name": "getUserAccount",
      "outputs": [
        {
          "internalType": "uint256",
          "name": "dailySpendingLimit",
          "type": "uint256"
        },
        {
          "internalType": "uint256",
          "name": "totalSpendingCap",
          "type": "uint256"
        },
        {
          "internalType": "uint256",
          "name": "accountCreated",
          "type": "uint256"
        },
        {
          "internalType": "bool",
          "name": "isActive",
          "type": "bool"
        },
        {
          "internalType": "uint256",
          "name": "refundableAmount",
          "type": "uint256"
        }
      ],
      "stateMutability": "view",
      "type": "function"
    },
    {
      "inputs": [
        {
          "internalType": "address",
          "name": "user",
          "type": "address"
        },
        {
          "internalType": "enum AIServicePayment.ServiceType",
          "name": "serviceType",
          "type": "uint8"
        }
      ],
      "name": "getUserDailyUsage",
      "outputs": [
        {
          "internalType": "uint256",
          "name": "",
          "type": "uint256"
        }
      ],
      "stateMutability": "view",
      "type": "function"
    },
    {
      "inputs": [
        {
          "internalType": "address",
          "name": "user",
          "type": "address"
        },
        {
          "internalType": "address",
          "name": "token",
          "type": "address"
        }
      ],
      "name": "getUserTokenBalance",
      "outputs": [
        {
          "internalType": "uint256",
          "name": "",
          "type": "uint256"
        }
      ],
      "stateMutability": "view",
      "type": "function"
    },
    {
      "inputs": [
        {
          "internalType": "bytes32",
          "name": "role",
          "type": "bytes32"
        },
        {
          "internalType": "address",
          "name": "account",
          "type": "address"
        }
      ],
      "name": "grantRole",
      "outputs": [],
      "stateMutability": "nonpayable",
      "type": "function"
    },
    {
      "inputs": [
        {
          "internalType": "bytes32",
          "name": "role",
          "type": "bytes32"
        },
        {
          "internalType": "address",
          "name": "account",
          "type": "address"
        }
      ],
      "name": "hasRole",
      "outputs": [
        {
          "internalType": "bool",
          "name": "",
          "type": "bool"
        }
      ],
      "stateMutability": "view",
      "type": "function"
    },
    {
      "inputs": [
        {
          "internalType": "bytes32",
          "name": "paymentId",
          "type": "bytes32"
        },
        {
          "internalType": "string",
          "name": "reason",
          "type": "string"
        }
      ],
      "name": "issueRefund",
      "outputs": [],
      "stateMutability": "nonpayable",
      "type": "function"
    },
    {
      "inputs": [],
      "name": "pause",
      "outputs": [],
      "stateMutability": "nonpayable",
      "type": "function"
    },
    {
      "inputs": [],
      "name": "paused",
      "outputs": [
        {
          "internalType": "bool",
          "name": "",
          "type": "bool"
        }
      ],
      "stateMutability": "view",
      "type": "function"
    },
    {
      "inputs": [
        {
          "internalType": "bytes32",
          "name": "",
          "type": "bytes32"
        }
      ],
      "name": "paymentRecords",
      "outputs": [
        {
          "internalType": "address",
          "name": "user",
          "type": "address"
        },
        {
          "internalType": "enum AIServicePayment.ServiceType",
          "name": "serviceType",
          "type": "uint8"
        },
        {
          "internalType": "address",
          "name": "paymentToken",
          "type": "address"
        },
        {
          "internalType": "uint256",
          "name": "amount",
          "type": "uint256"
        },
        {
          "internalType": "uint256",
          "name": "timestamp",
          "type": "uint256"
        },
        {
          "internalType": "bytes32",
          "name": "sessionId",
          "type": "bytes32"
        },
        {
          "internalType": "bool",
          "name": "wasRefunded",
          "type": "bool"
        }
      ],
      "stateMutability": "view",
      "type": "function"
    },
    {
      "inputs": [],
      "name": "pforkToken",
      "outputs": [
        {
          "internalType": "contract IERC20",
          "name": "",
          "type": "address"
        }
      ],
      "stateMutability": "view",
      "type": "function"
    },
    {
      "inputs": [],
      "name": "platformFeePercentage",
      "outputs": [
        {
          "internalType": "uint256",
          "name": "",
          "type": "uint256"
        }
      ],
      "stateMutability": "view",
      "type": "function"
    },
    {
      "inputs": [
        {
          "internalType": "address",
          "name": "user",
          "type": "address"
        },
        {
          "internalType": "enum AIServicePayment.ServiceType",
          "name": "serviceType",
          "type": "uint8"
        },
        {
          "internalType": "address",
          "name": "paymentToken",
          "type": "address"
        },
        {
          "internalType": "bytes32",
          "name": "sessionId",
          "type": "bytes32"
        }
      ],
      "name": "processServicePayment",
      "outputs": [
        {
          "internalType": "bool",
          "name": "success",
          "type": "bool"
        }
      ],
      "stateMutability": "nonpayable",
      "type": "function"
    },
    {
      "inputs": [
        {
          "internalType": "bytes32",
          "name": "role",
          "type": "bytes32"
        },
        {
          "internalType": "address",
          "name": "callerConfirmation",
          "type": "address"
        }
      ],
      "name": "renounceRole",
      "outputs": [],
      "stateMutability": "nonpayable",
      "type": "function"
    },
    {
      "inputs": [
        {
          "internalType": "bytes32",
          "name": "role",
          "type": "bytes32"
        },
        {
          "internalType": "address",
          "name": "account",
          "type": "address"
        }
      ],
      "name": "revokeRole",
      "outputs": [],
      "stateMutability": "nonpayable",
      "type": "function"
    },
    {
      "inputs": [
        {
          "internalType": "enum AIServicePayment.ServiceType",
          "name": "",
          "type": "uint8"
        }
      ],
      "name": "serviceConfigs",
      "outputs": [
        {
          "internalType": "uint256",
          "name": "baseCostPerQuery",
          "type": "uint256"
        },
        {
          "internalType": "uint256",
          "name": "maxQueriesPerDay",
          "type": "uint256"
        },
        {
          "internalType": "uint256",
          "name": "discountForStakers",
          "type": "uint256"
        },
        {
          "internalType": "bool",
          "name": "isActive",
          "type": "bool"
        },
        {
          "internalType": "string",
          "name": "serviceName",
          "type": "string"
        },
        {
          "internalType": "uint256",
          "name": "minimumStakeRequired",
          "type": "uint256"
        }
      ],
      "stateMutability": "view",
      "type": "function"
    },
    {
      "inputs": [
        {
          "internalType": "enum AIServicePayment.ServiceType",
          "name": "",
          "type": "uint8"
        }
      ],
      "name": "serviceUsageStats",
      "outputs": [
        {
          "internalType": "uint256",
          "name": "",
          "type": "uint256"
        }
      ],
      "stateMutability": "view",
      "type": "function"
    },
    {
      "inputs": [
        {
          "internalType": "address",
          "name": "token",
          "type": "address"
        },
        {
          "internalType": "bool",
          "name": "supported",
          "type": "bool"
        },
        {
          "internalType": "string",
          "name": "name",
          "type": "string"
        },
        {
          "internalType": "uint8",
          "name": "decimals",
          "type": "uint8"
        }
      ],
      "name": "setSupportedToken",
      "outputs": [],
      "stateMutability": "nonpayable",
      "type": "function"
    },
    {
      "inputs": [
        {
          "internalType": "address",
          "name": "user",
          "type": "address"
        },
        {
          "internalType": "uint256",
          "name": "newLimit",
          "type": "uint256"
        }
      ],
      "name": "setUserDailyLimit",
      "outputs": [],
      "stateMutability": "nonpayable",
      "type": "function"
    },
    {
      "inputs": [
        {
          "internalType": "address",
          "name": "",
          "type": "address"
        }
      ],
      "name": "supportedTokens",
      "outputs": [
        {
          "internalType": "bool",
          "name": "",
          "type": "bool"
        }
      ],
      "stateMutability": "view",
      "type": "function"
    },
    {
      "inputs": [
        {
          "internalType": "bytes4",
          "name": "interfaceId",
          "type": "bytes4"
        }
      ],
      "name": "supportsInterface",
      "outputs": [
        {
          "internalType": "bool",
          "name": "",
          "type": "bool"
        }
      ],
      "stateMutability": "view",
      "type": "function"
    },
    {
      "inputs": [
        {
          "internalType": "address",
          "name": "",
          "type": "address"
        }
      ],
      "name": "tokenDecimals",
      "outputs": [
        {
          "internalType": "uint8",
          "name": "",
          "type": "uint8"
        }
      ],
      "stateMutability": "view",
      "type": "function"
    },
    {
      "inputs": [
        {
          "internalType": "address",
          "name": "",
          "type": "address"
        }
      ],
      "name": "tokenNames",
      "outputs": [
        {
          "internalType": "string",
          "name": "",
          "type": "string"
        }
      ],
      "stateMutability": "view",
      "type": "function"
    },
    {
      "inputs": [],
      "name": "totalPaymentsProcessed",
      "outputs": [
        {
          "internalType": "uint256",
          "name": "",
          "type": "uint256"
        }
      ],
      "stateMutability": "view",
      "type": "function"
    },
    {
      "inputs": [],
      "name": "totalRefundsIssued",
      "outputs": [
        {
          "internalType": "uint256",
          "name": "",
          "type": "uint256"
        }
      ],
      "stateMutability": "view",
      "type": "function"
    },
    {
      "inputs": [],
      "name": "treasuryAddress",
      "outputs": [
        {
          "internalType": "address",
          "name": "",
          "type": "address"
        }
      ],
      "stateMutability": "view",
      "type": "function"
    },
    {
      "inputs": [],
      "name": "unpause",
      "outputs": [],
      "stateMutability": "nonpayable",
      "type": "function"
    },
    {
      "inputs": [
        {
          "internalType": "enum AIServicePayment.ServiceType",
          "name": "serviceType",
          "type": "uint8"
        },
        {
          "internalType": "uint256",
          "name": "baseCost",
          "type": "uint256"
        },
        {
          "internalType": "uint256",
          "name": "maxQueries",
          "type": "uint256"
        },
        {
          "internalType": "uint256",
          "name": "discount",
          "type": "uint256"
        },
        {
          "internalType": "bool",
          "name": "isActive",
          "type": "bool"
        },
        {
          "internalType": "string",
          "name": "serviceName",
          "type": "string"
        },
        {
          "internalType": "uint256",
          "name": "minimumStake",
          "type": "uint256"
        }
      ],
      "name": "updateServiceConfig",
      "outputs": [],
      "stateMutability": "nonpayable",
      "type": "function"
    },
    {
      "inputs": [
        {
          "internalType": "address",
          "name": "",
          "type": "address"
        }
      ],
      "name": "userAccounts",
      "outputs": [
        {
          "internalType": "uint256",
          "name": "dailySpendingLimit",
          "type": "uint256"
        },
        {
          "internalType": "uint256",
          "name": "totalSpendingCap",
          "type": "uint256"
        },
        {
          "internalType": "uint256",
          "name": "accountCreated",
          "type": "uint256"
        },
        {
          "internalType": "bool",
          "name": "isActive",
          "type": "bool"
        },
        {
          "internalType": "uint256",
          "name": "refundableAmount",
          "type": "uint256"
        }
      ],
      "stateMutability": "view",
      "type": "function"
    },
    {
      "inputs": [
        {
          "internalType": "address",
          "name": "token",
          "type": "address"
        },
        {
          "internalType": "uint256",
          "name": "amount",
          "type": "uint256"
        }
      ],
      "name": "withdrawAccountBalance",
      "outputs": [],
      "stateMutability": "nonpayable",
      "type": "function"
    },
    {
      "inputs": [
        {
          "internalType": "address",
          "name": "token",
          "type": "address"
        }
      ],
      "name": "withdrawRefund",
      "outputs": [],
      "stateMutability": "nonpayable",
      "type": "function"
    }
  ],
  "bytecode": "0x608034620005dd57601f62002ba638819003918201601f191683019291906001600160401b03841183851017620005c9578160609284926040968752833981010312620005dd57620000518162000601565b906200006d83620000656020840162000601565b920162000601565b90600180556101f4600c55620000833362000616565b506200008f3362000686565b506200009b3362000726565b50620000a733620007c0565b50600980546001600160a01b03199081166001600160a01b0395861617909155600a8054821692851692909217909155600b805490911691909216179055805161010081016001600160401b03811182821017620005c9578252906200010c620005e1565b601681527f436f6e7363696f75736e65737320416e616c79736973000000000000000000006020820152825262000142620005e1565b601281527153747261746567696320496e73696768747360701b6020820152602083015262000170620005e1565b60128152714465636973696f6e2053796e74686573697360701b6020820152818301526200019d620005e1565b601381527f5061747465726e205265636f676e6974696f6e0000000000000000000000000060208201526060830152620001d6620005e1565b60128152712bb4b9b237b69024b73a32b3b930ba34b7b760711b6020820152608083015262000204620005e1565b601181527010dc9a5cda5cc813585b9859d95b595b9d607a1b602082015260a083015262000231620005e1565b601381527f4c65616465727368697020436f616368696e6700000000000000000000000000602082015260c08301526200026a620005e1565b601381527f5265666c656374696f6e2047756964616e636500000000000000000000000000602082015260e08301525f915b60088310620003a957505f80526003602052805f2060ff19906001828254161790556004602052815f20620002dd620002d682546200085a565b82620008ad565b7f457468657265756d00000000000000000000000000000000000000000000001090555f80805260056020908152838220805484166012179055600980546001600160a01b0390811684526003835285842080548616600117905590541682526004905282902080546200035690620002d6906200085a565b7f5069746368666f726b20546f6b656e000000000000000000000000000000001e90556009546001600160a01b03165f9081526005602052829020805490911660121790555161228d9081620008d98239f35b825f526006602052815f20600184018411620004f557662386f26fc1000060018501818102918183041490151715620004f5578155600a8402841590858104600a14821715620004f55760640360648111620004f55760018301556101f48502908582046101f4141715620004f5576103e8908101809111620004f557600282015560038101805460ff19166001179055600584901b82015180519094906001600160401b038111620005c9576200046560048401546200085a565b601f811162000586575b506020601f821160011462000515578192939495965f9262000509575b50508160011b915f199060031b1c19161760048301555b6064600182010260018201810460641460018301151715620004f55768056bc75e2d63100000600183010290808204670de0b6b3a76400001490151715620004f557600560019301550191906200029c565b634e487b7160e01b5f52601160045260245ffd5b015190505f806200048c565b600484015f5260205f20905f5b601f19841681106200056d57506001939495969783601f1981161062000554575b505050811b016004830155620004a3565b01515f1960f88460031b161c191690555f808062000543565b9091602060018192858c01518155019301910162000522565b620005b790600485015f5260205f20601f840160051c81019160208510620005be575b601f0160051c019062000895565b5f6200046f565b9091508190620005a9565b634e487b7160e01b5f52604160045260245ffd5b5f80fd5b60408051919082016001600160401b03811183821017620005c957604052565b51906001600160a01b0382168203620005dd57565b6001600160a01b03165f8181525f8051602062002b86833981519152602052604090205460ff1662000681575f8181525f8051602062002b8683398151915260205260408120805460ff191660011790553391905f8051602062002b668339815191528180a4600190565b505f90565b6001600160a01b03165f8181527f29152311108055f848337cef7f4aa231fcb3761fe61a0e784567e3ff5217393560205260409020547f09717ac20005278352439ebfe1b489a0fa1eccb8e4f93830ef8886bb58ec7bc5919060ff166200072057815f525f60205260405f20815f5260205260405f20600160ff1982541617905533915f8051602062002b668339815191525f80a4600190565b50505f90565b6001600160a01b03165f8181527ff65f1e21292c0916561c1a8e90ecf6045cf602d2b224c969034c3ff7e13de05e60205260409020547fd98bd38965825a7af6ae08c852b128dc25eb9f0288e41a50907cae35f789c07e919060ff166200072057815f525f60205260405f20815f5260205260405f20600160ff1982541617905533915f8051602062002b668339815191525f80a4600190565b6001600160a01b03165f8181527feb2c2d0841e9da5fca78674283a7cb3a9e5b8317de4c414bc414531bab5f623360205260409020547fc89f08b49c068684bf15b77e68611a9f601e70d1f919059510bccd18e691e535919060ff166200072057815f525f60205260405f20815f5260205260405f20600160ff1982541617905533915f8051602062002b668339815191525f80a4600190565b90600182811c921680156200088a575b60208310146200087657565b634e487b7160e01b5f52602260045260245ffd5b91607f16916200086a565b818110620008a1575050565b5f815560010162000895565b90601f8111620008bb575050565b620008d6915f52601f60205f20910160051c81019062000895565b56fe604060808152600480361015610013575f80fd5b5f3560e01c9081626e3266146117e357816301ffc9a71461178f5781631567ddb11461123f578163177c49a71461113857816318c1326e146110fe57816323290bad14610ef7578163248a9ca314610ece5781632601e6ec14610eb05781632e5b86a014610e885781632f2ff15d14610e6057816336568abe14610e1c57816337e32d1d14610dfe57816339ee3be614610dc95781633a8611b514610d8f5781633f4ba83a14610d285781634200003b14610c89578163450fac7114610b155781634aaeeaf7146109eb5781635251d91c146101fe5781635c975abb146109c857816366c29b81146109a057816368c4ac261461096457816373f8fd4b1461091b5781637cf21a98146108f75781638456cb591461089e5781638ee573ac1461086457816391d1485414610821578163a16c86f714610749578163a217fddf1461072f578163a8fc75e1146106e5578163ab691551146106bc578163afd9769914610681578163b329b6a7146105e9578163c5f956af146105c1578163c979e8a714610587578163ca06d74414610505578163cdd78cfc146104e7578163d547741f146104ac578163efcb45f71461027b578163fb47e016146101fe575063fefa554b146101df575f80fd5b346101fa575f3660031901126101fa57602090516103e88152f35b5f80fd5b82346101fa5760203660031901126101fa576001600160a01b03610220611a7e565b165f526007602052610277815f2092830154916005840154936006810154600860ff6007840154169201549251958695869192608093969594919660a0840197845260208401526040830152151560608201520152565b0390f35b82346101fa5760803660031901126101fa57610295611a7e565b9060243590811515908183036101fa5767ffffffffffffffff936044358581116101fa576102c69036908801611a38565b956064359160ff83168093036101fa576102de611ffc565b60018060a01b031695865f526020956003875261030981865f209060ff801983541691151516179055565b61033a575b867f9acd25432e73c8fd87c1f86fcc1337f44943fe5d5b8ff9651af0fd79a3e2b15e87878751908152a2005b818652835f2091885191821161049957506103558254611b17565b601f8111610456575b5085601f82116001146103d35781907f9acd25432e73c8fd87c1f86fcc1337f44943fe5d5b8ff9651af0fd79a3e2b15e98995f926103c8575b50508160011b915f199060031b1c19161790555b855f5260058452815f209060ff198254161790558493868061030e565b015190508980610397565b601f19821698835f52875f20995f5b81811061043f5750917f9acd25432e73c8fd87c1f86fcc1337f44943fe5d5b8ff9651af0fd79a3e2b15e999a91846001959410610427575b505050811b0190556103ab565b01515f1960f88460031b161c1916905589808061041a565b838301518c556001909b019a9289019289016103e2565b825f52865f20601f830160051c81019188841061048f575b601f0160051c01905b818110610484575061035e565b5f8155600101610477565b909150819061046e565b604190634e487b7160e01b5f525260245ffd5b82346101fa57806003193601126101fa576104e591356104e060016104cf611a94565b93835f525f6020525f200154612052565b612180565b005b82346101fa575f3660031901126101fa57602090600c549051908152f35b82346101fa5760203660031901126101fa57813560088110156101fa5761052b90611bf1565b9061057d8254926001810154946002820154600561055260ff600386015416938501611b4f565b930154948051978897885260208801528601521515606085015260c0608085015260c0840190611ad9565b9060a08301520390f35b82346101fa575f3660031901126101fa57602090517f09717ac20005278352439ebfe1b489a0fa1eccb8e4f93830ef8886bb58ec7bc58152f35b82346101fa575f3660031901126101fa57600b5490516001600160a01b039091168152602090f35b82346101fa5760203660031901126101fa5781355f526008602052805f209081549160018060a01b039160ff8460a01c16908360018401541660028401549160038501549360ff60058a8801549701541696825198168852600881101561066e5760e0985060208801528601526060850152608084015260a0830152151560c0820152f35b602189634e487b7160e01b5f525260245ffd5b82346101fa576020906106b461069636611aaa565b6001600160a01b039091165f90815260078552839020600101611c33565b549051908152f35b9050346101fa5760203660031901126101fa57359060088210156101fa576106b4602092611c1c565b82346101fa5760203660031901126101fa57610277916001600160a01b0361070b611a7e565b165f5260205261071c815f20611b4f565b9051918291602083526020830190611ad9565b82346101fa575f3660031901126101fa57602090515f8152f35b82346101fa5760203660031901126101fa57610763611a7e565b61076b612073565b335f5260076020526008825f2001549283156107e8575060085f9160018060a01b03169283835260036020526107a660ff8285205416611f41565b338352600760205282200155806107d757505f8080806107d194335af16107cb611cdb565b50611d0a565b60018055005b906107e39133906120b4565b6107d1565b606490602084519162461bcd60e51b835282015260136024820152724e6f20726566756e6420617661696c61626c6560681b6044820152fd5b82346101fa57806003193601126101fa5760209161083d611a94565b90355f525f8352815f209060018060a01b03165f52825260ff815f20541690519015158152f35b82346101fa5760203660031901126101fa576020906001600160a01b03610889611a7e565b165f526005825260ff815f2054169051908152f35b82346101fa575f3660031901126101fa5760207f62e78cea01bee320cd4e420270b5ea74000d11b0c9f74754ebdbfc544b05a258916108db611ffc565b6108e3612096565b600160ff19600254161760025551338152a1005b82346101fa575f3660031901126101fa576020905169021e19e0c9bab24000008152f35b82346101fa57806003193601126101fa57602090610937611a7e565b61093f611a94565b9060018060a01b038091165f5260078452825f2091165f528252805f20549051908152f35b82346101fa5760203660031901126101fa576020906001600160a01b03610989611a7e565b165f526003825260ff815f20541690519015158152f35b82346101fa575f3660031901126101fa5760095490516001600160a01b039091168152602090f35b82346101fa575f3660031901126101fa5760209060ff6002541690519015158152f35b90505f3660031901126101fa57610a00612073565b610a08612096565b3415610ae3575f8052600360205260ff825f20541615610aad57905f913383526007602052818320906006820190815415610a86575b5050828052602052808220610a54348254611c49565b9055513481527f291f84cc50460ba253dd410dfb3142a5f89d5d3e95bcbcb3c3739fc60abe10f860203392a360018055005b68056bc75e2d631000009142905560078301600160ff198254161790558201555f80610a3e565b6020606492519162461bcd60e51b83528201526011602482015270115512081b9bdd081cdd5c1c1bdc9d1959607a1b6044820152fd5b6020606492519162461bcd60e51b8352820152600d60248201526c09aeae6e840e6cadcc8408aa89609b1b6044820152fd5b9050346101fa57816003193601126101fa57610b2f611a7e565b9060243591610b3c612073565b610b44612096565b60018060a01b031692835f5260209160038352610b6660ff835f205416611f41565b8315610c4857335f5260078352815f20816006820191825415610c21575b505082516323b872dd60e01b85820152336024820152306044820152606480820187905281529160a08301915067ffffffffffffffff82118383101761049957508291610bf5917f291f84cc50460ba253dd410dfb3142a5f89d5d3e95bcbcb3c3739fc60abe10f8959452866121f2565b335f5260078252805f20855f528252805f20610c12858254611c49565b9055519283523392a360018055005b68056bc75e2d631000009242905560078101600160ff1982541617905501555f8181610b84565b82606492519162461bcd60e51b8352820152601760248201527f416d6f756e74206d75737420626520706f7369746976650000000000000000006044820152fd5b82346101fa57806003193601126101fa57610ca2611a7e565b9060243591610caf612073565b60018060a01b031690815f526003602052610ccf60ff825f205416611f41565b335f526007602052805f20825f52602052610cef83825f20541015611c6a565b335f526007602052805f20825f526020525f20610d0d838254611cad565b9055806107d757505f8080806107d194335af16107cb611cdb565b82346101fa575f3660031901126101fa57610d41611ffc565b6002549160ff831615610d81577f5db9ee0a495bf2e6ff9c91a7834c1ba4fdd244a5e8aa4e537bd38aeae4b073aa6020838560ff191660025551338152a1005b9051638dfc202b60e01b8152fd5b82346101fa575f3660031901126101fa57602090517fd98bd38965825a7af6ae08c852b128dc25eb9f0288e41a50907cae35f789c07e8152f35b82346101fa57610277610de4610dde36611aaa565b90611d4c565b839291925193849315158452806020850152830190611ad9565b82346101fa575f3660031901126101fa57602090600d549051908152f35b82346101fa57806003193601126101fa57610e35611a94565b90336001600160a01b03831603610e5157506104e59135612180565b5163334bd91960e11b81529050fd5b82346101fa57806003193601126101fa576104e59135610e8360016104cf611a94565b612104565b82346101fa575f3660031901126101fa57600a5490516001600160a01b039091168152602090f35b82346101fa575f3660031901126101fa57602090600e549051908152f35b82346101fa5760203660031901126101fa57602091355f525f82526001815f2001549051908152f35b9050346101fa57816003193601126101fa57803590602492833567ffffffffffffffff81116101fa57610f2d9036908401611a38565b507fc89f08b49c068684bf15b77e68611a9f601e70d1f919059510bccd18e691e53590815f526020915f8352815f20335f52835260ff825f205416156110e15750610f76612073565b835f5260088252805f2060018060a01b0390818154169485156110ab57600582019081549860ff8a1661107657600384015462093a80810180911161106357421161102957505060017fccceb8e0cf7d8f38cd67b4af450f99eafc2b50da1a8540a256eb35b3aaecf43696979860ff191617905560028101958654905f52600785526110096008855f2001918254611c49565b9055611016600e54611cba565b600e55541693549051908152a360018055005b855162461bcd60e51b8152918201879052601590820152741499599d5b99081c195c9a5bd908195e1c1a5c9959605a1b6044820152606490fd5b50634e487b7160e01b5f90815260118352fd5b855162461bcd60e51b81529182018790526010908201526f105b1c9958591e481c99599d5b99195960821b6044820152606490fd5b835162461bcd60e51b81529081018590526011818901527014185e5b595b9d081b9bdd08199bdd5b99607a1b6044820152606490fd5b905163e2517d3f60e01b8152338185015280860191909152604490fd5b82346101fa575f3660031901126101fa57602090517fc89f08b49c068684bf15b77e68611a9f601e70d1f919059510bccd18e691e5358152f35b9050346101fa57816003193601126101fa57611152611a7e565b602435907fd98bd38965825a7af6ae08c852b128dc25eb9f0288e41a50907cae35f789c07e805f525f602052845f20335f5260205260ff855f20541615611221575069021e19e0c9bab240000082116111e85781847f074424510750f675220b94bac388bff82d6407b38f341b0226af2ab45af33dc29360209360018060a01b031695865f5260078552825f20015551908152a2005b835162461bcd60e51b81526020818501526013602482015272045786365656473206d6178696d756d2063617606c1b6044820152606490fd5b845163e2517d3f60e01b815233818601526024810191909152604490fd5b9050346101fa5760803660031901126101fa5761125a611a7e565b9160249182359060088210156101fa5760449485356001600160a01b0381811692918390036101fa5760649381853593611292611f83565b61129a612073565b6112a2612096565b1694855f5260079060209a828c5260ff838b5f200154161561175157865f5260038c5260ff8a5f205416156117135760ff60036112de8b611bf1565b015416156116e057875f52828c526112fb8960028c5f2001611c33565b546201518081018091116116ce5742101561169b575b875f52828c5260019a6113288a8d8d5f2001611c33565b548c6113338c611bf1565b0154111561165d57908c95949392918b61134c8c611bf1565b54978b8389600a54169351809481936370a0823160e01b83528b8301525afa90811561165357908f915f91611624575b506115d2575b84908b5f5252848c5f2001548711611593578d846113b7898f8f8f6113b1926003915f528688525f2001611c33565b54611c49565b918c5f525260058d5f2001541061155457505050918a60058b8787956114708d8f6003908f9b7fa9916cfc916048f749749f9b9bc7084d59ae139782ad7e971ba3b69d4857d5009f9d9c60609f9d8f9061142590848e855f52528d865f2090845f5252855f20541015611c6a565b815f52828c52835f20905f528b528c611442845f20918254611cad565b9055805f52818b52611458858a855f2001611c33565b6114628154611cba565b90555f5289525f2001611c33565b61147b888254611c49565b90556114868d611c1c565b6114908154611cba565b905561149d600d54611cba565b600d5560086114bb6127106114b4600c548b611cc8565b0489611cad565b5f848152919096528e902080546001600160a81b0319168d1760a08f901b60ff60a01b1617815592830180546001600160a01b0319168a1790556002830187905542600384015582015501805460ff1916905584611541575f8080809361152a95600b54165af16107cb611cdb565b87519283528983015286820152a381805551908152f35b61154f91600b5416856120b4565b61152a565b8491601a8f927f4578636565647320746f74616c207370656e64696e6720636170000000000000938f519562461bcd60e51b8752860152840152820152fd5b8491601c8f927f45786365656473206461696c79207370656e64696e67206c696d697400000000938f519562461bcd60e51b8752860152840152820152fd5b5090919293949560026115e48c611bf1565b0154906127109182039082821161161257918f98979695949392869261160991611cc8565b04979050611382565b83601189634e487b7160e01b5f52525ffd5b82819392503d831161164c575b61163b81836119fa565b810103126101fa578e90515f61137c565b503d611631565b8d513d5f823e3d90fd5b8491601a7f4461696c79207175657279206c696d6974206578636565646564000000000000928f8e519562461bcd60e51b8752860152840152820152fd5b875f52828c525f6116b18a60018d842001611c33565b55875f52828c52426116c88a60028d5f2001611c33565b55611311565b8b601186634e487b7160e01b5f52525ffd5b7153657276696365206e6f742061637469766560701b849160128d8f8e519562461bcd60e51b8752860152840152820152fd5b7f5061796d656e7420746f6b656e206e6f7420737570706f7274656400000000008491601b8d8f8e519562461bcd60e51b8752860152840152820152fd5b7f55736572206163636f756e74206e6f7420616374697665000000000000000000849160178d8f8e519562461bcd60e51b8752860152840152820152fd5b9050346101fa5760203660031901126101fa573563ffffffff60e01b81168091036101fa57602091637965db0b60e01b82149182156117d2575b50519015158152f35b6301ffc9a760e01b1491505f6117c9565b82346101fa5760e03660031901126101fa5781359060088210156101fa57602435608435801515908181036101fa5767ffffffffffffffff9560a4358781116101fa576118339036908301611a38565b9161183c611f83565b61184587611bf1565b92858455611873600192604435848701556064356002870155600386019060ff801983541691151516179055565b828401928151998a11610499575061188b8354611b17565b601f8111611982575b50602090601f8a116001146119035798809281927f4ff705835d9605dd3527958e66b551f383a33866fbb8bd40cda2303bab7eda4d9a9b5f946118f8575b50501b915f199060031b1c19161790555b600560c43591015582519182526020820152a2005b015192508b806118d2565b9890601f19821690845f52805f20915f5b81811061196c57509a837f4ff705835d9605dd3527958e66b551f383a33866fbb8bd40cda2303bab7eda4d9b9c10611954575b505050811b0190556118e3565b01515f1960f88460031b161c19169055898080611947565b8c83015184559285019260209283019201611914565b835f5260205f20601f8b0160051c81019160208c106119c0575b601f0160051c019083905b8281106119b5575050611894565b5f81550183906119a7565b909150819061199c565b6040810190811067ffffffffffffffff8211176119e657604052565b634e487b7160e01b5f52604160045260245ffd5b90601f8019910116810190811067ffffffffffffffff8211176119e657604052565b67ffffffffffffffff81116119e657601f01601f191660200190565b81601f820112156101fa57803590611a4f82611a1c565b92611a5d60405194856119fa565b828452602083830101116101fa57815f926020809301838601378301015290565b600435906001600160a01b03821682036101fa57565b602435906001600160a01b03821682036101fa57565b60409060031901126101fa576004356001600160a01b03811681036101fa579060243560088110156101fa5790565b91908251928382525f5b848110611b03575050825f602080949584010152601f8019910116010190565b602081830181015184830182015201611ae3565b90600182811c92168015611b45575b6020831014611b3157565b634e487b7160e01b5f52602260045260245ffd5b91607f1691611b26565b9060405191825f8254611b6181611b17565b908184526020946001916001811690815f14611bcf5750600114611b91575b505050611b8f925003836119fa565b565b5f90815285812095935091905b818310611bb7575050611b8f93508201015f8080611b80565b85548884018501529485019487945091830191611b9e565b92505050611b8f94925060ff191682840152151560051b8201015f8080611b80565b6008811015611c08575f52600660205260405f2090565b634e487b7160e01b5f52602160045260245ffd5b6008811015611c08575f52600f60205260405f2090565b906008811015611c08575f5260205260405f2090565b91908201809211611c5657565b634e487b7160e01b5f52601160045260245ffd5b15611c7157565b60405162461bcd60e51b8152602060048201526014602482015273496e73756666696369656e742062616c616e636560601b6044820152606490fd5b91908203918211611c5657565b5f198114611c565760010190565b81810292918115918404141715611c5657565b3d15611d05573d90611cec82611a1c565b91611cfa60405193846119fa565b82523d5f602084013e565b606090565b15611d1157565b60405162461bcd60e51b8152602060048201526013602482015272115512081d1c985b9cd9995c8819985a5b1959606a1b6044820152606490fd5b919060018060a01b0380931690815f526020916007835260409460ff6007875f2001541615611f1b578360ff6003611d8386611bf1565b01541615611eea57602491600a54168751928380926370a0823160e01b82528660048301525afa908115611ee0575f91611eb3575b506005611dc484611bf1565b015411611e55575f52600782526001611deb611de48383885f2001611c33565b5492611bf1565b01541115611e1d576d1058d8d95cdcc819dc985b9d195960921b6001935191611e13836119ca565b600e835282015290565b7f4461696c79207175657279206c696d69742072656163686564000000000000005f935191611e4b836119ca565b6019835282015290565b5050915f928151916060830183811067ffffffffffffffff8211176119e6576865642050464f524b2960b81b927f496e73756666696369656e74206750464f524b20746f6b656e7320287374616b9183526029855284015282015290565b90508381813d8311611ed9575b611eca81836119fa565b810103126101fa57515f611db8565b503d611ec0565b86513d5f823e3d90fd5b505050507153657276696365206e6f742061637469766560701b5f935191611f11836119ca565b6012835282015290565b505050714163636f756e74206e6f742061637469766560701b5f935191611f11836119ca565b15611f4857565b60405162461bcd60e51b8152602060048201526013602482015272151bdad95b881b9bdd081cdd5c1c1bdc9d1959606a1b6044820152606490fd5b335f9081527f29152311108055f848337cef7f4aa231fcb3761fe61a0e784567e3ff5217393560205260409020547f09717ac20005278352439ebfe1b489a0fa1eccb8e4f93830ef8886bb58ec7bc59060ff1615611fde5750565b6044906040519063e2517d3f60e01b82523360048301526024820152fd5b335f9081527fad3228b676f7d3cd4284a5443f17f1962b36e491b30a40b2405849e597ba5fb5602052604090205460ff161561203457565b60405163e2517d3f60e01b81523360048201525f6024820152604490fd5b805f525f60205260405f20335f5260205260ff60405f20541615611fde5750565b600260015414612084576002600155565b604051633ee5aeb560e01b8152600490fd5b60ff600254166120a257565b60405163d93c066560e01b8152600490fd5b60405163a9059cbb60e01b60208201526001600160a01b039092166024830152604480830193909352918152608081019167ffffffffffffffff8311828410176119e657611b8f926040526121f2565b90815f525f60205260405f209060018060a01b031690815f5260205260ff60405f205416155f1461217a57815f525f60205260405f20815f5260205260405f20600160ff1982541617905533917f2f8788117e7eff1d82e926ec794901d17c78024a50270940304540a733656f0d5f80a4600190565b50505f90565b90815f525f60205260405f209060018060a01b031690815f5260205260ff60405f2054165f1461217a57815f525f60205260405f20815f5260205260405f2060ff19815416905533917ff6391f5c32d9c69d2a47ea670b442974b53935d1edc7fd64eb21e047a839171b5f80a4600190565b905f602091828151910182855af11561224c575f513d61224357506001600160a01b0381163b155b6122215750565b604051635274afe760e01b81526001600160a01b039091166004820152602490fd5b6001141561221a565b6040513d5f823e3d90fdfea2646970667358221220bbed80592fe1a103df883c79fc80ff3d8078931224e7c3425a76666a3a29259264736f6c634300081800332f8788117e7eff1d82e926ec794901d17c78024a50270940304540a733656f0dad3228b676f7d3cd4284a5443f17f1962b36e491b30a40b2405849e597ba5fb5",
  "linkReferences": {},
  "deployedLinkReferences": {}
}