{
  "_format": "hh-sol-artifact-1",
  "contractName": "ConsciousnessIdentity",
  "sourceName": "contracts/ConsciousnessIdentity.sol",
  "abi": [
    {
      "inputs": [
        {
          "internalType": "address",
          "name": "_achievementsContract",
          "type": "address"
        }
      ],
      "stateMutability": "nonpayable",
      "type": "constructor"
    },
    {
      "inputs": [],
      "name": "AccessControlBadConfirmation",
      "type": "error"
    },
    {
      "inputs": [
        {
          "internalType": "address",
          "name": "account",
          "type": "address"
        },
        {
          "internalType": "bytes32",
          "name": "neededRole",
          "type": "bytes32"
        }
      ],
      "name": "AccessControlUnauthorizedAccount",
      "type": "error"
    },
    {
      "inputs": [],
      "name": "ECDSAInvalidSignature",
      "type": "error"
    },
    {
      "inputs": [
        {
          "internalType": "uint256",
          "name": "length",
          "type": "uint256"
        }
      ],
      "name": "ECDSAInvalidSignatureLength",
      "type": "error"
    },
    {
      "inputs": [
        {
          "internalType": "bytes32",
          "name": "s",
          "type": "bytes32"
        }
      ],
      "name": "ECDSAInvalidSignatureS",
      "type": "error"
    },
    {
      "inputs": [],
      "name": "EnforcedPause",
      "type": "error"
    },
    {
      "inputs": [],
      "name": "ExpectedPause",
      "type": "error"
    },
    {
      "inputs": [],
      "name": "ReentrancyGuardReentrantCall",
      "type": "error"
    },
    {
      "anonymous": false,
      "inputs": [
        {
          "indexed": true,
          "internalType": "bytes32",
          "name": "attestationId",
          "type": "bytes32"
        },
        {
          "indexed": true,
          "internalType": "address",
          "name": "subject",
          "type": "address"
        },
        {
          "indexed": true,
          "internalType": "address",
          "name": "verifier",
          "type": "address"
        }
      ],
      "name": "AttestationCreated",
      "type": "event"
    },
    {
      "anonymous": false,
      "inputs": [
        {
          "indexed": true,
          "internalType": "address",
          "name": "user",
          "type": "address"
        },
        {
          "indexed": false,
          "internalType": "uint256",
          "name": "newScore",
          "type": "uint256"
        }
      ],
      "name": "ConsciousnessScoreUpdated",
      "type": "event"
    },
    {
      "anonymous": false,
      "inputs": [
        {
          "indexed": true,
          "internalType": "address",
          "name": "user",
          "type": "address"
        },
        {
          "indexed": false,
          "internalType": "enum ConsciousnessIdentity.CredentialType",
          "name": "credType",
          "type": "uint8"
        },
        {
          "indexed": true,
          "internalType": "address",
          "name": "issuer",
          "type": "address"
        }
      ],
      "name": "CredentialIssued",
      "type": "event"
    },
    {
      "anonymous": false,
      "inputs": [
        {
          "indexed": true,
          "internalType": "address",
          "name": "user",
          "type": "address"
        },
        {
          "indexed": true,
          "internalType": "address",
          "name": "viewer",
          "type": "address"
        },
        {
          "indexed": false,
          "internalType": "enum ConsciousnessIdentity.CredentialType",
          "name": "credType",
          "type": "uint8"
        }
      ],
      "name": "CredentialShared",
      "type": "event"
    },
    {
      "anonymous": false,
      "inputs": [
        {
          "indexed": true,
          "internalType": "address",
          "name": "user",
          "type": "address"
        },
        {
          "indexed": false,
          "internalType": "enum ConsciousnessIdentity.CredentialType",
          "name": "credType",
          "type": "uint8"
        },
        {
          "indexed": true,
          "internalType": "address",
          "name": "verifier",
          "type": "address"
        }
      ],
      "name": "CredentialVerified",
      "type": "event"
    },
    {
      "anonymous": false,
      "inputs": [
        {
          "indexed": true,
          "internalType": "address",
          "name": "user",
          "type": "address"
        },
        {
          "indexed": false,
          "internalType": "enum ConsciousnessIdentity.VerificationLevel",
          "name": "level",
          "type": "uint8"
        }
      ],
      "name": "IdentityCreated",
      "type": "event"
    },
    {
      "anonymous": false,
      "inputs": [
        {
          "indexed": true,
          "internalType": "address",
          "name": "user",
          "type": "address"
        },
        {
          "indexed": false,
          "internalType": "enum ConsciousnessIdentity.VerificationLevel",
          "name": "level",
          "type": "uint8"
        }
      ],
      "name": "IdentityUpdated",
      "type": "event"
    },
    {
      "anonymous": false,
      "inputs": [
        {
          "indexed": false,
          "internalType": "address",
          "name": "account",
          "type": "address"
        }
      ],
      "name": "Paused",
      "type": "event"
    },
    {
      "anonymous": false,
      "inputs": [
        {
          "indexed": true,
          "internalType": "address",
          "name": "user",
          "type": "address"
        }
      ],
      "name": "PrivacySettingsUpdated",
      "type": "event"
    },
    {
      "anonymous": false,
      "inputs": [
        {
          "indexed": true,
          "internalType": "bytes32",
          "name": "role",
          "type": "bytes32"
        },
        {
          "indexed": true,
          "internalType": "bytes32",
          "name": "previousAdminRole",
          "type": "bytes32"
        },
        {
          "indexed": true,
          "internalType": "bytes32",
          "name": "newAdminRole",
          "type": "bytes32"
        }
      ],
      "name": "RoleAdminChanged",
      "type": "event"
    },
    {
      "anonymous": false,
      "inputs": [
        {
          "indexed": true,
          "internalType": "bytes32",
          "name": "role",
          "type": "bytes32"
        },
        {
          "indexed": true,
          "internalType": "address",
          "name": "account",
          "type": "address"
        },
        {
          "indexed": true,
          "internalType": "address",
          "name": "sender",
          "type": "address"
        }
      ],
      "name": "RoleGranted",
      "type": "event"
    },
    {
      "anonymous": false,
      "inputs": [
        {
          "indexed": true,
          "internalType": "bytes32",
          "name": "role",
          "type": "bytes32"
        },
        {
          "indexed": true,
          "internalType": "address",
          "name": "account",
          "type": "address"
        },
        {
          "indexed": true,
          "internalType": "address",
          "name": "sender",
          "type": "address"
        }
      ],
      "name": "RoleRevoked",
      "type": "event"
    },
    {
      "anonymous": false,
      "inputs": [
        {
          "indexed": false,
          "internalType": "address",
          "name": "account",
          "type": "address"
        }
      ],
      "name": "Unpaused",
      "type": "event"
    },
    {
      "anonymous": false,
      "inputs": [
        {
          "indexed": true,
          "internalType": "address",
          "name": "user",
          "type": "address"
        },
        {
          "indexed": false,
          "internalType": "enum ConsciousnessIdentity.VerificationLevel",
          "name": "oldLevel",
          "type": "uint8"
        },
        {
          "indexed": false,
          "internalType": "enum ConsciousnessIdentity.VerificationLevel",
          "name": "newLevel",
          "type": "uint8"
        }
      ],
      "name": "VerificationLevelUpgraded",
      "type": "event"
    },
    {
      "inputs": [],
      "name": "CREDENTIAL_ISSUER_ROLE",
      "outputs": [
        {
          "internalType": "bytes32",
          "name": "",
          "type": "bytes32"
        }
      ],
      "stateMutability": "view",
      "type": "function"
    },
    {
      "inputs": [],
      "name": "DEFAULT_ADMIN_ROLE",
      "outputs": [
        {
          "internalType": "bytes32",
          "name": "",
          "type": "bytes32"
        }
      ],
      "stateMutability": "view",
      "type": "function"
    },
    {
      "inputs": [],
      "name": "ENTERPRISE_ADMIN_ROLE",
      "outputs": [
        {
          "internalType": "bytes32",
          "name": "",
          "type": "bytes32"
        }
      ],
      "stateMutability": "view",
      "type": "function"
    },
    {
      "inputs": [],
      "name": "MAX_CONSCIOUSNESS_SCORE",
      "outputs": [
        {
          "internalType": "uint256",
          "name": "",
          "type": "uint256"
        }
      ],
      "stateMutability": "view",
      "type": "function"
    },
    {
      "inputs": [],
      "name": "PRIVACY_GUARDIAN_ROLE",
      "outputs": [
        {
          "internalType": "bytes32",
          "name": "",
          "type": "bytes32"
        }
      ],
      "stateMutability": "view",
      "type": "function"
    },
    {
      "inputs": [],
      "name": "VERIFIER_ROLE",
      "outputs": [
        {
          "internalType": "bytes32",
          "name": "",
          "type": "bytes32"
        }
      ],
      "stateMutability": "view",
      "type": "function"
    },
    {
      "inputs": [],
      "name": "achievementsContract",
      "outputs": [
        {
          "internalType": "contract IConsciousnessAchievements",
          "name": "",
          "type": "address"
        }
      ],
      "stateMutability": "view",
      "type": "function"
    },
    {
      "inputs": [],
      "name": "attestationValidityPeriod",
      "outputs": [
        {
          "internalType": "uint256",
          "name": "",
          "type": "uint256"
        }
      ],
      "stateMutability": "view",
      "type": "function"
    },
    {
      "inputs": [
        {
          "internalType": "bytes32",
          "name": "",
          "type": "bytes32"
        }
      ],
      "name": "attestations",
      "outputs": [
        {
          "internalType": "address",
          "name": "subject",
          "type": "address"
        },
        {
          "internalType": "address",
          "name": "verifier",
          "type": "address"
        },
        {
          "internalType": "enum ConsciousnessIdentity.VerificationLevel",
          "name": "level",
          "type": "uint8"
        },
        {
          "internalType": "string",
          "name": "evidence",
          "type": "string"
        },
        {
          "internalType": "uint256",
          "name": "timestamp",
          "type": "uint256"
        },
        {
          "internalType": "bool",
          "name": "isValid",
          "type": "bool"
        },
        {
          "internalType": "bytes",
          "name": "signature",
          "type": "bytes"
        }
      ],
      "stateMutability": "view",
      "type": "function"
    },
    {
      "inputs": [
        {
          "internalType": "address",
          "name": "viewer",
          "type": "address"
        },
        {
          "internalType": "address",
          "name": "user",
          "type": "address"
        },
        {
          "internalType": "enum ConsciousnessIdentity.CredentialType",
          "name": "credType",
          "type": "uint8"
        }
      ],
      "name": "canViewCredential",
      "outputs": [
        {
          "internalType": "bool",
          "name": "",
          "type": "bool"
        }
      ],
      "stateMutability": "view",
      "type": "function"
    },
    {
      "inputs": [
        {
          "internalType": "address",
          "name": "subject",
          "type": "address"
        },
        {
          "internalType": "enum ConsciousnessIdentity.VerificationLevel",
          "name": "level",
          "type": "uint8"
        },
        {
          "internalType": "string",
          "name": "evidence",
          "type": "string"
        },
        {
          "internalType": "bytes",
          "name": "signature",
          "type": "bytes"
        }
      ],
      "name": "createAttestation",
      "outputs": [
        {
          "internalType": "bytes32",
          "name": "attestationId",
          "type": "bytes32"
        }
      ],
      "stateMutability": "nonpayable",
      "type": "function"
    },
    {
      "inputs": [
        {
          "internalType": "string",
          "name": "publicProfile",
          "type": "string"
        },
        {
          "internalType": "bytes32",
          "name": "privateProfileHash",
          "type": "bytes32"
        },
        {
          "internalType": "bool",
          "name": "isEnterpriseAccount",
          "type": "bool"
        }
      ],
      "name": "createIdentity",
      "outputs": [],
      "stateMutability": "nonpayable",
      "type": "function"
    },
    {
      "inputs": [],
      "name": "credentialValidityPeriod",
      "outputs": [
        {
          "internalType": "uint256",
          "name": "",
          "type": "uint256"
        }
      ],
      "stateMutability": "view",
      "type": "function"
    },
    {
      "inputs": [
        {
          "internalType": "address",
          "name": "user",
          "type": "address"
        },
        {
          "internalType": "enum ConsciousnessIdentity.CredentialType",
          "name": "credType",
          "type": "uint8"
        }
      ],
      "name": "getCredential",
      "outputs": [
        {
          "internalType": "address",
          "name": "issuer",
          "type": "address"
        },
        {
          "internalType": "uint256",
          "name": "score",
          "type": "uint256"
        },
        {
          "internalType": "uint256",
          "name": "issuedAt",
          "type": "uint256"
        },
        {
          "internalType": "uint256",
          "name": "expiresAt",
          "type": "uint256"
        },
        {
          "internalType": "bool",
          "name": "isVerified",
          "type": "bool"
        },
        {
          "internalType": "bool",
          "name": "isActive",
          "type": "bool"
        },
        {
          "internalType": "string",
          "name": "metadataURI",
          "type": "string"
        }
      ],
      "stateMutability": "view",
      "type": "function"
    },
    {
      "inputs": [
        {
          "internalType": "address",
          "name": "user",
          "type": "address"
        }
      ],
      "name": "getIdentity",
      "outputs": [
        {
          "internalType": "enum ConsciousnessIdentity.VerificationLevel",
          "name": "verificationLevel",
          "type": "uint8"
        },
        {
          "internalType": "uint256",
          "name": "consciousnessScore",
          "type": "uint256"
        },
        {
          "internalType": "uint256",
          "name": "lastScoreUpdate",
          "type": "uint256"
        },
        {
          "internalType": "string",
          "name": "publicProfile",
          "type": "string"
        },
        {
          "internalType": "bool",
          "name": "isEnterpriseAccount",
          "type": "bool"
        },
        {
          "internalType": "uint256",
          "name": "createdAt",
          "type": "uint256"
        },
        {
          "internalType": "uint256",
          "name": "lastUpdated",
          "type": "uint256"
        }
      ],
      "stateMutability": "view",
      "type": "function"
    },
    {
      "inputs": [
        {
          "internalType": "bytes32",
          "name": "role",
          "type": "bytes32"
        }
      ],
      "name": "getRoleAdmin",
      "outputs": [
        {
          "internalType": "bytes32",
          "name": "",
          "type": "bytes32"
        }
      ],
      "stateMutability": "view",
      "type": "function"
    },
    {
      "inputs": [
        {
          "internalType": "bytes32",
          "name": "role",
          "type": "bytes32"
        },
        {
          "internalType": "address",
          "name": "account",
          "type": "address"
        }
      ],
      "name": "grantRole",
      "outputs": [],
      "stateMutability": "nonpayable",
      "type": "function"
    },
    {
      "inputs": [
        {
          "internalType": "bytes32",
          "name": "role",
          "type": "bytes32"
        },
        {
          "internalType": "address",
          "name": "account",
          "type": "address"
        }
      ],
      "name": "hasRole",
      "outputs": [
        {
          "internalType": "bool",
          "name": "",
          "type": "bool"
        }
      ],
      "stateMutability": "view",
      "type": "function"
    },
    {
      "inputs": [
        {
          "internalType": "address",
          "name": "",
          "type": "address"
        }
      ],
      "name": "identities",
      "outputs": [
        {
          "internalType": "address",
          "name": "owner",
          "type": "address"
        },
        {
          "internalType": "enum ConsciousnessIdentity.VerificationLevel",
          "name": "verificationLevel",
          "type": "uint8"
        },
        {
          "internalType": "uint256",
          "name": "consciousnessScore",
          "type": "uint256"
        },
        {
          "internalType": "uint256",
          "name": "lastScoreUpdate",
          "type": "uint256"
        },
        {
          "internalType": "string",
          "name": "publicProfile",
          "type": "string"
        },
        {
          "internalType": "bytes32",
          "name": "privateProfileHash",
          "type": "bytes32"
        },
        {
          "internalType": "bool",
          "name": "isEnterpriseAccount",
          "type": "bool"
        },
        {
          "internalType": "uint256",
          "name": "createdAt",
          "type": "uint256"
        },
        {
          "internalType": "uint256",
          "name": "lastUpdated",
          "type": "uint256"
        }
      ],
      "stateMutability": "view",
      "type": "function"
    },
    {
      "inputs": [
        {
          "internalType": "address",
          "name": "user",
          "type": "address"
        },
        {
          "internalType": "enum ConsciousnessIdentity.CredentialType",
          "name": "credType",
          "type": "uint8"
        },
        {
          "internalType": "uint256",
          "name": "score",
          "type": "uint256"
        },
        {
          "internalType": "string",
          "name": "metadataURI",
          "type": "string"
        },
        {
          "internalType": "bytes32",
          "name": "proofHash",
          "type": "bytes32"
        }
      ],
      "name": "issueCredential",
      "outputs": [],
      "stateMutability": "nonpayable",
      "type": "function"
    },
    {
      "inputs": [
        {
          "internalType": "bytes32",
          "name": "",
          "type": "bytes32"
        }
      ],
      "name": "merkleRoots",
      "outputs": [
        {
          "internalType": "bool",
          "name": "",
          "type": "bool"
        }
      ],
      "stateMutability": "view",
      "type": "function"
    },
    {
      "inputs": [
        {
          "internalType": "enum ConsciousnessIdentity.CredentialType",
          "name": "",
          "type": "uint8"
        }
      ],
      "name": "minimumScoresRequired",
      "outputs": [
        {
          "internalType": "uint256",
          "name": "",
          "type": "uint256"
        }
      ],
      "stateMutability": "view",
      "type": "function"
    },
    {
      "inputs": [],
      "name": "pause",
      "outputs": [],
      "stateMutability": "nonpayable",
      "type": "function"
    },
    {
      "inputs": [],
      "name": "paused",
      "outputs": [
        {
          "internalType": "bool",
          "name": "",
          "type": "bool"
        }
      ],
      "stateMutability": "view",
      "type": "function"
    },
    {
      "inputs": [
        {
          "internalType": "address",
          "name": "",
          "type": "address"
        }
      ],
      "name": "privacySettings",
      "outputs": [
        {
          "internalType": "bool",
          "name": "allowPublicProfile",
          "type": "bool"
        },
        {
          "internalType": "bool",
          "name": "allowCredentialSharing",
          "type": "bool"
        },
        {
          "internalType": "bool",
          "name": "allowConsciousnessScoring",
          "type": "bool"
        },
        {
          "internalType": "bool",
          "name": "allowEnterpriseAccess",
          "type": "bool"
        }
      ],
      "stateMutability": "view",
      "type": "function"
    },
    {
      "inputs": [
        {
          "internalType": "bytes32",
          "name": "role",
          "type": "bytes32"
        },
        {
          "internalType": "address",
          "name": "callerConfirmation",
          "type": "address"
        }
      ],
      "name": "renounceRole",
      "outputs": [],
      "stateMutability": "nonpayable",
      "type": "function"
    },
    {
      "inputs": [
        {
          "internalType": "bytes32",
          "name": "role",
          "type": "bytes32"
        },
        {
          "internalType": "address",
          "name": "account",
          "type": "address"
        }
      ],
      "name": "revokeRole",
      "outputs": [],
      "stateMutability": "nonpayable",
      "type": "function"
    },
    {
      "inputs": [
        {
          "internalType": "enum ConsciousnessIdentity.CredentialType",
          "name": "credType",
          "type": "uint8"
        },
        {
          "internalType": "bool",
          "name": "isPublic",
          "type": "bool"
        }
      ],
      "name": "setCredentialVisibility",
      "outputs": [],
      "stateMutability": "nonpayable",
      "type": "function"
    },
    {
      "inputs": [
        {
          "internalType": "address",
          "name": "issuer",
          "type": "address"
        },
        {
          "internalType": "bool",
          "name": "trusted",
          "type": "bool"
        }
      ],
      "name": "setTrustedIssuer",
      "outputs": [],
      "stateMutability": "nonpayable",
      "type": "function"
    },
    {
      "inputs": [
        {
          "internalType": "address",
          "name": "viewer",
          "type": "address"
        },
        {
          "internalType": "enum ConsciousnessIdentity.CredentialType",
          "name": "credType",
          "type": "uint8"
        },
        {
          "internalType": "bool",
          "name": "allowAccess",
          "type": "bool"
        }
      ],
      "name": "shareCredential",
      "outputs": [],
      "stateMutability": "nonpayable",
      "type": "function"
    },
    {
      "inputs": [
        {
          "internalType": "bytes4",
          "name": "interfaceId",
          "type": "bytes4"
        }
      ],
      "name": "supportsInterface",
      "outputs": [
        {
          "internalType": "bool",
          "name": "",
          "type": "bool"
        }
      ],
      "stateMutability": "view",
      "type": "function"
    },
    {
      "inputs": [
        {
          "internalType": "address",
          "name": "",
          "type": "address"
        }
      ],
      "name": "trustedIssuers",
      "outputs": [
        {
          "internalType": "bool",
          "name": "",
          "type": "bool"
        }
      ],
      "stateMutability": "view",
      "type": "function"
    },
    {
      "inputs": [],
      "name": "unpause",
      "outputs": [],
      "stateMutability": "nonpayable",
      "type": "function"
    },
    {
      "inputs": [
        {
          "internalType": "address",
          "name": "user",
          "type": "address"
        },
        {
          "internalType": "uint256",
          "name": "newScore",
          "type": "uint256"
        },
        {
          "internalType": "string",
          "name": "assessmentData",
          "type": "string"
        }
      ],
      "name": "updateConsciousnessScore",
      "outputs": [],
      "stateMutability": "nonpayable",
      "type": "function"
    },
    {
      "inputs": [
        {
          "internalType": "bool",
          "name": "allowPublicProfile",
          "type": "bool"
        },
        {
          "internalType": "bool",
          "name": "allowCredentialSharing",
          "type": "bool"
        },
        {
          "internalType": "bool",
          "name": "allowConsciousnessScoring",
          "type": "bool"
        },
        {
          "internalType": "bool",
          "name": "allowEnterpriseAccess",
          "type": "bool"
        }
      ],
      "name": "updatePrivacySettings",
      "outputs": [],
      "stateMutability": "nonpayable",
      "type": "function"
    },
    {
      "inputs": [
        {
          "internalType": "address",
          "name": "",
          "type": "address"
        }
      ],
      "name": "userMerkleRoots",
      "outputs": [
        {
          "internalType": "bytes32",
          "name": "",
          "type": "bytes32"
        }
      ],
      "stateMutability": "view",
      "type": "function"
    },
    {
      "inputs": [],
      "name": "verificationFee",
      "outputs": [
        {
          "internalType": "uint256",
          "name": "",
          "type": "uint256"
        }
      ],
      "stateMutability": "view",
      "type": "function"
    },
    {
      "inputs": [
        {
          "internalType": "address",
          "name": "",
          "type": "address"
        }
      ],
      "name": "verificationScores",
      "outputs": [
        {
          "internalType": "uint256",
          "name": "",
          "type": "uint256"
        }
      ],
      "stateMutability": "view",
      "type": "function"
    },
    {
      "inputs": [
        {
          "internalType": "bytes32",
          "name": "attestationId",
          "type": "bytes32"
        }
      ],
      "name": "verifyAttestation",
      "outputs": [
        {
          "internalType": "bool",
          "name": "",
          "type": "bool"
        }
      ],
      "stateMutability": "view",
      "type": "function"
    },
    {
      "inputs": [
        {
          "internalType": "address",
          "name": "user",
          "type": "address"
        },
        {
          "internalType": "enum ConsciousnessIdentity.CredentialType",
          "name": "credType",
          "type": "uint8"
        },
        {
          "internalType": "string",
          "name": "evidence",
          "type": "string"
        }
      ],
      "name": "verifyCredential",
      "outputs": [],
      "stateMutability": "nonpayable",
      "type": "function"
    }
  ],
  "bytecode": "0x6080346200014157601f62002a8538819003918201601f191683019291906001600160401b03841183851017620001455781602092849260409687528339810103126200014157516001600160a01b03811690819003620001415760018055678ac7230489e80000600a556301e13380600b556276a700600c55620000843362000159565b506200009033620001c9565b506200009c3362000269565b50620000a83362000303565b50620000b4336200039d565b5060018060a01b031960095416176009555f8052600860205261012c80825f205560015f526101909081835f205560025f5260c8835f205560035f5261015e835f205560045f526101c2835f205560055f52825f205560065f52815f205560075f526101f4815f205560085f52610258815f205560095f526102bc815f20555161260d9081620004388239f35b5f80fd5b634e487b7160e01b5f52604160045260245ffd5b6001600160a01b03165f8181525f8051602062002a65833981519152602052604090205460ff16620001c4575f8181525f8051602062002a6583398151915260205260408120805460ff191660011790553391905f8051602062002a458339815191528180a4600190565b505f90565b6001600160a01b03165f8181527f1da0b5176dfe03406af5a6eed66ca01dda9b45ac4da671c3fa379cb93717ef8160205260409020547f0ce23c3e399818cfee81a7ab0880f714e53d7672b08df0fa62f2843416e1ea09919060ff166200026357815f525f60205260405f20815f5260205260405f20600160ff1982541617905533915f8051602062002a458339815191525f80a4600190565b50505f90565b6001600160a01b03165f8181527ffe759d5e0cc1d5596a40260ede48172dac0c1dba3f4e63d2ef0d3c99859a655360205260409020547f7a5ae009d6a61115ac0993f8e8e8d8ba374961395165c1b6f1f9cefa70d85159919060ff166200026357815f525f60205260405f20815f5260205260405f20600160ff1982541617905533915f8051602062002a458339815191525f80a4600190565b6001600160a01b03165f8181527fe359dae9942552f26c150e77668de60b5da80a7a955b3af91651d8145430ddd160205260409020547f12025c097d56f44d4f9420ea084f47f97cf51e1aecb99577dd0a00e83e3ba75a919060ff166200026357815f525f60205260405f20815f5260205260405f20600160ff1982541617905533915f8051602062002a458339815191525f80a4600190565b6001600160a01b03165f8181527f9e26f83d2a5fac73fdef98fbab7e6a227dde7b84de3b80fae2d8c09bf55782bf60205260409020547f4be6e8a751d29c6c2adb2514581f716b9d8fa441a0d0a8fcd9eeb4024b50f56e919060ff166200026357815f525f60205260405f20815f5260205260405f20600160ff1982541617905533915f8051602062002a458339815191525f80a460019056fe60806040818152600480361015610014575f80fd5b5f9260e05f35811c91826301ffc9a714611c735750816303eca86e14611a5c57816308f4695714611797578163099bb12914611735578163234c119614611630578163248a9ca3146116065781632f2ff15d146115cc5781632fd22bf3146115b05781632fea7b81146114f257816334c51b431461127d57816336568abe1461123857816338fe6d0d146111fe5781633be044fc146111c45781633f4ba83a1461115c57816353c7146614611117578163595bf86d146110f95781635a0eb7611461108c5781635c975abb1461106957816374bd6f0914610cd55781637eb599dc14610c9e57816383c2827414610c805781638456cb5914610c275781638b0e628814610bd457816391d1485414610b9057816392c54daf14610b54578163940992a314610a92578163959d025814610974578163a217fddf1461095a578163a894f9cb14610923578163a8c278a214610905578163b12acabc146108d3578163c2a55e65146108ab578163c4152593146106e6578163c4c1f353146106aa578163d547741f1461066b578163e7705db61461062f578163f2f346df146103ba578163f653b81e146102eb57508063fcc4d98b146102095763fe5a5377146101da575f80fd5b34610205576020366003190112610205578160209360ff92358152600d855220541690519015158152f35b8280fd5b503461020557608036600319011261020557803580151581036102e75761022e611d9a565b610236611d8b565b6064359384151585036102e7573387526003602052858720546102bf9661028892909161026d906001600160a01b03161515611ee7565b338952602052872093849060ff801983541691151516179055565b825463ffffff00191691151560081b61ff00169190911790151560101b62ff0000161791151560181b63ff00000016919091179055565b337f8ee564191af7ebaeea018fc820a33a7914326a241df4e4a925dcf2f69edf89a88280a280f35b5f80fd5b84939150346103b65760203660031901126103b65760ff936020936001600160a01b03939092909182908561031e611cc5565b16815260038752209161039c83549460018501549660028601548451926103538461034c8160038c01611e40565b0385611cf1565b870154988b60058901541695610386600760068b01549a01549a82519e8f9e8f6101209884168152019160a01c16611da9565b8b015260608a01528060808a0152880190611dca565b9460a0870152151560c08601528401526101008301520390f35b8380fd5b8285853461062b57606036600319011261062b5767ffffffffffffffff9083358281116103b6576103ee9036908601611d6d565b936103f7611d8b565b90610400612483565b33855260036020908152838620549094906001600160a01b03166105e85733808752600380875285882080546001600160a81b03191660ff60a01b1990931692909217600160a01b178255600180830189905542600284015589519293918401929182116105d55761047c826104768554611e08565b85611f98565b8790601f831160011461054857508161053196959493926104d6928b9c7f294d9b7c5035e19ed808723fcc013c393ce7bbf5c0a7acbf6d4997a404c2abf09b9c9261053d575b50508160011b915f199060031b1c19161790565b90555b602435828201556104f983600583019060ff801983541691151516179055565b42600682018190556007909101553387528552828620805463ffffffff191691151560181b63ff000000169190911762010001179055565b5191600183523392a280f35b015190508c806104c2565b99601f198316848b52898b209b8b905b8282106105be5750509a600192849261053199989796957f294d9b7c5035e19ed808723fcc013c393ce7bbf5c0a7acbf6d4997a404c2abf09c9d9e106105a6575b505050811b0190556104d9565b01515f1960f88460031b161c191690558b8080610599565b848401518e559c8d019c938b0193908b0190610558565b634e487b7160e01b895260418552602489fd5b835162461bcd60e51b8152808301869052601760248201527f4964656e7469747920616c7265616479206578697374730000000000000000006044820152606490fd5b5080fd5b5050503461062b578160031936011261062b57602090517f0ce23c3e399818cfee81a7ab0880f714e53d7672b08df0fa62f2843416e1ea098152f35b505090346102055780600319360112610205576106a691356106a16001610690611cdb565b938387528660205286200154612158565b612349565b5080f35b5050503461062b578160031936011261062b57602090517f12025c097d56f44d4f9420ea084f47f97cf51e1aecb99577dd0a00e83e3ba75a8152f35b505090346102e75760603660031901126102e757610702611cc5565b602435919067ffffffffffffffff6044358181116102e7576107279036908701611d6d565b5061073061202e565b60018060a01b039485831695865f52600360205261075481865f2054161515611ee7565b6107626103e8871115611f33565b865f528160205260ff855f205460101c161561085e57865f526003602052845f208660018201554260028201556007429101556009541691823b156102e7575f80936044875180968193630695f9b560e31b83528c888401528b60248401525af1801561085457610807575b505050916020916107ff7fe4d84668b4e408a627f283edc4532088940e9fba01cd0b2cd7f3efc7161f9a69946121f5565b51908152a280f35b90918093975011610841575081525f93816107ff7fe4d84668b4e408a627f283edc4532088940e9fba01cd0b2cd7f3efc7161f9a696107ce565b604190634e487b7160e01b5f525260245ffd5b85513d5f823e3d90fd5b845162461bcd60e51b8152602081840152602160248201527f436f6e7363696f75736e6573732073636f72696e67206e6f7420616c6c6f77656044820152601960fa1b6064820152608490fd5b83346102e7575f3660031901126102e75760095490516001600160a01b039091168152602090f35b5050346102e75760203660031901126102e7573590600a8210156102e7576020915f5260088252805f20549051908152f35b83346102e7575f3660031901126102e757602090600a549051908152f35b83346102e75760203660031901126102e7576020906001600160a01b03610948611cc5565b165f5260078252805f20549051908152f35b83346102e7575f3660031901126102e757602090515f8152f35b9050346102e757826003193601126102e75761098e611cc5565b602435600a8110156102e75760018060a01b03916109c88284831692835f5260036020526109c2868a5f2054161515611ee7565b336123bb565b15610a5f576005926109ed610a5b959360ff935f5260036020526008895f2001611ed1565b90815460081c1695600182015497600283015490610a2460038501549385015494610a1d8351809a819301611e40565b0388611cf1565b8051998a998a5260208a015288015260608701528181161515608087015260081c16151560a08501528060c0850152830190611dca565b0390f35b855162461bcd60e51b8152602081870152600d60248201526c1058d8d95cdcc819195b9a5959609a1b6044820152606490fd5b919050346102e75760203660031901126102e75780610a5b91355f5260056020526005845f20610b3a60018060a01b03968783541696610b2c600185015460ff845194610aed86610ae68160028c01611e40565b0387611cf1565b610b128260038a01549b8a01541698610b0b8351809c819301611e40565b038a611cf1565b80519c8d9c8d52831660208d01528b019160a01c16611da9565b806060890152870190611dca565b926080860152151560a085015283820360c0850152611dca565b83346102e75760203660031901126102e7576020906001600160a01b03610b79611cc5565b165f526006825260ff815f20541690519015158152f35b8284346102e757806003193601126102e757602091610bad611cdb565b90355f525f8352815f209060018060a01b03165f52825260ff815f20541690519015158152f35b83346102e757806003193601126102e757610c2590610bf1611cc5565b90610bfa611d9a565b91610c03612102565b60018060a01b03165f5260066020525f209060ff801983541691151516179055565b005b83346102e7575f3660031901126102e75760207f62e78cea01bee320cd4e420270b5ea74000d11b0c9f74754ebdbfc544b05a25891610c64612102565b610c6c612483565b600160ff19600254161760025551338152a1005b83346102e7575f3660031901126102e757602090600b549051908152f35b83346102e75760203660031901126102e7576020906001600160a01b03610cc3611cc5565b165f52600e8252805f20549051908152f35b8284346102e75760803660031901126102e757610cf0611cc5565b90602490813560068110156102e75767ffffffffffffffff926044358481116102e757610d209036908801611d6d565b956064358581116102e757366023820112156102e757610d4890369084818501359101611d27565b610d506120a7565b60018060a01b039788881697885f5260209960038b52875f205416156110275786518a8101916001600160601b03199060601b1682523360601b6034820152610d9c6048820188611ffa565b42604982015260498152608081018181108a82111761101557885251902096875f5260058a52865f206001600160601b0360a01b928a84835416178255610df18860019586850190339082541617815561200a565b80516002830191848211611003578d90610e1583610e0f8654611e08565b86611f98565b81601f8411600114610f9b57509180610e479260059695945f92610f905750508160011b915f199060031b1c19161790565b90555b4260038201558581018460ff1982541617905501928051918211610f7e57610e7682610e0f8654611e08565b8a92601f8311600114610f1b5750610ea3925f9183610f105750508160011b915f199060031b1c19161790565b90555b606483029280840460641490151715610eff575050835f5260078552610ed0825f20918254611f77565b905551913390827f63f86f3e95d67d75fed996a7db68f9e7eabf0600abbd54fccabf34ec3b5fa4a75f80a48152f35b601190634e487b7160e01b5f52525ffd5b015190508b806104c2565b928b9183601f198116875f52845f20945f905b88838310610f645750505010610f4c575b505050811b019055610ea6565b01515f1960f88460031b161c191690558a8080610f3f565b858701518855909601959485019487935090810190610f2e565b85604186634e487b7160e01b5f52525ffd5b015190505f806104c2565b8792601f9695949296198316855f52825f20925f905b828210610fea575050968360059810610fd2575b505050811b019055610e4a565b01515f1960f88460031b161c191690558f8080610fc5565b838a015185558b96909401939283019290810190610fb1565b88604189634e487b7160e01b5f52525ffd5b86604187634e487b7160e01b5f52525ffd5b865162461bcd60e51b81528085018b9052601f818701527f5375626a656374206964656e7469747920646f6573206e6f74206578697374006044820152606490fd5b83346102e7575f3660031901126102e75760209060ff6002541690519015158152f35b5050346102e757816003193601126102e757803591600a8310156102e757610c259260016110e8926110bc611d9a565b94335f5260036020526110da838060a01b03835f2054161515611ee7565b335f526020525f2001611ed1565b9060ff801983541691151516179055565b83346102e7575f3660031901126102e757602090600c549051908152f35b83346102e75760603660031901126102e757611131611cc5565b9061113a611cdb565b91604435600a8110156102e757602093611153926123bb565b90519015158152f35b8284346102e7575f3660031901126102e757611176612102565b6002549160ff8316156111b6577f5db9ee0a495bf2e6ff9c91a7834c1ba4fdd244a5e8aa4e537bd38aeae4b073aa6020838560ff191660025551338152a1005b9051638dfc202b60e01b8152fd5b83346102e7575f3660031901126102e757602090517f7a5ae009d6a61115ac0993f8e8e8d8ba374961395165c1b6f1f9cefa70d851598152f35b83346102e7575f3660031901126102e757602090517f4be6e8a751d29c6c2adb2514581f716b9d8fa441a0d0a8fcd9eeb4024b50f56e8152f35b8284346102e757806003193601126102e757611252611cdb565b90336001600160a01b0383160361126e5750610c259135612349565b5163334bd91960e11b81529050fd5b5050346102e75760603660031901126102e757611298611cc5565b9160249260243593600a90600a8610156102e75760443567ffffffffffffffff81116102e7576112cb9036908701611d6d565b506112d46120a7565b60018060a01b039485841695865f526003916112fb602092848452885f2054161515611ee7565b875f528282526008936113138a60088a5f2001611ed1565b958287019182549260ff9860ff8560081c16156114b757870154421161147f576001809460ff19161790555f975f975f5b8d8d8683106113fa5750505050505050508315801561139d575b89897f117f010ffe680c783fa27415a60c79527786ee73e64c5879702ece9e2936d86c8a61138b8b6121f5565b5180611398339582611fe7565b0390a3005b6113e757505f878152919052849020910460018201554260029091015561138b7f117f010ffe680c783fa27415a60c79527786ee73e64c5879702ece9e2936d86c8680808061135e565b601290634e487b7160e01b5f525260245ffd5b83839161140e935f528c8c525f2001611ed1565b87810154848082169182611473575b505080611466575b611432575b508501611344565b9a86611442929b9c015490611f77565b995f198114611454578501988561142a565b83601188634e487b7160e01b5f52525ffd5b5089810154421115611425565b851c169050845f61141d565b8a5162461bcd60e51b8152808601879052601260248201527110dc9959195b9d1a585b08195e1c1a5c995960721b6044820152606490fd5b8b5162461bcd60e51b8152808701889052601560248201527443726564656e7469616c206e6f742061637469766560581b6044820152606490fd5b8390346102e75760203660031901126102e75760ff916001600160a01b03918261151a611cc5565b165f526003602052815f209061153582549485161515611ee7565b61159a60036001840154926002850154886005870154169660068701549561157260078901549861156b84518098819301611e40565b0386611cf1565b6115848251809c819c60a01c16611da9565b60208a0152880152806060880152860190611dca565b921515608085015260a084015260c08301520390f35b83346102e7575f3660031901126102e757602090516103e88152f35b8284346102e757806003193601126102e757610c25913561160160016115f0611cdb565b93835f525f6020525f200154612158565b612179565b8284346102e75760203660031901126102e757602091355f525f82526001815f2001549051908152f35b5050346102e75760603660031901126102e75761164b611cc5565b9160243591600a8310156102e757611661611d8b565b90335f52600360205260018060a01b039061168282855f2054161515611ee7565b335f528060205260ff845f205460081c16156116f257335f526020526002835f2001941693845f526020526116bd816110e885855f20611ed1565b6116c357005b7fdd30e4a31b2957197408b815496aa92181ca0bc750281621eb2704cc0785d7db905180611398339482611fe7565b606490602085519162461bcd60e51b8352820152601b60248201527f43726564656e7469616c2073686172696e672064697361626c656400000000006044820152fd5b8284346102e75760203660031901126102e7576080916001600160a01b0361175b611cc5565b165f5260205260ff815f205482519282821615158452828260081c1615156020850152828260101c1615159084015260181c1615156060820152f35b5050346102e757602091826003193601126102e75781355f9081526005845281902080546001600160a01b0393919084811615611a195760ff8383015416156119d6576003820154926117ec600c5485611f77565b421161199d5750908491600193876001840154956002850192885193838501956001600160601b03199060601b16865261182f6034860160ff8b60a01c16611ffa565b60355f9382549261183f84611e08565b936001811690811561196f5750600114611922575b50505050926118786118cd98969382846005976118c4999652038084520182611cf1565b5190207f19457468657265756d205369676e6564204d6573736167653a0a3332000000005f52601c526118bf603c5f20916118b889518095819301611e40565b0383611cf1565b6124a1565b909491946124db565b16928391161491826118e3575b50519015158152f35b9091507f0ce23c3e399818cfee81a7ab0880f714e53d7672b08df0fa62f2843416e1ea095f525f8352815f20905f52825260ff815f20541690836118da565b5f9081528681209b9998979695505b8381106119595750979950959650939450919290919083016035019061187883856005611854565b8b548782018401529a81019a8d9a508501611931565b60ff19166035808b019190915285151590950289019094019550611878935086925087915060059050611854565b845162461bcd60e51b81529081018790526013602482015272105d1d195cdd185d1a5bdb88195e1c1a5c9959606a1b6044820152606490fd5b835162461bcd60e51b8152808401879052601860248201527f4174746573746174696f6e206973206e6f742076616c696400000000000000006044820152606490fd5b835162461bcd60e51b8152808401879052601a60248201527f4174746573746174696f6e20646f6573206e6f742065786973740000000000006044820152606490fd5b5050346102e75760a03660031901126102e757611a77611cc5565b9160243592600a8410156102e7576044359267ffffffffffffffff906064358281116102e757611aaa9036908301611d6d565b91611ab361202e565b60018060a01b0380941695865f52611ad760209560038752875f2054161515611ee7565b611ae56103e8821115611f33565b865f5260038552611afb886008885f2001611ed1565b80546001600160a81b03191660ff8a16173360081b610100600160a81b03161781556001808201929092554260028201819055600b54919591611b3d91611f77565b600386015583850161010061ffff19825416179055600585019381519384116108415750611b6f83610e0f8654611e08565b8591601f8411600114611be9575082600395937fad576cf3b403501fbc9bc3c189b51bde76f3401339b1570fb49ab5893089336b98979593611bc5935f92610f105750508160011b915f199060031b1c19161790565b90555b6006608435910155845f5252426007825f2001555180611398339582611fe7565b9190601f198416855f52875f20935f905b828210611c5c575050926001928592600398967fad576cf3b403501fbc9bc3c189b51bde76f3401339b1570fb49ab5893089336b9b9a989610611c45575b505050811b019055611bc8565b01515f1983891b60f8161c191690558a8080611c38565b838501518655948501949389019390890190611bfa565b83346102e75760203660031901126102e757359063ffffffff60e01b82168092036102e757602091637965db0b60e01b8114908115611cb4575b5015158152f35b6301ffc9a760e01b14905083611cad565b600435906001600160a01b03821682036102e757565b602435906001600160a01b03821682036102e757565b90601f8019910116810190811067ffffffffffffffff821117611d1357604052565b634e487b7160e01b5f52604160045260245ffd5b92919267ffffffffffffffff8211611d135760405191611d51601f8201601f191660200184611cf1565b8294818452818301116102e7578281602093845f960137010152565b9080601f830112156102e757816020611d8893359101611d27565b90565b6044359081151582036102e757565b6024359081151582036102e757565b906006821015611db65752565b634e487b7160e01b5f52602160045260245ffd5b91908251928382525f5b848110611df4575050825f602080949584010152601f8019910116010190565b602081830181015184830182015201611dd4565b90600182811c92168015611e36575b6020831014611e2257565b634e487b7160e01b5f52602260045260245ffd5b91607f1691611e17565b80545f9392611e4e82611e08565b918282526020936001916001811690815f14611eb25750600114611e74575b5050505050565b90939495505f92919252835f2092845f945b838610611e9e57505050500101905f80808080611e6d565b805485870183015294019385908201611e86565b60ff19168685015250505090151560051b010191505f80808080611e6d565b90600a811015611db6575f5260205260405f2090565b15611eee57565b60405162461bcd60e51b815260206004820152601760248201527f4964656e7469747920646f6573206e6f742065786973740000000000000000006044820152606490fd5b15611f3a57565b60405162461bcd60e51b815260206004820152601560248201527453636f72652065786365656473206d6178696d756d60581b6044820152606490fd5b91908201809211611f8457565b634e487b7160e01b5f52601160045260245ffd5b601f8211611fa557505050565b5f5260205f20906020601f840160051c83019310611fdd575b601f0160051c01905b818110611fd2575050565b5f8155600101611fc7565b9091508190611fbe565b91906020830192600a821015611db65752565b6006811015611db65760f81b9052565b906006811015611db657815460ff60a01b191660a09190911b60ff60a01b16179055565b335f9081527ffe759d5e0cc1d5596a40260ede48172dac0c1dba3f4e63d2ef0d3c99859a655360205260409020547f7a5ae009d6a61115ac0993f8e8e8d8ba374961395165c1b6f1f9cefa70d851599060ff16156120895750565b6044906040519063e2517d3f60e01b82523360048301526024820152fd5b335f9081527f1da0b5176dfe03406af5a6eed66ca01dda9b45ac4da671c3fa379cb93717ef8160205260409020547f0ce23c3e399818cfee81a7ab0880f714e53d7672b08df0fa62f2843416e1ea099060ff16156120895750565b335f9081527fad3228b676f7d3cd4284a5443f17f1962b36e491b30a40b2405849e597ba5fb5602052604090205460ff161561213a57565b60405163e2517d3f60e01b81523360048201525f6024820152604490fd5b805f525f60205260405f20335f5260205260ff60405f205416156120895750565b90815f525f60205260405f209060018060a01b031690815f5260205260ff60405f205416155f146121ef57815f525f60205260405f20815f5260205260405f20600160ff1982541617905533917f2f8788117e7eff1d82e926ec794901d17c78024a50270940304540a733656f0d5f80a4600190565b50505f90565b60018060a01b0316805f52600360205260405f206001810154600760205260405f205460ff835460a01c169182916103208210158061233d575b156122b3575060059250505b6006811015611db6576006821015611db65780821161225b575b50505050565b6122a9828461228d6040957f3fc5c721e06e298c91d615c5edb32b73b4333a7ded491cfe03f29d2a146abec59761200a565b60074291015561229f84518094611da9565b6020830190611da9565ba25f808080612255565b6102bc82101580612331575b156122d0575060049250505b61223b565b61025882101580612325575b156122ec5750600392505061223b565b6101908210159081612319575b501561230957506002915061223b565b60c8116122cb576001915061223b565b60c8915010155f6122f9565b5061012c8110156122dc565b506101908110156122bf565b506101f481101561222f565b90815f525f60205260405f209060018060a01b031690815f5260205260ff60405f2054165f146121ef57815f525f60205260405f20815f5260205260405f2060ff19815416905533917ff6391f5c32d9c69d2a47ea670b442974b53935d1edc7fd64eb21e047a839171b5f80a4600190565b6001600160a01b03908116911681811461247b575f52600460205260405f209160ff6123ea8260018601611ed1565b541661247b5761240960ff91835f526002850160205260405f20611ed1565b5416612474575f9081527fe359dae9942552f26c150e77668de60b5da80a7a955b3af91651d8145430ddd1602052604090205460ff169081612465575b5061246057600660205260ff60405f205416612460575f90565b600190565b60ff91505460181c165f612446565b5050600190565b505050600190565b60ff6002541661248f57565b60405163d93c066560e01b8152600490fd5b81519190604183036124d1576124ca9250602082015190606060408401519301515f1a9061254a565b9192909190565b50505f9160029190565b6004811015611db657806124ed575050565b600181036125075760405163f645eedf60e01b8152600490fd5b600281036125285760405163fce698f760e01b815260048101839052602490fd5b6003146125325750565b602490604051906335e2f38360e21b82526004820152fd5b91907f7fffffffffffffffffffffffffffffff5d576e7357a4501ddfe92f46681b20a084116125cc579160209360809260ff5f9560405194855216868401526040830152606082015282805260015afa156125c1575f516001600160a01b038116156125b757905f905f90565b505f906001905f90565b6040513d5f823e3d90fd5b5050505f916003919056fea2646970667358221220460b8affbf12f7b52067aef48066dd6d0f3719311203a9cf53f77ceaf5268bec64736f6c634300081800332f8788117e7eff1d82e926ec794901d17c78024a50270940304540a733656f0dad3228b676f7d3cd4284a5443f17f1962b36e491b30a40b2405849e597ba5fb5",
  "linkReferences": {},
  "deployedLinkReferences": {}
}