{
  "_format": "hh-sol-artifact-1",
  "contractName": "PitchforkGovernance",
  "sourceName": "contracts/PitchforkGovernance.sol",
  "abi": [
    {
      "anonymous": false,
      "inputs": [
        {
          "indexed": true,
          "internalType": "uint256",
          "name": "proposalId",
          "type": "uint256"
        },
        {
          "indexed": false,
          "internalType": "string",
          "name": "title",
          "type": "string"
        },
        {
          "indexed": true,
          "internalType": "address",
          "name": "proposer",
          "type": "address"
        },
        {
          "indexed": false,
          "internalType": "uint256",
          "name": "votingStartTime",
          "type": "uint256"
        },
        {
          "indexed": false,
          "internalType": "uint256",
          "name": "votingEndTime",
          "type": "uint256"
        }
      ],
      "name": "ProposalCreated",
      "type": "event"
    },
    {
      "anonymous": false,
      "inputs": [
        {
          "indexed": true,
          "internalType": "uint256",
          "name": "proposalId",
          "type": "uint256"
        },
        {
          "indexed": false,
          "internalType": "enum PitchforkGovernance.ProposalStatus",
          "name": "oldStatus",
          "type": "uint8"
        },
        {
          "indexed": false,
          "internalType": "enum PitchforkGovernance.ProposalStatus",
          "name": "newStatus",
          "type": "uint8"
        }
      ],
      "name": "ProposalStatusChanged",
      "type": "event"
    },
    {
      "anonymous": false,
      "inputs": [
        {
          "indexed": true,
          "internalType": "uint256",
          "name": "proposalId",
          "type": "uint256"
        },
        {
          "indexed": true,
          "internalType": "address",
          "name": "voter",
          "type": "address"
        },
        {
          "indexed": false,
          "internalType": "enum PitchforkGovernance.VoteChoice",
          "name": "choice",
          "type": "uint8"
        },
        {
          "indexed": false,
          "internalType": "uint256",
          "name": "timestamp",
          "type": "uint256"
        }
      ],
      "name": "VoteCast",
      "type": "event"
    },
    {
      "inputs": [],
      "name": "DEFAULT_PASSING_THRESHOLD",
      "outputs": [
        {
          "internalType": "uint256",
          "name": "",
          "type": "uint256"
        }
      ],
      "stateMutability": "view",
      "type": "function"
    },
    {
      "inputs": [],
      "name": "DEFAULT_QUORUM",
      "outputs": [
        {
          "internalType": "uint256",
          "name": "",
          "type": "uint256"
        }
      ],
      "stateMutability": "view",
      "type": "function"
    },
    {
      "inputs": [],
      "name": "MAX_VOTING_PERIOD",
      "outputs": [
        {
          "internalType": "uint256",
          "name": "",
          "type": "uint256"
        }
      ],
      "stateMutability": "view",
      "type": "function"
    },
    {
      "inputs": [],
      "name": "MIN_VOTING_PERIOD",
      "outputs": [
        {
          "internalType": "uint256",
          "name": "",
          "type": "uint256"
        }
      ],
      "stateMutability": "view",
      "type": "function"
    },
    {
      "inputs": [
        {
          "internalType": "uint256",
          "name": "_proposalId",
          "type": "uint256"
        }
      ],
      "name": "cancelProposal",
      "outputs": [],
      "stateMutability": "nonpayable",
      "type": "function"
    },
    {
      "inputs": [
        {
          "internalType": "string",
          "name": "_title",
          "type": "string"
        },
        {
          "internalType": "string",
          "name": "_description",
          "type": "string"
        },
        {
          "internalType": "uint256",
          "name": "_votingDuration",
          "type": "uint256"
        },
        {
          "internalType": "uint256",
          "name": "_quorumRequired",
          "type": "uint256"
        },
        {
          "internalType": "uint256",
          "name": "_passingThreshold",
          "type": "uint256"
        }
      ],
      "name": "createProposal",
      "outputs": [
        {
          "internalType": "uint256",
          "name": "",
          "type": "uint256"
        }
      ],
      "stateMutability": "nonpayable",
      "type": "function"
    },
    {
      "inputs": [
        {
          "internalType": "uint256",
          "name": "_proposalId",
          "type": "uint256"
        }
      ],
      "name": "finalizeProposal",
      "outputs": [],
      "stateMutability": "nonpayable",
      "type": "function"
    },
    {
      "inputs": [
        {
          "internalType": "uint256",
          "name": "_proposalId",
          "type": "uint256"
        }
      ],
      "name": "getProposal",
      "outputs": [
        {
          "internalType": "string",
          "name": "title",
          "type": "string"
        },
        {
          "internalType": "string",
          "name": "description",
          "type": "string"
        },
        {
          "internalType": "address",
          "name": "proposer",
          "type": "address"
        },
        {
          "internalType": "uint256",
          "name": "votingStartTime",
          "type": "uint256"
        },
        {
          "internalType": "uint256",
          "name": "votingEndTime",
          "type": "uint256"
        },
        {
          "internalType": "uint256",
          "name": "yesVotes",
          "type": "uint256"
        },
        {
          "internalType": "uint256",
          "name": "noVotes",
          "type": "uint256"
        },
        {
          "internalType": "uint256",
          "name": "abstainVotes",
          "type": "uint256"
        },
        {
          "internalType": "uint256",
          "name": "totalVotes",
          "type": "uint256"
        },
        {
          "internalType": "enum PitchforkGovernance.ProposalStatus",
          "name": "status",
          "type": "uint8"
        }
      ],
      "stateMutability": "view",
      "type": "function"
    },
    {
      "inputs": [],
      "name": "getTotalProposals",
      "outputs": [
        {
          "internalType": "uint256",
          "name": "",
          "type": "uint256"
        }
      ],
      "stateMutability": "view",
      "type": "function"
    },
    {
      "inputs": [
        {
          "internalType": "uint256",
          "name": "_proposalId",
          "type": "uint256"
        },
        {
          "internalType": "address",
          "name": "_voter",
          "type": "address"
        }
      ],
      "name": "getVote",
      "outputs": [
        {
          "internalType": "bool",
          "name": "hasVoted",
          "type": "bool"
        },
        {
          "internalType": "enum PitchforkGovernance.VoteChoice",
          "name": "choice",
          "type": "uint8"
        }
      ],
      "stateMutability": "view",
      "type": "function"
    },
    {
      "inputs": [
        {
          "internalType": "uint256",
          "name": "_proposalId",
          "type": "uint256"
        }
      ],
      "name": "getVoters",
      "outputs": [
        {
          "internalType": "address[]",
          "name": "",
          "type": "address[]"
        }
      ],
      "stateMutability": "view",
      "type": "function"
    },
    {
      "inputs": [
        {
          "internalType": "uint256",
          "name": "_proposalId",
          "type": "uint256"
        }
      ],
      "name": "getVotingHistory",
      "outputs": [
        {
          "components": [
            {
              "internalType": "address",
              "name": "voter",
              "type": "address"
            },
            {
              "internalType": "enum PitchforkGovernance.VoteChoice",
              "name": "choice",
              "type": "uint8"
            },
            {
              "internalType": "uint256",
              "name": "timestamp",
              "type": "uint256"
            },
            {
              "internalType": "string",
              "name": "reason",
              "type": "string"
            }
          ],
          "internalType": "struct PitchforkGovernance.Vote[]",
          "name": "",
          "type": "tuple[]"
        }
      ],
      "stateMutability": "view",
      "type": "function"
    },
    {
      "inputs": [
        {
          "internalType": "uint256",
          "name": "_proposalId",
          "type": "uint256"
        }
      ],
      "name": "isVotingActive",
      "outputs": [
        {
          "internalType": "bool",
          "name": "",
          "type": "bool"
        }
      ],
      "stateMutability": "view",
      "type": "function"
    },
    {
      "inputs": [],
      "name": "proposalCounter",
      "outputs": [
        {
          "internalType": "uint256",
          "name": "",
          "type": "uint256"
        }
      ],
      "stateMutability": "view",
      "type": "function"
    },
    {
      "inputs": [
        {
          "internalType": "uint256",
          "name": "",
          "type": "uint256"
        },
        {
          "internalType": "uint256",
          "name": "",
          "type": "uint256"
        }
      ],
      "name": "proposalVotes",
      "outputs": [
        {
          "internalType": "address",
          "name": "voter",
          "type": "address"
        },
        {
          "internalType": "enum PitchforkGovernance.VoteChoice",
          "name": "choice",
          "type": "uint8"
        },
        {
          "internalType": "uint256",
          "name": "timestamp",
          "type": "uint256"
        },
        {
          "internalType": "string",
          "name": "reason",
          "type": "string"
        }
      ],
      "stateMutability": "view",
      "type": "function"
    },
    {
      "inputs": [
        {
          "internalType": "uint256",
          "name": "",
          "type": "uint256"
        }
      ],
      "name": "proposals",
      "outputs": [
        {
          "internalType": "uint256",
          "name": "id",
          "type": "uint256"
        },
        {
          "internalType": "string",
          "name": "title",
          "type": "string"
        },
        {
          "internalType": "string",
          "name": "description",
          "type": "string"
        },
        {
          "internalType": "address",
          "name": "proposer",
          "type": "address"
        },
        {
          "internalType": "uint256",
          "name": "votingStartTime",
          "type": "uint256"
        },
        {
          "internalType": "uint256",
          "name": "votingEndTime",
          "type": "uint256"
        },
        {
          "internalType": "uint256",
          "name": "yesVotes",
          "type": "uint256"
        },
        {
          "internalType": "uint256",
          "name": "noVotes",
          "type": "uint256"
        },
        {
          "internalType": "uint256",
          "name": "abstainVotes",
          "type": "uint256"
        },
        {
          "internalType": "uint256",
          "name": "totalVotes",
          "type": "uint256"
        },
        {
          "internalType": "uint256",
          "name": "quorumRequired",
          "type": "uint256"
        },
        {
          "internalType": "uint256",
          "name": "passingThreshold",
          "type": "uint256"
        },
        {
          "internalType": "enum PitchforkGovernance.ProposalStatus",
          "name": "status",
          "type": "uint8"
        }
      ],
      "stateMutability": "view",
      "type": "function"
    },
    {
      "inputs": [
        {
          "internalType": "uint256",
          "name": "_proposalId",
          "type": "uint256"
        },
        {
          "internalType": "enum PitchforkGovernance.VoteChoice",
          "name": "_choice",
          "type": "uint8"
        },
        {
          "internalType": "string",
          "name": "_reason",
          "type": "string"
        }
      ],
      "name": "vote",
      "outputs": [],
      "stateMutability": "nonpayable",
      "type": "function"
    }
  ],
  "bytecode": "0x608080604052346100165761157c908161001b8239f35b5f80fdfe60806040526004361015610011575f80fd5b5f3560e01c8063013cf08b146112075780630c0512e91461115f5780630d68eb9e1461117c5780631a5007dd1461115f578063215809ca1461114257806329192f5914610fe857806333423c0614610b3c5780635652077c146109a557806367a413751461098a578063772744b51461091e57806386b646f21461086a5780639a341b9f1461084f578063a64e024a14610832578063bc3f931f146107c8578063c7f758a8146106fb578063e0a8f6f51461058d5763f391aa54146100d4575f80fd5b346105895760603660031901126105895760043560249081359160038310156105895767ffffffffffffffff9060443582811161058957610119903690600401611491565b90835f526020925f845260ff600c60405f20015416916005831015610576576101456001809414611501565b855f525f8552600460405f200154421061053a57855f525f8552600560405f20015442116104f757855f525f8552600d60405f2001335f52855260ff60405f2054166104a457855f525f855260405f20335f52600d8101865260405f2060ff19908582825416179055600e8201875260405f209081541660ff8a16179055600f81019081546801000000000000000092838210156104915786820180825582101561047e575f52875f2001906bffffffffffffffffffffffff60a01b9133838254161790556009810161021881546114f3565b9055896104565760060161022c81546114f3565b90555b875f5284875260405f2090604051926102478461132c565b338452888401906102588c836114e7565b604085019342855260608601998a528054918210156104435790610280918982018155611457565b949094610431575184549283166001600160a01b039190911690811785559051600381101561041e579060029493929160ff60a01b9060a01b16916affffffffffffffffffffff60a81b1617178255518582015501935190815192831161040b57506102ec84546112f4565b601f81116103c5575b508490601f8311600114610366579282939183925f9461035b575b50501b915f199060031b1c19161790555b61032e6040518094611484565b42908301527fb83d25c6a5d258561330739951487acb4bd09ba5190b5d32c4f261817d90679260403393a3005b015192505f80610310565b90601f19831691855f5283875f20935f5b89888383106103ae5750505010610396575b505050811b019055610321565b01515f1960f88460031b161c191690555f8080610389565b868601518855909601959485019487935001610377565b845f52855f20601f840160051c810191878510610401575b601f0160051c019084905b8281106103f65750506102f5565b5f81550184906103e8565b90915081906103dd565b634e487b7160e01b5f9081526041600452fd5b85634e487b7160e01b5f5260216004525ffd5b85634e487b7160e01b5f525f6004525ffd5b86634e487b7160e01b5f5260416004525ffd5b8986036104715760070161046a81546114f3565b905561022f565b60080161046a81546114f3565b84634e487b7160e01b5f5260326004525ffd5b84634e487b7160e01b5f5260416004525ffd5b8460276084926040519262461bcd60e51b845260048401528201527f596f75206861766520616c726561647920766f746564206f6e207468697320706044820152661c9bdc1bdcd85b60ca1b6064820152fd5b8460176064926040519262461bcd60e51b845260048401528201527f566f74696e6720706572696f642068617320656e6465640000000000000000006044820152fd5b8460166064926040519262461bcd60e51b8452600484015282015275159bdd1a5b99c81a185cc81b9bdd081cdd185c9d195960521b6044820152fd5b634e487b7160e01b5f9081526021600452fd5b5f80fd5b3461058957602080600319360112610589576004355f81815280835260409020600301549091906001600160a01b031633036106a957815f525f8152600460405f20015442101561066557815f525f815260ff600c60405f2001541660058110156106515760ff60037fb0978968e606225988b6464f99ce7e86b0e8770d80eaec1369bb3780e05c643893610626600160409514611501565b855f525f815261064b600c855f2001805490848619831617905585519485911661144a565b820152a2005b634e487b7160e01b5f52602160045260245ffd5b6064906040519062461bcd60e51b82526004820152601a60248201527f566f74696e672068617320616c726561647920737461727465640000000000006044820152fd5b6084906040519062461bcd60e51b82526004820152602560248201527f4f6e6c792070726f706f7365722063616e20706572666f726d2074686973206160448201526431ba34b7b760d91b6064820152fd5b34610589576020366003190112610589576004355f525f60205261078660405f2060018060a01b036003820154166107c482600481015460058201546006830154600784015490600885015492600986015494610794610771600261076a600160ff600c8d0154169b0161136a565b9c0161136a565b6040519c8d9c8d61014090818152019061140c565b8c810360208e01529061140c565b9860408b015260608a0152608089015260a088015260c087015260e086015261010085015261012084019061144a565b0390f35b34610589576040366003190112610589576024356001600160a01b03811690819003610589576040906004355f525f602052815f20905f52600d8101602052600e60ff835f205416910160205261083060ff835f205416835192151583526020830190611484565bf35b34610589575f36600319011261058957602060405162278d008152f35b34610589575f366003190112610589576020604051600a8152f35b3461058957602080600319360112610589576004355f525f8152600f60405f2001604051908183825491828152019081925f52845f20905f5b868282106109015786866108b982880383611348565b60405192839281840190828552518091526040840192915f5b8281106108e157505050500390f35b83516001600160a01b0316855286955093810193928101926001016108d2565b83546001600160a01b0316855290930192600192830192016108a3565b34610589576020366003190112610589576004355f525f60205260405f2060ff600c8201541690600582101561065157600160209214908161097b575b8161096c575b506040519015158152f35b60059150015442111582610961565b6004810154421015915061095b565b34610589575f366003190112610589576020604051603c8152f35b3461058957602036600319011261058957600435805f525f60205260405f20600c8101805460ff8116926005841015610651576109e460018514611501565b6005810154421115610af757600981015490600a81015482105f14610a56575050507fb0978968e606225988b6464f99ce7e86b0e8770d80eaec1369bb3780e05c643891610a5360ff604093600382198254161781555b5416610a498451809461144a565b602083019061144a565ba2005b600681959395015493606485029480860460641490151715610ae3578215610acf577fb0978968e606225988b6464f99ce7e86b0e8770d80eaec1369bb3780e05c643895604095610a5394600b60ff950154910410155f14610ac2575060028219825416178155610a3b565b8219166003178155610a3b565b634e487b7160e01b5f52601260045260245ffd5b634e487b7160e01b5f52601160045260245ffd5b60405162461bcd60e51b815260206004820152601b60248201527f566f74696e6720706572696f6420686173206e6f7420656e64656400000000006044820152606490fd5b346105895760a03660031901126105895760043567ffffffffffffffff811161058957610b6d903690600401611491565b60243567ffffffffffffffff811161058957610b8d903690600401611491565b90805115610fab57815115610f66576201518060443510610f215762278d0060443511610ee357600254610bc0816114f3565b600255805f525f60205260405f2091818355805167ffffffffffffffff8111610e1757610bf060018501546112f4565b601f8111610e9f575b50806020601f8211600114610e36575f91610e2b575b508160011b915f199060031b1c19161760018401555b835167ffffffffffffffff8111610e1757610c4360028501546112f4565b601f8111610dd3575b50602094601f8211600114610d6b579481929394955f92610d60575b50508160011b915f199060031b1c19161760028401555b60038301336bffffffffffffffffffffffff60a01b825416179055426004840155604435420190814211610ae3577f331b791e5a0526c6d6f17a46c1d4139542c8579c245d9f8082d0b1462942f4fa8391600c8685600560209901555f60068201555f60078201555f60088201555f600982015560643515155f14610d59576064355b600a82015560843515610d52576084355b600b82015501600160ff19825416179055610d396040519160608352606083019061140c565b93428783015260408201528033940390a3604051908152f35b603c610d13565b600a610d02565b015190508580610c68565b601f19821695600286015f5260205f20915f5b888110610dbb57508360019596979810610da3575b505050811b016002840155610c7f565b01515f1960f88460031b161c19169055858080610d93565b91926020600181928685015181550194019201610d7e565b600285015f5260205f20601f830160051c810160208410610e10575b601f830160051c82018110610e05575050610c4c565b5f8155600101610def565b5080610def565b634e487b7160e01b5f52604160045260245ffd5b905082015186610c0f565b9150600185015f5260205f205f925b601f1983168410610e87576001935082601f19811610610e6f575b5050811b016001840155610c25565b8401515f1960f88460031b161c191690558680610e60565b84810151825560209384019360019092019101610e45565b600185015f5260205f20601f830160051c810160208410610edc575b601f830160051c82018110610ed1575050610bf9565b5f8155600101610ebb565b5080610ebb565b60405162461bcd60e51b8152602060048201526016602482015275566f74696e6720706572696f6420746f6f206c6f6e6760501b6044820152606490fd5b60405162461bcd60e51b815260206004820152601760248201527f566f74696e6720706572696f6420746f6f2073686f72740000000000000000006044820152606490fd5b60405162461bcd60e51b815260206004820152601b60248201527f4465736372697074696f6e2063616e6e6f7420626520656d70747900000000006044820152606490fd5b60405162461bcd60e51b81526020600482015260156024820152745469746c652063616e6e6f7420626520656d70747960581b6044820152606490fd5b3461058957602080600319360112610589576004355f526001906001815260405f20805467ffffffffffffffff8111610e1757838360405192611030828260051b0185611348565b80845281840180955f52825f205f915b8383106110de5750505050604051928184019082855251809152604084019160408260051b86010195925f905b83821061107a5786880387f35b909192939483806110cd839a603f198b820301865289519060809060018060a01b0383511681526110b18584015186830190611484565b604083015160408201528160608094015193820152019061140c565b99970195949391909101910161106d565b946003858299976040999799516110f48161132c565b85546001600160a01b03811682526111149060a01c60ff168483016114e7565b8486015460408201526111296002870161136a565b6060820152815201920192019190969496959395611040565b34610589575f366003190112610589576020604051620151808152f35b34610589575f366003190112610589576020600254604051908152f35b34610589576040366003190112610589576024356004355f52600160205260405f208054821015610589576111f1916111b491611457565b506107c48154916111cc60026001830154920161136a565b6040516001600160a01b0385168152948594919291602086019060a01c60ff16611484565b604084015260806060840152608083019061140c565b34610589576020366003190112610589576004355f525f60205260405f208054600182016112349061136a565b916112416002820161136a565b600160a01b60019003600383015416916004810154600582015460068301546007840154600885015491600986015493600a87015495600b88015497600c015460ff16986040519c8d809d6101a09182918152602001528d016112a39161140c565b8c810360408e01526112b49161140c565b9960608c015260808b015260a08a015260c089015260e088015261010087015261012086015261014085015261016084015261018083016107c49161144a565b90600182811c92168015611322575b602083101461130e57565b634e487b7160e01b5f52602260045260245ffd5b91607f1691611303565b6080810190811067ffffffffffffffff821117610e1757604052565b90601f8019910116810190811067ffffffffffffffff821117610e1757604052565b9060405191825f825461137c816112f4565b908184526020946001916001811690815f146113ea57506001146113ac575b5050506113aa92500383611348565b565b5f90815285812095935091905b8183106113d25750506113aa93508201015f808061139b565b855488840185015294850194879450918301916113b9565b925050506113aa94925060ff191682840152151560051b8201015f808061139b565b91908251928382525f5b848110611436575050825f602080949584010152601f8019910116010190565b602081830181015184830182015201611416565b9060058210156106515752565b8054821015611470575f52600360205f20910201905f90565b634e487b7160e01b5f52603260045260245ffd5b9060038210156106515752565b81601f820112156105895780359067ffffffffffffffff8211610e1757604051926114c6601f8401601f191660200185611348565b8284526020838301011161058957815f926020809301838601378301015290565b60038210156106515752565b5f198114610ae35760010190565b1561150857565b60405162461bcd60e51b815260206004820152601660248201527550726f706f73616c206973206e6f742061637469766560501b6044820152606490fdfea2646970667358221220b1e8c75f5ce0a9a6350a657d19658f5906c135f0bd67c384580a62c2166485ac64736f6c63430008180033",
  "linkReferences": {},
  "deployedLinkReferences": {}
}